{
  "contractName": "AbiEncoder",
  "abi": [
    {
      "constant": true,
      "inputs": [
        {
          "internalType": "address",
          "name": "_contract",
          "type": "address"
        },
        {
          "internalType": "bytes[]",
          "name": "_methods",
          "type": "bytes[]"
        }
      ],
      "name": "encodeWhiteList",
      "outputs": [
        {
          "internalType": "bytes",
          "name": "",
          "type": "bytes"
        }
      ],
      "payable": false,
      "stateMutability": "pure",
      "type": "function"
    }
  ],
  "bytecode": "0x608060405234801561001057600080fd5b506103d3806100206000396000f3fe608060405234801561001057600080fd5b506004361061002b5760003560e01c806379c2365314610030575b600080fd5b61004361003e36600461014c565b610059565b604051610050919061028e565b60405180910390f35b6060828260405160200161006e929190610266565b60405160208183030381529060405290505b92915050565b803561008081610379565b600082601f8301126100a257600080fd5b81356100b56100b0826102c6565b61029f565b81815260209384019390925082018360005b838110156100f357813586016100dd88826100fd565b84525060209283019291909101906001016100c7565b5050505092915050565b600082601f83011261010e57600080fd5b813561011c6100b0826102e7565b9150808252602083016020830185838301111561013857600080fd5b610143838284610333565b50505092915050565b6000806040838503121561015f57600080fd5b600061016b8585610086565b925050602083013567ffffffffffffffff81111561018857600080fd5b61019485828601610091565b9150509250929050565b60006101aa838361022e565b9392505050565b6101ba81610322565b82525050565b60006101cb82610315565b6101d58185610319565b9350836020820285016101e78561030f565b8060005b858110156102215784840389528151610204858261019e565b945061020f8361030f565b60209a909a01999250506001016101eb565b5091979650505050505050565b600061023982610315565b6102438185610319565b935061025381856020860161033f565b61025c8161036f565b9093019392505050565b6040810161027482856101b1565b818103602083015261028681846101c0565b949350505050565b602080825281016101aa818461022e565b60405181810167ffffffffffffffff811182821017156102be57600080fd5b604052919050565b600067ffffffffffffffff8211156102dd57600080fd5b5060209081020190565b600067ffffffffffffffff8211156102fe57600080fd5b506020601f91909101601f19160190565b60200190565b5190565b90815260200190565b60006001600160a01b038216610080565b82818337506000910152565b60005b8381101561035a578181015183820152602001610342565b83811115610369576000848401525b50505050565b601f01601f191690565b61038281610322565b811461038d57600080fd5b5056fea365627a7a72315820c78d79f41160ed51dc1876b1c6979b93232cc6419094cd80bef0f996a105d3116c6578706572696d656e74616cf564736f6c63430005100040",
  "source": "pragma solidity ^0.5.0;\npragma experimental ABIEncoderV2;\n\ncontract AbiEncoder {\n    function encodeWhiteList(address _contract, bytes[] memory _methods) public pure returns(bytes memory) {\n        return abi.encode(_contract,_methods);\n    }\n}",
  "sourcePath": "/Users/user/Desktop/hashport/eth-contracts/contracts/libs/utils/Encoder.sol",
  "compiler": {
    "name": "solc",
    "version": "0.5.16+commit.9c3226ce.Emscripten.clang"
  },
  "schemaVersion": "3.4.5",
  "updatedAt": "2022-03-02T01:41:58.703Z",
  "networkType": "ethereum",
  "devdoc": {
    "methods": {}
  },
  "userdoc": {
    "methods": {}
  }
}