{
  "contractName": "BTCX",
  "abi": [
    {
      "inputs": [
        {
          "internalType": "bytes",
          "name": "_redeemScript",
          "type": "bytes"
        }
      ],
      "payable": false,
      "stateMutability": "nonpayable",
      "type": "constructor"
    },
    {
      "anonymous": false,
      "inputs": [
        {
          "indexed": true,
          "internalType": "address",
          "name": "owner",
          "type": "address"
        },
        {
          "indexed": true,
          "internalType": "address",
          "name": "spender",
          "type": "address"
        },
        {
          "indexed": false,
          "internalType": "uint256",
          "name": "value",
          "type": "uint256"
        }
      ],
      "name": "Approval",
      "type": "event"
    },
    {
      "anonymous": false,
      "inputs": [
        {
          "indexed": false,
          "internalType": "uint64",
          "name": "chainId",
          "type": "uint64"
        },
        {
          "indexed": false,
          "internalType": "bytes",
          "name": "contractAddr",
          "type": "bytes"
        }
      ],
      "name": "BindAssetHash",
      "type": "event"
    },
    {
      "anonymous": false,
      "inputs": [
        {
          "indexed": false,
          "internalType": "address",
          "name": "fromAssetHash",
          "type": "address"
        },
        {
          "indexed": false,
          "internalType": "address",
          "name": "fromAddress",
          "type": "address"
        },
        {
          "indexed": false,
          "internalType": "uint64",
          "name": "toChainId",
          "type": "uint64"
        },
        {
          "indexed": false,
          "internalType": "bytes",
          "name": "toAssetHash",
          "type": "bytes"
        },
        {
          "indexed": false,
          "internalType": "bytes",
          "name": "toAddress",
          "type": "bytes"
        },
        {
          "indexed": false,
          "internalType": "uint64",
          "name": "amount",
          "type": "uint64"
        }
      ],
      "name": "LockEvent",
      "type": "event"
    },
    {
      "anonymous": false,
      "inputs": [
        {
          "indexed": false,
          "internalType": "address",
          "name": "managerContract",
          "type": "address"
        }
      ],
      "name": "SetManagerProxyEvent",
      "type": "event"
    },
    {
      "anonymous": false,
      "inputs": [
        {
          "indexed": true,
          "internalType": "address",
          "name": "from",
          "type": "address"
        },
        {
          "indexed": true,
          "internalType": "address",
          "name": "to",
          "type": "address"
        },
        {
          "indexed": false,
          "internalType": "uint256",
          "name": "value",
          "type": "uint256"
        }
      ],
      "name": "Transfer",
      "type": "event"
    },
    {
      "anonymous": false,
      "inputs": [
        {
          "indexed": false,
          "internalType": "address",
          "name": "toAssetHash",
          "type": "address"
        },
        {
          "indexed": false,
          "internalType": "address",
          "name": "toAddress",
          "type": "address"
        },
        {
          "indexed": false,
          "internalType": "uint64",
          "name": "amount",
          "type": "uint64"
        }
      ],
      "name": "UnlockEvent",
      "type": "event"
    },
    {
      "constant": true,
      "inputs": [
        {
          "internalType": "address",
          "name": "owner",
          "type": "address"
        },
        {
          "internalType": "address",
          "name": "spender",
          "type": "address"
        }
      ],
      "name": "allowance",
      "outputs": [
        {
          "internalType": "uint256",
          "name": "",
          "type": "uint256"
        }
      ],
      "payable": false,
      "stateMutability": "view",
      "type": "function"
    },
    {
      "constant": false,
      "inputs": [
        {
          "internalType": "address",
          "name": "spender",
          "type": "address"
        },
        {
          "internalType": "uint256",
          "name": "amount",
          "type": "uint256"
        }
      ],
      "name": "approve",
      "outputs": [
        {
          "internalType": "bool",
          "name": "",
          "type": "bool"
        }
      ],
      "payable": false,
      "stateMutability": "nonpayable",
      "type": "function"
    },
    {
      "constant": true,
      "inputs": [
        {
          "internalType": "address",
          "name": "account",
          "type": "address"
        }
      ],
      "name": "balanceOf",
      "outputs": [
        {
          "internalType": "uint256",
          "name": "",
          "type": "uint256"
        }
      ],
      "payable": false,
      "stateMutability": "view",
      "type": "function"
    },
    {
      "constant": false,
      "inputs": [
        {
          "internalType": "uint64",
          "name": "chainId",
          "type": "uint64"
        },
        {
          "internalType": "bytes",
          "name": "contractAddr",
          "type": "bytes"
        }
      ],
      "name": "bindAssetHash",
      "outputs": [],
      "payable": false,
      "stateMutability": "nonpayable",
      "type": "function"
    },
    {
      "constant": true,
      "inputs": [
        {
          "internalType": "uint64",
          "name": "",
          "type": "uint64"
        }
      ],
      "name": "bondAssetHashes",
      "outputs": [
        {
          "internalType": "bytes",
          "name": "",
          "type": "bytes"
        }
      ],
      "payable": false,
      "stateMutability": "view",
      "type": "function"
    },
    {
      "constant": false,
      "inputs": [
        {
          "internalType": "uint256",
          "name": "amount",
          "type": "uint256"
        }
      ],
      "name": "burn",
      "outputs": [
        {
          "internalType": "bool",
          "name": "",
          "type": "bool"
        }
      ],
      "payable": false,
      "stateMutability": "nonpayable",
      "type": "function"
    },
    {
      "constant": true,
      "inputs": [],
      "name": "decimals",
      "outputs": [
        {
          "internalType": "uint8",
          "name": "",
          "type": "uint8"
        }
      ],
      "payable": false,
      "stateMutability": "view",
      "type": "function"
    },
    {
      "constant": false,
      "inputs": [
        {
          "internalType": "address",
          "name": "spender",
          "type": "address"
        },
        {
          "internalType": "uint256",
          "name": "subtractedValue",
          "type": "uint256"
        }
      ],
      "name": "decreaseAllowance",
      "outputs": [
        {
          "internalType": "bool",
          "name": "",
          "type": "bool"
        }
      ],
      "payable": false,
      "stateMutability": "nonpayable",
      "type": "function"
    },
    {
      "constant": false,
      "inputs": [
        {
          "internalType": "address",
          "name": "spender",
          "type": "address"
        },
        {
          "internalType": "uint256",
          "name": "addedValue",
          "type": "uint256"
        }
      ],
      "name": "increaseAllowance",
      "outputs": [
        {
          "internalType": "bool",
          "name": "",
          "type": "bool"
        }
      ],
      "payable": false,
      "stateMutability": "nonpayable",
      "type": "function"
    },
    {
      "constant": true,
      "inputs": [],
      "name": "managerProxyContract",
      "outputs": [
        {
          "internalType": "address",
          "name": "",
          "type": "address"
        }
      ],
      "payable": false,
      "stateMutability": "view",
      "type": "function"
    },
    {
      "constant": true,
      "inputs": [],
      "name": "minimumLimit",
      "outputs": [
        {
          "internalType": "uint64",
          "name": "",
          "type": "uint64"
        }
      ],
      "payable": false,
      "stateMutability": "view",
      "type": "function"
    },
    {
      "constant": false,
      "inputs": [
        {
          "internalType": "address",
          "name": "account",
          "type": "address"
        },
        {
          "internalType": "uint256",
          "name": "amount",
          "type": "uint256"
        }
      ],
      "name": "mint",
      "outputs": [
        {
          "internalType": "bool",
          "name": "",
          "type": "bool"
        }
      ],
      "payable": false,
      "stateMutability": "nonpayable",
      "type": "function"
    },
    {
      "constant": true,
      "inputs": [],
      "name": "name",
      "outputs": [
        {
          "internalType": "string",
          "name": "",
          "type": "string"
        }
      ],
      "payable": false,
      "stateMutability": "view",
      "type": "function"
    },
    {
      "constant": true,
      "inputs": [],
      "name": "operator",
      "outputs": [
        {
          "internalType": "address",
          "name": "",
          "type": "address"
        }
      ],
      "payable": false,
      "stateMutability": "view",
      "type": "function"
    },
    {
      "constant": true,
      "inputs": [],
      "name": "redeemScript",
      "outputs": [
        {
          "internalType": "bytes",
          "name": "",
          "type": "bytes"
        }
      ],
      "payable": false,
      "stateMutability": "view",
      "type": "function"
    },
    {
      "constant": false,
      "inputs": [
        {
          "internalType": "address",
          "name": "ethCrossChainManagerProxyAddr",
          "type": "address"
        }
      ],
      "name": "setManagerProxy",
      "outputs": [],
      "payable": false,
      "stateMutability": "nonpayable",
      "type": "function"
    },
    {
      "constant": true,
      "inputs": [],
      "name": "symbol",
      "outputs": [
        {
          "internalType": "string",
          "name": "",
          "type": "string"
        }
      ],
      "payable": false,
      "stateMutability": "view",
      "type": "function"
    },
    {
      "constant": true,
      "inputs": [],
      "name": "totalSupply",
      "outputs": [
        {
          "internalType": "uint256",
          "name": "",
          "type": "uint256"
        }
      ],
      "payable": false,
      "stateMutability": "view",
      "type": "function"
    },
    {
      "constant": false,
      "inputs": [
        {
          "internalType": "address",
          "name": "recipient",
          "type": "address"
        },
        {
          "internalType": "uint256",
          "name": "amount",
          "type": "uint256"
        }
      ],
      "name": "transfer",
      "outputs": [
        {
          "internalType": "bool",
          "name": "",
          "type": "bool"
        }
      ],
      "payable": false,
      "stateMutability": "nonpayable",
      "type": "function"
    },
    {
      "constant": false,
      "inputs": [
        {
          "internalType": "address",
          "name": "sender",
          "type": "address"
        },
        {
          "internalType": "address",
          "name": "recipient",
          "type": "address"
        },
        {
          "internalType": "uint256",
          "name": "amount",
          "type": "uint256"
        }
      ],
      "name": "transferFrom",
      "outputs": [
        {
          "internalType": "bool",
          "name": "",
          "type": "bool"
        }
      ],
      "payable": false,
      "stateMutability": "nonpayable",
      "type": "function"
    },
    {
      "constant": false,
      "inputs": [
        {
          "internalType": "uint64",
          "name": "minimumTransferLimit",
          "type": "uint64"
        }
      ],
      "name": "setMinimumLimit",
      "outputs": [
        {
          "internalType": "bool",
          "name": "",
          "type": "bool"
        }
      ],
      "payable": false,
      "stateMutability": "nonpayable",
      "type": "function"
    },
    {
      "constant": false,
      "inputs": [
        {
          "internalType": "bytes",
          "name": "argsBs",
          "type": "bytes"
        },
        {
          "internalType": "bytes",
          "name": "fromContractAddr",
          "type": "bytes"
        },
        {
          "internalType": "uint64",
          "name": "fromChainId",
          "type": "uint64"
        }
      ],
      "name": "unlock",
      "outputs": [
        {
          "internalType": "bool",
          "name": "",
          "type": "bool"
        }
      ],
      "payable": false,
      "stateMutability": "nonpayable",
      "type": "function"
    },
    {
      "constant": false,
      "inputs": [
        {
          "internalType": "uint64",
          "name": "toChainId",
          "type": "uint64"
        },
        {
          "internalType": "bytes",
          "name": "toUserAddr",
          "type": "bytes"
        },
        {
          "internalType": "uint64",
          "name": "amount",
          "type": "uint64"
        }
      ],
      "name": "lock",
      "outputs": [
        {
          "internalType": "bool",
          "name": "",
          "type": "bool"
        }
      ],
      "payable": false,
      "stateMutability": "nonpayable",
      "type": "function"
    }
  ],
  "bytecode": "0x60806040523480156200001157600080fd5b5060405162002d1c38038062002d1c833981810160405260208110156200003757600080fd5b81019080805160405193929190846401000000008211156200005857600080fd5b9083019060208201858111156200006e57600080fd5b82516401000000008111828201881017156200008957600080fd5b82525081516020918201929091019080838360005b83811015620000b85781810151838201526020016200009e565b50505050905090810190601f168015620000e65780820380516001836020036101000a031916815260200191505b50604081810181526009825268212a21902a37b5b2b760b91b602080840191825282518084019093526004835263084a886b60e31b908301528251929550909350600892506200013a9160039190620001b4565b50815162000150906004906020850190620001b4565b506005805460ff191660ff9290921691909117905550620001729050620001af565b600680546001600160a01b0319166001600160a01b03929092169190911790558051620001a7906008906020840190620001b4565b505062000256565b335b90565b828054600181600116156101000203166002900490600052602060002090601f016020900481019282601f10620001f757805160ff191683800117855562000227565b8280016001018555821562000227579182015b82811115620002275782518255916020019190600101906200020a565b506200023592915062000239565b5090565b620001b191905b8082111562000235576000815560010162000240565b612ab680620002666000396000f3fe608060405234801561001057600080fd5b506004361061014d5760003560e01c8063570ca735116100c3578063af9980f01161007c578063af9980f0146105d9578063d78c624314610601578063d798f88114610627578063dd62ed3e1461062f578063e760f18c1461065d578063ea7342e9146107115761014d565b8063570ca7351461050957806370a082311461052d578063888ab36a1461055357806395d89b4114610579578063a457c2d714610581578063a9059cbb146105ad5761014d565b806323b872dd1161011557806323b872dd1461041c578063313ce567146104525780633414999c14610470578063395093511461049457806340c10f19146104c057806342966c68146104ec5761014d565b806306af4b9f1461015257806306fdde031461029a578063095ea7b314610317578063154ab7f01461034357806318160ddd14610402575b600080fd5b6102866004803603606081101561016857600080fd5b810190602081018135600160201b81111561018257600080fd5b82018360208201111561019457600080fd5b803590602001918460018302840111600160201b831117156101b557600080fd5b91908080601f0160208091040260200160405190810160405280939291908181526020018383808284376000920191909152509295949360208101935035915050600160201b81111561020757600080fd5b82018360208201111561021957600080fd5b803590602001918460018302840111600160201b8311171561023a57600080fd5b91908080601f016020809104026020016040519081016040528093929190818152602001838380828437600092019190915250929550505090356001600160401b031691506107199050565b604080519115158252519081900360200190f35b6102a261097e565b6040805160208082528351818301528351919283929083019185019080838360005b838110156102dc5781810151838201526020016102c4565b50505050905090810190601f1680156103095780820380516001836020036101000a031916815260200191505b509250505060405180910390f35b6102866004803603604081101561032d57600080fd5b506001600160a01b038135169060200135610a15565b6102866004803603606081101561035957600080fd5b6001600160401b038235169190810190604081016020820135600160201b81111561038357600080fd5b82018360208201111561039557600080fd5b803590602001918460018302840111600160201b831117156103b657600080fd5b91908080601f016020809104026020016040519081016040528093929190818152602001838380828437600092019190915250929550505090356001600160401b03169150610a329050565b61040a610f85565b60408051918252519081900360200190f35b6102866004803603606081101561043257600080fd5b506001600160a01b03813581169160208101359091169060400135610f8b565b61045a611018565b6040805160ff9092168252519081900360200190f35b610478611021565b604080516001600160401b039092168252519081900360200190f35b610286600480360360408110156104aa57600080fd5b506001600160a01b038135169060200135611030565b610286600480360360408110156104d657600080fd5b506001600160a01b038135169060200135611084565b6102866004803603602081101561050257600080fd5b5035611164565b610511611180565b604080516001600160a01b039092168252519081900360200190f35b61040a6004803603602081101561054357600080fd5b50356001600160a01b031661118f565b6102a26004803603602081101561056957600080fd5b50356001600160401b03166111aa565b6102a2611245565b6102866004803603604081101561059757600080fd5b506001600160a01b0381351690602001356112a6565b610286600480360360408110156105c357600080fd5b506001600160a01b038135169060200135611314565b6105ff600480360360208110156105ef57600080fd5b50356001600160a01b0316611328565b005b6102866004803603602081101561061757600080fd5b50356001600160401b03166113b3565b610511611403565b61040a6004803603604081101561064557600080fd5b506001600160a01b0381358116916020013516611417565b6105ff6004803603604081101561067357600080fd5b6001600160401b038235169190810190604081016020820135600160201b81111561069d57600080fd5b8201836020820111156106af57600080fd5b803590602001918460018302840111600160201b831117156106d057600080fd5b91908080601f016020809104026020016040519081016040528093929190818152602001838380828437600092019190915250929550611442945050505050565b6102a2611598565b600080600560019054906101000a90046001600160a01b03169050806001600160a01b03166387939a7f6040518163ffffffff1660e01b815260040160206040518083038186803b15801561076d57600080fd5b505afa158015610781573d6000803e3d6000fd5b505050506040513d602081101561079757600080fd5b50516001600160a01b03166107aa6115f3565b6001600160a01b0316146107ef5760405162461bcd60e51b815260040180806020018281038252602d8152602001806128be602d913960400191505060405180910390fd5b6107f76126ee565b610800866115f7565b90508451600014156108435760405162461bcd60e51b815260040180806020018281038252602b815260200180612893602b913960400191505060405180910390fd5b6001600160401b03841660009081526007602052604090206108659086611638565b6108b6576040805162461bcd60e51b815260206004820152601c60248201527f46726f6d20636f6e74726163742061646472657373206572726f722100000000604482015290519081900360640190fd5b60006108c582600001516116ec565b90506108de8183602001516001600160401b0316611084565b6109195760405162461bcd60e51b81526004018080602001828103825260228152602001806128296022913960400191505060405180910390fd5b602080830151604080513081526001600160a01b038516938101939093526001600160401b0390911682820152517f9de6a54a8cf32cab5e3b075705f253958091d35e16a984ff100dca79d5e381c19181900360600190a15060019695505050505050565b60038054604080516020601f6002600019610100600188161502019095169490940493840181900481028201810190925282815260609390929091830182828015610a0a5780601f106109df57610100808354040283529160200191610a0a565b820191906000526020600020905b8154815290600101906020018083116109ed57829003601f168201915b505050505090505b90565b6000610a29610a226115f3565b8484611736565b50600192915050565b6000610a3c6126ee565b6040518060400160405280858152602001846001600160401b031681525090506060856001600160401b031660011415610b5d576009546001600160401b039081169085161015610abe5760405162461bcd60e51b81526004018080602001828103825260278152602001806129886027913960400191505060405180910390fd5b6008805460408051602060026001851615610100026000190190941693909304601f8101849004840282018401909252818152610b5693869391929091830182828015610b4c5780601f10610b2157610100808354040283529160200191610b4c565b820191906000526020600020905b815481529060010190602001808311610b2f57829003601f168201915b5050505050611822565b9050610b69565b610b668261194c565b90505b610b7b846001600160401b0316611164565b610bb65760405162461bcd60e51b81526004018080602001828103825260228152602001806128716022913960400191505060405180910390fd5b6000600560019054906101000a90046001600160a01b031690506000816001600160a01b03166387939a7f6040518163ffffffff1660e01b815260040160206040518083038186803b158015610c0b57600080fd5b505afa158015610c1f573d6000803e3d6000fd5b505050506040513d6020811015610c3557600080fd5b50516001600160401b03891660008181526007602052604090819020905163bd5cf62560e01b8152600481019283526080602482019081528254600260001961010060018416150201909116046084830181905294955085946001600160a01b0386169463bd5cf625948f9490938b9390916044810191606482019160a4019087908015610d045780601f10610cd957610100808354040283529160200191610d04565b820191906000526020600020905b815481529060010190602001808311610ce757829003601f168201915b50508481038352600681526020018065756e6c6f636b60d01b815250602001848103825285818151815260200191508051906020019080838360005b83811015610d58578181015183820152602001610d40565b50505050905090810190601f168015610d855780820380516001836020036101000a031916815260200191505b509650505050505050602060405180830381600087803b158015610da857600080fd5b505af1158015610dbc573d6000803e3d6000fd5b505050506040513d6020811015610dd257600080fd5b5051610e0f5760405162461bcd60e51b815260040180806020018281038252602f815260200180612913602f913960400191505060405180910390fd5b7fe225456e445c7beafac1321a85eb5707386d185a767603f3fc40a7cfe71ccefb30610e396115f3565b6001600160401b03808d1660008181526007602090815260409182902082516001600160a01b03808916825287169281019290925291810192909252918c1660a082015260c0606082018181528354600260001961010060018416150201909116049183018290528f93928f928f9290608083019060e084019087908015610f025780601f10610ed757610100808354040283529160200191610f02565b820191906000526020600020905b815481529060010190602001808311610ee557829003601f168201915b5050838103825285518152855160209182019187019080838360005b83811015610f36578181015183820152602001610f1e565b50505050905090810190601f168015610f635780820380516001836020036101000a031916815260200191505b509850505050505050505060405180910390a150600198975050505050505050565b60025490565b6000610f98848484611a23565b61100e84610fa46115f3565b611009856040518060600160405280602881526020016128eb602891396001600160a01b038a16600090815260016020526040812090610fe26115f3565b6001600160a01b03168152602081019190915260400160002054919063ffffffff611b7f16565b611736565b5060019392505050565b60055460ff1690565b6009546001600160401b031681565b6000610a2961103d6115f3565b84611009856001600061104e6115f3565b6001600160a01b03908116825260208083019390935260409182016000908120918c16815292529020549063ffffffff611c1616565b600080600560019054906101000a90046001600160a01b03169050806001600160a01b03166387939a7f6040518163ffffffff1660e01b815260040160206040518083038186803b1580156110d857600080fd5b505afa1580156110ec573d6000803e3d6000fd5b505050506040513d602081101561110257600080fd5b50516001600160a01b03166111156115f3565b6001600160a01b03161461115a5760405162461bcd60e51b815260040180806020018281038252602d8152602001806128be602d913960400191505060405180910390fd5b61100e8484611c77565b60006111776111716115f3565b83611d67565b5060015b919050565b6006546001600160a01b031681565b6001600160a01b031660009081526020819052604090205490565b60076020908152600091825260409182902080548351601f60026000196101006001861615020190931692909204918201849004840281018401909452808452909183018282801561123d5780601f106112125761010080835404028352916020019161123d565b820191906000526020600020905b81548152906001019060200180831161122057829003601f168201915b505050505081565b60048054604080516020601f6002600019610100600188161502019095169490940493840181900481028201810190925282815260609390929091830182828015610a0a5780601f106109df57610100808354040283529160200191610a0a565b6000610a296112b36115f3565b8461100985604051806060016040528060258152602001612a5d60259139600160006112dd6115f3565b6001600160a01b03908116825260208083019390935260409182016000908120918d1681529252902054919063ffffffff611b7f16565b6000610a296113216115f3565b8484611a23565b6006546001600160a01b031661133c6115f3565b6001600160a01b03161461134f57600080fd5b600580546001600160a01b03808416610100908102610100600160a81b03199093169290921792839055604080519290930416815290517f43b1a8ec337adb61e8311ed025d99c80db65c02fe5c5027c1b6a93b40970cec49181900360200190a150565b6006546000906001600160a01b03166113ca6115f3565b6001600160a01b0316146113dd57600080fd5b50600980546001600160401b03831667ffffffffffffffff199091161790556001919050565b60055461010090046001600160a01b031681565b6001600160a01b03918216600090815260016020908152604080832093909416825291909152205490565b6006546001600160a01b03166114566115f3565b6001600160a01b03161461146957600080fd5b6001600160401b0382166114b7576040805162461bcd60e51b815260206004820152601060248201526f636861696e496420696c6c6567616c2160801b604482015290519081900360640190fd5b6001600160401b038216600090815260076020908152604090912082516114e092840190612706565b507f0c7bb21b9c9883bba0ddd55e34ec4c47bebd32dbce1192972fc4b2310f4acdb4828260405180836001600160401b03166001600160401b0316815260200180602001828103825283818151815260200191508051906020019080838360005b83811015611559578181015183820152602001611541565b50505050905090810190601f1680156115865780820380516001836020036101000a031916815260200191505b50935050505060405180910390a15050565b6008805460408051602060026001851615610100026000190190941693909304601f8101849004840282018401909252818152929183018282801561123d5780601f106112125761010080835404028352916020019161123d565b3390565b6115ff6126ee565b6116076126ee565b60006116138482611e63565b90835290506116228482611f3b565b506001600160401b031660208301525092915050565b6000806001905083546002600180831615610100020382160484518082146001811461166757600094506116e0565b82156116e05760208310600181146116c557600189600052602060002060208a018581015b6002848284100114156116bc5781518354146116ab5760009950600093505b60018301925060208201915061168c565b505050506116de565b610100808604029450602088015185146116de57600095505b505b50929695505050505050565b6000815160141461172e5760405162461bcd60e51b81526004018080602001828103825260238152602001806127e46023913960400191505060405180910390fd5b506014015190565b6001600160a01b03831661177b5760405162461bcd60e51b81526004018080602001828103825260248152602001806129af6024913960400191505060405180910390fd5b6001600160a01b0382166117c05760405162461bcd60e51b81526004018080602001828103825260228152602001806128076022913960400191505060405180910390fd5b6001600160a01b03808416600081815260016020908152604080832094871680845294825291829020859055815185815291517f8c5be1e5ebec7d5bd14f71427d1e84f3dd0314c0f7b2291e5b200ac8c7c3b9259281900390910190a3505050565b6060806118328460000151611fe1565b61183f85602001516120a7565b61184885611fe1565b6040516020018084805190602001908083835b6020831061187a5780518252601f19909201916020918201910161185b565b51815160209384036101000a600019018019909216911617905286519190930192860191508083835b602083106118c25780518252601f1990920191602091820191016118a3565b51815160209384036101000a600019018019909216911617905285519190930192850191508083835b6020831061190a5780518252601f1990920191602091820191016118eb565b6001836020036101000a038019825116818451168082178552505050505050905001935050505060405160208183030381529060405290508091505092915050565b60608061195c8360000151611fe1565b61196984602001516120a7565b6040516020018083805190602001908083835b6020831061199b5780518252601f19909201916020918201910161197c565b51815160209384036101000a600019018019909216911617905285519190930192850191508083835b602083106119e35780518252601f1990920191602091820191016119c4565b6001836020036101000a03801982511681845116808217855250505050505090500192505050604051602081830303815290604052905080915050919050565b6001600160a01b038316611a685760405162461bcd60e51b81526004018080602001828103825260258152602001806129636025913960400191505060405180910390fd5b6001600160a01b038216611aad5760405162461bcd60e51b815260040180806020018281038252602381526020018061279f6023913960400191505060405180910390fd5b611af08160405180606001604052806026815260200161284b602691396001600160a01b038616600090815260208190526040902054919063ffffffff611b7f16565b6001600160a01b038085166000908152602081905260408082209390935590841681522054611b25908263ffffffff611c1616565b6001600160a01b038084166000818152602081815260409182902094909455805185815290519193928716927fddf252ad1be2c89b69c2b068fc378daa952ba7f163c4a11628f55a4df523b3ef92918290030190a3505050565b60008184841115611c0e5760405162461bcd60e51b81526004018080602001828103825283818151815260200191508051906020019080838360005b83811015611bd3578181015183820152602001611bbb565b50505050905090810190601f168015611c005780820380516001836020036101000a031916815260200191505b509250505060405180910390fd5b505050900390565b600082820183811015611c70576040805162461bcd60e51b815260206004820152601b60248201527f536166654d6174683a206164646974696f6e206f766572666c6f770000000000604482015290519081900360640190fd5b9392505050565b6001600160a01b038216611cd2576040805162461bcd60e51b815260206004820152601f60248201527f45524332303a206d696e7420746f20746865207a65726f206164647265737300604482015290519081900360640190fd5b600254611ce5908263ffffffff611c1616565b6002556001600160a01b038216600090815260208190526040902054611d11908263ffffffff611c1616565b6001600160a01b0383166000818152602081815260408083209490945583518581529351929391927fddf252ad1be2c89b69c2b068fc378daa952ba7f163c4a11628f55a4df523b3ef9281900390910190a35050565b6001600160a01b038216611dac5760405162461bcd60e51b81526004018080602001828103825260218152602001806129426021913960400191505060405180910390fd5b611def816040518060600160405280602281526020016127c2602291396001600160a01b038516600090815260208190526040902054919063ffffffff611b7f16565b6001600160a01b038316600090815260208190526040902055600254611e1b908263ffffffff6120ea16565b6002556040805182815290516000916001600160a01b038516917fddf252ad1be2c89b69c2b068fc378daa952ba7f163c4a11628f55a4df523b3ef9181900360200190a35050565b6060600080611e72858561212c565b865190955090915081850111801590611e8c575080840184105b611ec75760405162461bcd60e51b8152600401808060200182810382526024815260200180612a396024913960400191505060405180910390fd5b606081158015611ee257604051915060208201604052611f2c565b6040519150601f8316801560200281840101848101888315602002848c0101015b81831015611f1b578051835260209283019201611f03565b5050848452601f01601f1916604052505b509250830190505b9250929050565b60008083518360080111158015611f5457508260080183105b611f8f5760405162461bcd60e51b81526004018080602001828103825260228152602001806129f56022913960400191505060405180910390fd5b600060405160086000600182038760208a0101515b83831015611fc45780821a83860153600183019250600182039150611fa4565b505050808201604052602003900351956008949094019450505050565b8051606090611fef81612345565b836040516020018083805190602001908083835b602083106120225780518252601f199092019160209182019101612003565b51815160209384036101000a600019018019909216911617905285519190930192850191508083835b6020831061206a5780518252601f19909201916020918201910161204b565b6001836020036101000a03801982511681845116808217855250505050505090500192505050604051602081830303815290604052915050919050565b6040516008808252606091906000601f5b828210156120da5785811a8260208601015360019190910190600019016120b8565b5050506028810160405292915050565b6000611c7083836040518060400160405280601e81526020017f536166654d6174683a207375627472616374696f6e206f766572666c6f770000815250611b7f565b600080600061213b858561248b565b94509050600060fd60f81b6001600160f81b0319831614156121d9576121618686612509565b955061ffff16905060fd811080159061217c575061ffff8111155b6121cd576040805162461bcd60e51b815260206004820152601f60248201527f4e65787455696e7431362c2076616c7565206f7574736964652072616e676500604482015290519081900360640190fd5b9250839150611f349050565b607f60f91b6001600160f81b031983161415612269576121f98686612592565b955063ffffffff16905061ffff81118015612218575063ffffffff8111155b6121cd576040805162461bcd60e51b815260206004820181905260248201527f4e65787456617255696e742c2076616c7565206f7574736964652072616e6765604482015290519081900360640190fd5b6001600160f81b031980831614156122ea576122858686611f3b565b95506001600160401b0316905063ffffffff81116121cd576040805162461bcd60e51b815260206004820181905260248201527f4e65787456617255696e742c2076616c7565206f7574736964652072616e6765604482015290519081900360640190fd5b5060f881901c60fd81106121cd576040805162461bcd60e51b815260206004820181905260248201527f4e65787456617255696e742c2076616c7565206f7574736964652072616e6765604482015290519081900360640190fd5b606060fd826001600160401b031610156123695761236282612638565b905061117b565b61ffff826001600160401b0316116124475761238860fd60f81b612654565b61239183612668565b6040516020018083805190602001908083835b602083106123c35780518252601f1990920191602091820191016123a4565b51815160209384036101000a600019018019909216911617905285519190930192850191508083835b6020831061240b5780518252601f1990920191602091820191016123ec565b6001836020036101000a03801982511681845116808217855250505050505090500192505050604051602081830303815290604052905061117b565b63ffffffff826001600160401b03161161247157612468607f60f91b612654565b612391836126ab565b6124826001600160f81b0319612654565b612391836120a7565b600080835183600101111580156124a457508260010183105b6124f5576040805162461bcd60e51b815260206004820181905260248201527f4e657874427974652c204f66667365742065786365656473206d6178696d756d604482015290519081900360640190fd5b505081810160200151600182019250929050565b6000808351836002011115801561252257508260020183105b61255d5760405162461bcd60e51b81526004018080602001828103825260228152602001806129d36022913960400191505060405180910390fd5b6000604051846020870101518060011a82538060001a6001830153506002818101604052601d19909101519694019450505050565b600080835183600401111580156125ab57508260040183105b6125e65760405162461bcd60e51b8152600401808060200182810382526022815260200180612a176022913960400191505060405180910390fd5b600060405160046000600182038760208a0101515b8383101561261b5780821a838601536001830192506001820391506125fb565b505050808201604052602003900351956004949094019450505050565b604080516001815260f89290921b602083015260218201905290565b60606126628260f81c612638565b92915050565b6040516002808252606091906000601f5b8282101561269b5785811a826020860101536001919091019060001901612679565b5050506022810160405292915050565b6040516004808252606091906000601f5b828210156126de5785811a8260208601015360019190910190600019016126bc565b5050506024810160405292915050565b60408051808201909152606081526000602082015290565b828054600181600116156101000203166002900490600052602060002090601f016020900481019282601f1061274757805160ff1916838001178555612774565b82800160010185558215612774579182015b82811115612774578251825591602001919060010190612759565b50612780929150612784565b5090565b610a1291905b80821115612780576000815560010161278a56fe45524332303a207472616e7366657220746f20746865207a65726f206164647265737345524332303a206275726e20616d6f756e7420657863656564732062616c616e63656279746573206c656e67746820646f6573206e6f74206d61746368206164647265737345524332303a20617070726f766520746f20746865207a65726f20616464726573736d696e74204254435820696e20756e6c6f636b206d6574686f64206661696c65642145524332303a207472616e7366657220616d6f756e7420657863656564732062616c616e63654275726e206d73672e73656e646572204254435820746f6b656e73206661696c656466726f6d20617373657420636f6e747261637420616464726573732063616e6e6f7420626520656d7074796d736753656e646572206973206e6f742045746843726f7373436861696e4d616e61676572436f6e747261637445524332303a207472616e7366657220616d6f756e74206578636565647320616c6c6f77616e636545746843726f7373436861696e4d616e616765722063726f7373436861696e206578656375746564206572726f722145524332303a206275726e2066726f6d20746865207a65726f206164647265737345524332303a207472616e736665722066726f6d20746865207a65726f20616464726573736274637820616d6f756e742073686f756c642062652067726561746572207468616e203230303045524332303a20617070726f76652066726f6d20746865207a65726f20616464726573734e65787455696e7431362c206f66667365742065786365656473206d6178696d756d4e65787455696e7436342c206f66667365742065786365656473206d6178696d756d4e65787455696e7433322c206f66667365742065786365656473206d6178696d756d4e65787456617242797465732c206f66667365742065786365656473206d6178696d756d45524332303a2064656372656173656420616c6c6f77616e63652062656c6f77207a65726fa265627a7a7231582072561c6e0ad09bffc4281b62d382242f1ba59b9d5eb290c75aba05b844ee81c064736f6c63430005100032",
  "source": "pragma solidity ^0.5.0;\nimport \"./../../../libs/GSN/Context.sol\";\nimport \"./../../../libs/common/ZeroCopySource.sol\";\nimport \"./../../../libs/common/ZeroCopySink.sol\";\nimport \"./../../../libs/utils/Utils.sol\";\nimport \"./../../cross_chain_manager/interface/IEthCrossChainManager.sol\";\nimport \"./../../cross_chain_manager/interface/IEthCrossChainManagerProxy.sol\";\nimport \"./../../../libs/token/ERC20/ERC20Extended.sol\";\ncontract BTCX is ERC20Extended {\n    struct TxArgs {\n        bytes toAddress;\n        uint64 amount;\n    }\n\n    bytes public redeemScript;\n    uint64 public minimumLimit;\n    event UnlockEvent(address toAssetHash, address toAddress, uint64 amount);\n    event LockEvent(address fromAssetHash, address fromAddress, uint64 toChainId, bytes toAssetHash, bytes toAddress, uint64 amount);\n    \n    constructor (bytes memory _redeemScript) public ERC20Detailed(\"BTC Token\", \"BTCX\", 8) {\n        operator = _msgSender();\n        redeemScript = _redeemScript;\n    }\n    function setMinimumLimit(uint64 minimumTransferLimit) onlyOperator public returns (bool) {\n        minimumLimit = minimumTransferLimit;\n        return true;\n    }\n    /* @notice                  This function is meant to be invoked by the ETH crosschain management contract,\n    *                           then mint a certin amount of tokens to the designated address since a certain amount \n    *                           was burnt from the source chain invoker.\n    *  @param argsBs            The argument bytes recevied by the ethereum business contract, need to be deserialized.\n    *                           based on the way of serialization in the source chain contract.\n    *  @param fromContractAddr  The source chain contract address\n    *  @param fromChainId       The source chain id\n    */\n    function unlock(bytes memory argsBs, bytes memory fromContractAddr, uint64 fromChainId) onlyManagerContract public returns (bool) {\n        TxArgs memory args = _deserializeTxArgs(argsBs);\n        require(fromContractAddr.length != 0, \"from asset contract address cannot be empty\");\n        require(Utils.equalStorage(bondAssetHashes[fromChainId], fromContractAddr), \"From contract address error!\");\n        \n        address toAddress = Utils.bytesToAddress(args.toAddress);\n        require(mint(toAddress, uint256(args.amount)), \"mint BTCX in unlock method failed!\");\n        \n        emit UnlockEvent(address(this), toAddress, args.amount);\n        return true;\n    }\n\n    /* @notice                  This function is meant to be invoked by the user,\n    *                           a certin amount teokens will be burnt from the invoker/msg.sender immediately.\n    *                           Then the same amount of tokens will be mint at the target chain with chainId later.\n    *  @param toChainId         The target chain id\n    *                           \n    *  @param toUserAddr        The address in bytes format to receive same amount of tokens in target chain \n    *  @param amount            The amount of tokens to be crossed from ethereum to the chain with chainId\n    */\n    function lock(uint64 toChainId, bytes memory toUserAddr, uint64 amount) public returns (bool) {\n        TxArgs memory txArgs = TxArgs({\n            toAddress: toUserAddr,\n            amount: amount\n        });\n\n        bytes memory txData;\n        // if toChainId is BTC chain, put redeemScript into Args\n        if (toChainId == 1) {\n            require(amount >= minimumLimit, \"btcx amount should be greater than 2000\");\n            txData = _serializeToBtcTxArgs(txArgs, redeemScript);\n        } else {\n            txData = _serializeTxArgs(txArgs);\n        }\n        \n\n        require(burn(uint256(amount)), \"Burn msg.sender BTCX tokens failed\");\n    \n        IEthCrossChainManagerProxy eccmp = IEthCrossChainManagerProxy(managerProxyContract);\n        address eccmAddr = eccmp.getEthCrossChainManager();\n        IEthCrossChainManager eccm = IEthCrossChainManager(eccmAddr);\n        \n        require(eccm.crossChain(toChainId, bondAssetHashes[toChainId], \"unlock\", txData), \"EthCrossChainManager crossChain executed error!\");\n\n        emit LockEvent(address(this), _msgSender(), toChainId, bondAssetHashes[toChainId], toUserAddr, amount);\n        \n        return true;\n\n    }\n\n    function _serializeToBtcTxArgs(TxArgs memory args, bytes memory redeemScript) internal pure returns (bytes memory) {\n        bytes memory buff;\n        buff = abi.encodePacked(\n            ZeroCopySink.WriteVarBytes(args.toAddress),\n            ZeroCopySink.WriteUint64(args.amount),\n            ZeroCopySink.WriteVarBytes(redeemScript)\n            );\n        return buff;\n    }\n    function _serializeTxArgs(TxArgs memory args) internal pure returns (bytes memory) {\n        bytes memory buff;\n        buff = abi.encodePacked(\n            ZeroCopySink.WriteVarBytes(args.toAddress),\n            ZeroCopySink.WriteUint64(args.amount)\n            );\n        return buff;\n    }\n\n    function _deserializeTxArgs(bytes memory valueBs) internal pure returns (TxArgs memory) {\n        TxArgs memory args;\n        uint256 off = 0;\n        (args.toAddress, off) = ZeroCopySource.NextVarBytes(valueBs, off);\n        (args.amount, off) = ZeroCopySource.NextUint64(valueBs, off);\n        return args;\n    }\n}",
  "sourcePath": "/Users/user/Desktop/hashport/eth-contracts/contracts/core/assets/btc/BTCX.sol",
  "compiler": {
    "name": "solc",
    "version": "0.5.16+commit.9c3226ce.Emscripten.clang"
  },
  "schemaVersion": "3.4.5",
  "updatedAt": "2022-02-24T02:12:45.111Z",
  "devdoc": {
    "methods": {
      "allowance(address,address)": {
        "details": "See {IERC20-allowance}."
      },
      "approve(address,uint256)": {
        "details": "See {IERC20-approve}.     * Requirements:     * - `spender` cannot be the zero address."
      },
      "balanceOf(address)": {
        "details": "See {IERC20-balanceOf}."
      },
      "decimals()": {
        "details": "Returns the number of decimals used to get its user representation. For example, if `decimals` equals `2`, a balance of `505` tokens should be displayed to a user as `5,05` (`505 / 10 ** 2`).     * Tokens usually opt for a value of 18, imitating the relationship between Ether and Wei.     * NOTE: This information is only used for _display_ purposes: it in no way affects any of the arithmetic of the contract, including {IERC20-balanceOf} and {IERC20-transfer}."
      },
      "decreaseAllowance(address,uint256)": {
        "details": "Atomically decreases the allowance granted to `spender` by the caller.     * This is an alternative to {approve} that can be used as a mitigation for problems described in {IERC20-approve}.     * Emits an {Approval} event indicating the updated allowance.     * Requirements:     * - `spender` cannot be the zero address. - `spender` must have allowance for the caller of at least `subtractedValue`."
      },
      "increaseAllowance(address,uint256)": {
        "details": "Atomically increases the allowance granted to `spender` by the caller.     * This is an alternative to {approve} that can be used as a mitigation for problems described in {IERC20-approve}.     * Emits an {Approval} event indicating the updated allowance.     * Requirements:     * - `spender` cannot be the zero address."
      },
      "name()": {
        "details": "Returns the name of the token."
      },
      "symbol()": {
        "details": "Returns the symbol of the token, usually a shorter version of the name."
      },
      "totalSupply()": {
        "details": "See {IERC20-totalSupply}."
      },
      "transfer(address,uint256)": {
        "details": "See {IERC20-transfer}.     * Requirements:     * - `recipient` cannot be the zero address. - the caller must have a balance of at least `amount`."
      },
      "transferFrom(address,address,uint256)": {
        "details": "See {IERC20-transferFrom}.     * Emits an {Approval} event indicating the updated allowance. This is not required by the EIP. See the note at the beginning of {ERC20};     * Requirements: - `sender` and `recipient` cannot be the zero address. - `sender` must have a balance of at least `amount`. - the caller must have allowance for `sender`'s tokens of at least `amount`."
      }
    }
  },
  "userdoc": {
    "methods": {}
  }
}