{
  "contractName": "EthCrossChainManagerProxy",
  "abi": [
    {
      "inputs": [
        {
          "internalType": "address",
          "name": "_ethCrossChainManagerAddr",
          "type": "address"
        }
      ],
      "payable": false,
      "stateMutability": "nonpayable",
      "type": "constructor"
    },
    {
      "anonymous": false,
      "inputs": [
        {
          "indexed": true,
          "internalType": "address",
          "name": "previousOwner",
          "type": "address"
        },
        {
          "indexed": true,
          "internalType": "address",
          "name": "newOwner",
          "type": "address"
        }
      ],
      "name": "OwnershipTransferred",
      "type": "event"
    },
    {
      "anonymous": false,
      "inputs": [
        {
          "indexed": false,
          "internalType": "address",
          "name": "account",
          "type": "address"
        }
      ],
      "name": "Paused",
      "type": "event"
    },
    {
      "anonymous": false,
      "inputs": [
        {
          "indexed": false,
          "internalType": "address",
          "name": "account",
          "type": "address"
        }
      ],
      "name": "Unpaused",
      "type": "event"
    },
    {
      "constant": true,
      "inputs": [],
      "name": "isOwner",
      "outputs": [
        {
          "internalType": "bool",
          "name": "",
          "type": "bool"
        }
      ],
      "payable": false,
      "stateMutability": "view",
      "type": "function"
    },
    {
      "constant": true,
      "inputs": [],
      "name": "owner",
      "outputs": [
        {
          "internalType": "address",
          "name": "",
          "type": "address"
        }
      ],
      "payable": false,
      "stateMutability": "view",
      "type": "function"
    },
    {
      "constant": true,
      "inputs": [],
      "name": "paused",
      "outputs": [
        {
          "internalType": "bool",
          "name": "",
          "type": "bool"
        }
      ],
      "payable": false,
      "stateMutability": "view",
      "type": "function"
    },
    {
      "constant": false,
      "inputs": [],
      "name": "renounceOwnership",
      "outputs": [],
      "payable": false,
      "stateMutability": "nonpayable",
      "type": "function"
    },
    {
      "constant": false,
      "inputs": [
        {
          "internalType": "address",
          "name": "newOwner",
          "type": "address"
        }
      ],
      "name": "transferOwnership",
      "outputs": [],
      "payable": false,
      "stateMutability": "nonpayable",
      "type": "function"
    },
    {
      "constant": false,
      "inputs": [],
      "name": "pause",
      "outputs": [
        {
          "internalType": "bool",
          "name": "",
          "type": "bool"
        }
      ],
      "payable": false,
      "stateMutability": "nonpayable",
      "type": "function"
    },
    {
      "constant": false,
      "inputs": [],
      "name": "unpause",
      "outputs": [
        {
          "internalType": "bool",
          "name": "",
          "type": "bool"
        }
      ],
      "payable": false,
      "stateMutability": "nonpayable",
      "type": "function"
    },
    {
      "constant": false,
      "inputs": [],
      "name": "pauseEthCrossChainManager",
      "outputs": [
        {
          "internalType": "bool",
          "name": "",
          "type": "bool"
        }
      ],
      "payable": false,
      "stateMutability": "nonpayable",
      "type": "function"
    },
    {
      "constant": false,
      "inputs": [
        {
          "internalType": "address",
          "name": "_newEthCrossChainManagerAddr",
          "type": "address"
        }
      ],
      "name": "upgradeEthCrossChainManager",
      "outputs": [
        {
          "internalType": "bool",
          "name": "",
          "type": "bool"
        }
      ],
      "payable": false,
      "stateMutability": "nonpayable",
      "type": "function"
    },
    {
      "constant": false,
      "inputs": [],
      "name": "unpauseEthCrossChainManager",
      "outputs": [
        {
          "internalType": "bool",
          "name": "",
          "type": "bool"
        }
      ],
      "payable": false,
      "stateMutability": "nonpayable",
      "type": "function"
    },
    {
      "constant": true,
      "inputs": [],
      "name": "getEthCrossChainManager",
      "outputs": [
        {
          "internalType": "address",
          "name": "",
          "type": "address"
        }
      ],
      "payable": false,
      "stateMutability": "view",
      "type": "function"
    },
    {
      "constant": false,
      "inputs": [
        {
          "internalType": "uint64",
          "name": "_newChainId",
          "type": "uint64"
        }
      ],
      "name": "changeManagerChainID",
      "outputs": [],
      "payable": false,
      "stateMutability": "nonpayable",
      "type": "function"
    }
  ],
  "bytecode": "0x608060405234801561001057600080fd5b506040516111663803806111668339818101604052602081101561003357600080fd5b505160006100486001600160e01b036100c416565b600080546001600160a01b0319166001600160a01b0383169081178255604051929350917f8be0079c531659141344cd1fd0a4f28419497f9722a3daafe3b4186f6b6457e0908290a3506000805460ff60a01b19169055600180546001600160a01b0319166001600160a01b03929092169190911790556100c8565b3390565b61108f806100d76000396000f3fe608060405234801561001057600080fd5b50600436106100b45760003560e01c806387939a7f1161007157806387939a7f146100ff5780638da5cb5b146101235780638f32d59b1461012b578063a2681d2814610133578063ab59d32d1461015a578063f2fde38b14610180576100b4565b80633b9a80b8146100b95780633f4ba83a146100d55780634390c707146100dd5780635c975abb146100e5578063715018a6146100ed5780638456cb59146100f7575b600080fd5b6100c16101a6565b604080519115158252519081900360200190f35b6100c1610336565b6100c16103a2565b6100c1610532565b6100f5610542565b005b6100c16105d3565b610107610639565b604080516001600160a01b039092168252519081900360200190f35b61010761069c565b6100c16106ab565b6100f56004803603602081101561014957600080fd5b503567ffffffffffffffff166106cf565b6100c16004803603602081101561017057600080fd5b50356001600160a01b031661094e565b6100f56004803603602081101561019657600080fd5b50356001600160a01b0316610c8e565b60006101b06106ab565b6101ef576040805162461bcd60e51b81526020600482018190526024820152600080516020611010833981519152604482015290519081900360640190fd5b600054600160a01b900460ff1615610241576040805162461bcd60e51b815260206004820152601060248201526f14185d5cd8589b194e881c185d5cd95960821b604482015290519081900360640190fd5b6001546001600160a01b03166102556105d3565b6102905760405162461bcd60e51b8152600401808060200182810382526030815260200180610f846030913960400191505060405180910390fd5b806001600160a01b0316638456cb596040518163ffffffff1660e01b8152600401602060405180830381600087803b1580156102cb57600080fd5b505af11580156102df573d6000803e3d6000fd5b505050506040513d60208110156102f557600080fd5b50516103325760405162461bcd60e51b815260040180806020018281038252602b815260200180611030602b913960400191505060405180910390fd5b5090565b60006103406106ab565b61037f576040805162461bcd60e51b81526020600482018190526024820152600080516020611010833981519152604482015290519081900360640190fd5b610387610532565b6103935750600161039f565b61039b610ce1565b5060015b90565b60006103ac6106ab565b6103eb576040805162461bcd60e51b81526020600482018190526024820152600080516020611010833981519152604482015290519081900360640190fd5b600054600160a01b900460ff16610440576040805162461bcd60e51b815260206004820152601460248201527314185d5cd8589b194e881b9bdd081c185d5cd95960621b604482015290519081900360640190fd5b60015460408051631fa5d41d60e11b815290516001600160a01b03909216918291633f4ba83a9160048083019260209291908290030181600087803b15801561048857600080fd5b505af115801561049c573d6000803e3d6000fd5b505050506040513d60208110156104b257600080fd5b50516104ef5760405162461bcd60e51b815260040180806020018281038252602d815260200180610fe3602d913960400191505060405180910390fd5b6104f7610336565b6103325760405162461bcd60e51b8152600401808060200182810382526032815260200180610f526032913960400191505060405180910390fd5b600054600160a01b900460ff1690565b61054a6106ab565b610589576040805162461bcd60e51b81526020600482018190526024820152600080516020611010833981519152604482015290519081900360640190fd5b600080546040516001600160a01b03909116907f8be0079c531659141344cd1fd0a4f28419497f9722a3daafe3b4186f6b6457e0908390a3600080546001600160a01b0319169055565b60006105dd6106ab565b61061c576040805162461bcd60e51b81526020600482018190526024820152600080516020611010833981519152604482015290519081900360640190fd5b610624610532565b156106315750600161039f565b61039b610d89565b60008054600160a01b900460ff161561068c576040805162461bcd60e51b815260206004820152601060248201526f14185d5cd8589b194e881c185d5cd95960821b604482015290519081900360640190fd5b506001546001600160a01b031690565b6000546001600160a01b031690565b600080546001600160a01b03166106c0610e13565b6001600160a01b031614905090565b6106d76106ab565b610716576040805162461bcd60e51b81526020600482018190526024820152600080516020611010833981519152604482015290519081900360640190fd5b600054600160a01b900460ff1661076b576040805162461bcd60e51b815260206004820152601460248201527314185d5cd8589b194e881b9bdd081c185d5cd95960621b604482015290519081900360640190fd5b60015460408051635c975abb60e01b815290516001600160a01b03909216918291635c975abb916004808301926020929190829003018186803b1580156107b157600080fd5b505afa1580156107c5573d6000803e3d6000fd5b505050506040513d60208110156107db57600080fd5b505161088357806001600160a01b0316638456cb596040518163ffffffff1660e01b8152600401602060405180830381600087803b15801561081c57600080fd5b505af1158015610830573d6000803e3d6000fd5b505050506040513d602081101561084657600080fd5b50516108835760405162461bcd60e51b815260040180806020018281038252602f815260200180610fb4602f913960400191505060405180910390fd5b60408051636f31031d60e01b815267ffffffffffffffff8416600482015290516001600160a01b03831691636f31031d9160248083019260209291908290030181600087803b1580156108d557600080fd5b505af11580156108e9573d6000803e3d6000fd5b505050506040513d60208110156108ff57600080fd5b505161094a576040805162461bcd60e51b8152602060048201526015602482015274039b2ba1031b430b4b71024a2103330b4b632b2171605d1b604482015290519081900360640190fd5b5050565b60006109586106ab565b610997576040805162461bcd60e51b81526020600482018190526024820152600080516020611010833981519152604482015290519081900360640190fd5b600054600160a01b900460ff166109ec576040805162461bcd60e51b815260206004820152601460248201527314185d5cd8589b194e881b9bdd081c185d5cd95960621b604482015290519081900360640190fd5b60015460408051635c975abb60e01b815290516001600160a01b03909216918291635c975abb916004808301926020929190829003018186803b158015610a3257600080fd5b505afa158015610a46573d6000803e3d6000fd5b505050506040513d6020811015610a5c57600080fd5b5051610b0457806001600160a01b0316638456cb596040518163ffffffff1660e01b8152600401602060405180830381600087803b158015610a9d57600080fd5b505af1158015610ab1573d6000803e3d6000fd5b505050506040513d6020811015610ac757600080fd5b5051610b045760405162461bcd60e51b815260040180806020018281038252602f815260200180610fb4602f913960400191505060405180910390fd5b806001600160a01b0316637e724ff3846040518263ffffffff1660e01b815260040180826001600160a01b03166001600160a01b03168152602001915050602060405180830381600087803b158015610b5c57600080fd5b505af1158015610b70573d6000803e3d6000fd5b505050506040513d6020811015610b8657600080fd5b5051610bc35760405162461bcd60e51b8152600401808060200182810382526029815260200180610f036029913960400191505060405180910390fd5b6000839050806001600160a01b0316638f32d59b6040518163ffffffff1660e01b815260040160206040518083038186803b158015610c0157600080fd5b505afa158015610c15573d6000803e3d6000fd5b505050506040513d6020811015610c2b57600080fd5b5051610c685760405162461bcd60e51b815260040180806020018281038252604b815260200180610eb8604b913960600191505060405180910390fd5b5050600180546001600160a01b0319166001600160a01b03939093169290921790915590565b610c966106ab565b610cd5576040805162461bcd60e51b81526020600482018190526024820152600080516020611010833981519152604482015290519081900360640190fd5b610cde81610e17565b50565b600054600160a01b900460ff16610d36576040805162461bcd60e51b815260206004820152601460248201527314185d5cd8589b194e881b9bdd081c185d5cd95960621b604482015290519081900360640190fd5b6000805460ff60a01b191690557f5db9ee0a495bf2e6ff9c91a7834c1ba4fdd244a5e8aa4e537bd38aeae4b073aa610d6c610e13565b604080516001600160a01b039092168252519081900360200190a1565b600054600160a01b900460ff1615610ddb576040805162461bcd60e51b815260206004820152601060248201526f14185d5cd8589b194e881c185d5cd95960821b604482015290519081900360640190fd5b6000805460ff60a01b1916600160a01b1790557f62e78cea01bee320cd4e420270b5ea74000d11b0c9f74754ebdbfc544b05a258610d6c5b3390565b6001600160a01b038116610e5c5760405162461bcd60e51b8152600401808060200182810382526026815260200180610f2c6026913960400191505060405180910390fd5b600080546040516001600160a01b03808516939216917f8be0079c531659141344cd1fd0a4f28419497f9722a3daafe3b4186f6b6457e091a3600080546001600160a01b0319166001600160a01b039290921691909117905556fe45746843726f7373436861696e4d616e6167657250726f7879206973206e6f74206f776e6572206f66206e65772045746843726f7373436861696e4d616e6167657220636f6e747261637445746843726f7373436861696e4d616e616765722075706772616465546f4e6577206661696c6564214f776e61626c653a206e6577206f776e657220697320746865207a65726f2061646472657373756e70617573652045746843726f7373436861696e4d616e6167657250726f787920636f6e7472616374206661696c65642170617573652045746843726f7373436861696e4d616e6167657250726f787920636f6e7472616374206661696c6564215061757365206f6c642045746843726f7373436861696e4d616e6167657220636f6e7472616374206661696c656421756e70617573652045746843726f7373436861696e4d616e6167657220636f6e7472616374206661696c6564214f776e61626c653a2063616c6c6572206973206e6f7420746865206f776e657270617573652045746843726f7373436861696e4d616e6167657220636f6e7472616374206661696c656421a265627a7a72315820f782194e0bbe886f50a8b0a8eac51efeb4b93cad4711587497fadda06a83a07964736f6c63430005100032",
  "source": "pragma solidity ^0.5.0;\nimport \"./../../../libs/ownership/Ownable.sol\";\nimport \"./../../../libs/lifecycle/Pausable.sol\";\nimport \"./../interface/IUpgradableECCM.sol\";\nimport \"./../interface/IEthCrossChainManagerProxy.sol\";\n\ncontract EthCrossChainManagerProxy is IEthCrossChainManagerProxy, Ownable, Pausable {\n    address private EthCrossChainManagerAddr_;\n    \n    constructor(address _ethCrossChainManagerAddr) public {\n        EthCrossChainManagerAddr_ = _ethCrossChainManagerAddr;\n    }\n    \n    function pause() onlyOwner public returns (bool) {\n        if (paused()) {\n            return true;\n        }\n        _pause();\n        return true;\n    }\n    function unpause() onlyOwner public returns (bool) {\n        if (!paused()) {\n            return true;\n        }\n        _unpause();\n        return true;\n    }\n    function pauseEthCrossChainManager() onlyOwner whenNotPaused public returns (bool) {\n        IUpgradableECCM eccm = IUpgradableECCM(EthCrossChainManagerAddr_);\n        require(pause(), \"pause EthCrossChainManagerProxy contract failed!\");\n        require(eccm.pause(), \"pause EthCrossChainManager contract failed!\");\n    }\n    function upgradeEthCrossChainManager(address _newEthCrossChainManagerAddr) onlyOwner whenPaused public returns (bool) {\n        IUpgradableECCM eccm = IUpgradableECCM(EthCrossChainManagerAddr_);\n        if (!eccm.paused()) {\n            require(eccm.pause(), \"Pause old EthCrossChainManager contract failed!\");\n        }\n        require(eccm.upgradeToNew(_newEthCrossChainManagerAddr), \"EthCrossChainManager upgradeToNew failed!\");\n        IUpgradableECCM neweccm = IUpgradableECCM(_newEthCrossChainManagerAddr);\n        require(neweccm.isOwner(), \"EthCrossChainManagerProxy is not owner of new EthCrossChainManager contract\");\n        EthCrossChainManagerAddr_ = _newEthCrossChainManagerAddr;\n    }\n    function unpauseEthCrossChainManager() onlyOwner whenPaused public returns (bool) {\n        IUpgradableECCM eccm = IUpgradableECCM(EthCrossChainManagerAddr_);\n        require(eccm.unpause(), \"unpause EthCrossChainManager contract failed!\");\n        require(unpause(), \"unpause EthCrossChainManagerProxy contract failed!\");\n    }\n    function getEthCrossChainManager() whenNotPaused public view returns (address) {\n        return EthCrossChainManagerAddr_;\n    }\n    function changeManagerChainID(uint64 _newChainId) onlyOwner whenPaused public {\n        IUpgradableECCM eccm = IUpgradableECCM(EthCrossChainManagerAddr_);\n        if (!eccm.paused()) {\n            require(eccm.pause(), \"Pause old EthCrossChainManager contract failed!\");\n        }\n        require(eccm.setChainId(_newChainId), \"set chain ID failed. \");\n    }\n}",
  "sourcePath": "/Users/user/Desktop/hashport/eth-contracts/contracts/core/cross_chain_manager/upgrade/EthCrossChainManagerProxy.sol",
  "compiler": {
    "name": "solc",
    "version": "0.5.16+commit.9c3226ce.Emscripten.clang"
  },
  "schemaVersion": "3.4.5",
  "updatedAt": "2022-03-02T01:42:02.736Z",
  "networkType": "ethereum",
  "devdoc": {
    "methods": {
      "isOwner()": {
        "details": "Returns true if the caller is the current owner."
      },
      "owner()": {
        "details": "Returns the address of the current owner."
      },
      "paused()": {
        "details": "Returns true if the contract is paused, and false otherwise."
      },
      "renounceOwnership()": {
        "details": "Leaves the contract without owner. It will not be possible to call `onlyOwner` functions anymore. Can only be called by the current owner.     * NOTE: Renouncing ownership will leave the contract without an owner, thereby removing any functionality that is only available to the owner."
      },
      "transferOwnership(address)": {
        "details": "Transfers ownership of the contract to a new account (`newOwner`). Can only be called by the current owner."
      }
    }
  },
  "userdoc": {
    "methods": {}
  }
}