{
  "contractName": "EthCrossChainManager",
  "abi": [
    {
      "inputs": [
        {
          "internalType": "address",
          "name": "_eccd",
          "type": "address"
        },
        {
          "internalType": "uint64",
          "name": "_chainId",
          "type": "uint64"
        },
        {
          "internalType": "address[]",
          "name": "fromContractWhiteList",
          "type": "address[]"
        },
        {
          "internalType": "bytes[]",
          "name": "contractMethodWhiteList",
          "type": "bytes[]"
        }
      ],
      "payable": false,
      "stateMutability": "nonpayable",
      "type": "constructor"
    },
    {
      "anonymous": false,
      "inputs": [
        {
          "indexed": false,
          "internalType": "uint256",
          "name": "height",
          "type": "uint256"
        },
        {
          "indexed": false,
          "internalType": "bytes",
          "name": "rawHeader",
          "type": "bytes"
        }
      ],
      "name": "ChangeBookKeeperEvent",
      "type": "event"
    },
    {
      "anonymous": false,
      "inputs": [
        {
          "indexed": true,
          "internalType": "address",
          "name": "sender",
          "type": "address"
        },
        {
          "indexed": false,
          "internalType": "bytes",
          "name": "txId",
          "type": "bytes"
        },
        {
          "indexed": false,
          "internalType": "address",
          "name": "proxyOrAssetContract",
          "type": "address"
        },
        {
          "indexed": false,
          "internalType": "uint64",
          "name": "toChainId",
          "type": "uint64"
        },
        {
          "indexed": false,
          "internalType": "bytes",
          "name": "toContract",
          "type": "bytes"
        },
        {
          "indexed": false,
          "internalType": "bytes",
          "name": "rawdata",
          "type": "bytes"
        }
      ],
      "name": "CrossChainEvent",
      "type": "event"
    },
    {
      "anonymous": false,
      "inputs": [
        {
          "indexed": false,
          "internalType": "uint256",
          "name": "height",
          "type": "uint256"
        },
        {
          "indexed": false,
          "internalType": "bytes",
          "name": "rawHeader",
          "type": "bytes"
        }
      ],
      "name": "InitGenesisBlockEvent",
      "type": "event"
    },
    {
      "anonymous": false,
      "inputs": [
        {
          "indexed": true,
          "internalType": "address",
          "name": "previousOwner",
          "type": "address"
        },
        {
          "indexed": true,
          "internalType": "address",
          "name": "newOwner",
          "type": "address"
        }
      ],
      "name": "OwnershipTransferred",
      "type": "event"
    },
    {
      "anonymous": false,
      "inputs": [
        {
          "indexed": false,
          "internalType": "address",
          "name": "account",
          "type": "address"
        }
      ],
      "name": "Paused",
      "type": "event"
    },
    {
      "anonymous": false,
      "inputs": [
        {
          "indexed": false,
          "internalType": "address",
          "name": "account",
          "type": "address"
        }
      ],
      "name": "Unpaused",
      "type": "event"
    },
    {
      "anonymous": false,
      "inputs": [
        {
          "indexed": false,
          "internalType": "uint64",
          "name": "fromChainID",
          "type": "uint64"
        },
        {
          "indexed": false,
          "internalType": "bytes",
          "name": "toContract",
          "type": "bytes"
        },
        {
          "indexed": false,
          "internalType": "bytes",
          "name": "crossChainTxHash",
          "type": "bytes"
        },
        {
          "indexed": false,
          "internalType": "bytes",
          "name": "fromChainTxHash",
          "type": "bytes"
        }
      ],
      "name": "VerifyHeaderAndExecuteTxEvent",
      "type": "event"
    },
    {
      "constant": true,
      "inputs": [],
      "name": "EthCrossChainDataAddress",
      "outputs": [
        {
          "internalType": "address",
          "name": "",
          "type": "address"
        }
      ],
      "payable": false,
      "stateMutability": "view",
      "type": "function"
    },
    {
      "constant": true,
      "inputs": [],
      "name": "chainId",
      "outputs": [
        {
          "internalType": "uint64",
          "name": "",
          "type": "uint64"
        }
      ],
      "payable": false,
      "stateMutability": "view",
      "type": "function"
    },
    {
      "constant": true,
      "inputs": [],
      "name": "isOwner",
      "outputs": [
        {
          "internalType": "bool",
          "name": "",
          "type": "bool"
        }
      ],
      "payable": false,
      "stateMutability": "view",
      "type": "function"
    },
    {
      "constant": true,
      "inputs": [],
      "name": "owner",
      "outputs": [
        {
          "internalType": "address",
          "name": "",
          "type": "address"
        }
      ],
      "payable": false,
      "stateMutability": "view",
      "type": "function"
    },
    {
      "constant": false,
      "inputs": [],
      "name": "pause",
      "outputs": [
        {
          "internalType": "bool",
          "name": "",
          "type": "bool"
        }
      ],
      "payable": false,
      "stateMutability": "nonpayable",
      "type": "function"
    },
    {
      "constant": true,
      "inputs": [],
      "name": "paused",
      "outputs": [
        {
          "internalType": "bool",
          "name": "",
          "type": "bool"
        }
      ],
      "payable": false,
      "stateMutability": "view",
      "type": "function"
    },
    {
      "constant": false,
      "inputs": [],
      "name": "renounceOwnership",
      "outputs": [],
      "payable": false,
      "stateMutability": "nonpayable",
      "type": "function"
    },
    {
      "constant": false,
      "inputs": [
        {
          "internalType": "uint64",
          "name": "_newChainId",
          "type": "uint64"
        }
      ],
      "name": "setChainId",
      "outputs": [
        {
          "internalType": "bool",
          "name": "",
          "type": "bool"
        }
      ],
      "payable": false,
      "stateMutability": "nonpayable",
      "type": "function"
    },
    {
      "constant": false,
      "inputs": [
        {
          "internalType": "address",
          "name": "newOwner",
          "type": "address"
        }
      ],
      "name": "transferOwnership",
      "outputs": [],
      "payable": false,
      "stateMutability": "nonpayable",
      "type": "function"
    },
    {
      "constant": false,
      "inputs": [],
      "name": "unpause",
      "outputs": [
        {
          "internalType": "bool",
          "name": "",
          "type": "bool"
        }
      ],
      "payable": false,
      "stateMutability": "nonpayable",
      "type": "function"
    },
    {
      "constant": false,
      "inputs": [
        {
          "internalType": "address",
          "name": "newEthCrossChainManagerAddress",
          "type": "address"
        }
      ],
      "name": "upgradeToNew",
      "outputs": [
        {
          "internalType": "bool",
          "name": "",
          "type": "bool"
        }
      ],
      "payable": false,
      "stateMutability": "nonpayable",
      "type": "function"
    },
    {
      "constant": true,
      "inputs": [
        {
          "internalType": "address",
          "name": "",
          "type": "address"
        },
        {
          "internalType": "bytes",
          "name": "",
          "type": "bytes"
        }
      ],
      "name": "whiteListContractMethodMap",
      "outputs": [
        {
          "internalType": "bool",
          "name": "",
          "type": "bool"
        }
      ],
      "payable": false,
      "stateMutability": "view",
      "type": "function"
    },
    {
      "constant": true,
      "inputs": [
        {
          "internalType": "address",
          "name": "",
          "type": "address"
        }
      ],
      "name": "whiteListFromContract",
      "outputs": [
        {
          "internalType": "bool",
          "name": "",
          "type": "bool"
        }
      ],
      "payable": false,
      "stateMutability": "view",
      "type": "function"
    },
    {
      "constant": true,
      "inputs": [],
      "name": "whiteLister",
      "outputs": [
        {
          "internalType": "address",
          "name": "",
          "type": "address"
        }
      ],
      "payable": false,
      "stateMutability": "view",
      "type": "function"
    },
    {
      "constant": false,
      "inputs": [
        {
          "internalType": "address",
          "name": "newWL",
          "type": "address"
        }
      ],
      "name": "setWhiteLister",
      "outputs": [],
      "payable": false,
      "stateMutability": "nonpayable",
      "type": "function"
    },
    {
      "constant": false,
      "inputs": [
        {
          "internalType": "address[]",
          "name": "fromContractWhiteList",
          "type": "address[]"
        }
      ],
      "name": "setFromContractWhiteList",
      "outputs": [],
      "payable": false,
      "stateMutability": "nonpayable",
      "type": "function"
    },
    {
      "constant": false,
      "inputs": [
        {
          "internalType": "address[]",
          "name": "fromContractWhiteList",
          "type": "address[]"
        }
      ],
      "name": "removeFromContractWhiteList",
      "outputs": [],
      "payable": false,
      "stateMutability": "nonpayable",
      "type": "function"
    },
    {
      "constant": false,
      "inputs": [
        {
          "internalType": "bytes[]",
          "name": "contractMethodWhiteList",
          "type": "bytes[]"
        }
      ],
      "name": "setContractMethodWhiteList",
      "outputs": [],
      "payable": false,
      "stateMutability": "nonpayable",
      "type": "function"
    },
    {
      "constant": false,
      "inputs": [
        {
          "internalType": "bytes[]",
          "name": "contractMethodWhiteList",
          "type": "bytes[]"
        }
      ],
      "name": "removeContractMethodWhiteList",
      "outputs": [],
      "payable": false,
      "stateMutability": "nonpayable",
      "type": "function"
    },
    {
      "constant": false,
      "inputs": [
        {
          "internalType": "bytes",
          "name": "rawHeader",
          "type": "bytes"
        },
        {
          "internalType": "bytes",
          "name": "pubKeyList",
          "type": "bytes"
        }
      ],
      "name": "initGenesisBlock",
      "outputs": [
        {
          "internalType": "bool",
          "name": "",
          "type": "bool"
        }
      ],
      "payable": false,
      "stateMutability": "nonpayable",
      "type": "function"
    },
    {
      "constant": false,
      "inputs": [
        {
          "internalType": "bytes",
          "name": "rawHeader",
          "type": "bytes"
        },
        {
          "internalType": "bytes",
          "name": "pubKeyList",
          "type": "bytes"
        },
        {
          "internalType": "bytes",
          "name": "sigList",
          "type": "bytes"
        }
      ],
      "name": "changeBookKeeper",
      "outputs": [
        {
          "internalType": "bool",
          "name": "",
          "type": "bool"
        }
      ],
      "payable": false,
      "stateMutability": "nonpayable",
      "type": "function"
    },
    {
      "constant": false,
      "inputs": [
        {
          "internalType": "uint64",
          "name": "toChainId",
          "type": "uint64"
        },
        {
          "internalType": "bytes",
          "name": "toContract",
          "type": "bytes"
        },
        {
          "internalType": "bytes",
          "name": "method",
          "type": "bytes"
        },
        {
          "internalType": "bytes",
          "name": "txData",
          "type": "bytes"
        }
      ],
      "name": "crossChain",
      "outputs": [
        {
          "internalType": "bool",
          "name": "",
          "type": "bool"
        }
      ],
      "payable": false,
      "stateMutability": "nonpayable",
      "type": "function"
    },
    {
      "constant": false,
      "inputs": [
        {
          "internalType": "bytes",
          "name": "proof",
          "type": "bytes"
        },
        {
          "internalType": "bytes",
          "name": "rawHeader",
          "type": "bytes"
        },
        {
          "internalType": "bytes",
          "name": "headerProof",
          "type": "bytes"
        },
        {
          "internalType": "bytes",
          "name": "curRawHeader",
          "type": "bytes"
        },
        {
          "internalType": "bytes",
          "name": "headerSig",
          "type": "bytes"
        }
      ],
      "name": "verifyHeaderAndExecuteTx",
      "outputs": [
        {
          "internalType": "bool",
          "name": "",
          "type": "bool"
        }
      ],
      "payable": false,
      "stateMutability": "nonpayable",
      "type": "function"
    }
  ],
  "bytecode": "0x60806040523480156200001157600080fd5b506040516200549a3803806200549a83398101604081905262000034916200043e565b838360006200004b6001600160e01b036200021a16565b600080546001600160a01b0319166001600160a01b0383169081178255604051929350917f8be0079c531659141344cd1fd0a4f28419497f9722a3daafe3b4186f6b6457e0908290a3506000805460ff60a01b19168155600180546001600160401b03909316600160a01b02600160a01b600160e01b03196001600160a01b039095166001600160a01b031994851617949094169390931790925560028054909116331790555b82518110156200014a576001600360008584815181106200010f57fe5b6020908102919091018101516001600160a01b03168252810191909152604001600020805460ff1916911515919091179055600101620000f2565b5060005b81518110156200020f57600060608383815181106200016957fe5b6020026020010151806020019051620001869190810190620003e7565b909250905060005b815181101562000203576001600160a01b0383166000908152600460205260409020825160019190849084908110620001c357fe5b6020026020010151604051620001da91906200050d565b908152604051908190036020019020805491151560ff199092169190911790556001016200018e565b5050506001016200014e565b505050505062000611565b3390565b80516200022b81620005ec565b92915050565b600082601f8301126200024357600080fd5b81516200025a620002548262000549565b62000522565b915081818352602084019350602081019050838560208402820111156200028057600080fd5b60005b83811015620002b057816200029988826200021e565b845250602092830192919091019060010162000283565b5050505092915050565b600082601f830112620002cc57600080fd5b8151620002dd620002548262000549565b81815260209384019390925082018360005b83811015620002b0578151860162000308888262000384565b8452506020928301929190910190600101620002ef565b600082601f8301126200033157600080fd5b815162000342620002548262000549565b81815260209384019390925082018360005b83811015620002b057815186016200036d888262000384565b845250602092830192919091019060010162000354565b600082601f8301126200039657600080fd5b8151620003a762000254826200056a565b91508082526020830160208301858383011115620003c457600080fd5b620003d1838284620005b9565b50505092915050565b80516200022b8162000606565b60008060408385031215620003fb57600080fd5b60006200040985856200021e565b92505060208301516001600160401b038111156200042657600080fd5b6200043485828601620002ba565b9150509250929050565b600080600080608085870312156200045557600080fd5b60006200046387876200021e565b94505060206200047687828801620003da565b93505060408501516001600160401b038111156200049357600080fd5b620004a18782880162000231565b92505060608501516001600160401b03811115620004be57600080fd5b620004cc878288016200031f565b91505092959194509250565b6000620004e58262000592565b620004f1818562000596565b935062000503818560208601620005b9565b9290920192915050565b60006200051b8284620004d8565b9392505050565b6040518181016001600160401b03811182821017156200054157600080fd5b604052919050565b60006001600160401b038211156200056057600080fd5b5060209081020190565b60006001600160401b038211156200058157600080fd5b506020601f91909101601f19160190565b5190565b919050565b60006001600160a01b0382166200022b565b6001600160401b031690565b60005b83811015620005d6578181015183820152602001620005bc565b83811115620005e6576000848401525b50505050565b620005f7816200059b565b81146200060357600080fd5b50565b620005f781620005ad565b614e7980620006216000396000f3fe608060405234801561001057600080fd5b506004361061014c5760003560e01c80638da5cb5b116100c3578063bd5cf6251161007c578063bd5cf6251461026e578063d07033aa14610281578063d450e04c14610294578063ef26e41d146102a7578063f2fde38b146102af578063f76fe431146102c25761014c565b80638da5cb5b146102105780638f32d59b146102185780639576bfbd146102205780639a8a059214610233578063a692f6d414610248578063ba1c9bc71461025b5761014c565b80635c975abb116101155780635c975abb146101bf5780636f31031d146101c7578063715018a6146101da57806373f53ba4146101e25780637e724ff3146101f55780638456cb59146102085761014c565b8062ba1694146101515780631753acca1461016f57806329dcf4ab1461018457806334a773eb146101a45780633f4ba83a146101b7575b600080fd5b6101596102d5565b60405161016691906147dc565b60405180910390f35b61018261017d3660046134e2565b6102e4565b005b6101976101923660046135bb565b6103d1565b60405161016691906147f8565b6101976101b2366004613586565b610796565b610197610a49565b610197610b9e565b6101976101d5366004613751565b610bae565b610182610c28565b6101976101f03660046133f8565b610c96565b6101976102033660046133f8565b610cab565b610197610d66565b610159610eb1565b610197610ec0565b61018261022e3660046133f8565b610ee4565b61023b610f56565b6040516101669190614c3c565b6101826102563660046134ae565b610f6c565b610197610269366004613467565b610fee565b61019761027c36600461376f565b61101f565b61018261028f3660046134e2565b6113a8565b6101976102a236600461364c565b61148c565b610159611943565b6101826102bd3660046133f8565b611952565b6101826102d03660046134ae565b611982565b6001546001600160a01b031681565b6002546001600160a01b031633146103175760405162461bcd60e51b815260040161030e906148ee565b60405180910390fd5b60005b81518110156103cd576000606083838151811061033357fe5b602002602001015180602001905161034e9190810190613416565b909250905060005b81518110156103c2576001600160a01b0383166000908152600460205260408120835184908490811061038557fe5b602002602001015160405161039a9190614740565b908152604051908190036020019020805491151560ff19909216919091179055600101610356565b50505060010161031a565b5050565b60008054600160a01b900460ff16156103fc5760405162461bcd60e51b815260040161030e906149fe565b6104046130e2565b61040d85611a04565b90506000600160009054906101000a90046001600160a01b031690506000816001600160a01b0316635ac407906040518163ffffffff1660e01b815260040160206040518083038186803b15801561046457600080fd5b505afa158015610478573d6000803e3d6000fd5b505050506040513d601f19601f8201168201806040525061049c9190810190613733565b63ffffffff169050806001600160401b0316836060015163ffffffff16116104d65760405162461bcd60e51b815260040161030e90614a2e565b6101408301516bffffffffffffffffffffffff19166105075760405162461bcd60e51b815260040161030e9061493e565b6060610586836001600160a01b03166369d480746040518163ffffffff1660e01b815260040160006040518083038186803b15801561054557600080fd5b505afa158015610559573d6000803e3d6000fd5b505050506040513d6000823e601f3d908101601f191682016040526105819190810190613552565b611b23565b80519091506105a1898884600360001986015b048503611bd6565b6105bd5760405162461bcd60e51b815260040161030e906149ce565b600060606105ca8a611dd9565b91509150816001600160601b0319168761014001516001600160601b031916146106065760405162461bcd60e51b815260040161030e90614a1e565b6060870151604051638a8bd17f60e01b81526001600160a01b03881691638a8bd17f916106369190600401614c0e565b602060405180830381600087803b15801561065057600080fd5b505af1158015610664573d6000803e3d6000fd5b505050506040513d601f19601f820116820180604052506106889190810190613516565b6106a45760405162461bcd60e51b815260040161030e90614ace565b856001600160a01b03166341973cd96106bc83611e55565b6040518263ffffffff1660e01b81526004016106d89190614849565b602060405180830381600087803b1580156106f257600080fd5b505af1158015610706573d6000803e3d6000fd5b505050506040513d601f19601f8201168201806040525061072a9190810190613516565b6107465760405162461bcd60e51b815260040161030e90614a4e565b7fe60d33488cba3977bf65766cd2f8ac9617f64bf3b3198aff6240ce5c7d43b69087606001518c60405161077b929190614c1c565b60405180910390a160019750505050505050505b9392505050565b60008054600160a01b900460ff16156107c15760405162461bcd60e51b815260040161030e906149fe565b60015460408051631a75201d60e21b815290516001600160a01b039092169182916369d48074916004808301926000929190829003018186803b15801561080757600080fd5b505afa15801561081b573d6000803e3d6000fd5b505050506040513d6000823e601f3d908101601f191682016040526108439190810190613552565b51156108615760405162461bcd60e51b815260040161030e90614b5e565b6108696130e2565b61087285611a04565b90506000606061088186611dd9565b91509150816001600160601b0319168361014001516001600160601b031916146108bd5760405162461bcd60e51b815260040161030e90614a1e565b6060830151604051638a8bd17f60e01b81526001600160a01b03861691638a8bd17f916108ed9190600401614c0e565b602060405180830381600087803b15801561090757600080fd5b505af115801561091b573d6000803e3d6000fd5b505050506040513d601f19601f8201168201806040525061093f9190810190613516565b61095b5760405162461bcd60e51b815260040161030e9061499e565b836001600160a01b03166341973cd961097383611e55565b6040518263ffffffff1660e01b815260040161098f9190614849565b602060405180830381600087803b1580156109a957600080fd5b505af11580156109bd573d6000803e3d6000fd5b505050506040513d601f19601f820116820180604052506109e19190810190613516565b6109fd5760405162461bcd60e51b815260040161030e90614b7e565b7ff01968fc3a2655cf1b5144cb32de6dc898f91b9239c103744e8457152ab2fbde836060015188604051610a32929190614c1c565b60405180910390a160019450505050505b92915050565b6000610a53610ec0565b610a6f5760405162461bcd60e51b815260040161030e90614a6e565b610a77610b9e565b15610a8457610a84611ec4565b60015460408051635c975abb60e01b815290516001600160a01b03909216918291635c975abb916004808301926020929190829003018186803b158015610aca57600080fd5b505afa158015610ade573d6000803e3d6000fd5b505050506040513d601f19601f82011682018060405250610b029190810190613516565b15610b9657806001600160a01b0316633f4ba83a6040518163ffffffff1660e01b8152600401602060405180830381600087803b158015610b4257600080fd5b505af1158015610b56573d6000803e3d6000fd5b505050506040513d601f19601f82011682018060405250610b7a9190810190613516565b610b965760405162461bcd60e51b815260040161030e9061494e565b600191505090565b600054600160a01b900460ff1690565b60008054600160a01b900460ff16610bd85760405162461bcd60e51b815260040161030e906148fe565b610be0610ec0565b610bfc5760405162461bcd60e51b815260040161030e90614a6e565b506001805467ffffffffffffffff60a01b1916600160a01b6001600160401b038416021781555b919050565b610c30610ec0565b610c4c5760405162461bcd60e51b815260040161030e90614a6e565b600080546040516001600160a01b03909116907f8be0079c531659141344cd1fd0a4f28419497f9722a3daafe3b4186f6b6457e0908390a3600080546001600160a01b0319169055565b60036020526000908152604090205460ff1681565b60008054600160a01b900460ff16610cd55760405162461bcd60e51b815260040161030e906148fe565b610cdd610ec0565b610cf95760405162461bcd60e51b815260040161030e90614a6e565b60015460405163f2fde38b60e01b81526001600160a01b0390911690819063f2fde38b90610d2b9086906004016147dc565b600060405180830381600087803b158015610d4557600080fd5b505af1158015610d59573d6000803e3d6000fd5b5060019695505050505050565b6000610d70610ec0565b610d8c5760405162461bcd60e51b815260040161030e90614a6e565b610d94610b9e565b610da057610da0611f3a565b60015460408051635c975abb60e01b815290516001600160a01b03909216918291635c975abb916004808301926020929190829003018186803b158015610de657600080fd5b505afa158015610dfa573d6000803e3d6000fd5b505050506040513d601f19601f82011682018060405250610e1e9190810190613516565b610b9657806001600160a01b0316638456cb596040518163ffffffff1660e01b8152600401602060405180830381600087803b158015610e5d57600080fd5b505af1158015610e71573d6000803e3d6000fd5b505050506040513d601f19601f82011682018060405250610e959190810190613516565b610b965760405162461bcd60e51b815260040161030e9061491e565b6000546001600160a01b031690565b600080546001600160a01b0316610ed5611f9c565b6001600160a01b031614905090565b6002546001600160a01b03163314610f0e5760405162461bcd60e51b815260040161030e906148ee565b6001600160a01b038116610f345760405162461bcd60e51b815260040161030e90614ade565b600280546001600160a01b0319166001600160a01b0392909216919091179055565b600154600160a01b90046001600160401b031681565b6002546001600160a01b03163314610f965760405162461bcd60e51b815260040161030e906148ee565b60005b81518110156103cd57600160036000848481518110610fb457fe5b6020908102919091018101516001600160a01b03168252810191909152604001600020805460ff1916911515919091179055600101610f99565b6004602090815260009283526040909220815180830184018051928152908401929093019190912091525460ff1681565b60008054600160a01b900460ff161561104a5760405162461bcd60e51b815260040161030e906149fe565b3360009081526003602052604090205460ff166110795760405162461bcd60e51b815260040161030e906149ee565b60015460408051600162c2db5f60e01b0319815290516001600160a01b0390921691600091839163ff3d24a191600480820192602092909190829003018186803b1580156110c657600080fd5b505afa1580156110da573d6000803e3d6000fd5b505050506040513d601f19601f820116820180604052506110fe9190810190613534565b9050606061110b82611fa0565b9050606061111882611fe4565b6111ae600230856040516020016111309291906146a0565b60408051601f198184030181529082905261114a91614740565b602060405180830381855afa158015611167573d6000803e3d6000fd5b5050506040513d601f19601f8201168201806040525061118a9190810190613534565b60405160200161119a919061470f565b604051602081830303815290604052611fe4565b6111bf6111ba3361201b565b611fe4565b6111c88f612036565b6112078f8f8080601f016020809104026020016040519081016040528093929190818152602001838380828437600092019190915250611fe492505050565b6112468e8e8080601f016020809104026020016040519081016040528093929190818152602001838380828437600092019190915250611fe492505050565b6112858d8d8080601f016020809104026020016040519081016040528093929190818152602001838380828437600092019190915250611fe492505050565b60405160200161129b9796959493929190614764565b60408051601f19818403018152908290528051602082012063130f33d960e21b83529092506001600160a01b03861691634c3ccf64916112dd91600401614806565b602060405180830381600087803b1580156112f757600080fd5b505af115801561130b573d6000803e3d6000fd5b505050506040513d601f19601f8201168201806040525061132f9190810190613516565b61134b5760405162461bcd60e51b815260040161030e90614bce565b326001600160a01b03167f6ad3bf15c1988bc04bc153490cab16db8efb9a3990215bf1c64ea6e28be8848383338f8f8f8760405161138e9695949392919061485a565b60405180910390a25060019b9a5050505050505050505050565b6002546001600160a01b031633146113d25760405162461bcd60e51b815260040161030e906148ee565b60005b81518110156103cd57600060608383815181106113ee57fe5b60200260200101518060200190516114099190810190613416565b909250905060005b8151811015611481576001600160a01b038316600090815260046020526040902082516001919084908490811061144457fe5b60200260200101516040516114599190614740565b908152604051908190036020019020805491151560ff19909216919091179055600101611411565b5050506001016113d5565b60008054600160a01b900460ff16156114b75760405162461bcd60e51b815260040161030e906149fe565b6114bf6130e2565b6114c886611a04565b90506000600160009054906101000a90046001600160a01b031690506060611522826001600160a01b03166369d480746040518163ffffffff1660e01b815260040160006040518083038186803b15801561054557600080fd5b90506000826001600160a01b0316635ac407906040518163ffffffff1660e01b815260040160206040518083038186803b15801561155f57600080fd5b505afa158015611573573d6000803e3d6000fd5b505050506040513d601f19601f820116820180604052506115979190810190613733565b63ffffffff16905060008251905081856060015163ffffffff16106115e9576115c88a888560036000198601610599565b6115e45760405162461bcd60e51b815260040161030e90614bfe565b61166f565b6115fb88888560036000198601610599565b6116175760405162461bcd60e51b815260040161030e90614afe565b61161f6130e2565b61162889611a04565b9050606061163b8b836101000151612079565b905061164681612178565b61164f8d6121a3565b1461166c5760405162461bcd60e51b815260040161030e9061496e565b50505b606061167f8c8760e00151612079565b905061168961313d565b61169282612260565b9050856001600160a01b0316630586763c82602001516116b58460000151612178565b6040518363ffffffff1660e01b81526004016116d2929190614c4a565b60206040518083038186803b1580156116ea57600080fd5b505afa1580156116fe573d6000803e3d6000fd5b505050506040513d601f19601f820116820180604052506117229190810190613516565b1561173f5760405162461bcd60e51b815260040161030e90614bbe565b856001600160a01b031663e90bfdcf82602001516117608460000151612178565b6040518363ffffffff1660e01b815260040161177d929190614c4a565b602060405180830381600087803b15801561179757600080fd5b505af11580156117ab573d6000803e3d6000fd5b505050506040513d601f19601f820116820180604052506117cf9190810190613516565b6117eb5760405162461bcd60e51b815260040161030e9061498e565b6001546040820151606001516001600160401b03908116600160a01b90920416146118285760405162461bcd60e51b815260040161030e906149ae565b600061183b82604001516080015161233c565b6001600160a01b038116600090815260046020526040908190208482015160a0015191519293509161186d9190614740565b9081526040519081900360200190205460ff1661189c5760405162461bcd60e51b815260040161030e906149de565b6118c581836040015160a00151846040015160c001518560400151604001518660200151612367565b6118e15760405162461bcd60e51b815260040161030e9061490e565b602082015160408084015160808101518551915192517f8a4a2663ce60ce4955c595da2894de0415240f1ace024cfbff85f513b656bdae9461192594909391614c65565b60405180910390a16001985050505050505050505b95945050505050565b6002546001600160a01b031681565b61195a610ec0565b6119765760405162461bcd60e51b815260040161030e90614a6e565b61197f816124d8565b50565b6002546001600160a01b031633146119ac5760405162461bcd60e51b815260040161030e906148ee565b60005b81518110156103cd576000600360008484815181106119ca57fe5b6020908102919091018101516001600160a01b03168252810191909152604001600020805460ff19169115159190911790556001016119af565b611a0c6130e2565b611a146130e2565b6000611a208482612559565b63ffffffff90911683529050611a3684826125e2565b6001600160401b0390911660208401529050611a528482612669565b60a08401919091529050611a668482612669565b60c08401919091529050611a7a8482612669565b60e08401919091529050611a8e8482612669565b6101008401919091529050611aa38482612559565b63ffffffff90911660408401529050611abc8482612559565b63ffffffff90911660608401529050611ad584826125e2565b6001600160401b0390911660808401529050611af184826126ae565b6101208401919091529050611b068482612762565b506bffffffffffffffffffffffff19166101408301525092915050565b6060600080611b3284826125e2565b80935081925050506060816001600160401b0316604051908082528060200260200182016040528015611b6f578160200160208202803883390190505b509050606060005b836001600160401b0316811015611bcb57611b9287866126ae565b95509150611b9f8261233c565b838281518110611bab57fe5b6001600160a01b0390921660209283029190910190910152600101611b77565b509095945050505050565b600080611be2866121a3565b90506000611bfb604187516127ab90919063ffffffff16565b9050606081604051908082528060200260200182016040528015611c29578160200160208202803883390190505b50905060008080805b85811015611dbc57611c51611c4c8c6041840260206127ed565b612178565b9350611c68611c4c8c6041840260200160206127ed565b92508a6041820260400181518110611c7c57fe5b602001015160f81c60f81b60f81c601b0191506001600288604051602001611ca4919061470f565b60408051601f1981840301815290829052611cbe91614740565b602060405180830381855afa158015611cdb573d6000803e3d6000fd5b5050506040513d601f19601f82011682018060405250611cfe9190810190613534565b83868660405160008152602001604052604051611d1e9493929190614814565b6020604051602081039080840390855afa158015611d40573d6000803e3d6000fd5b50505060206040510351858281518110611d5657fe5b60200260200101906001600160a01b031690816001600160a01b03168152505060006001600160a01b0316858281518110611d8d57fe5b60200260200101516001600160a01b03161415611db4576000975050505050505050611dd1565b600101611c32565b50611dc889858a61286d565b96505050505050505b949350505050565b600060606043835181611de857fe5b0615611e065760405162461bcd60e51b815260040161030e90614aae565b60006043845181611e1357fe5b0490506001811015611e375760405162461bcd60e51b815260040161030e90614b2e565b611e4b81600360001982010483038661290e565b9250925050915091565b805160609081611e6482612036565b905060005b82811015611ebc5781611e916111ba878481518110611e8457fe5b602002602001015161201b565b604051602001611ea292919061474c565b60408051601f198184030181529190529150600101611e69565b509392505050565b600054600160a01b900460ff16611eed5760405162461bcd60e51b815260040161030e906148fe565b6000805460ff60a01b191690557f5db9ee0a495bf2e6ff9c91a7834c1ba4fdd244a5e8aa4e537bd38aeae4b073aa611f23611f9c565b604051611f3091906147ea565b60405180910390a1565b600054600160a01b900460ff1615611f645760405162461bcd60e51b815260040161030e906149fe565b6000805460ff60a01b1916600160a01b1790557f62e78cea01bee320cd4e420270b5ea74000d11b0c9f74754ebdbfc544b05a258611f235b3390565b60606001600160ff1b03821115611fc95760405162461bcd60e51b815260040161030e90614a5e565b60405190506020815281602082015260408101604052919050565b8051606090611ff281612ac3565b8360405160200161200492919061474c565b604051602081830303815290604052915050919050565b604080516014815260609290921b6020830152818101905290565b6040516008808252606091906000601f5b828210156120695785811a826020860101536001919091019060001901612047565b5050506028810160405292915050565b606060008161208885836126ae565b92509050600061209782612b7a565b905060006120c060216120b4868a51612b9590919063ffffffff16565b9063ffffffff6127ab16565b9050600080805b8381101561214b576120d98a88612bd7565b975091506120e78a88612669565b975092506001600160f81b0319821661210b576121048386612c20565b9450612143565b600160f81b6001600160f81b03198316141561212b576121048584612c20565b60405162461bcd60e51b815260040161030e90614a8e565b6001016120c7565b5087841461216b5760405162461bcd60e51b815260040161030e90614a0e565b5092979650505050505050565b6000815160201461219b5760405162461bcd60e51b815260040161030e90614b1e565b506020015190565b6000600280836040516121b69190614740565b602060405180830381855afa1580156121d3573d6000803e3d6000fd5b5050506040513d601f19601f820116820180604052506121f69190810190613534565b604051602001612206919061470f565b60408051601f198184030181529082905261222091614740565b602060405180830381855afa15801561223d573d6000803e3d6000fd5b5050506040513d601f19601f82011682018060405250610a439190810190613534565b61226861313d565b61227061313d565b600061227c84826126ae565b908352905061228b84826125e2565b6001600160401b03909116602084015290506122a5613161565b6122af85836126ae565b90825291506122be85836126ae565b602083019190915291506122d285836126ae565b604083019190915291506122e685836125e2565b6001600160401b039091166060830152915061230285836126ae565b6080830191909152915061231685836126ae565b60a0830191909152915061232a85836126ae565b5060c082015260408301525092915050565b6000815160141461235f5760405162461bcd60e51b815260040161030e9061495e565b506014015190565b600061237286612c97565b61238e5760405162461bcd60e51b815260040161030e90614abe565b60606000876001600160a01b0316876040516020016123ad91906147c5565b604051602081830303815290604052805190602001208787876040516020016123d8939291906148ba565b60408051601f19818403018152908290526123f69291602001614724565b60408051601f198184030181529082905261241091614740565b6000604051808303816000865af19150503d806000811461244d576040519150601f19603f3d011682016040523d82523d6000602084013e612452565b606091505b50925090506001811515146124795760405162461bcd60e51b815260040161030e90614a3e565b81516124975760405162461bcd60e51b815260040161030e90614b0e565b60006124a483601f612cce565b5090506001811515146124c95760405162461bcd60e51b815260040161030e90614b3e565b50600198975050505050505050565b6001600160a01b0381166124fe5760405162461bcd60e51b815260040161030e9061497e565b600080546040516001600160a01b03808516939216917f8be0079c531659141344cd1fd0a4f28419497f9722a3daafe3b4186f6b6457e091a3600080546001600160a01b0319166001600160a01b0392909216919091179055565b6000808351836004011115801561257257508260040183105b61258e5760405162461bcd60e51b815260040161030e90614bde565b600060405160046000600182038760208a0101515b838310156125c35780821a838601536001830192506001820391506125a3565b50505080820160405260200390035192505050600482015b9250929050565b600080835183600801111580156125fb57508260080183105b6126175760405162461bcd60e51b815260040161030e90614b9e565b600060405160086000600182038760208a0101515b8383101561264c5780821a8386015360018301925060018203915061262c565b505050808201604052602003900351956008949094019450505050565b6000808351836020011115801561268257508260200183105b61269e5760405162461bcd60e51b815260040161030e90614b8e565b5050602091810182015192910190565b60606000806126bd8585612d67565b8651909550909150818501118015906126d7575080840184105b6126f35760405162461bcd60e51b815260040161030e90614bee565b60608115801561270e57604051915060208201604052612758565b6040519150601f8316801560200281840101848101888315602002848c0101015b8183101561274757805183526020928301920161272f565b5050848452601f01601f1916604052505b5095930193505050565b6000808351836014011115801561277b57508260140183105b6127975760405162461bcd60e51b815260040161030e906149be565b505081810160200151601482019250929050565b600061078f83836040518060400160405280601a81526020017f536166654d6174683a206469766973696f6e206279207a65726f000000000000815250612eac565b6060818301845110156127ff57600080fd5b60608215801561281a57604051915060208201604052612864565b6040519150601f8416801560200281840101858101878315602002848b0101015b8183101561285357805183526020928301920161283b565b5050858452601f01601f1916604052505b50949350505050565b600080805b84518110156129025760005b86518110156128f95786818151811061289357fe5b60200260200101516001600160a01b03168683815181106128b057fe5b60200260200101516001600160a01b031614156128f15782806001019350508681815181106128db57fe5b6020026020010160006001600160a01b03168152505b60010161287e565b50600101612872565b50909111159392505050565b600060608061291c86612ee3565b905060608660405190808252806020026020018201604052801561294a578160200160208202803883390190505b50905060006060815b898110156129e15761296a886043830260436127ed565b9150846129796111ba84612f26565b60405160200161298a92919061474c565b60405160208183030381529060405294506129a882600360406127ed565b8051906020012092508260001c8482815181106129c157fe5b6001600160a01b0390921660209283029190910190910152600101612953565b50836129ec89612ee3565b6040516020016129fd92919061474c565b604051602081830303815290604052935060006003600286604051612a229190614740565b602060405180830381855afa158015612a3f573d6000803e3d6000fd5b5050506040513d601f19601f82011682018060405250612a629190810190613534565b604051602001612a72919061470f565b60408051601f1981840301815290829052612a8c91614740565b602060405180830381855afa158015612aa9573d6000803e3d6000fd5b50506040515160601b9b949a509398505050505050505050565b606060fd826001600160401b03161015612ae757612ae082612fdf565b9050610c23565b61ffff826001600160401b031611612b3657612b0660fd60f81b612ffb565b612b0f83612ee3565b604051602001612b2092919061474c565b6040516020818303038152906040529050610c23565b63ffffffff826001600160401b031611612b6057612b57607f60f91b612ffb565b612b0f83613009565b612b716001600160f81b0319612ffb565b612b0f83612036565b60006002600060f81b836040516020016122069291906146f3565b600061078f83836040518060400160405280601e81526020017f536166654d6174683a207375627472616374696f6e206f766572666c6f77000081525061304c565b60008083518360010111158015612bf057508260010183105b612c0c5760405162461bcd60e51b815260040161030e90614a9e565b505081810160200151600182019250929050565b60006002600160f81b8484604051602001612c3d939291906146bc565b60408051601f1981840301815290829052612c5791614740565b602060405180830381855afa158015612c74573d6000803e3d6000fd5b5050506040513d601f19601f8201168201806040525061078f9190810190613534565b6000813f7fc5d2460186f7233c927e7db2dcc703c0e500b653ca82273b7bfad8045d85a4708115801590611dd15750141592915050565b60008083518360010111158015612ce757508260010183105b612d035760405162461bcd60e51b815260040161030e90614b6e565b838301602001516000600160f81b6001600160f81b031983161415612d2a57506001612d59565b6001600160f81b03198216612d4157506000612d59565b60405162461bcd60e51b815260040161030e90614a7e565b956001949094019450505050565b6000806000612d768585612bd7565b94509050600060fd60f81b6001600160f81b031983161415612ddf57612d9c8686613078565b955061ffff16905060fd8110801590612db7575061ffff8111155b612dd35760405162461bcd60e51b815260040161030e9061492e565b92508391506125db9050565b607f60f91b6001600160f81b031983161415612e3a57612dff8686612559565b955063ffffffff16905061ffff81118015612e1e575063ffffffff8111155b612dd35760405162461bcd60e51b815260040161030e90614aee565b6001600160f81b03198083161415612e8657612e5686866125e2565b95506001600160401b0316905063ffffffff8111612dd35760405162461bcd60e51b815260040161030e90614aee565b5060f881901c60fd8110612dd35760405162461bcd60e51b815260040161030e90614aee565b60008183612ecd5760405162461bcd60e51b815260040161030e9190614849565b506000838581612ed957fe5b0495945050505050565b6040516002808252606091906000601f5b82821015612f165785811a826020860101536001919091019060001901612ef4565b5050506022810160405292915050565b6060604382511015612f4a5760405162461bcd60e51b815260040161030e90614bae565b612f5782600060236127ed565b9050600282604281518110612f6857fe5b016020015160f81c81612f7757fe5b0660ff1660001415612fb157600260f81b81600281518110612f9557fe5b60200101906001600160f81b031916908160001a905350610c23565b600360f81b81600281518110612fc357fe5b60200101906001600160f81b031916908160001a905350919050565b604080516001815260f89290921b602083015260218201905290565b6060610a438260f81c612fdf565b6040516004808252606091906000601f5b8282101561303c5785811a82602086010153600191909101906000190161301a565b5050506024810160405292915050565b600081848411156130705760405162461bcd60e51b815260040161030e9190614849565b505050900390565b6000808351836002011115801561309157508260020183105b6130ad5760405162461bcd60e51b815260040161030e90614b4e565b6000604051846020870101518060011a82538060001a6001830153506002818101604052601d19909101519694019450505050565b604080516101608101825260008082526020820181905291810182905260608082018390526080820183905260a0820183905260c0820183905260e08201839052610100820183905261012082015261014081019190915290565b604080516060808201835281526000602082015290810161315c613161565b905290565b6040518060e0016040528060608152602001606081526020016060815260200160006001600160401b031681526020016060815260200160608152602001606081525090565b8035610a4381614dfe565b8051610a4381614dfe565b600082601f8301126131ce57600080fd5b81356131e16131dc82614cdd565b614cb7565b9150818183526020840193506020810190508385602084028201111561320657600080fd5b60005b83811015613232578161321c88826131a7565b8452506020928301929190910190600101613209565b5050505092915050565b600082601f83011261324d57600080fd5b815161325b6131dc82614cdd565b81815260209384019390925082018360005b838110156132325781518601613283888261339c565b845250602092830192919091019060010161326d565b600082601f8301126132aa57600080fd5b81356132b86131dc82614cdd565b81815260209384019390925082018360005b8381101561323257813586016132e0888261334d565b84525060209283019291909101906001016132ca565b8051610a4381614e12565b8051610a4381614e1b565b60008083601f84011261331e57600080fd5b5081356001600160401b0381111561333557600080fd5b6020830191508360018202830111156125db57600080fd5b600082601f83011261335e57600080fd5b813561336c6131dc82614cfd565b9150808252602083016020830185838301111561338857600080fd5b613393838284614da1565b50505092915050565b600082601f8301126133ad57600080fd5b81516133bb6131dc82614cfd565b915080825260208301602083018583830111156133d757600080fd5b613393838284614dad565b8051610a4381614e24565b8035610a4381614e2d565b60006020828403121561340a57600080fd5b6000611dd184846131a7565b6000806040838503121561342957600080fd5b600061343585856131b2565b92505060208301516001600160401b0381111561345157600080fd5b61345d8582860161323c565b9150509250929050565b6000806040838503121561347a57600080fd5b600061348685856131a7565b92505060208301356001600160401b038111156134a257600080fd5b61345d8582860161334d565b6000602082840312156134c057600080fd5b81356001600160401b038111156134d657600080fd5b611dd1848285016131bd565b6000602082840312156134f457600080fd5b81356001600160401b0381111561350a57600080fd5b611dd184828501613299565b60006020828403121561352857600080fd5b6000611dd184846132f6565b60006020828403121561354657600080fd5b6000611dd18484613301565b60006020828403121561356457600080fd5b81516001600160401b0381111561357a57600080fd5b611dd18482850161339c565b6000806040838503121561359957600080fd5b82356001600160401b038111156135af57600080fd5b6134868582860161334d565b6000806000606084860312156135d057600080fd5b83356001600160401b038111156135e657600080fd5b6135f28682870161334d565b93505060208401356001600160401b0381111561360e57600080fd5b61361a8682870161334d565b92505060408401356001600160401b0381111561363657600080fd5b6136428682870161334d565b9150509250925092565b600080600080600060a0868803121561366457600080fd5b85356001600160401b0381111561367a57600080fd5b6136868882890161334d565b95505060208601356001600160401b038111156136a257600080fd5b6136ae8882890161334d565b94505060408601356001600160401b038111156136ca57600080fd5b6136d68882890161334d565b93505060608601356001600160401b038111156136f257600080fd5b6136fe8882890161334d565b92505060808601356001600160401b0381111561371a57600080fd5b6137268882890161334d565b9150509295509295909350565b60006020828403121561374557600080fd5b6000611dd184846133e2565b60006020828403121561376357600080fd5b6000611dd184846133ed565b60008060008060008060006080888a03121561378a57600080fd5b60006137968a8a6133ed565b97505060208801356001600160401b038111156137b257600080fd5b6137be8a828b0161330c565b965096505060408801356001600160401b038111156137dc57600080fd5b6137e88a828b0161330c565b945094505060608801356001600160401b0381111561380657600080fd5b6138128a828b0161330c565b925092505092959891949750929550565b61382c81614d85565b82525050565b61382c81614d31565b61382c61384782614d31565b614ddd565b61382c81614d3c565b61382c61386182614d41565b614d4e565b61382c81614d4e565b61382c61386182614d4e565b61382c61386182614d51565b60006138938385614d28565b93506138a0838584614da1565b6138a983614dee565b9093019392505050565b60006138be82614d24565b6138c88185614d28565b93506138d8818560208601614dad565b6138a981614dee565b60006138ec82614d24565b6138f68185610c23565b9350613906818560208601614dad565b9290920192915050565b600061391d600f83614d28565b6e2737ba103bb434ba32a634b9ba32b960891b815260200192915050565b6000613948601483614d28565b7314185d5cd8589b194e881b9bdd081c185d5cd95960621b815260200192915050565b6000613978601d83614d28565b7f457865637574652043726f7373436861696e205478206661696c656421000000815260200192915050565b60006139b1602783614d28565b7f70617573652045746843726f7373436861696e4461746120636f6e74726163748152660819985a5b195960ca1b602082015260400192915050565b60006139fa601f83614d28565b7f4e65787455696e7431362c2076616c7565206f7574736964652072616e676500815260200192915050565b6000613a33602583614d28565b7f546865206e657874426f6f6b4b6565706572206f662068656164657220697320815264656d70747960d81b602082015260400192915050565b6000613a7a602983614d28565b7f756e70617573652045746843726f7373436861696e4461746120636f6e74726181526818dd0819985a5b195960ba1b602082015260400192915050565b6000613ac5602383614d28565b7f6279746573206c656e67746820646f6573206e6f74206d61746368206164647281526265737360e81b602082015260400192915050565b6000613b0a601b83614d28565b7f766572696679206865616465722070726f6f66206661696c6564210000000000815260200192915050565b6000613b43602683614d28565b7f4f776e61626c653a206e6577206f776e657220697320746865207a65726f206181526564647265737360d01b602082015260400192915050565b6000613b8b602083614d28565b7f536176652063726f7373636861696e207478206578697374206661696c656421815260200192915050565b6000613bc4604383614d28565b7f5361766520506f6c7920636861696e2063757272656e742065706f636820737481527f6172742068656967687420746f204461746120636f6e7472616374206661696c60208201526265642160e81b604082015260600192915050565b6000613c2f602683614d28565b7f54686973205478206973206e6f742061696d696e672061742074686973206e6581526574776f726b2160d01b602082015260400192915050565b6000613c77602383614d28565b7f4e657874427974657332302c206f66667365742065786365656473206d6178698152626d756d60e81b602082015260400192915050565b6000613cbc601883614d28565b7f566572696679207369676e6174757265206661696c6564210000000000000000815260200192915050565b6000613cf5601d83614d28565b7f496e76616c696420746f20636f6e7472616374206f72206d6574686f64000000815260200192915050565b6000613d2e601583614d28565b74125b9d985b1a5908199c9bdb4818dbdb9d1c9858dd605a1b815260200192915050565b6000613d5f601083614d28565b6f14185d5cd8589b194e881c185d5cd95960821b815260200192915050565b6000613d8b603183614d28565b7f6d65726b6c6550726f76652c2065787065637420726f6f74206973206e6f7420815270195c5d585b081858dd1d585b081c9bdbdd607a1b602082015260400192915050565b6000613dde601383614d28565b7213995e1d109bdbdad95c9cc81a5b1b1959d85b606a1b815260200192915050565b6000613e0d603e83614d28565b7f54686520686569676874206f6620686561646572206973206c6f77657220746881527f616e2063757272656e742065706f636820737461727420686569676874210000602082015260400192915050565b6000613e6c602b83614d28565b7f45746843726f7373436861696e2063616c6c20627573696e65737320636f6e7481526a1c9858dd0819985a5b195960aa1b602082015260400192915050565b6000613eb9603b83614d28565b7f5361766520506f6c7920636861696e20626f6f6b206b6565706572732062797481527f657320746f204461746120636f6e7472616374206661696c6564210000000000602082015260400192915050565b6000613f18601783614d28565b7f56616c75652065786365656473207468652072616e6765000000000000000000815260200192915050565b6000613f51602083614d28565b7f4f776e61626c653a2063616c6c6572206973206e6f7420746865206f776e6572815260200192915050565b6000613f8a601483614d28565b732732bc3a2137b7b6103b30b63ab29032b93937b960611b815260200192915050565b6000613fba602e83614d28565b7f6d65726b6c6550726f76652c204e6578744279746520666f7220706f7369746981526d1bdb881a5b999bc819985a5b195960921b602082015260400192915050565b600061400a602083614d28565b7f4e657874427974652c204f66667365742065786365656473206d6178696d756d815260200192915050565b6000614043601b83614d28565b7f5f7075624b65794c697374206c656e67746820696c6c6567616c210000000000815260200192915050565b600061407c602883614d28565b7f5468652070617373656420696e2061646472657373206973206e6f74206120638152676f6e74726163742160c01b602082015260400192915050565b60006140c6602d83614d28565b7f53617665204d43204c617465737448656967687420746f204461746120636f6e81526c7472616374206661696c65642160981b602082015260400192915050565b6000614115601e83614d28565b7f43616e206e6f74207472616e7366657220746f20616464726573732830290000815260200192915050565b600061414e602083614d28565b7f4e65787456617255696e742c2076616c7565206f7574736964652072616e6765815260200192915050565b6000614187603883614d28565b7f56657269667920706f6c7920636861696e2063757272656e742065706f63682081527f686561646572207369676e6174757265206661696c6564210000000000000000602082015260400192915050565b60006141e6601483610c23565b732862797465732c62797465732c75696e7436342960601b815260140192915050565b6000614216602783614d28565b7f4e6f2072657475726e2076616c75652066726f6d20627573696e65737320636f8152666e74726163742160c81b602082015260400192915050565b600061425f601783614d28565b7f6279746573206c656e677468206973206e6f742033322e000000000000000000815260200192915050565b6000614298601683614d28565b75746f6f2073686f7274205f7075624b65794c6973742160501b815260200192915050565b60006142ca603783614d28565b7f45746843726f7373436861696e2063616c6c20627573696e65737320636f6e7481527f726163742072657475726e206973206e6f742074727565000000000000000000602082015260400192915050565b6000614329602283614d28565b7f4e65787455696e7431362c206f66667365742065786365656473206d6178696d815261756d60f01b602082015260400192915050565b600061436d603883614d28565b7f45746843726f7373436861696e4461746120636f6e747261637420686173206181527f6c7265616479206265656e20696e697469616c697a6564210000000000000000602082015260400192915050565b60006143cc601483614d28565b7313d9999cd95d08195e18d959591cc81b1a5b5a5d60621b815260200192915050565b60006143fc604383614d28565b7f5361766520506f6c7920636861696e2063757272656e742065706f636820626f81527f6f6b206b65657065727320746f204461746120636f6e7472616374206661696c60208201526265642160e81b604082015260600192915050565b6000614467602083614d28565b7f4e657874486173682c206f66667365742065786365656473206d6178696d756d815260200192915050565b60006144a0602283614d28565b7f4e65787455696e7436342c206f66667365742065786365656473206d6178696d815261756d60f01b602082015260400192915050565b60006144e4601783614d28565b7f6b6579206c656e67676820697320746f6f2073686f7274000000000000000000815260200192915050565b600061451d602283614d28565b7f746865207472616e73616374696f6e20686173206265656e2065786563757465815261642160f01b602082015260400192915050565b6000614561603083614d28565b7f536176652065746854784861736820627920696e64657820746f20446174612081526f636f6e7472616374206661696c65642160801b602082015260400192915050565b60006145b3602283614d28565b7f4e65787455696e7433322c206f66667365742065786365656473206d6178696d815261756d60f01b602082015260400192915050565b60006145f7602483614d28565b7f4e65787456617242797465732c206f66667365742065786365656473206d6178815263696d756d60e01b602082015260400192915050565b600061463d602a83614d28565b7f56657269667920706f6c7920636861696e20686561646572207369676e6174758152697265206661696c65642160b01b602082015260400192915050565b61382c81614d96565b61382c81614d6a565b61382c81614d73565b61382c81614d7f565b60006146ac828561383b565b601482019150611dd182846138e1565b60006146c88286613855565b6001820191506146d8828561386f565b6020820191506146e8828461386f565b506020019392505050565b60006146ff8285613855565b600182019150611dd182846138e1565b600061471b828461386f565b50602001919050565b6000614730828561387b565b600482019150611dd182846138e1565b600061078f82846138e1565b600061475882856138e1565b9150611dd182846138e1565b6000614770828a6138e1565b915061477c82896138e1565b915061478882886138e1565b915061479482876138e1565b91506147a082866138e1565b91506147ac82856138e1565b91506147b882846138e1565b9998505050505050505050565b60006147d182846138e1565b915061078f826141d9565b60208101610a438284613832565b60208101610a438284613823565b60208101610a43828461384c565b60208101610a438284613866565b608081016148228287613866565b61482f6020830186614697565b61483c6040830185613866565b61193a6060830184613866565b6020808252810161078f81846138b3565b60a0808252810161486b81896138b3565b905061487a6020830188613823565b614887604083018761468e565b818103606083015261489a818587613887565b905081810360808301526148ae81846138b3565b98975050505050505050565b606080825281016148cb81866138b3565b905081810360208301526148df81856138b3565b9050611dd1604083018461468e565b60208082528101610a4381613910565b60208082528101610a438161393b565b60208082528101610a438161396b565b60208082528101610a43816139a4565b60208082528101610a43816139ed565b60208082528101610a4381613a26565b60208082528101610a4381613a6d565b60208082528101610a4381613ab8565b60208082528101610a4381613afd565b60208082528101610a4381613b36565b60208082528101610a4381613b7e565b60208082528101610a4381613bb7565b60208082528101610a4381613c22565b60208082528101610a4381613c6a565b60208082528101610a4381613caf565b60208082528101610a4381613ce8565b60208082528101610a4381613d21565b60208082528101610a4381613d52565b60208082528101610a4381613d7e565b60208082528101610a4381613dd1565b60208082528101610a4381613e00565b60208082528101610a4381613e5f565b60208082528101610a4381613eac565b60208082528101610a4381613f0b565b60208082528101610a4381613f44565b60208082528101610a4381613f7d565b60208082528101610a4381613fad565b60208082528101610a4381613ffd565b60208082528101610a4381614036565b60208082528101610a438161406f565b60208082528101610a43816140b9565b60208082528101610a4381614108565b60208082528101610a4381614141565b60208082528101610a438161417a565b60208082528101610a4381614209565b60208082528101610a4381614252565b60208082528101610a438161428b565b60208082528101610a43816142bd565b60208082528101610a438161431c565b60208082528101610a4381614360565b60208082528101610a43816143bf565b60208082528101610a43816143ef565b60208082528101610a438161445a565b60208082528101610a4381614493565b60208082528101610a43816144d7565b60208082528101610a4381614510565b60208082528101610a4381614554565b60208082528101610a43816145a6565b60208082528101610a43816145ea565b60208082528101610a4381614630565b60208101610a438284614685565b60408101614c2a828561467c565b8181036020830152611dd181846138b3565b60208101610a43828461468e565b60408101614c58828561468e565b61078f6020830184613866565b60808101614c73828761468e565b8181036020830152614c8581866138b3565b90508181036040830152614c9981856138b3565b90508181036060830152614cad81846138b3565b9695505050505050565b6040518181016001600160401b0381118282101715614cd557600080fd5b604052919050565b60006001600160401b03821115614cf357600080fd5b5060209081020190565b60006001600160401b03821115614d1357600080fd5b506020601f91909101601f19160190565b5190565b90815260200190565b6000610a4382614d5e565b151590565b6001600160f81b03191690565b90565b6001600160e01b03191690565b6001600160a01b031690565b63ffffffff1690565b6001600160401b031690565b60ff1690565b6000610a43826000610a4382614d31565b6000610a4382614d6a565b82818337506000910152565b60005b83811015614dc8578181015183820152602001614db0565b83811115614dd7576000848401525b50505050565b6000610a43826000610a4382614df8565b601f01601f191690565b60601b90565b614e0781614d31565b811461197f57600080fd5b614e0781614d3c565b614e0781614d4e565b614e0781614d6a565b614e0781614d7356fea365627a7a72315820dff6cc67f240d87f02bacb5364cc45f1f2c5a9c7475e0185ffddb335ddfa31a26c6578706572696d656e74616cf564736f6c63430005100040",
  "source": "pragma solidity ^0.5.0;\npragma experimental ABIEncoderV2;\n\nimport \"./../../../libs/math/SafeMath.sol\";\nimport \"./../../../libs/common/ZeroCopySource.sol\";\nimport \"./../../../libs/common/ZeroCopySink.sol\";\nimport \"./../../../libs/utils/Utils.sol\";\nimport \"./../upgrade/UpgradableECCM.sol\";\nimport \"./../libs/EthCrossChainUtils.sol\";\nimport \"./../interface/IEthCrossChainManager.sol\";\nimport \"./../interface/IEthCrossChainData.sol\";\ncontract EthCrossChainManager is IEthCrossChainManager, UpgradableECCM {\n    using SafeMath for uint256;\n    \n    address public whiteLister;\n    mapping(address => bool) public whiteListFromContract;\n    mapping(address => mapping(bytes => bool)) public whiteListContractMethodMap;\n\n    event InitGenesisBlockEvent(uint256 height, bytes rawHeader);\n    event ChangeBookKeeperEvent(uint256 height, bytes rawHeader);\n    event CrossChainEvent(address indexed sender, bytes txId, address proxyOrAssetContract, uint64 toChainId, bytes toContract, bytes rawdata);\n    event VerifyHeaderAndExecuteTxEvent(uint64 fromChainID, bytes toContract, bytes crossChainTxHash, bytes fromChainTxHash);\n    constructor(\n        address _eccd, \n        uint64 _chainId, \n        address[] memory fromContractWhiteList, \n        bytes[] memory contractMethodWhiteList\n    ) UpgradableECCM(_eccd,_chainId) public {\n        whiteLister = msg.sender;\n        for (uint i=0;i<fromContractWhiteList.length;i++) {\n            whiteListFromContract[fromContractWhiteList[i]] = true;\n        }\n        for (uint i=0;i<contractMethodWhiteList.length;i++) {\n            (address toContract,bytes[] memory methods) = abi.decode(contractMethodWhiteList[i],(address,bytes[]));\n            for (uint j=0;j<methods.length;j++) {\n                whiteListContractMethodMap[toContract][methods[j]] = true;\n            }\n        }\n    }\n    \n    modifier onlyWhiteLister() {\n        require(msg.sender == whiteLister, \"Not whiteLister\");\n        _;\n    }\n\n    function setWhiteLister(address newWL) public onlyWhiteLister {\n        require(newWL!=address(0), \"Can not transfer to address(0)\");\n        whiteLister = newWL;\n    }\n    \n    function setFromContractWhiteList(address[] memory fromContractWhiteList) public onlyWhiteLister {\n        for (uint i=0;i<fromContractWhiteList.length;i++) {\n            whiteListFromContract[fromContractWhiteList[i]] = true;\n        }\n    }\n    \n    function removeFromContractWhiteList(address[] memory fromContractWhiteList) public onlyWhiteLister {\n        for (uint i=0;i<fromContractWhiteList.length;i++) {\n            whiteListFromContract[fromContractWhiteList[i]] = false;\n        }\n    }\n    \n    function setContractMethodWhiteList(bytes[] memory contractMethodWhiteList) public onlyWhiteLister {\n        for (uint i=0;i<contractMethodWhiteList.length;i++) {\n            (address toContract,bytes[] memory methods) = abi.decode(contractMethodWhiteList[i],(address,bytes[]));\n            for (uint j=0;j<methods.length;j++) {\n                whiteListContractMethodMap[toContract][methods[j]] = true;\n            }\n        }\n    }\n    \n    function removeContractMethodWhiteList(bytes[] memory contractMethodWhiteList) public onlyWhiteLister {\n        for (uint i=0;i<contractMethodWhiteList.length;i++) {\n            (address toContract,bytes[] memory methods) = abi.decode(contractMethodWhiteList[i],(address,bytes[]));\n            for (uint j=0;j<methods.length;j++) {\n                whiteListContractMethodMap[toContract][methods[j]] = false;\n            }\n        }\n    }\n\n    /* @notice              sync Poly chain genesis block header to smart contrat\n    *  @dev                 this function can only be called once, nextbookkeeper of rawHeader can't be empty\n    *  @param rawHeader     Poly chain genesis block raw header or raw Header including switching consensus peers info\n    *  @return              true or false\n    */\n    function initGenesisBlock(bytes memory rawHeader, bytes memory pubKeyList) whenNotPaused public returns(bool) {\n        // Load Ethereum cross chain data contract\n        IEthCrossChainData eccd = IEthCrossChainData(EthCrossChainDataAddress);\n        \n        // Make sure the contract has not been initialized before\n        require(eccd.getCurEpochConPubKeyBytes().length == 0, \"EthCrossChainData contract has already been initialized!\");\n        \n        // Parse header and convit the public keys into nextBookKeeper and compare it with header.nextBookKeeper to verify the validity of signature\n        ECCUtils.Header memory header = ECCUtils.deserializeHeader(rawHeader);\n        (bytes20 nextBookKeeper, address[] memory keepers) = ECCUtils.verifyPubkey(pubKeyList);\n        require(header.nextBookkeeper == nextBookKeeper, \"NextBookers illegal\");\n        \n        // Record current epoch start height and public keys (by storing them in address format)\n        require(eccd.putCurEpochStartHeight(header.height), \"Save Poly chain current epoch start height to Data contract failed!\");\n        require(eccd.putCurEpochConPubKeyBytes(ECCUtils.serializeKeepers(keepers)), \"Save Poly chain current epoch book keepers to Data contract failed!\");\n        \n        // Fire the event\n        emit InitGenesisBlockEvent(header.height, rawHeader);\n        return true;\n    }\n    \n    /* @notice              change Poly chain consensus book keeper\n    *  @param rawHeader     Poly chain change book keeper block raw header\n    *  @param pubKeyList    Poly chain consensus nodes public key list\n    *  @param sigList       Poly chain consensus nodes signature list\n    *  @return              true or false\n    */\n    function changeBookKeeper(bytes memory rawHeader, bytes memory pubKeyList, bytes memory sigList) whenNotPaused public returns(bool) {\n        // Load Ethereum cross chain data contract\n        ECCUtils.Header memory header = ECCUtils.deserializeHeader(rawHeader);\n        IEthCrossChainData eccd = IEthCrossChainData(EthCrossChainDataAddress);\n        \n        // Make sure rawHeader.height is higher than recorded current epoch start height\n        uint64 curEpochStartHeight = eccd.getCurEpochStartHeight();\n        require(header.height > curEpochStartHeight, \"The height of header is lower than current epoch start height!\");\n        \n        // Ensure the rawHeader is the key header including info of switching consensus peers by containing non-empty nextBookKeeper field\n        require(header.nextBookkeeper != bytes20(0), \"The nextBookKeeper of header is empty\");\n        \n        // Verify signature of rawHeader comes from pubKeyList\n        address[] memory polyChainBKs = ECCUtils.deserializeKeepers(eccd.getCurEpochConPubKeyBytes());\n        uint n = polyChainBKs.length;\n        require(ECCUtils.verifySig(rawHeader, sigList, polyChainBKs, n - (n - 1) / 3), \"Verify signature failed!\");\n        \n        // Convert pubKeyList into ethereum address format and make sure the compound address from the converted ethereum addresses\n        // equals passed in header.nextBooker\n        (bytes20 nextBookKeeper, address[] memory keepers) = ECCUtils.verifyPubkey(pubKeyList);\n        require(header.nextBookkeeper == nextBookKeeper, \"NextBookers illegal\");\n        \n        // update current epoch start height of Poly chain and current epoch consensus peers book keepers addresses\n        require(eccd.putCurEpochStartHeight(header.height), \"Save MC LatestHeight to Data contract failed!\");\n        require(eccd.putCurEpochConPubKeyBytes(ECCUtils.serializeKeepers(keepers)), \"Save Poly chain book keepers bytes to Data contract failed!\");\n        \n        // Fire the change book keeper event\n        emit ChangeBookKeeperEvent(header.height, rawHeader);\n        return true;\n    }\n\n\n    /* @notice              ERC20 token cross chain to other blockchain.\n    *                       this function push tx event to blockchain\n    *  @param toChainId     Target chain id\n    *  @param toContract    Target smart contract address in target block chain\n    *  @param txData        Transaction data for target chain, include to_address, amount\n    *  @return              true or false\n    */\n    function crossChain(uint64 toChainId, bytes calldata toContract, bytes calldata method, bytes calldata txData) whenNotPaused external returns (bool) {\n        // Only allow whitelist contract to call\n        require(whiteListFromContract[msg.sender],\"Invalid from contract\");\n        \n        // Load Ethereum cross chain data contract\n        IEthCrossChainData eccd = IEthCrossChainData(EthCrossChainDataAddress);\n        \n        // To help differentiate two txs, the ethTxHashIndex is increasing automatically\n        uint256 txHashIndex = eccd.getEthTxHashIndex();\n        \n        // Convert the uint256 into bytes\n        bytes memory paramTxHash = Utils.uint256ToBytes(txHashIndex);\n        \n        // Construct the makeTxParam, and put the hash info storage, to help provide proof of tx existence\n        bytes memory rawParam = abi.encodePacked(ZeroCopySink.WriteVarBytes(paramTxHash),\n            ZeroCopySink.WriteVarBytes(abi.encodePacked(sha256(abi.encodePacked(address(this), paramTxHash)))),\n            ZeroCopySink.WriteVarBytes(Utils.addressToBytes(msg.sender)),\n            ZeroCopySink.WriteUint64(toChainId),\n            ZeroCopySink.WriteVarBytes(toContract),\n            ZeroCopySink.WriteVarBytes(method),\n            ZeroCopySink.WriteVarBytes(txData)\n        );\n        \n        // Must save it in the storage to be included in the proof to be verified.\n        require(eccd.putEthTxHash(keccak256(rawParam)), \"Save ethTxHash by index to Data contract failed!\");\n        \n        // Fire the cross chain event denoting there is a cross chain request from Ethereum network to other public chains through Poly chain network\n        emit CrossChainEvent(tx.origin, paramTxHash, msg.sender, toChainId, toContract, rawParam);\n        return true;\n    }\n    /* @notice              Verify Poly chain header and proof, execute the cross chain tx from Poly chain to Ethereum\n    *  @param proof         Poly chain tx merkle proof\n    *  @param rawHeader     The header containing crossStateRoot to verify the above tx merkle proof\n    *  @param headerProof   The header merkle proof used to verify rawHeader\n    *  @param curRawHeader  Any header in current epoch consensus of Poly chain\n    *  @param headerSig     The coverted signature veriable for solidity derived from Poly chain consensus nodes' signature\n    *                       used to verify the validity of curRawHeader\n    *  @return              true or false\n    */\n    function verifyHeaderAndExecuteTx(bytes memory proof, bytes memory rawHeader, bytes memory headerProof, bytes memory curRawHeader,bytes memory headerSig) whenNotPaused public returns (bool){\n        ECCUtils.Header memory header = ECCUtils.deserializeHeader(rawHeader);\n        // Load ehereum cross chain data contract\n        IEthCrossChainData eccd = IEthCrossChainData(EthCrossChainDataAddress);\n        \n        // Get stored consensus public key bytes of current poly chain epoch and deserialize Poly chain consensus public key bytes to address[]\n        address[] memory polyChainBKs = ECCUtils.deserializeKeepers(eccd.getCurEpochConPubKeyBytes());\n\n        uint256 curEpochStartHeight = eccd.getCurEpochStartHeight();\n\n        uint n = polyChainBKs.length;\n        if (header.height >= curEpochStartHeight) {\n            // It's enough to verify rawHeader signature\n            require(ECCUtils.verifySig(rawHeader, headerSig, polyChainBKs, n - ( n - 1) / 3), \"Verify poly chain header signature failed!\");\n        } else {\n            // We need to verify the signature of curHeader \n            require(ECCUtils.verifySig(curRawHeader, headerSig, polyChainBKs, n - ( n - 1) / 3), \"Verify poly chain current epoch header signature failed!\");\n\n            // Then use curHeader.StateRoot and headerProof to verify rawHeader.CrossStateRoot\n            ECCUtils.Header memory curHeader = ECCUtils.deserializeHeader(curRawHeader);\n            bytes memory proveValue = ECCUtils.merkleProve(headerProof, curHeader.blockRoot);\n            require(ECCUtils.getHeaderHash(rawHeader) == Utils.bytesToBytes32(proveValue), \"verify header proof failed!\");\n        }\n        \n        // Through rawHeader.CrossStatesRoot, the toMerkleValue or cross chain msg can be verified and parsed from proof\n        bytes memory toMerkleValueBs = ECCUtils.merkleProve(proof, header.crossStatesRoot);\n        \n        // Parse the toMerkleValue struct and make sure the tx has not been processed, then mark this tx as processed\n        ECCUtils.ToMerkleValue memory toMerkleValue = ECCUtils.deserializeMerkleValue(toMerkleValueBs);\n        require(!eccd.checkIfFromChainTxExist(toMerkleValue.fromChainID, Utils.bytesToBytes32(toMerkleValue.txHash)), \"the transaction has been executed!\");\n        require(eccd.markFromChainTxExist(toMerkleValue.fromChainID, Utils.bytesToBytes32(toMerkleValue.txHash)), \"Save crosschain tx exist failed!\");\n        \n        // Ethereum ChainId is 2, we need to check the transaction is for Ethereum network\n        require(toMerkleValue.makeTxParam.toChainId == chainId, \"This Tx is not aiming at this network!\");\n        \n        // Obtain the targeting contract, so that Ethereum cross chain manager contract can trigger the executation of cross chain tx on Ethereum side\n        address toContract = Utils.bytesToAddress(toMerkleValue.makeTxParam.toContract);\n        \n        // only invoke PreWhiteListed Contract and method For Now\n        require(whiteListContractMethodMap[toContract][toMerkleValue.makeTxParam.method],\"Invalid to contract or method\");\n\n        //TODO: check this part to make sure we commit the next line when doing local net UT test\n        require(_executeCrossChainTx(toContract, toMerkleValue.makeTxParam.method, toMerkleValue.makeTxParam.args, toMerkleValue.makeTxParam.fromContract, toMerkleValue.fromChainID), \"Execute CrossChain Tx failed!\");\n\n        // Fire the cross chain event denoting the executation of cross chain tx is successful,\n        // and this tx is coming from other public chains to current Ethereum network\n        emit VerifyHeaderAndExecuteTxEvent(toMerkleValue.fromChainID, toMerkleValue.makeTxParam.toContract, toMerkleValue.txHash, toMerkleValue.makeTxParam.txHash);\n\n        return true;\n    }\n    \n    /* @notice                  Dynamically invoke the targeting contract, and trigger executation of cross chain tx on Ethereum side\n    *  @param _toContract       The targeting contract that will be invoked by the Ethereum Cross Chain Manager contract\n    *  @param _method           At which method will be invoked within the targeting contract\n    *  @param _args             The parameter that will be passed into the targeting contract\n    *  @param _fromContractAddr From chain smart contract address\n    *  @param _fromChainId      Indicate from which chain current cross chain tx comes \n    *  @return                  true or false\n    */\n    function _executeCrossChainTx(address _toContract, bytes memory _method, bytes memory _args, bytes memory _fromContractAddr, uint64 _fromChainId) internal returns (bool){\n        // Ensure the targeting contract gonna be invoked is indeed a contract rather than a normal account address\n        require(Utils.isContract(_toContract), \"The passed in address is not a contract!\");\n        bytes memory returnData;\n        bool success;\n        \n        // The returnData will be bytes32, the last byte must be 01;\n        (success, returnData) = _toContract.call(abi.encodePacked(bytes4(keccak256(abi.encodePacked(_method, \"(bytes,bytes,uint64)\"))), abi.encode(_args, _fromContractAddr, _fromChainId)));\n        \n        // Ensure the executation is successful\n        require(success == true, \"EthCrossChain call business contract failed\");\n        \n        // Ensure the returned value is true\n        require(returnData.length != 0, \"No return value from business contract!\");\n        (bool res,) = ZeroCopySource.NextBool(returnData, 31);\n        require(res == true, \"EthCrossChain call business contract return is not true\");\n        \n        return true;\n    }\n}",
  "sourcePath": "/Users/user/Desktop/hashport/eth-contracts/contracts/core/cross_chain_manager/logic/EthCrossChainManager.sol",
  "compiler": {
    "name": "solc",
    "version": "0.5.16+commit.9c3226ce.Emscripten.clang"
  },
  "schemaVersion": "3.4.5",
  "updatedAt": "2022-02-24T02:12:45.140Z",
  "devdoc": {
    "methods": {
      "isOwner()": {
        "details": "Returns true if the caller is the current owner."
      },
      "owner()": {
        "details": "Returns the address of the current owner."
      },
      "paused()": {
        "details": "Returns true if the contract is paused, and false otherwise."
      },
      "renounceOwnership()": {
        "details": "Leaves the contract without owner. It will not be possible to call `onlyOwner` functions anymore. Can only be called by the current owner.     * NOTE: Renouncing ownership will leave the contract without an owner, thereby removing any functionality that is only available to the owner."
      },
      "transferOwnership(address)": {
        "details": "Transfers ownership of the contract to a new account (`newOwner`). Can only be called by the current owner."
      }
    }
  },
  "userdoc": {
    "methods": {}
  }
}