{
  "contractName": "EthCrossChainData",
  "abi": [
    {
      "anonymous": false,
      "inputs": [
        {
          "indexed": true,
          "internalType": "address",
          "name": "previousOwner",
          "type": "address"
        },
        {
          "indexed": true,
          "internalType": "address",
          "name": "newOwner",
          "type": "address"
        }
      ],
      "name": "OwnershipTransferred",
      "type": "event"
    },
    {
      "anonymous": false,
      "inputs": [
        {
          "indexed": false,
          "internalType": "address",
          "name": "account",
          "type": "address"
        }
      ],
      "name": "Paused",
      "type": "event"
    },
    {
      "anonymous": false,
      "inputs": [
        {
          "indexed": false,
          "internalType": "address",
          "name": "account",
          "type": "address"
        }
      ],
      "name": "Unpaused",
      "type": "event"
    },
    {
      "constant": true,
      "inputs": [],
      "name": "ConKeepersPkBytes",
      "outputs": [
        {
          "internalType": "bytes",
          "name": "",
          "type": "bytes"
        }
      ],
      "payable": false,
      "stateMutability": "view",
      "type": "function"
    },
    {
      "constant": true,
      "inputs": [],
      "name": "CurEpochStartHeight",
      "outputs": [
        {
          "internalType": "uint32",
          "name": "",
          "type": "uint32"
        }
      ],
      "payable": false,
      "stateMutability": "view",
      "type": "function"
    },
    {
      "constant": true,
      "inputs": [],
      "name": "EthToPolyTxHashIndex",
      "outputs": [
        {
          "internalType": "uint256",
          "name": "",
          "type": "uint256"
        }
      ],
      "payable": false,
      "stateMutability": "view",
      "type": "function"
    },
    {
      "constant": true,
      "inputs": [
        {
          "internalType": "uint256",
          "name": "",
          "type": "uint256"
        }
      ],
      "name": "EthToPolyTxHashMap",
      "outputs": [
        {
          "internalType": "bytes32",
          "name": "",
          "type": "bytes32"
        }
      ],
      "payable": false,
      "stateMutability": "view",
      "type": "function"
    },
    {
      "constant": true,
      "inputs": [
        {
          "internalType": "bytes32",
          "name": "",
          "type": "bytes32"
        },
        {
          "internalType": "bytes32",
          "name": "",
          "type": "bytes32"
        }
      ],
      "name": "ExtraData",
      "outputs": [
        {
          "internalType": "bytes",
          "name": "",
          "type": "bytes"
        }
      ],
      "payable": false,
      "stateMutability": "view",
      "type": "function"
    },
    {
      "constant": true,
      "inputs": [],
      "name": "isOwner",
      "outputs": [
        {
          "internalType": "bool",
          "name": "",
          "type": "bool"
        }
      ],
      "payable": false,
      "stateMutability": "view",
      "type": "function"
    },
    {
      "constant": true,
      "inputs": [],
      "name": "owner",
      "outputs": [
        {
          "internalType": "address",
          "name": "",
          "type": "address"
        }
      ],
      "payable": false,
      "stateMutability": "view",
      "type": "function"
    },
    {
      "constant": true,
      "inputs": [],
      "name": "paused",
      "outputs": [
        {
          "internalType": "bool",
          "name": "",
          "type": "bool"
        }
      ],
      "payable": false,
      "stateMutability": "view",
      "type": "function"
    },
    {
      "constant": false,
      "inputs": [],
      "name": "renounceOwnership",
      "outputs": [],
      "payable": false,
      "stateMutability": "nonpayable",
      "type": "function"
    },
    {
      "constant": false,
      "inputs": [
        {
          "internalType": "address",
          "name": "newOwner",
          "type": "address"
        }
      ],
      "name": "transferOwnership",
      "outputs": [],
      "payable": false,
      "stateMutability": "nonpayable",
      "type": "function"
    },
    {
      "constant": false,
      "inputs": [
        {
          "internalType": "uint32",
          "name": "curEpochStartHeight",
          "type": "uint32"
        }
      ],
      "name": "putCurEpochStartHeight",
      "outputs": [
        {
          "internalType": "bool",
          "name": "",
          "type": "bool"
        }
      ],
      "payable": false,
      "stateMutability": "nonpayable",
      "type": "function"
    },
    {
      "constant": true,
      "inputs": [],
      "name": "getCurEpochStartHeight",
      "outputs": [
        {
          "internalType": "uint32",
          "name": "",
          "type": "uint32"
        }
      ],
      "payable": false,
      "stateMutability": "view",
      "type": "function"
    },
    {
      "constant": false,
      "inputs": [
        {
          "internalType": "bytes",
          "name": "curEpochPkBytes",
          "type": "bytes"
        }
      ],
      "name": "putCurEpochConPubKeyBytes",
      "outputs": [
        {
          "internalType": "bool",
          "name": "",
          "type": "bool"
        }
      ],
      "payable": false,
      "stateMutability": "nonpayable",
      "type": "function"
    },
    {
      "constant": true,
      "inputs": [],
      "name": "getCurEpochConPubKeyBytes",
      "outputs": [
        {
          "internalType": "bytes",
          "name": "",
          "type": "bytes"
        }
      ],
      "payable": false,
      "stateMutability": "view",
      "type": "function"
    },
    {
      "constant": false,
      "inputs": [
        {
          "internalType": "uint64",
          "name": "fromChainId",
          "type": "uint64"
        },
        {
          "internalType": "bytes32",
          "name": "fromChainTx",
          "type": "bytes32"
        }
      ],
      "name": "markFromChainTxExist",
      "outputs": [
        {
          "internalType": "bool",
          "name": "",
          "type": "bool"
        }
      ],
      "payable": false,
      "stateMutability": "nonpayable",
      "type": "function"
    },
    {
      "constant": true,
      "inputs": [
        {
          "internalType": "uint64",
          "name": "fromChainId",
          "type": "uint64"
        },
        {
          "internalType": "bytes32",
          "name": "fromChainTx",
          "type": "bytes32"
        }
      ],
      "name": "checkIfFromChainTxExist",
      "outputs": [
        {
          "internalType": "bool",
          "name": "",
          "type": "bool"
        }
      ],
      "payable": false,
      "stateMutability": "view",
      "type": "function"
    },
    {
      "constant": true,
      "inputs": [],
      "name": "getEthTxHashIndex",
      "outputs": [
        {
          "internalType": "uint256",
          "name": "",
          "type": "uint256"
        }
      ],
      "payable": false,
      "stateMutability": "view",
      "type": "function"
    },
    {
      "constant": false,
      "inputs": [
        {
          "internalType": "bytes32",
          "name": "ethTxHash",
          "type": "bytes32"
        }
      ],
      "name": "putEthTxHash",
      "outputs": [
        {
          "internalType": "bool",
          "name": "",
          "type": "bool"
        }
      ],
      "payable": false,
      "stateMutability": "nonpayable",
      "type": "function"
    },
    {
      "constant": true,
      "inputs": [
        {
          "internalType": "uint256",
          "name": "ethTxHashIndex",
          "type": "uint256"
        }
      ],
      "name": "getEthTxHash",
      "outputs": [
        {
          "internalType": "bytes32",
          "name": "",
          "type": "bytes32"
        }
      ],
      "payable": false,
      "stateMutability": "view",
      "type": "function"
    },
    {
      "constant": false,
      "inputs": [
        {
          "internalType": "bytes32",
          "name": "key1",
          "type": "bytes32"
        },
        {
          "internalType": "bytes32",
          "name": "key2",
          "type": "bytes32"
        },
        {
          "internalType": "bytes",
          "name": "value",
          "type": "bytes"
        }
      ],
      "name": "putExtraData",
      "outputs": [
        {
          "internalType": "bool",
          "name": "",
          "type": "bool"
        }
      ],
      "payable": false,
      "stateMutability": "nonpayable",
      "type": "function"
    },
    {
      "constant": true,
      "inputs": [
        {
          "internalType": "bytes32",
          "name": "key1",
          "type": "bytes32"
        },
        {
          "internalType": "bytes32",
          "name": "key2",
          "type": "bytes32"
        }
      ],
      "name": "getExtraData",
      "outputs": [
        {
          "internalType": "bytes",
          "name": "",
          "type": "bytes"
        }
      ],
      "payable": false,
      "stateMutability": "view",
      "type": "function"
    },
    {
      "constant": false,
      "inputs": [],
      "name": "pause",
      "outputs": [
        {
          "internalType": "bool",
          "name": "",
          "type": "bool"
        }
      ],
      "payable": false,
      "stateMutability": "nonpayable",
      "type": "function"
    },
    {
      "constant": false,
      "inputs": [],
      "name": "unpause",
      "outputs": [
        {
          "internalType": "bool",
          "name": "",
          "type": "bool"
        }
      ],
      "payable": false,
      "stateMutability": "nonpayable",
      "type": "function"
    }
  ],
  "bytecode": "0x608060405260006100176001600160e01b0361007316565b600080546001600160a01b0319166001600160a01b0383169081178255604051929350917f8be0079c531659141344cd1fd0a4f28419497f9722a3daafe3b4186f6b6457e0908290a3506000805460ff60a01b19169055610077565b3390565b6110f7806100866000396000f3fe608060405234801561001057600080fd5b506004361061014c5760003560e01c80635c975abb116100c35780638da5cb5b1161007c5780638da5cb5b1461048c5780638f32d59b146104b0578063e90bfdcf146104b8578063f2fde38b146104e5578063fcbdc1e01461050b578063ff3d24a1146105135761014c565b80635c975abb1461043f57806367e31a741461044757806369d480741461044f578063715018a6146104575780638456cb59146104615780638a8bd17f146104695761014c565b80633f4ba83a116101155780633f4ba83a1461031357806340602bb51461031b57806341973cd91461033e5780634c3ccf64146103e4578063529caad8146104015780635ac407901461041e5761014c565b8062c5fff8146101515780630586763c1461016b5780631afe374e146101ac57806320bbde381461025e57806329927875146102f6575b600080fd5b61015961051b565b60408051918252519081900360200190f35b6101986004803603604081101561018157600080fd5b5067ffffffffffffffff8135169060200135610521565b604080519115158252519081900360200190f35b610198600480360360608110156101c257600080fd5b8135916020810135918101906060810160408201356401000000008111156101e957600080fd5b8201836020820111156101fb57600080fd5b8035906020019184600183028401116401000000008311171561021d57600080fd5b91908080601f01602080910402602001604051908101604052809392919081815260200183838082843760009201919091525092955061054d945050505050565b6102816004803603604081101561027457600080fd5b5080359060200135610619565b6040805160208082528351818301528351919283929083019185019080838360005b838110156102bb5781810151838201526020016102a3565b50505050905090810190601f1680156102e85780820380516001836020036101000a031916815260200191505b509250505060405180910390f35b6101596004803603602081101561030c57600080fd5b50356106bd565b6101986106cf565b6102816004803603604081101561033157600080fd5b508035906020013561077c565b6101986004803603602081101561035457600080fd5b81019060208101813564010000000081111561036f57600080fd5b82018360208201111561038157600080fd5b803590602001918460018302840111640100000000831117156103a357600080fd5b91908080601f016020809104026020016040519081016040528093929190818152602001838380828437600092019190915250929550610826945050505050565b610198600480360360208110156103fa57600080fd5b50356108dc565b6101596004803603602081101561041757600080fd5b5035610999565b6104266109ab565b6040805163ffffffff9092168252519081900360200190f35b6101986109b7565b6104266109c7565b6102816109d3565b61045f610a69565b005b610198610afa565b6101986004803603602081101561047f57600080fd5b503563ffffffff16610b9d565b610494610c56565b604080516001600160a01b039092168252519081900360200190f35b610198610c65565b610198600480360360408110156104ce57600080fd5b5067ffffffffffffffff8135169060200135610c89565b61045f600480360360208110156104fb57600080fd5b50356001600160a01b0316610d5a565b610281610dad565b610159610e08565b60025481565b67ffffffffffffffff919091166000908152600560209081526040808320938352929052205460ff1690565b60008054600160a01b900460ff16156105a0576040805162461bcd60e51b815260206004820152601060248201526f14185d5cd8589b194e881c185d5cd95960821b604482015290519081900360640190fd5b6105a8610c65565b6105e7576040805162461bcd60e51b815260206004820181905260248201526000805160206110a3833981519152604482015290519081900360640190fd5b60008481526006602090815260408083208684528252909120835161060e92850190610fe4565b506001949350505050565b60066020908152600092835260408084208252918352918190208054825160026001831615610100026000190190921691909104601f8101859004850282018501909352828152929091908301828280156106b55780601f1061068a576101008083540402835291602001916106b5565b820191906000526020600020905b81548152906001019060200180831161069857829003601f168201915b505050505081565b60009081526001602052604090205490565b60006106d9610c65565b610718576040805162461bcd60e51b815260206004820181905260248201526000805160206110a3833981519152604482015290519081900360640190fd5b600054600160a01b900460ff1661076d576040805162461bcd60e51b815260206004820152601460248201527314185d5cd8589b194e881b9bdd081c185d5cd95960621b604482015290519081900360640190fd5b610775610e0e565b5060015b90565b600082815260066020908152604080832084845282529182902080548351601f60026000196101006001861615020190931692909204918201849004840281018401909452808452606093928301828280156108195780601f106107ee57610100808354040283529160200191610819565b820191906000526020600020905b8154815290600101906020018083116107fc57829003601f168201915b5050505050905092915050565b60008054600160a01b900460ff1615610879576040805162461bcd60e51b815260206004820152601060248201526f14185d5cd8589b194e881c185d5cd95960821b604482015290519081900360640190fd5b610881610c65565b6108c0576040805162461bcd60e51b815260206004820181905260248201526000805160206110a3833981519152604482015290519081900360640190fd5b81516108d3906003906020850190610fe4565b50600192915050565b60008054600160a01b900460ff161561092f576040805162461bcd60e51b815260206004820152601060248201526f14185d5cd8589b194e881c185d5cd95960821b604482015290519081900360640190fd5b610937610c65565b610976576040805162461bcd60e51b815260206004820181905260248201526000805160206110a3833981519152604482015290519081900360640190fd5b506002805460009081526001602081905260409091209290925580548201905590565b60016020526000908152604090205481565b60045463ffffffff1690565b600054600160a01b900460ff1690565b60045463ffffffff1681565b60038054604080516020601f6002600019610100600188161502019095169490940493840181900481028201810190925282815260609390929091830182828015610a5f5780601f10610a3457610100808354040283529160200191610a5f565b820191906000526020600020905b815481529060010190602001808311610a4257829003601f168201915b5050505050905090565b610a71610c65565b610ab0576040805162461bcd60e51b815260206004820181905260248201526000805160206110a3833981519152604482015290519081900360640190fd5b600080546040516001600160a01b03909116907f8be0079c531659141344cd1fd0a4f28419497f9722a3daafe3b4186f6b6457e0908390a3600080546001600160a01b0319169055565b6000610b04610c65565b610b43576040805162461bcd60e51b815260206004820181905260248201526000805160206110a3833981519152604482015290519081900360640190fd5b600054600160a01b900460ff1615610b95576040805162461bcd60e51b815260206004820152601060248201526f14185d5cd8589b194e881c185d5cd95960821b604482015290519081900360640190fd5b610775610eb6565b60008054600160a01b900460ff1615610bf0576040805162461bcd60e51b815260206004820152601060248201526f14185d5cd8589b194e881c185d5cd95960821b604482015290519081900360640190fd5b610bf8610c65565b610c37576040805162461bcd60e51b815260206004820181905260248201526000805160206110a3833981519152604482015290519081900360640190fd5b506004805463ffffffff831663ffffffff199091161790556001919050565b6000546001600160a01b031690565b600080546001600160a01b0316610c7a610f40565b6001600160a01b031614905090565b60008054600160a01b900460ff1615610cdc576040805162461bcd60e51b815260206004820152601060248201526f14185d5cd8589b194e881c185d5cd95960821b604482015290519081900360640190fd5b610ce4610c65565b610d23576040805162461bcd60e51b815260206004820181905260248201526000805160206110a3833981519152604482015290519081900360640190fd5b5067ffffffffffffffff91909116600090815260056020908152604080832093835292905220805460ff1916600190811790915590565b610d62610c65565b610da1576040805162461bcd60e51b815260206004820181905260248201526000805160206110a3833981519152604482015290519081900360640190fd5b610daa81610f44565b50565b6003805460408051602060026001851615610100026000190190941693909304601f810184900484028201840190925281815292918301828280156106b55780601f1061068a576101008083540402835291602001916106b5565b60025490565b600054600160a01b900460ff16610e63576040805162461bcd60e51b815260206004820152601460248201527314185d5cd8589b194e881b9bdd081c185d5cd95960621b604482015290519081900360640190fd5b6000805460ff60a01b191690557f5db9ee0a495bf2e6ff9c91a7834c1ba4fdd244a5e8aa4e537bd38aeae4b073aa610e99610f40565b604080516001600160a01b039092168252519081900360200190a1565b600054600160a01b900460ff1615610f08576040805162461bcd60e51b815260206004820152601060248201526f14185d5cd8589b194e881c185d5cd95960821b604482015290519081900360640190fd5b6000805460ff60a01b1916600160a01b1790557f62e78cea01bee320cd4e420270b5ea74000d11b0c9f74754ebdbfc544b05a258610e995b3390565b6001600160a01b038116610f895760405162461bcd60e51b815260040180806020018281038252602681526020018061107d6026913960400191505060405180910390fd5b600080546040516001600160a01b03808516939216917f8be0079c531659141344cd1fd0a4f28419497f9722a3daafe3b4186f6b6457e091a3600080546001600160a01b0319166001600160a01b0392909216919091179055565b828054600181600116156101000203166002900490600052602060002090601f016020900481019282601f1061102557805160ff1916838001178555611052565b82800160010185558215611052579182015b82811115611052578251825591602001919060010190611037565b5061105e929150611062565b5090565b61077991905b8082111561105e576000815560010161106856fe4f776e61626c653a206e6577206f776e657220697320746865207a65726f20616464726573734f776e61626c653a2063616c6c6572206973206e6f7420746865206f776e6572a265627a7a72315820be03143686885fe7e52393cf789ebbc227dcc9c5f9acde9f511c07e7052eb2d264736f6c63430005100032",
  "source": "pragma solidity ^0.5.0;\nimport \"./../../../libs/ownership/Ownable.sol\";\nimport \"./../../../libs/lifecycle/Pausable.sol\";\nimport \"./../interface/IEthCrossChainData.sol\";\n\ncontract EthCrossChainData is IEthCrossChainData, Ownable, Pausable{\n    /*\n     Ethereum cross chain tx hash indexed by the automatically increased index.\n     This map exists for the reason that Poly chain can verify the existence of \n     cross chain request tx coming from Ethereum\n    */\n    mapping(uint256 => bytes32) public EthToPolyTxHashMap;\n    // This index records the current Map length\n    uint256 public EthToPolyTxHashIndex;\n\n    /* \n     When Poly chain switches the consensus epoch book keepers, the consensus peers public keys of Poly chain should be \n     changed into no-compressed version so that solidity smart contract can convert it to address type and \n     verify the signature derived from Poly chain account signature.\n     ConKeepersPkBytes means Consensus book Keepers Public Key Bytes\n    */\n    bytes public ConKeepersPkBytes;\n    \n    // CurEpochStartHeight means Current Epoch Start Height of Poly chain block\n    uint32 public CurEpochStartHeight;\n    \n    // Record the from chain txs that have been processed\n    mapping(uint64 => mapping(bytes32 => bool)) FromChainTxExist;\n    \n    // Extra map for the usage of future potentially\n    mapping(bytes32 => mapping(bytes32 => bytes)) public ExtraData;\n    \n    // Store Current Epoch Start Height of Poly chain block\n    function putCurEpochStartHeight(uint32 curEpochStartHeight) public whenNotPaused onlyOwner returns (bool) {\n        CurEpochStartHeight = curEpochStartHeight;\n        return true;\n    }\n\n    // Get Current Epoch Start Height of Poly chain block\n    function getCurEpochStartHeight() public view returns (uint32) {\n        return CurEpochStartHeight;\n    }\n\n    // Store Consensus book Keepers Public Key Bytes\n    function putCurEpochConPubKeyBytes(bytes memory curEpochPkBytes) public whenNotPaused onlyOwner returns (bool) {\n        ConKeepersPkBytes = curEpochPkBytes;\n        return true;\n    }\n\n    // Get Consensus book Keepers Public Key Bytes\n    function getCurEpochConPubKeyBytes() public view returns (bytes memory) {\n        return ConKeepersPkBytes;\n    }\n\n    // Mark from chain tx fromChainTx as exist or processed\n    function markFromChainTxExist(uint64 fromChainId, bytes32 fromChainTx) public whenNotPaused onlyOwner returns (bool) {\n        FromChainTxExist[fromChainId][fromChainTx] = true;\n        return true;\n    }\n\n    // Check if from chain tx fromChainTx has been processed before\n    function checkIfFromChainTxExist(uint64 fromChainId, bytes32 fromChainTx) public view returns (bool) {\n        return FromChainTxExist[fromChainId][fromChainTx];\n    }\n\n    // Get current recorded index of cross chain txs requesting from Ethereum to other public chains\n    // in order to help cross chain manager contract differenciate two cross chain tx requests\n    function getEthTxHashIndex() public view returns (uint256) {\n        return EthToPolyTxHashIndex;\n    }\n\n    // Store Ethereum cross chain tx hash, increase the index record by 1\n    function putEthTxHash(bytes32 ethTxHash) public whenNotPaused onlyOwner returns (bool) {\n        EthToPolyTxHashMap[EthToPolyTxHashIndex] = ethTxHash;\n        EthToPolyTxHashIndex = EthToPolyTxHashIndex + 1;\n        return true;\n    }\n\n    // Get Ethereum cross chain tx hash indexed by ethTxHashIndex\n    function getEthTxHash(uint256 ethTxHashIndex) public view returns (bytes32) {\n        return EthToPolyTxHashMap[ethTxHashIndex];\n    }\n\n    // Store extra data, which may be used in the future\n    function putExtraData(bytes32 key1, bytes32 key2, bytes memory value) public whenNotPaused onlyOwner returns (bool) {\n        ExtraData[key1][key2] = value;\n        return true;\n    }\n    // Get extra data, which may be used in the future\n    function getExtraData(bytes32 key1, bytes32 key2) public view returns (bytes memory) {\n        return ExtraData[key1][key2];\n    }\n    \n    function pause() onlyOwner whenNotPaused public returns (bool) {\n        _pause();\n        return true;\n    }\n    \n    function unpause() onlyOwner whenPaused public returns (bool) {\n        _unpause();\n        return true;\n    }\n}",
  "sourcePath": "/Users/user/Desktop/hashport/eth-contracts/contracts/core/cross_chain_manager/data/EthCrossChainData.sol",
  "compiler": {
    "name": "solc",
    "version": "0.5.16+commit.9c3226ce.Emscripten.clang"
  },
  "schemaVersion": "3.4.5",
  "updatedAt": "2022-03-02T01:42:02.704Z",
  "networkType": "ethereum",
  "devdoc": {
    "methods": {
      "isOwner()": {
        "details": "Returns true if the caller is the current owner."
      },
      "owner()": {
        "details": "Returns the address of the current owner."
      },
      "paused()": {
        "details": "Returns true if the contract is paused, and false otherwise."
      },
      "renounceOwnership()": {
        "details": "Leaves the contract without owner. It will not be possible to call `onlyOwner` functions anymore. Can only be called by the current owner.     * NOTE: Renouncing ownership will leave the contract without an owner, thereby removing any functionality that is only available to the owner."
      },
      "transferOwnership(address)": {
        "details": "Transfers ownership of the contract to a new account (`newOwner`). Can only be called by the current owner."
      }
    }
  },
  "userdoc": {
    "methods": {}
  }
}