{
  "contractName": "EthCrossChainManagerNoWhiteList",
  "abi": [
    {
      "inputs": [
        {
          "internalType": "address",
          "name": "_eccd",
          "type": "address"
        },
        {
          "internalType": "uint64",
          "name": "_chainId",
          "type": "uint64"
        }
      ],
      "payable": false,
      "stateMutability": "nonpayable",
      "type": "constructor"
    },
    {
      "anonymous": false,
      "inputs": [
        {
          "indexed": false,
          "internalType": "uint256",
          "name": "height",
          "type": "uint256"
        },
        {
          "indexed": false,
          "internalType": "bytes",
          "name": "rawHeader",
          "type": "bytes"
        }
      ],
      "name": "ChangeBookKeeperEvent",
      "type": "event"
    },
    {
      "anonymous": false,
      "inputs": [
        {
          "indexed": true,
          "internalType": "address",
          "name": "sender",
          "type": "address"
        },
        {
          "indexed": false,
          "internalType": "bytes",
          "name": "txId",
          "type": "bytes"
        },
        {
          "indexed": false,
          "internalType": "address",
          "name": "proxyOrAssetContract",
          "type": "address"
        },
        {
          "indexed": false,
          "internalType": "uint64",
          "name": "toChainId",
          "type": "uint64"
        },
        {
          "indexed": false,
          "internalType": "bytes",
          "name": "toContract",
          "type": "bytes"
        },
        {
          "indexed": false,
          "internalType": "bytes",
          "name": "rawdata",
          "type": "bytes"
        }
      ],
      "name": "CrossChainEvent",
      "type": "event"
    },
    {
      "anonymous": false,
      "inputs": [
        {
          "indexed": false,
          "internalType": "uint256",
          "name": "height",
          "type": "uint256"
        },
        {
          "indexed": false,
          "internalType": "bytes",
          "name": "rawHeader",
          "type": "bytes"
        }
      ],
      "name": "InitGenesisBlockEvent",
      "type": "event"
    },
    {
      "anonymous": false,
      "inputs": [
        {
          "indexed": true,
          "internalType": "address",
          "name": "previousOwner",
          "type": "address"
        },
        {
          "indexed": true,
          "internalType": "address",
          "name": "newOwner",
          "type": "address"
        }
      ],
      "name": "OwnershipTransferred",
      "type": "event"
    },
    {
      "anonymous": false,
      "inputs": [
        {
          "indexed": false,
          "internalType": "address",
          "name": "account",
          "type": "address"
        }
      ],
      "name": "Paused",
      "type": "event"
    },
    {
      "anonymous": false,
      "inputs": [
        {
          "indexed": false,
          "internalType": "address",
          "name": "account",
          "type": "address"
        }
      ],
      "name": "Unpaused",
      "type": "event"
    },
    {
      "anonymous": false,
      "inputs": [
        {
          "indexed": false,
          "internalType": "uint64",
          "name": "fromChainID",
          "type": "uint64"
        },
        {
          "indexed": false,
          "internalType": "bytes",
          "name": "toContract",
          "type": "bytes"
        },
        {
          "indexed": false,
          "internalType": "bytes",
          "name": "crossChainTxHash",
          "type": "bytes"
        },
        {
          "indexed": false,
          "internalType": "bytes",
          "name": "fromChainTxHash",
          "type": "bytes"
        }
      ],
      "name": "VerifyHeaderAndExecuteTxEvent",
      "type": "event"
    },
    {
      "constant": true,
      "inputs": [],
      "name": "EthCrossChainDataAddress",
      "outputs": [
        {
          "internalType": "address",
          "name": "",
          "type": "address"
        }
      ],
      "payable": false,
      "stateMutability": "view",
      "type": "function"
    },
    {
      "constant": true,
      "inputs": [],
      "name": "chainId",
      "outputs": [
        {
          "internalType": "uint64",
          "name": "",
          "type": "uint64"
        }
      ],
      "payable": false,
      "stateMutability": "view",
      "type": "function"
    },
    {
      "constant": true,
      "inputs": [],
      "name": "isOwner",
      "outputs": [
        {
          "internalType": "bool",
          "name": "",
          "type": "bool"
        }
      ],
      "payable": false,
      "stateMutability": "view",
      "type": "function"
    },
    {
      "constant": true,
      "inputs": [],
      "name": "owner",
      "outputs": [
        {
          "internalType": "address",
          "name": "",
          "type": "address"
        }
      ],
      "payable": false,
      "stateMutability": "view",
      "type": "function"
    },
    {
      "constant": false,
      "inputs": [],
      "name": "pause",
      "outputs": [
        {
          "internalType": "bool",
          "name": "",
          "type": "bool"
        }
      ],
      "payable": false,
      "stateMutability": "nonpayable",
      "type": "function"
    },
    {
      "constant": true,
      "inputs": [],
      "name": "paused",
      "outputs": [
        {
          "internalType": "bool",
          "name": "",
          "type": "bool"
        }
      ],
      "payable": false,
      "stateMutability": "view",
      "type": "function"
    },
    {
      "constant": false,
      "inputs": [],
      "name": "renounceOwnership",
      "outputs": [],
      "payable": false,
      "stateMutability": "nonpayable",
      "type": "function"
    },
    {
      "constant": false,
      "inputs": [
        {
          "internalType": "uint64",
          "name": "_newChainId",
          "type": "uint64"
        }
      ],
      "name": "setChainId",
      "outputs": [
        {
          "internalType": "bool",
          "name": "",
          "type": "bool"
        }
      ],
      "payable": false,
      "stateMutability": "nonpayable",
      "type": "function"
    },
    {
      "constant": false,
      "inputs": [
        {
          "internalType": "address",
          "name": "newOwner",
          "type": "address"
        }
      ],
      "name": "transferOwnership",
      "outputs": [],
      "payable": false,
      "stateMutability": "nonpayable",
      "type": "function"
    },
    {
      "constant": false,
      "inputs": [],
      "name": "unpause",
      "outputs": [
        {
          "internalType": "bool",
          "name": "",
          "type": "bool"
        }
      ],
      "payable": false,
      "stateMutability": "nonpayable",
      "type": "function"
    },
    {
      "constant": false,
      "inputs": [
        {
          "internalType": "address",
          "name": "newEthCrossChainManagerAddress",
          "type": "address"
        }
      ],
      "name": "upgradeToNew",
      "outputs": [
        {
          "internalType": "bool",
          "name": "",
          "type": "bool"
        }
      ],
      "payable": false,
      "stateMutability": "nonpayable",
      "type": "function"
    },
    {
      "constant": false,
      "inputs": [
        {
          "internalType": "bytes",
          "name": "rawHeader",
          "type": "bytes"
        },
        {
          "internalType": "bytes",
          "name": "pubKeyList",
          "type": "bytes"
        }
      ],
      "name": "initGenesisBlock",
      "outputs": [
        {
          "internalType": "bool",
          "name": "",
          "type": "bool"
        }
      ],
      "payable": false,
      "stateMutability": "nonpayable",
      "type": "function"
    },
    {
      "constant": false,
      "inputs": [
        {
          "internalType": "bytes",
          "name": "rawHeader",
          "type": "bytes"
        },
        {
          "internalType": "bytes",
          "name": "pubKeyList",
          "type": "bytes"
        },
        {
          "internalType": "bytes",
          "name": "sigList",
          "type": "bytes"
        }
      ],
      "name": "changeBookKeeper",
      "outputs": [
        {
          "internalType": "bool",
          "name": "",
          "type": "bool"
        }
      ],
      "payable": false,
      "stateMutability": "nonpayable",
      "type": "function"
    },
    {
      "constant": false,
      "inputs": [
        {
          "internalType": "uint64",
          "name": "toChainId",
          "type": "uint64"
        },
        {
          "internalType": "bytes",
          "name": "toContract",
          "type": "bytes"
        },
        {
          "internalType": "bytes",
          "name": "method",
          "type": "bytes"
        },
        {
          "internalType": "bytes",
          "name": "txData",
          "type": "bytes"
        }
      ],
      "name": "crossChain",
      "outputs": [
        {
          "internalType": "bool",
          "name": "",
          "type": "bool"
        }
      ],
      "payable": false,
      "stateMutability": "nonpayable",
      "type": "function"
    },
    {
      "constant": false,
      "inputs": [
        {
          "internalType": "bytes",
          "name": "proof",
          "type": "bytes"
        },
        {
          "internalType": "bytes",
          "name": "rawHeader",
          "type": "bytes"
        },
        {
          "internalType": "bytes",
          "name": "headerProof",
          "type": "bytes"
        },
        {
          "internalType": "bytes",
          "name": "curRawHeader",
          "type": "bytes"
        },
        {
          "internalType": "bytes",
          "name": "headerSig",
          "type": "bytes"
        }
      ],
      "name": "verifyHeaderAndExecuteTx",
      "outputs": [
        {
          "internalType": "bool",
          "name": "",
          "type": "bool"
        }
      ],
      "payable": false,
      "stateMutability": "nonpayable",
      "type": "function"
    }
  ],
  "bytecode": "0x60806040523480156200001157600080fd5b50604051620051ea380380620051ea833981810160405260408110156200003757600080fd5b50805160209091015181816000620000576001600160e01b03620000fa16565b600080546001600160a01b0319166001600160a01b0383169081178255604051929350917f8be0079c531659141344cd1fd0a4f28419497f9722a3daafe3b4186f6b6457e0908290a3506000805460ff60a01b19169055600180546001600160401b03909216600160a01b02600160a01b600160e01b03196001600160a01b039094166001600160a01b0319909316929092179290921617905550620000fe9050565b3390565b6150dc806200010e6000396000f3fe608060405234801561001057600080fd5b50600436106100f45760003560e01c80637e724ff3116100975780639a8a0592116100665780639a8a059214610486578063bd5cf625146104aa578063d450e04c146105c8578063f2fde38b14610880576100f4565b80637e724ff3146104485780638456cb591461046e5780638da5cb5b146104765780638f32d59b1461047e576100f4565b80633f4ba83a116100d35780633f4ba83a146104085780635c975abb146104105780636f31031d14610418578063715018a61461043e576100f4565b8062ba1694146100f957806329dcf4ab1461011d57806334a773eb146102df575b600080fd5b6101016108a6565b604080516001600160a01b039092168252519081900360200190f35b6102cb6004803603606081101561013357600080fd5b810190602081018135600160201b81111561014d57600080fd5b82018360208201111561015f57600080fd5b803590602001918460018302840111600160201b8311171561018057600080fd5b91908080601f0160208091040260200160405190810160405280939291908181526020018383808284376000920191909152509295949360208101935035915050600160201b8111156101d257600080fd5b8201836020820111156101e457600080fd5b803590602001918460018302840111600160201b8311171561020557600080fd5b91908080601f0160208091040260200160405190810160405280939291908181526020018383808284376000920191909152509295949360208101935035915050600160201b81111561025757600080fd5b82018360208201111561026957600080fd5b803590602001918460018302840111600160201b8311171561028a57600080fd5b91908080601f0160208091040260200160405190810160405280939291908181526020018383808284376000920191909152509295506108b5945050505050565b604080519115158252519081900360200190f35b6102cb600480360360408110156102f557600080fd5b810190602081018135600160201b81111561030f57600080fd5b82018360208201111561032157600080fd5b803590602001918460018302840111600160201b8311171561034257600080fd5b91908080601f0160208091040260200160405190810160405280939291908181526020018383808284376000920191909152509295949360208101935035915050600160201b81111561039457600080fd5b8201836020820111156103a657600080fd5b803590602001918460018302840111600160201b831117156103c757600080fd5b91908080601f016020809104026020016040519081016040528093929190818152602001838380828437600092019190915250929550610ed7945050505050565b6102cb6113ad565b6102cb61152c565b6102cb6004803603602081101561042e57600080fd5b50356001600160401b031661153c565b610446611605565b005b6102cb6004803603602081101561045e57600080fd5b50356001600160a01b0316611696565b6102cb6117a5565b61010161191a565b6102cb611929565b61048e61194d565b604080516001600160401b039092168252519081900360200190f35b6102cb600480360360808110156104c057600080fd5b6001600160401b038235169190810190604081016020820135600160201b8111156104ea57600080fd5b8201836020820111156104fc57600080fd5b803590602001918460018302840111600160201b8311171561051d57600080fd5b919390929091602081019035600160201b81111561053a57600080fd5b82018360208201111561054c57600080fd5b803590602001918460018302840111600160201b8311171561056d57600080fd5b919390929091602081019035600160201b81111561058a57600080fd5b82018360208201111561059c57600080fd5b803590602001918460018302840111600160201b831117156105bd57600080fd5b509092509050611963565b6102cb600480360360a08110156105de57600080fd5b810190602081018135600160201b8111156105f857600080fd5b82018360208201111561060a57600080fd5b803590602001918460018302840111600160201b8311171561062b57600080fd5b91908080601f0160208091040260200160405190810160405280939291908181526020018383808284376000920191909152509295949360208101935035915050600160201b81111561067d57600080fd5b82018360208201111561068f57600080fd5b803590602001918460018302840111600160201b831117156106b057600080fd5b91908080601f0160208091040260200160405190810160405280939291908181526020018383808284376000920191909152509295949360208101935035915050600160201b81111561070257600080fd5b82018360208201111561071457600080fd5b803590602001918460018302840111600160201b8311171561073557600080fd5b91908080601f0160208091040260200160405190810160405280939291908181526020018383808284376000920191909152509295949360208101935035915050600160201b81111561078757600080fd5b82018360208201111561079957600080fd5b803590602001918460018302840111600160201b831117156107ba57600080fd5b91908080601f0160208091040260200160405190810160405280939291908181526020018383808284376000920191909152509295949360208101935035915050600160201b81111561080c57600080fd5b82018360208201111561081e57600080fd5b803590602001918460018302840111600160201b8311171561083f57600080fd5b91908080601f0160208091040260200160405190810160405280939291908181526020018383808284376000920191909152509295506120a2945050505050565b6104466004803603602081101561089657600080fd5b50356001600160a01b03166127e3565b6001546001600160a01b031681565b60008054600160a01b900460ff1615610908576040805162461bcd60e51b815260206004820152601060248201526f14185d5cd8589b194e881c185d5cd95960821b604482015290519081900360640190fd5b610910614b09565b61091985612836565b90506000600160009054906101000a90046001600160a01b031690506000816001600160a01b0316635ac407906040518163ffffffff1660e01b815260040160206040518083038186803b15801561097057600080fd5b505afa158015610984573d6000803e3d6000fd5b505050506040513d602081101561099a57600080fd5b5051606084015163ffffffff91821692501681106109e95760405162461bcd60e51b815260040180806020018281038252603e815260200180614d4a603e913960400191505060405180910390fd5b6101408301516bffffffffffffffffffffffff1916610a395760405162461bcd60e51b8152600401808060200182810382526025815260200180614bf66025913960400191505060405180910390fd5b6060610b67836001600160a01b03166369d480746040518163ffffffff1660e01b815260040160006040518083038186803b158015610a7757600080fd5b505afa158015610a8b573d6000803e3d6000fd5b505050506040513d6000823e601f3d908101601f191682016040526020811015610ab457600080fd5b8101908080516040519392919084600160201b821115610ad357600080fd5b908301906020820185811115610ae857600080fd5b8251600160201b811182820188101715610b0157600080fd5b82525081516020918201929091019080838360005b83811015610b2e578181015183820152602001610b16565b50505050905090810190601f168015610b5b5780820380516001836020036101000a031916815260200191505b50604052505050612955565b8051909150610b82898884600360001986015b048503612a08565b610bd3576040805162461bcd60e51b815260206004820152601860248201527f566572696679207369676e6174757265206661696c6564210000000000000000604482015290519081900360640190fd5b60006060610be08a612c58565b91509150816001600160601b0319168761014001516001600160601b03191614610c47576040805162461bcd60e51b815260206004820152601360248201527213995e1d109bdbdad95c9cc81a5b1b1959d85b606a1b604482015290519081900360640190fd5b856001600160a01b0316638a8bd17f88606001516040518263ffffffff1660e01b8152600401808263ffffffff1663ffffffff168152602001915050602060405180830381600087803b158015610c9d57600080fd5b505af1158015610cb1573d6000803e3d6000fd5b505050506040513d6020811015610cc757600080fd5b5051610d045760405162461bcd60e51b815260040180806020018281038252602d815260200180614e64602d913960400191505060405180910390fd5b856001600160a01b03166341973cd9610d1c83612d37565b6040518263ffffffff1660e01b81526004018080602001828103825283818151815260200191508051906020019080838360005b83811015610d68578181015183820152602001610d50565b50505050905090810190601f168015610d955780820380516001836020036101000a031916815260200191505b5092505050602060405180830381600087803b158015610db457600080fd5b505af1158015610dc8573d6000803e3d6000fd5b505050506040513d6020811015610dde57600080fd5b5051610e1b5760405162461bcd60e51b815260040180806020018281038252603b815260200180614db3603b913960400191505060405180910390fd5b7fe60d33488cba3977bf65766cd2f8ac9617f64bf3b3198aff6240ce5c7d43b69087606001518c604051808363ffffffff16815260200180602001828103825283818151815260200191508051906020019080838360005b83811015610e8b578181015183820152602001610e73565b50505050905090810190601f168015610eb85780820380516001836020036101000a031916815260200191505b50935050505060405180910390a15060019a9950505050505050505050565b60008054600160a01b900460ff1615610f2a576040805162461bcd60e51b815260206004820152601060248201526f14185d5cd8589b194e881c185d5cd95960821b604482015290519081900360640190fd5b60015460408051631a75201d60e21b815290516001600160a01b039092169182916369d48074916004808301926000929190829003018186803b158015610f7057600080fd5b505afa158015610f84573d6000803e3d6000fd5b505050506040513d6000823e601f3d908101601f191682016040526020811015610fad57600080fd5b8101908080516040519392919084600160201b821115610fcc57600080fd5b908301906020820185811115610fe157600080fd5b8251600160201b811182820188101715610ffa57600080fd5b82525081516020918201929091019080838360005b8381101561102757818101518382015260200161100f565b50505050905090810190601f1680156110545780820380516001836020036101000a031916815260200191505b506040525050505160001461109a5760405162461bcd60e51b8152600401808060200182810382526038815260200180614f496038913960400191505060405180910390fd5b6110a2614b09565b6110ab85612836565b9050600060606110ba86612c58565b91509150816001600160601b0319168361014001516001600160601b03191614611121576040805162461bcd60e51b815260206004820152601360248201527213995e1d109bdbdad95c9cc81a5b1b1959d85b606a1b604482015290519081900360640190fd5b836001600160a01b0316638a8bd17f84606001516040518263ffffffff1660e01b8152600401808263ffffffff1663ffffffff168152602001915050602060405180830381600087803b15801561117757600080fd5b505af115801561118b573d6000803e3d6000fd5b505050506040513d60208110156111a157600080fd5b50516111de5760405162461bcd60e51b8152600401808060200182810382526043815260200180614c8d6043913960600191505060405180910390fd5b836001600160a01b03166341973cd96111f683612d37565b6040518263ffffffff1660e01b81526004018080602001828103825283818151815260200191508051906020019080838360005b8381101561124257818101518382015260200161122a565b50505050905090810190601f16801561126f5780820380516001836020036101000a031916815260200191505b5092505050602060405180830381600087803b15801561128e57600080fd5b505af11580156112a2573d6000803e3d6000fd5b505050506040513d60208110156112b857600080fd5b50516112f55760405162461bcd60e51b8152600401808060200182810382526043815260200180614f816043913960600191505060405180910390fd5b7ff01968fc3a2655cf1b5144cb32de6dc898f91b9239c103744e8457152ab2fbde836060015188604051808363ffffffff16815260200180602001828103825283818151815260200191508051906020019080838360005b8381101561136557818101518382015260200161134d565b50505050905090810190601f1680156113925780820380516001836020036101000a031916815260200191505b50935050505060405180910390a15060019695505050505050565b60006113b7611929565b6113f6576040805162461bcd60e51b81526020600482018190526024820152600080516020614dee833981519152604482015290519081900360640190fd5b6113fe61152c565b1561140b5761140b612e39565b60015460408051635c975abb60e01b815290516001600160a01b03909216918291635c975abb916004808301926020929190829003018186803b15801561145157600080fd5b505afa158015611465573d6000803e3d6000fd5b505050506040513d602081101561147b57600080fd5b50511561152457806001600160a01b0316633f4ba83a6040518163ffffffff1660e01b8152600401602060405180830381600087803b1580156114bd57600080fd5b505af11580156114d1573d6000803e3d6000fd5b505050506040513d60208110156114e757600080fd5b50516115245760405162461bcd60e51b8152600401808060200182810382526029815260200180614c1b6029913960400191505060405180910390fd5b600191505090565b600054600160a01b900460ff1690565b60008054600160a01b900460ff16611592576040805162461bcd60e51b815260206004820152601460248201527314185d5cd8589b194e881b9bdd081c185d5cd95960621b604482015290519081900360640190fd5b61159a611929565b6115d9576040805162461bcd60e51b81526020600482018190526024820152600080516020614dee833981519152604482015290519081900360640190fd5b506001805467ffffffffffffffff60a01b1916600160a01b6001600160401b038416021781555b919050565b61160d611929565b61164c576040805162461bcd60e51b81526020600482018190526024820152600080516020614dee833981519152604482015290519081900360640190fd5b600080546040516001600160a01b03909116907f8be0079c531659141344cd1fd0a4f28419497f9722a3daafe3b4186f6b6457e0908390a3600080546001600160a01b0319169055565b60008054600160a01b900460ff166116ec576040805162461bcd60e51b815260206004820152601460248201527314185d5cd8589b194e881b9bdd081c185d5cd95960621b604482015290519081900360640190fd5b6116f4611929565b611733576040805162461bcd60e51b81526020600482018190526024820152600080516020614dee833981519152604482015290519081900360640190fd5b6001546040805163f2fde38b60e01b81526001600160a01b03858116600483015291519190921691829163f2fde38b9160248082019260009290919082900301818387803b15801561178457600080fd5b505af1158015611798573d6000803e3d6000fd5b5060019695505050505050565b60006117af611929565b6117ee576040805162461bcd60e51b81526020600482018190526024820152600080516020614dee833981519152604482015290519081900360640190fd5b6117f661152c565b61180257611802612ee1565b60015460408051635c975abb60e01b815290516001600160a01b03909216918291635c975abb916004808301926020929190829003018186803b15801561184857600080fd5b505afa15801561185c573d6000803e3d6000fd5b505050506040513d602081101561187257600080fd5b505161152457806001600160a01b0316638456cb596040518163ffffffff1660e01b8152600401602060405180830381600087803b1580156118b357600080fd5b505af11580156118c7573d6000803e3d6000fd5b505050506040513d60208110156118dd57600080fd5b50516115245760405162461bcd60e51b8152600401808060200182810382526027815260200180614bcf6027913960400191505060405180910390fd5b6000546001600160a01b031690565b600080546001600160a01b031661193e612f6b565b6001600160a01b031614905090565b600154600160a01b90046001600160401b031681565b60008054600160a01b900460ff16156119b6576040805162461bcd60e51b815260206004820152601060248201526f14185d5cd8589b194e881c185d5cd95960821b604482015290519081900360640190fd5b60015460408051600162c2db5f60e01b0319815290516001600160a01b0390921691600091839163ff3d24a191600480820192602092909190829003018186803b158015611a0357600080fd5b505afa158015611a17573d6000803e3d6000fd5b505050506040513d6020811015611a2d57600080fd5b505190506060611a3c82612f6f565b90506060611a4982612fe8565b611b776002308560405160200180836001600160a01b03166001600160a01b031660601b815260140182805190602001908083835b60208310611a9d5780518252601f199092019160209182019101611a7e565b6001836020036101000a038019825116818451168082178552505050505050905001925050506040516020818303038152906040526040518082805190602001908083835b60208310611b015780518252601f199092019160209182019101611ae2565b51815160209384036101000a60001901801990921691161790526040519190930194509192505080830381855afa158015611b40573d6000803e3d6000fd5b5050506040513d6020811015611b5557600080fd5b5051604080516020818101939093528151808203909301835281019052612fe8565b611b88611b83336130ae565b612fe8565b611b918f6130c9565b611bd08f8f8080601f016020809104026020016040519081016040528093929190818152602001838380828437600092019190915250612fe892505050565b611c0f8e8e8080601f016020809104026020016040519081016040528093929190818152602001838380828437600092019190915250612fe892505050565b611c4e8d8d8080601f016020809104026020016040519081016040528093929190818152602001838380828437600092019190915250612fe892505050565b6040516020018088805190602001908083835b60208310611c805780518252601f199092019160209182019101611c61565b51815160209384036101000a60001901801990921691161790528a5191909301928a0191508083835b60208310611cc85780518252601f199092019160209182019101611ca9565b51815160209384036101000a600019018019909216911617905289519190930192890191508083835b60208310611d105780518252601f199092019160209182019101611cf1565b51815160209384036101000a600019018019909216911617905288519190930192880191508083835b60208310611d585780518252601f199092019160209182019101611d39565b51815160209384036101000a600019018019909216911617905287519190930192870191508083835b60208310611da05780518252601f199092019160209182019101611d81565b51815160209384036101000a600019018019909216911617905286519190930192860191508083835b60208310611de85780518252601f199092019160209182019101611dc9565b51815160209384036101000a600019018019909216911617905285519190930192850191508083835b60208310611e305780518252601f199092019160209182019101611e11565b6001836020036101000a0380198251168184511680821785525050505050509050019750505050505050506040516020818303038152906040529050836001600160a01b0316634c3ccf6482805190602001206040518263ffffffff1660e01b815260040180828152602001915050602060405180830381600087803b158015611eb957600080fd5b505af1158015611ecd573d6000803e3d6000fd5b505050506040513d6020811015611ee357600080fd5b5051611f205760405162461bcd60e51b81526004018080602001828103825260308152602001806150086030913960400191505060405180910390fd5b326001600160a01b03167f6ad3bf15c1988bc04bc153490cab16db8efb9a3990215bf1c64ea6e28be8848383338f8f8f876040518080602001876001600160a01b03166001600160a01b03168152602001866001600160401b03166001600160401b03168152602001806020018060200184810384528a818151815260200191508051906020019080838360005b83811015611fc6578181015183820152602001611fae565b50505050905090810190601f168015611ff35780820380516001836020036101000a031916815260200191505b5084810383528681526020018787808284376000838201819052601f909101601f191690920186810384528751815287516020918201939189019250908190849084905b8381101561204f578181015183820152602001612037565b50505050905090810190601f16801561207c5780820380516001836020036101000a031916815260200191505b50995050505050505050505060405180910390a25060019b9a5050505050505050505050565b60008054600160a01b900460ff16156120f5576040805162461bcd60e51b815260206004820152601060248201526f14185d5cd8589b194e881c185d5cd95960821b604482015290519081900360640190fd5b6120fd614b09565b61210686612836565b90506000600160009054906101000a90046001600160a01b031690506060612160826001600160a01b03166369d480746040518163ffffffff1660e01b815260040160006040518083038186803b158015610a7757600080fd5b90506000826001600160a01b0316635ac407906040518163ffffffff1660e01b815260040160206040518083038186803b15801561219d57600080fd5b505afa1580156121b1573d6000803e3d6000fd5b505050506040513d60208110156121c757600080fd5b50518251606086015163ffffffff92831693509091168211612235576121f58a888560036000198601610b7a565b6122305760405162461bcd60e51b815260040180806020018281038252602a81526020018061507e602a913960400191505060405180910390fd5b61230f565b61224788888560036000198601610b7a565b6122825760405162461bcd60e51b8152600401808060200182810382526038815260200180614e916038913960400191505060405180910390fd5b61228a614b09565b61229389612836565b905060606122a68b83610100015161310c565b90506122b181613249565b6122ba8d6132a9565b1461230c576040805162461bcd60e51b815260206004820152601b60248201527f766572696679206865616465722070726f6f66206661696c6564210000000000604482015290519081900360640190fd5b50505b606061231f8c8760e0015161310c565b9050612329614b64565b612332826133da565b9050856001600160a01b0316630586763c82602001516123558460000151613249565b6040518363ffffffff1660e01b815260040180836001600160401b03166001600160401b031681526020018281526020019250505060206040518083038186803b1580156123a257600080fd5b505afa1580156123b6573d6000803e3d6000fd5b505050506040513d60208110156123cc57600080fd5b50511561240a5760405162461bcd60e51b8152600401808060200182810382526022815260200180614fe66022913960400191505060405180910390fd5b856001600160a01b031663e90bfdcf826020015161242b8460000151613249565b6040518363ffffffff1660e01b815260040180836001600160401b03166001600160401b0316815260200182815260200192505050602060405180830381600087803b15801561247a57600080fd5b505af115801561248e573d6000803e3d6000fd5b505050506040513d60208110156124a457600080fd5b50516124f7576040805162461bcd60e51b815260206004820181905260248201527f536176652063726f7373636861696e207478206578697374206661696c656421604482015290519081900360640190fd5b6001546040820151606001516001600160401b03908116600160a01b90920416146125535760405162461bcd60e51b8152600401808060200182810382526026815260200180614cd06026913960400191505060405180910390fd5b60006125668260400151608001516134b6565b6001549091506001600160a01b03808316911614156125bc576040805162461bcd60e51b815260206004820152600d60248201526c4e6f206563636420686572652160981b604482015290519081900360640190fd5b6125e581836040015160a00151846040015160c001518560400151604001518660200151613500565b612636576040805162461bcd60e51b815260206004820152601d60248201527f457865637574652043726f7373436861696e205478206661696c656421000000604482015290519081900360640190fd5b7f8a4a2663ce60ce4955c595da2894de0415240f1ace024cfbff85f513b656bdae8260200151836040015160800151846000015185604001516000015160405180856001600160401b03166001600160401b03168152602001806020018060200180602001848103845287818151815260200191508051906020019080838360005b838110156126d05781810151838201526020016126b8565b50505050905090810190601f1680156126fd5780820380516001836020036101000a031916815260200191505b50848103835286518152865160209182019188019080838360005b83811015612730578181015183820152602001612718565b50505050905090810190601f16801561275d5780820380516001836020036101000a031916815260200191505b50848103825285518152855160209182019187019080838360005b83811015612790578181015183820152602001612778565b50505050905090810190601f1680156127bd5780820380516001836020036101000a031916815260200191505b5097505050505050505060405180910390a15060019d9c50505050505050505050505050565b6127eb611929565b61282a576040805162461bcd60e51b81526020600482018190526024820152600080516020614dee833981519152604482015290519081900360640190fd5b612833816138d4565b50565b61283e614b09565b612846614b09565b60006128528482613974565b63ffffffff909116835290506128688482613a1c565b6001600160401b03909116602084015290506128848482613ac2565b60a084019190915290506128988482613ac2565b60c084019190915290506128ac8482613ac2565b60e084019190915290506128c08482613ac2565b61010084019190915290506128d58482613974565b63ffffffff909116604084015290506128ee8482613974565b63ffffffff909116606084015290506129078482613a1c565b6001600160401b03909116608084015290506129238482613b3c565b61012084019190915290506129388482613c0f565b506bffffffffffffffffffffffff19166101408301525092915050565b60606000806129648482613a1c565b80935081925050506060816001600160401b03166040519080825280602002602001820160405280156129a1578160200160208202803883390190505b509050606060005b836001600160401b03168110156129fd576129c48786613b3c565b955091506129d1826134b6565b8382815181106129dd57fe5b6001600160a01b03909216602092830291909101909101526001016129a9565b509095945050505050565b600080612a14866132a9565b90506000612a2d60418751613c7790919063ffffffff16565b9050606081604051908082528060200260200182016040528015612a5b578160200160208202803883390190505b50905060008080805b85811015612c3b57612a83612a7e8c604184026020613cc0565b613249565b9350612a9a612a7e8c604184026020016020613cc0565b92508a6041820260400181518110612aae57fe5b602001015160f81c60f81b60f81c601b0191506001600288604051602001808281526020019150506040516020818303038152906040526040518082805190602001908083835b60208310612b145780518252601f199092019160209182019101612af5565b51815160209384036101000a60001901801990921691161790526040519190930194509192505080830381855afa158015612b53573d6000803e3d6000fd5b5050506040513d6020811015612b6857600080fd5b5051604080516000815260208181018084529390935260ff8616818301526060810188905260808101879052905160a08083019392601f198301929081900390910190855afa158015612bbf573d6000803e3d6000fd5b50505060206040510351858281518110612bd557fe5b60200260200101906001600160a01b031690816001600160a01b03168152505060006001600160a01b0316858281518110612c0c57fe5b60200260200101516001600160a01b03161415612c33576000975050505050505050612c50565b600101612a64565b50612c4789858a613d40565b96505050505050505b949350505050565b600060606043835181612c6757fe5b0615612cba576040805162461bcd60e51b815260206004820152601b60248201527f5f7075624b65794c697374206c656e67746820696c6c6567616c210000000000604482015290519081900360640190fd5b60006043845181612cc757fe5b0490506001811015612d19576040805162461bcd60e51b8152602060048201526016602482015275746f6f2073686f7274205f7075624b65794c6973742160501b604482015290519081900360640190fd5b612d2d816003600019820104830386613de1565b9250925050915091565b805160609081612d46826130c9565b905060005b82811015612e315781612d73611b83878481518110612d6657fe5b60200260200101516130ae565b6040516020018083805190602001908083835b60208310612da55780518252601f199092019160209182019101612d86565b51815160209384036101000a600019018019909216911617905285519190930192850191508083835b60208310612ded5780518252601f199092019160209182019101612dce565b6001836020036101000a0380198251168184511680821785525050505050509050019250505060405160208183030381529060405291508080600101915050612d4b565b509392505050565b600054600160a01b900460ff16612e8e576040805162461bcd60e51b815260206004820152601460248201527314185d5cd8589b194e881b9bdd081c185d5cd95960621b604482015290519081900360640190fd5b6000805460ff60a01b191690557f5db9ee0a495bf2e6ff9c91a7834c1ba4fdd244a5e8aa4e537bd38aeae4b073aa612ec4612f6b565b604080516001600160a01b039092168252519081900360200190a1565b600054600160a01b900460ff1615612f33576040805162461bcd60e51b815260206004820152601060248201526f14185d5cd8589b194e881c185d5cd95960821b604482015290519081900360640190fd5b6000805460ff60a01b1916600160a01b1790557f62e78cea01bee320cd4e420270b5ea74000d11b0c9f74754ebdbfc544b05a258612ec45b3390565b60606001600160ff1b03821115612fcd576040805162461bcd60e51b815260206004820152601760248201527f56616c75652065786365656473207468652072616e6765000000000000000000604482015290519081900360640190fd5b60405190506020815281602082015260408101604052919050565b8051606090612ff68161412e565b836040516020018083805190602001908083835b602083106130295780518252601f19909201916020918201910161300a565b51815160209384036101000a600019018019909216911617905285519190930192850191508083835b602083106130715780518252601f199092019160209182019101613052565b6001836020036101000a03801982511681845116808217855250505050505090500192505050604051602081830303815290604052915050919050565b604080516014815260609290921b6020830152818101905290565b6040516008808252606091906000601f5b828210156130fc5785811a8260208601015360019190910190600019016130da565b5050506028810160405292915050565b606060008161311b8583613b3c565b92509050600061312a82614274565b905060006131536021613147868a5161431b90919063ffffffff16565b9063ffffffff613c7716565b9050600080805b838110156131fd5761316c8a8861435d565b9750915061317a8a88613ac2565b975092506001600160f81b0319821661319e5761319783866143db565b94506131f5565b600160f81b6001600160f81b0319831614156131be5761319785846143db565b60405162461bcd60e51b815260040180806020018281038252602e815260200180614e0e602e913960400191505060405180910390fd5b60010161315a565b5087841461323c5760405162461bcd60e51b8152600401808060200182810382526031815260200180614d196031913960400191505060405180910390fd5b5092979650505050505050565b600081516020146132a1576040805162461bcd60e51b815260206004820152601760248201527f6279746573206c656e677468206973206e6f742033322e000000000000000000604482015290519081900360640190fd5b506020015190565b6000600280836040518082805190602001908083835b602083106132de5780518252601f1990920191602091820191016132bf565b51815160209384036101000a60001901801990921691161790526040519190930194509192505080830381855afa15801561331d573d6000803e3d6000fd5b5050506040513d602081101561333257600080fd5b50516040805160208181019390935281518082038401815290820191829052805190928291908401908083835b6020831061337e5780518252601f19909201916020918201910161335f565b51815160209384036101000a60001901801990921691161790526040519190930194509192505080830381855afa1580156133bd573d6000803e3d6000fd5b5050506040513d60208110156133d257600080fd5b505192915050565b6133e2614b64565b6133ea614b64565b60006133f68482613b3c565b90835290506134058482613a1c565b6001600160401b039091166020840152905061341f614b88565b6134298583613b3c565b90825291506134388583613b3c565b6020830191909152915061344c8583613b3c565b604083019190915291506134608583613a1c565b6001600160401b039091166060830152915061347c8583613b3c565b608083019190915291506134908583613b3c565b60a083019190915291506134a48583613b3c565b5060c082015260408301525092915050565b600081516014146134f85760405162461bcd60e51b8152600401808060200182810382526023815260200180614c446023913960400191505060405180910390fd5b506014015190565b600061350b8661449f565b6135465760405162461bcd60e51b8152600401808060200182810382526028815260200180614e3c6028913960400191505060405180910390fd5b60606000876001600160a01b0316876040516020018082805190602001908083835b602083106135875780518252601f199092019160209182019101613568565b51815160001960209485036101000a01908116901991909116179052732862797465732c62797465732c75696e7436342960601b9390910192835260408051600b19818603018152601485019091528051908201206001600160401b038b1660748501526060603485019081528d5160948601528d519196508d95508c948c945090928392605483019260b4019188019080838360005b8381101561363657818101518382015260200161361e565b50505050905090810190601f1680156136635780820380516001836020036101000a031916815260200191505b50838103825285518152855160209182019187019080838360005b8381101561369657818101518382015260200161367e565b50505050905090810190601f1680156136c35780820380516001836020036101000a031916815260200191505b509550505050505060405160208183030381529060405260405160200180836001600160e01b0319166001600160e01b031916815260040182805190602001908083835b602083106137265780518252601f199092019160209182019101613707565b6001836020036101000a038019825116818451168082178552505050505050905001925050506040516020818303038152906040526040518082805190602001908083835b6020831061378a5780518252601f19909201916020918201910161376b565b6001836020036101000a0380198251168184511680821785525050505050509050019150506000604051808303816000865af19150503d80600081146137ec576040519150601f19603f3d011682016040523d82523d6000602084013e6137f1565b606091505b50925090506001811515146138375760405162461bcd60e51b815260040180806020018281038252602b815260200180614d88602b913960400191505060405180910390fd5b81516138745760405162461bcd60e51b8152600401808060200182810382526027815260200180614ec96027913960400191505060405180910390fd5b600061388183601f6144d6565b5090506001811515146138c55760405162461bcd60e51b8152600401808060200182810382526037815260200180614ef06037913960400191505060405180910390fd5b50600198975050505050505050565b6001600160a01b0381166139195760405162461bcd60e51b8152600401808060200182810382526026815260200180614c676026913960400191505060405180910390fd5b600080546040516001600160a01b03808516939216917f8be0079c531659141344cd1fd0a4f28419497f9722a3daafe3b4186f6b6457e091a3600080546001600160a01b0319166001600160a01b0392909216919091179055565b6000808351836004011115801561398d57508260040183105b6139c85760405162461bcd60e51b81526004018080602001828103825260228152602001806150386022913960400191505060405180910390fd5b600060405160046000600182038760208a0101515b838310156139fd5780821a838601536001830192506001820391506139dd565b50505080820160405260200390035192505050600482015b9250929050565b60008083518360080111158015613a3557508260080183105b613a705760405162461bcd60e51b8152600401808060200182810382526022815260200180614fc46022913960400191505060405180910390fd5b600060405160086000600182038760208a0101515b83831015613aa55780821a83860153600183019250600182039150613a85565b505050808201604052602003900351956008949094019450505050565b60008083518360200111158015613adb57508260200183105b613b2c576040805162461bcd60e51b815260206004820181905260248201527f4e657874486173682c206f66667365742065786365656473206d6178696d756d604482015290519081900360640190fd5b5050602091810182015192910190565b6060600080613b4b85856145c7565b865190955090915081850111801590613b65575080840184105b613ba05760405162461bcd60e51b815260040180806020018281038252602481526020018061505a6024913960400191505060405180910390fd5b606081158015613bbb57604051915060208201604052613c05565b6040519150601f8316801560200281840101848101888315602002848c0101015b81831015613bf4578051835260209283019201613bdc565b5050848452601f01601f1916604052505b5095930193505050565b60008083518360140111158015613c2857508260140183105b613c635760405162461bcd60e51b8152600401808060200182810382526023815260200180614cf66023913960400191505060405180910390fd5b505081810160200151601482019250929050565b6000613cb983836040518060400160405280601a81526020017f536166654d6174683a206469766973696f6e206279207a65726f0000000000008152506147e0565b9392505050565b606081830184511015613cd257600080fd5b606082158015613ced57604051915060208201604052613d37565b6040519150601f8416801560200281840101858101878315602002848b0101015b81831015613d26578051835260209283019201613d0e565b5050858452601f01601f1916604052505b50949350505050565b600080805b8451811015613dd55760005b8651811015613dcc57868181518110613d6657fe5b60200260200101516001600160a01b0316868381518110613d8357fe5b60200260200101516001600160a01b03161415613dc4578280600101935050868181518110613dae57fe5b6020026020010160006001600160a01b03168152505b600101613d51565b50600101613d45565b50909111159392505050565b6000606080613def86614882565b9050606086604051908082528060200260200182016040528015613e1d578160200160208202803883390190505b50905060006060815b89811015613f4357613e3d88604383026043613cc0565b915084613e4c611b83846148c5565b6040516020018083805190602001908083835b60208310613e7e5780518252601f199092019160209182019101613e5f565b51815160209384036101000a600019018019909216911617905285519190930192850191508083835b60208310613ec65780518252601f199092019160209182019101613ea7565b6001836020036101000a038019825116818451168082178552505050505050905001925050506040516020818303038152906040529450613f0a8260036040613cc0565b8051906020012092508260001c848281518110613f2357fe5b6001600160a01b0390921660209283029190910190910152600101613e26565b5083613f4e89614882565b6040516020018083805190602001908083835b60208310613f805780518252601f199092019160209182019101613f61565b51815160209384036101000a600019018019909216911617905285519190930192850191508083835b60208310613fc85780518252601f199092019160209182019101613fa9565b6001836020036101000a038019825116818451168082178552505050505050905001925050506040516020818303038152906040529350600060036002866040518082805190602001908083835b602083106140355780518252601f199092019160209182019101614016565b51815160209384036101000a60001901801990921691161790526040519190930194509192505080830381855afa158015614074573d6000803e3d6000fd5b5050506040513d602081101561408957600080fd5b50516040805160208181019390935281518082038401815290820191829052805190928291908401908083835b602083106140d55780518252601f1990920191602091820191016140b6565b51815160209384036101000a60001901801990921691161790526040519190930194509192505080830381855afa158015614114573d6000803e3d6000fd5b50506040515160601b9b949a509398505050505050505050565b606060fd826001600160401b031610156141525761414b826149b3565b9050611600565b61ffff826001600160401b0316116142305761417160fd60f81b6149cf565b61417a83614882565b6040516020018083805190602001908083835b602083106141ac5780518252601f19909201916020918201910161418d565b51815160209384036101000a600019018019909216911617905285519190930192850191508083835b602083106141f45780518252601f1990920191602091820191016141d5565b6001836020036101000a038019825116818451168082178552505050505050905001925050506040516020818303038152906040529050611600565b63ffffffff826001600160401b03161161425a57614251607f60f91b6149cf565b61417a836149e3565b61426b6001600160f81b03196149cf565b61417a836130c9565b6040516000602080830182815284519293600293859387939260210191908401908083835b602083106142b85780518252601f199092019160209182019101614299565b6001836020036101000a038019825116818451168082178552505050505050905001925050506040516020818303038152906040526040518082805190602001908083836020831061337e5780518252601f19909201916020918201910161335f565b6000613cb983836040518060400160405280601e81526020017f536166654d6174683a207375627472616374696f6e206f766572666c6f770000815250614a26565b6000808351836001011115801561437657508260010183105b6143c7576040805162461bcd60e51b815260206004820181905260248201527f4e657874427974652c204f66667365742065786365656473206d6178696d756d604482015290519081900360640190fd5b505081810160200151600182019250929050565b60408051600160f81b60208083019190915260218201859052604180830185905283518084039091018152606190920192839052815160009360029392909182918401908083835b602083106144425780518252601f199092019160209182019101614423565b51815160209384036101000a60001901801990921691161790526040519190930194509192505080830381855afa158015614481573d6000803e3d6000fd5b5050506040513d602081101561449657600080fd5b50519392505050565b6000813f7fc5d2460186f7233c927e7db2dcc703c0e500b653ca82273b7bfad8045d85a4708115801590612c505750141592915050565b600080835183600101111580156144ef57508260010183105b614537576040805162461bcd60e51b815260206004820152601460248201527313d9999cd95d08195e18d959591cc81b1a5b5a5d60621b604482015290519081900360640190fd5b838301602001516000600160f81b6001600160f81b03198316141561455e575060016145b9565b6001600160f81b03198216614575575060006145b9565b6040805162461bcd60e51b81526020600482015260146024820152732732bc3a2137b7b6103b30b63ab29032b93937b960611b604482015290519081900360640190fd5b956001949094019450505050565b60008060006145d6858561435d565b94509050600060fd60f81b6001600160f81b031983161415614674576145fc8686614a80565b955061ffff16905060fd8110801590614617575061ffff8111155b614668576040805162461bcd60e51b815260206004820152601f60248201527f4e65787455696e7431362c2076616c7565206f7574736964652072616e676500604482015290519081900360640190fd5b9250839150613a159050565b607f60f91b6001600160f81b031983161415614704576146948686613974565b955063ffffffff16905061ffff811180156146b3575063ffffffff8111155b614668576040805162461bcd60e51b815260206004820181905260248201527f4e65787456617255696e742c2076616c7565206f7574736964652072616e6765604482015290519081900360640190fd5b6001600160f81b03198083161415614785576147208686613a1c565b95506001600160401b0316905063ffffffff8111614668576040805162461bcd60e51b815260206004820181905260248201527f4e65787456617255696e742c2076616c7565206f7574736964652072616e6765604482015290519081900360640190fd5b5060f881901c60fd8110614668576040805162461bcd60e51b815260206004820181905260248201527f4e65787456617255696e742c2076616c7565206f7574736964652072616e6765604482015290519081900360640190fd5b6000818361486c5760405162461bcd60e51b81526004018080602001828103825283818151815260200191508051906020019080838360005b83811015614831578181015183820152602001614819565b50505050905090810190601f16801561485e5780820380516001836020036101000a031916815260200191505b509250505060405180910390fd5b50600083858161487857fe5b0495945050505050565b6040516002808252606091906000601f5b828210156148b55785811a826020860101536001919091019060001901614893565b5050506022810160405292915050565b606060438251101561491e576040805162461bcd60e51b815260206004820152601760248201527f6b6579206c656e67676820697320746f6f2073686f7274000000000000000000604482015290519081900360640190fd5b61492b8260006023613cc0565b905060028260428151811061493c57fe5b016020015160f81c8161494b57fe5b0660ff166000141561498557600260f81b8160028151811061496957fe5b60200101906001600160f81b031916908160001a905350611600565b600360f81b8160028151811061499757fe5b60200101906001600160f81b031916908160001a905350919050565b604080516001815260f89290921b602083015260218201905290565b60606149dd8260f81c6149b3565b92915050565b6040516004808252606091906000601f5b82821015614a165785811a8260208601015360019190910190600019016149f4565b5050506024810160405292915050565b60008184841115614a785760405162461bcd60e51b8152602060048201818152835160248401528351909283926044909101919085019080838360008315614831578181015183820152602001614819565b505050900390565b60008083518360020111158015614a9957508260020183105b614ad45760405162461bcd60e51b8152600401808060200182810382526022815260200180614f276022913960400191505060405180910390fd5b6000604051846020870101518060011a82538060001a6001830153506002818101604052601d19909101519694019450505050565b604080516101608101825260008082526020820181905291810182905260608082018390526080820183905260a0820183905260c0820183905260e08201839052610100820183905261012082015261014081019190915290565b6040805160608082018352815260006020820152908101614b83614b88565b905290565b6040518060e0016040528060608152602001606081526020016060815260200160006001600160401b03168152602001606081526020016060815260200160608152509056fe70617573652045746843726f7373436861696e4461746120636f6e7472616374206661696c6564546865206e657874426f6f6b4b6565706572206f662068656164657220697320656d707479756e70617573652045746843726f7373436861696e4461746120636f6e7472616374206661696c65646279746573206c656e67746820646f6573206e6f74206d6174636820616464726573734f776e61626c653a206e6577206f776e657220697320746865207a65726f20616464726573735361766520506f6c7920636861696e2063757272656e742065706f63682073746172742068656967687420746f204461746120636f6e7472616374206661696c65642154686973205478206973206e6f742061696d696e672061742074686973206e6574776f726b214e657874427974657332302c206f66667365742065786365656473206d6178696d756d6d65726b6c6550726f76652c2065787065637420726f6f74206973206e6f7420657175616c2061637475616c20726f6f7454686520686569676874206f6620686561646572206973206c6f776572207468616e2063757272656e742065706f6368207374617274206865696768742145746843726f7373436861696e2063616c6c20627573696e65737320636f6e7472616374206661696c65645361766520506f6c7920636861696e20626f6f6b206b65657065727320627974657320746f204461746120636f6e7472616374206661696c6564214f776e61626c653a2063616c6c6572206973206e6f7420746865206f776e65726d65726b6c6550726f76652c204e6578744279746520666f7220706f736974696f6e20696e666f206661696c65645468652070617373656420696e2061646472657373206973206e6f74206120636f6e74726163742153617665204d43204c617465737448656967687420746f204461746120636f6e7472616374206661696c65642156657269667920706f6c7920636861696e2063757272656e742065706f636820686561646572207369676e6174757265206661696c6564214e6f2072657475726e2076616c75652066726f6d20627573696e65737320636f6e74726163742145746843726f7373436861696e2063616c6c20627573696e65737320636f6e74726163742072657475726e206973206e6f7420747275654e65787455696e7431362c206f66667365742065786365656473206d6178696d756d45746843726f7373436861696e4461746120636f6e74726163742068617320616c7265616479206265656e20696e697469616c697a6564215361766520506f6c7920636861696e2063757272656e742065706f636820626f6f6b206b65657065727320746f204461746120636f6e7472616374206661696c6564214e65787455696e7436342c206f66667365742065786365656473206d6178696d756d746865207472616e73616374696f6e20686173206265656e20657865637574656421536176652065746854784861736820627920696e64657820746f204461746120636f6e7472616374206661696c6564214e65787455696e7433322c206f66667365742065786365656473206d6178696d756d4e65787456617242797465732c206f66667365742065786365656473206d6178696d756d56657269667920706f6c7920636861696e20686561646572207369676e6174757265206661696c656421a265627a7a72315820f3802266f6a18975102e7afff5e0e5cadb0a56ab7d8f12a2fe14accade7e866364736f6c63430005100032",
  "source": "pragma solidity ^0.5.16;\n\nimport \"./../../../libs/math/SafeMath.sol\";\nimport \"./../../../libs/common/ZeroCopySource.sol\";\nimport \"./../../../libs/common/ZeroCopySink.sol\";\nimport \"./../../../libs/utils/Utils.sol\";\nimport \"./../upgrade/UpgradableECCM.sol\";\nimport \"./../libs/EthCrossChainUtils.sol\";\nimport \"./../interface/IEthCrossChainManager.sol\";\nimport \"./../interface/IEthCrossChainData.sol\";\ncontract EthCrossChainManagerNoWhiteList is IEthCrossChainManager, UpgradableECCM {\n    using SafeMath for uint256;\n\n    event InitGenesisBlockEvent(uint256 height, bytes rawHeader);\n    event ChangeBookKeeperEvent(uint256 height, bytes rawHeader);\n    event CrossChainEvent(address indexed sender, bytes txId, address proxyOrAssetContract, uint64 toChainId, bytes toContract, bytes rawdata);\n    event VerifyHeaderAndExecuteTxEvent(uint64 fromChainID, bytes toContract, bytes crossChainTxHash, bytes fromChainTxHash);\n    constructor(\n        address _eccd, \n        uint64 _chainId\n    ) UpgradableECCM(_eccd,_chainId) public {}\n\n    /* @notice              sync Poly chain genesis block header to smart contrat\n    *  @dev                 this function can only be called once, nextbookkeeper of rawHeader can't be empty\n    *  @param rawHeader     Poly chain genesis block raw header or raw Header including switching consensus peers info\n    *  @return              true or false\n    */\n    function initGenesisBlock(bytes memory rawHeader, bytes memory pubKeyList) whenNotPaused public returns(bool) {\n        // Load Ethereum cross chain data contract\n        IEthCrossChainData eccd = IEthCrossChainData(EthCrossChainDataAddress);\n        \n        // Make sure the contract has not been initialized before\n        require(eccd.getCurEpochConPubKeyBytes().length == 0, \"EthCrossChainData contract has already been initialized!\");\n        \n        // Parse header and convit the public keys into nextBookKeeper and compare it with header.nextBookKeeper to verify the validity of signature\n        ECCUtils.Header memory header = ECCUtils.deserializeHeader(rawHeader);\n        (bytes20 nextBookKeeper, address[] memory keepers) = ECCUtils.verifyPubkey(pubKeyList);\n        require(header.nextBookkeeper == nextBookKeeper, \"NextBookers illegal\");\n        \n        // Record current epoch start height and public keys (by storing them in address format)\n        require(eccd.putCurEpochStartHeight(header.height), \"Save Poly chain current epoch start height to Data contract failed!\");\n        require(eccd.putCurEpochConPubKeyBytes(ECCUtils.serializeKeepers(keepers)), \"Save Poly chain current epoch book keepers to Data contract failed!\");\n        \n        // Fire the event\n        emit InitGenesisBlockEvent(header.height, rawHeader);\n        return true;\n    }\n    \n    /* @notice              change Poly chain consensus book keeper\n    *  @param rawHeader     Poly chain change book keeper block raw header\n    *  @param pubKeyList    Poly chain consensus nodes public key list\n    *  @param sigList       Poly chain consensus nodes signature list\n    *  @return              true or false\n    */\n    function changeBookKeeper(bytes memory rawHeader, bytes memory pubKeyList, bytes memory sigList) whenNotPaused public returns(bool) {\n        // Load Ethereum cross chain data contract\n        ECCUtils.Header memory header = ECCUtils.deserializeHeader(rawHeader);\n        IEthCrossChainData eccd = IEthCrossChainData(EthCrossChainDataAddress);\n        \n        // Make sure rawHeader.height is higher than recorded current epoch start height\n        uint64 curEpochStartHeight = eccd.getCurEpochStartHeight();\n        require(header.height > curEpochStartHeight, \"The height of header is lower than current epoch start height!\");\n        \n        // Ensure the rawHeader is the key header including info of switching consensus peers by containing non-empty nextBookKeeper field\n        require(header.nextBookkeeper != bytes20(0), \"The nextBookKeeper of header is empty\");\n        \n        // Verify signature of rawHeader comes from pubKeyList\n        address[] memory polyChainBKs = ECCUtils.deserializeKeepers(eccd.getCurEpochConPubKeyBytes());\n        uint n = polyChainBKs.length;\n        require(ECCUtils.verifySig(rawHeader, sigList, polyChainBKs, n - (n - 1) / 3), \"Verify signature failed!\");\n        \n        // Convert pubKeyList into ethereum address format and make sure the compound address from the converted ethereum addresses\n        // equals passed in header.nextBooker\n        (bytes20 nextBookKeeper, address[] memory keepers) = ECCUtils.verifyPubkey(pubKeyList);\n        require(header.nextBookkeeper == nextBookKeeper, \"NextBookers illegal\");\n        \n        // update current epoch start height of Poly chain and current epoch consensus peers book keepers addresses\n        require(eccd.putCurEpochStartHeight(header.height), \"Save MC LatestHeight to Data contract failed!\");\n        require(eccd.putCurEpochConPubKeyBytes(ECCUtils.serializeKeepers(keepers)), \"Save Poly chain book keepers bytes to Data contract failed!\");\n        \n        // Fire the change book keeper event\n        emit ChangeBookKeeperEvent(header.height, rawHeader);\n        return true;\n    }\n\n\n    /* @notice              ERC20 token cross chain to other blockchain.\n    *                       this function push tx event to blockchain\n    *  @param toChainId     Target chain id\n    *  @param toContract    Target smart contract address in target block chain\n    *  @param txData        Transaction data for target chain, include to_address, amount\n    *  @return              true or false\n    */\n    function crossChain(uint64 toChainId, bytes calldata toContract, bytes calldata method, bytes calldata txData) whenNotPaused external returns (bool) {\n        \n        // Load Ethereum cross chain data contract\n        IEthCrossChainData eccd = IEthCrossChainData(EthCrossChainDataAddress);\n        \n        // To help differentiate two txs, the ethTxHashIndex is increasing automatically\n        uint256 txHashIndex = eccd.getEthTxHashIndex();\n        \n        // Convert the uint256 into bytes\n        bytes memory paramTxHash = Utils.uint256ToBytes(txHashIndex);\n        \n        // Construct the makeTxParam, and put the hash info storage, to help provide proof of tx existence\n        bytes memory rawParam = abi.encodePacked(ZeroCopySink.WriteVarBytes(paramTxHash),\n            ZeroCopySink.WriteVarBytes(abi.encodePacked(sha256(abi.encodePacked(address(this), paramTxHash)))),\n            ZeroCopySink.WriteVarBytes(Utils.addressToBytes(msg.sender)),\n            ZeroCopySink.WriteUint64(toChainId),\n            ZeroCopySink.WriteVarBytes(toContract),\n            ZeroCopySink.WriteVarBytes(method),\n            ZeroCopySink.WriteVarBytes(txData)\n        );\n        \n        // Must save it in the storage to be included in the proof to be verified.\n        require(eccd.putEthTxHash(keccak256(rawParam)), \"Save ethTxHash by index to Data contract failed!\");\n        \n        // Fire the cross chain event denoting there is a cross chain request from Ethereum network to other public chains through Poly chain network\n        emit CrossChainEvent(tx.origin, paramTxHash, msg.sender, toChainId, toContract, rawParam);\n        return true;\n    }\n    /* @notice              Verify Poly chain header and proof, execute the cross chain tx from Poly chain to Ethereum\n    *  @param proof         Poly chain tx merkle proof\n    *  @param rawHeader     The header containing crossStateRoot to verify the above tx merkle proof\n    *  @param headerProof   The header merkle proof used to verify rawHeader\n    *  @param curRawHeader  Any header in current epoch consensus of Poly chain\n    *  @param headerSig     The coverted signature veriable for solidity derived from Poly chain consensus nodes' signature\n    *                       used to verify the validity of curRawHeader\n    *  @return              true or false\n    */\n    function verifyHeaderAndExecuteTx(bytes memory proof, bytes memory rawHeader, bytes memory headerProof, bytes memory curRawHeader,bytes memory headerSig) whenNotPaused public returns (bool){\n        ECCUtils.Header memory header = ECCUtils.deserializeHeader(rawHeader);\n        // Load ehereum cross chain data contract\n        IEthCrossChainData eccd = IEthCrossChainData(EthCrossChainDataAddress);\n        \n        // Get stored consensus public key bytes of current poly chain epoch and deserialize Poly chain consensus public key bytes to address[]\n        address[] memory polyChainBKs = ECCUtils.deserializeKeepers(eccd.getCurEpochConPubKeyBytes());\n\n        uint256 curEpochStartHeight = eccd.getCurEpochStartHeight();\n\n        uint n = polyChainBKs.length;\n        if (header.height >= curEpochStartHeight) {\n            // It's enough to verify rawHeader signature\n            require(ECCUtils.verifySig(rawHeader, headerSig, polyChainBKs, n - ( n - 1) / 3), \"Verify poly chain header signature failed!\");\n        } else {\n            // We need to verify the signature of curHeader \n            require(ECCUtils.verifySig(curRawHeader, headerSig, polyChainBKs, n - ( n - 1) / 3), \"Verify poly chain current epoch header signature failed!\");\n\n            // Then use curHeader.StateRoot and headerProof to verify rawHeader.CrossStateRoot\n            ECCUtils.Header memory curHeader = ECCUtils.deserializeHeader(curRawHeader);\n            bytes memory proveValue = ECCUtils.merkleProve(headerProof, curHeader.blockRoot);\n            require(ECCUtils.getHeaderHash(rawHeader) == Utils.bytesToBytes32(proveValue), \"verify header proof failed!\");\n        }\n        \n        // Through rawHeader.CrossStatesRoot, the toMerkleValue or cross chain msg can be verified and parsed from proof\n        bytes memory toMerkleValueBs = ECCUtils.merkleProve(proof, header.crossStatesRoot);\n        \n        // Parse the toMerkleValue struct and make sure the tx has not been processed, then mark this tx as processed\n        ECCUtils.ToMerkleValue memory toMerkleValue = ECCUtils.deserializeMerkleValue(toMerkleValueBs);\n        require(!eccd.checkIfFromChainTxExist(toMerkleValue.fromChainID, Utils.bytesToBytes32(toMerkleValue.txHash)), \"the transaction has been executed!\");\n        require(eccd.markFromChainTxExist(toMerkleValue.fromChainID, Utils.bytesToBytes32(toMerkleValue.txHash)), \"Save crosschain tx exist failed!\");\n        \n        // Ethereum ChainId is 2, we need to check the transaction is for Ethereum network\n        require(toMerkleValue.makeTxParam.toChainId == chainId, \"This Tx is not aiming at this network!\");\n        \n        // Obtain the targeting contract, so that Ethereum cross chain manager contract can trigger the executation of cross chain tx on Ethereum side\n        address toContract = Utils.bytesToAddress(toMerkleValue.makeTxParam.toContract);\n        require(toContract != EthCrossChainDataAddress, \"No eccd here!\");\n\n        //TODO: check this part to make sure we commit the next line when doing local net UT test\n        require(_executeCrossChainTx(toContract, toMerkleValue.makeTxParam.method, toMerkleValue.makeTxParam.args, toMerkleValue.makeTxParam.fromContract, toMerkleValue.fromChainID), \"Execute CrossChain Tx failed!\");\n\n        // Fire the cross chain event denoting the executation of cross chain tx is successful,\n        // and this tx is coming from other public chains to current Ethereum network\n        emit VerifyHeaderAndExecuteTxEvent(toMerkleValue.fromChainID, toMerkleValue.makeTxParam.toContract, toMerkleValue.txHash, toMerkleValue.makeTxParam.txHash);\n\n        return true;\n    }\n    \n    /* @notice                  Dynamically invoke the targeting contract, and trigger executation of cross chain tx on Ethereum side\n    *  @param _toContract       The targeting contract that will be invoked by the Ethereum Cross Chain Manager contract\n    *  @param _method           At which method will be invoked within the targeting contract\n    *  @param _args             The parameter that will be passed into the targeting contract\n    *  @param _fromContractAddr From chain smart contract address\n    *  @param _fromChainId      Indicate from which chain current cross chain tx comes \n    *  @return                  true or false\n    */\n    function _executeCrossChainTx(address _toContract, bytes memory _method, bytes memory _args, bytes memory _fromContractAddr, uint64 _fromChainId) internal returns (bool){\n        // Ensure the targeting contract gonna be invoked is indeed a contract rather than a normal account address\n        require(Utils.isContract(_toContract), \"The passed in address is not a contract!\");\n        bytes memory returnData;\n        bool success;\n        \n        // The returnData will be bytes32, the last byte must be 01;\n        (success, returnData) = _toContract.call(abi.encodePacked(bytes4(keccak256(abi.encodePacked(_method, \"(bytes,bytes,uint64)\"))), abi.encode(_args, _fromContractAddr, _fromChainId)));\n        \n        // Ensure the executation is successful\n        require(success == true, \"EthCrossChain call business contract failed\");\n        \n        // Ensure the returned value is true\n        require(returnData.length != 0, \"No return value from business contract!\");\n        (bool res,) = ZeroCopySource.NextBool(returnData, 31);\n        require(res == true, \"EthCrossChain call business contract return is not true\");\n        \n        return true;\n    }\n}",
  "sourcePath": "/Users/user/Desktop/hashport/eth-contracts/contracts/core/cross_chain_manager/logic/EthCrossChainManagerNoWhiteList.sol",
  "compiler": {
    "name": "solc",
    "version": "0.5.16+commit.9c3226ce.Emscripten.clang"
  },
  "schemaVersion": "3.4.5",
  "updatedAt": "2022-03-02T01:42:02.725Z",
  "networkType": "ethereum",
  "devdoc": {
    "methods": {
      "isOwner()": {
        "details": "Returns true if the caller is the current owner."
      },
      "owner()": {
        "details": "Returns the address of the current owner."
      },
      "paused()": {
        "details": "Returns true if the contract is paused, and false otherwise."
      },
      "renounceOwnership()": {
        "details": "Leaves the contract without owner. It will not be possible to call `onlyOwner` functions anymore. Can only be called by the current owner.     * NOTE: Renouncing ownership will leave the contract without an owner, thereby removing any functionality that is only available to the owner."
      },
      "transferOwnership(address)": {
        "details": "Transfers ownership of the contract to a new account (`newOwner`). Can only be called by the current owner."
      }
    }
  },
  "userdoc": {
    "methods": {}
  }
}