{
  "contractName": "LockProxyPip1",
  "abi": [
    {
      "inputs": [
        {
          "internalType": "address",
          "name": "ethCCMProxyAddr",
          "type": "address"
        }
      ],
      "payable": false,
      "stateMutability": "nonpayable",
      "type": "constructor"
    },
    {
      "anonymous": false,
      "inputs": [
        {
          "indexed": false,
          "internalType": "address",
          "name": "assetHash",
          "type": "address"
        },
        {
          "indexed": false,
          "internalType": "uint64",
          "name": "nativeChainId",
          "type": "uint64"
        },
        {
          "indexed": false,
          "internalType": "bytes",
          "name": "nativeLockProxy",
          "type": "bytes"
        },
        {
          "indexed": false,
          "internalType": "bytes",
          "name": "nativeAssetHash",
          "type": "bytes"
        }
      ],
      "name": "DelegateAssetEvent",
      "type": "event"
    },
    {
      "anonymous": false,
      "inputs": [
        {
          "indexed": false,
          "internalType": "address",
          "name": "fromAssetHash",
          "type": "address"
        },
        {
          "indexed": false,
          "internalType": "address",
          "name": "fromAddress",
          "type": "address"
        },
        {
          "indexed": false,
          "internalType": "uint64",
          "name": "toChainId",
          "type": "uint64"
        },
        {
          "indexed": false,
          "internalType": "bytes",
          "name": "toAssetHash",
          "type": "bytes"
        },
        {
          "indexed": false,
          "internalType": "bytes",
          "name": "toAddress",
          "type": "bytes"
        },
        {
          "indexed": false,
          "internalType": "bytes",
          "name": "txArgs",
          "type": "bytes"
        }
      ],
      "name": "LockEvent",
      "type": "event"
    },
    {
      "anonymous": false,
      "inputs": [
        {
          "indexed": false,
          "internalType": "address",
          "name": "manager",
          "type": "address"
        }
      ],
      "name": "SetManagerProxyEvent",
      "type": "event"
    },
    {
      "anonymous": false,
      "inputs": [
        {
          "indexed": false,
          "internalType": "address",
          "name": "toAssetHash",
          "type": "address"
        },
        {
          "indexed": false,
          "internalType": "address",
          "name": "toAddress",
          "type": "address"
        },
        {
          "indexed": false,
          "internalType": "uint256",
          "name": "amount",
          "type": "uint256"
        }
      ],
      "name": "UnlockEvent",
      "type": "event"
    },
    {
      "constant": true,
      "inputs": [
        {
          "internalType": "bytes32",
          "name": "",
          "type": "bytes32"
        }
      ],
      "name": "balances",
      "outputs": [
        {
          "internalType": "uint256",
          "name": "",
          "type": "uint256"
        }
      ],
      "payable": false,
      "stateMutability": "view",
      "type": "function"
    },
    {
      "constant": true,
      "inputs": [],
      "name": "managerProxyContract",
      "outputs": [
        {
          "internalType": "address",
          "name": "",
          "type": "address"
        }
      ],
      "payable": false,
      "stateMutability": "view",
      "type": "function"
    },
    {
      "constant": true,
      "inputs": [
        {
          "internalType": "bytes32",
          "name": "",
          "type": "bytes32"
        }
      ],
      "name": "registry",
      "outputs": [
        {
          "internalType": "bool",
          "name": "",
          "type": "bool"
        }
      ],
      "payable": false,
      "stateMutability": "view",
      "type": "function"
    },
    {
      "constant": false,
      "inputs": [
        {
          "internalType": "uint64",
          "name": "nativeChainId",
          "type": "uint64"
        },
        {
          "internalType": "bytes",
          "name": "nativeLockProxy",
          "type": "bytes"
        },
        {
          "internalType": "bytes",
          "name": "nativeAssetHash",
          "type": "bytes"
        },
        {
          "internalType": "uint256",
          "name": "delegatedSupply",
          "type": "uint256"
        }
      ],
      "name": "delegateAsset",
      "outputs": [],
      "payable": false,
      "stateMutability": "nonpayable",
      "type": "function"
    },
    {
      "constant": false,
      "inputs": [
        {
          "internalType": "bytes",
          "name": "argsBs",
          "type": "bytes"
        },
        {
          "internalType": "bytes",
          "name": "fromContractAddr",
          "type": "bytes"
        },
        {
          "internalType": "uint64",
          "name": "fromChainId",
          "type": "uint64"
        }
      ],
      "name": "registerAsset",
      "outputs": [
        {
          "internalType": "bool",
          "name": "",
          "type": "bool"
        }
      ],
      "payable": false,
      "stateMutability": "nonpayable",
      "type": "function"
    },
    {
      "constant": false,
      "inputs": [
        {
          "internalType": "address",
          "name": "fromAssetHash",
          "type": "address"
        },
        {
          "internalType": "uint64",
          "name": "toChainId",
          "type": "uint64"
        },
        {
          "internalType": "bytes",
          "name": "targetProxyHash",
          "type": "bytes"
        },
        {
          "internalType": "bytes",
          "name": "toAssetHash",
          "type": "bytes"
        },
        {
          "internalType": "bytes",
          "name": "toAddress",
          "type": "bytes"
        },
        {
          "internalType": "uint256",
          "name": "amount",
          "type": "uint256"
        },
        {
          "internalType": "bool",
          "name": "deductFeeInLock",
          "type": "bool"
        },
        {
          "internalType": "uint256",
          "name": "feeAmount",
          "type": "uint256"
        },
        {
          "internalType": "bytes",
          "name": "feeAddress",
          "type": "bytes"
        }
      ],
      "name": "lock",
      "outputs": [
        {
          "internalType": "bool",
          "name": "",
          "type": "bool"
        }
      ],
      "payable": true,
      "stateMutability": "payable",
      "type": "function"
    },
    {
      "constant": false,
      "inputs": [
        {
          "internalType": "bytes",
          "name": "argsBs",
          "type": "bytes"
        },
        {
          "internalType": "bytes",
          "name": "fromContractAddr",
          "type": "bytes"
        },
        {
          "internalType": "uint64",
          "name": "fromChainId",
          "type": "uint64"
        }
      ],
      "name": "unlock",
      "outputs": [
        {
          "internalType": "bool",
          "name": "",
          "type": "bool"
        }
      ],
      "payable": false,
      "stateMutability": "nonpayable",
      "type": "function"
    },
    {
      "constant": true,
      "inputs": [
        {
          "internalType": "address",
          "name": "fromAssetHash",
          "type": "address"
        }
      ],
      "name": "_balanceFor",
      "outputs": [
        {
          "internalType": "uint256",
          "name": "",
          "type": "uint256"
        }
      ],
      "payable": false,
      "stateMutability": "view",
      "type": "function"
    }
  ],
  "bytecode": "0x608060405234801561001057600080fd5b5060405161317b38038061317b8339818101604052602081101561003357600080fd5b5051600080546001600160a01b0319166001600160a01b03808416919091179182905560408051929091168252517f43b1a8ec337adb61e8311ed025d99c80db65c02fe5c5027c1b6a93b40970cec4916020908290030190a1506130df8061009c6000396000f3fe60806040526004361061007b5760003560e01c80638909aa3f1161004e5780638909aa3f1461048a578063c383621b146104c6578063d39f22771461072c578063d798f8811461075f5761007b565b806306af4b9f1461008057806337aca7f2146101d55780637668efbc146103165780637ef5029814610460575b600080fd5b34801561008c57600080fd5b506101c1600480360360608110156100a357600080fd5b810190602081018135600160201b8111156100bd57600080fd5b8201836020820111156100cf57600080fd5b803590602001918460018302840111600160201b831117156100f057600080fd5b91908080601f0160208091040260200160405190810160405280939291908181526020018383808284376000920191909152509295949360208101935035915050600160201b81111561014257600080fd5b82018360208201111561015457600080fd5b803590602001918460018302840111600160201b8311171561017557600080fd5b91908080601f016020809104026020016040519081016040528093929190818152602001838380828437600092019190915250929550505090356001600160401b031691506107909050565b604080519115158252519081900360200190f35b3480156101e157600080fd5b506101c1600480360360608110156101f857600080fd5b810190602081018135600160201b81111561021257600080fd5b82018360208201111561022457600080fd5b803590602001918460018302840111600160201b8311171561024557600080fd5b91908080601f0160208091040260200160405190810160405280939291908181526020018383808284376000920191909152509295949360208101935035915050600160201b81111561029757600080fd5b8201836020820111156102a957600080fd5b803590602001918460018302840111600160201b831117156102ca57600080fd5b91908080601f016020809104026020016040519081016040528093929190818152602001838380828437600092019190915250929550505090356001600160401b03169150610b1b9050565b34801561032257600080fd5b5061045e6004803603608081101561033957600080fd5b6001600160401b038235169190810190604081016020820135600160201b81111561036357600080fd5b82018360208201111561037557600080fd5b803590602001918460018302840111600160201b8311171561039657600080fd5b91908080601f0160208091040260200160405190810160405280939291908181526020018383808284376000920191909152509295949360208101935035915050600160201b8111156103e857600080fd5b8201836020820111156103fa57600080fd5b803590602001918460018302840111600160201b8311171561041b57600080fd5b91908080601f0160208091040260200160405190810160405280939291908181526020018383808284376000920191909152509295505091359250610ca9915050565b005b34801561046c57600080fd5b506101c16004803603602081101561048357600080fd5b503561122e565b34801561049657600080fd5b506104b4600480360360208110156104ad57600080fd5b5035611243565b60408051918252519081900360200190f35b6101c160048036036101208110156104dd57600080fd5b6001600160a01b03823516916001600160401b0360208201351691810190606081016040820135600160201b81111561051557600080fd5b82018360208201111561052757600080fd5b803590602001918460018302840111600160201b8311171561054857600080fd5b91908080601f0160208091040260200160405190810160405280939291908181526020018383808284376000920191909152509295949360208101935035915050600160201b81111561059a57600080fd5b8201836020820111156105ac57600080fd5b803590602001918460018302840111600160201b831117156105cd57600080fd5b91908080601f0160208091040260200160405190810160405280939291908181526020018383808284376000920191909152509295949360208101935035915050600160201b81111561061f57600080fd5b82018360208201111561063157600080fd5b803590602001918460018302840111600160201b8311171561065257600080fd5b91908080601f01602080910402602001604051908101604052809392919081815260200183838082843760009201919091525092958435956020860135151595604081013595509193509150608081019060600135600160201b8111156106b857600080fd5b8201836020820111156106ca57600080fd5b803590602001918460018302840111600160201b831117156106eb57600080fd5b91908080601f016020809104026020016040519081016040528093929190818152602001838380828437600092019190915250929550611255945050505050565b34801561073857600080fd5b506104b46004803603602081101561074f57600080fd5b50356001600160a01b031661196b565b34801561076b57600080fd5b50610774611a06565b604080516001600160a01b039092168252519081900360200190f35b60008054604080516387939a7f60e01b815290516001600160a01b039092169182916387939a7f916004808301926020929190829003018186803b1580156107d757600080fd5b505afa1580156107eb573d6000803e3d6000fd5b505050506040513d602081101561080157600080fd5b50516001600160a01b0316610814611a15565b6001600160a01b0316146108595760405162461bcd60e51b815260040180806020018281038252602d815260200180612f5d602d913960400191505060405180910390fd5b610861612de9565b61086a86611a19565b9050600061087b8260200151611aa1565b9050600061088c8360400151611aa1565b905060006108a083888a8760000151611aeb565b60008181526001602081905260409091205491925060ff909116151514610905576040805162461bcd60e51b8152602060048201526014602482015273185cdcd95d081b9bdd081c9959da5cdd195c995960621b604482015290519081900360640190fd5b6060840151600082815260026020526040902054101561096c576040805162461bcd60e51b815260206004820181905260248201527f696e73756666696369656e742062616c616e636520696e207265676973747279604482015290519081900360640190fd5b606084015160008281526002602052604090205461098f9163ffffffff611be916565b6000828152600260205260409020556060840151608085015115610a7457608085015160608601516109c69163ffffffff611be916565b905060006109d78660a00151611aa1565b90506109e885828860800151611c32565b610a235760405162461bcd60e51b815260040180806020018281038252603d815260200180612e80603d913960400191505060405180910390fd5b6080860151604080516001600160a01b0380891682528416602082015280820192909252517fd90288730b87c2b8e0c45bd82260fd22478aba30ae1c4d578b8daba9261604df9181900360600190a1505b610a7f848483611c32565b610aba5760405162461bcd60e51b815260040180806020018281038252603c815260200180612f21603c913960400191505060405180910390fd5b606080860151604080516001600160a01b0380891682528716602082015280820192909252517fd90288730b87c2b8e0c45bd82260fd22478aba30ae1c4d578b8daba9261604df929181900390910190a15060019998505050505050505050565b60008054604080516387939a7f60e01b815290516001600160a01b039092169182916387939a7f916004808301926020929190829003018186803b158015610b6257600080fd5b505afa158015610b76573d6000803e3d6000fd5b505050506040513d6020811015610b8c57600080fd5b50516001600160a01b0316610b9f611a15565b6001600160a01b031614610be45760405162461bcd60e51b815260040180806020018281038252602d815260200180612f5d602d913960400191505060405180910390fd5b610bec612e1f565b610bf586611cce565b90506000610c15610c098360200151611aa1565b86888560000151611aeb565b60008181526001602081905260409091205491925060ff90911615151415610c84576040805162461bcd60e51b815260206004820152601760248201527f617373657420616c726561647920726567697374657264000000000000000000604482015290519081900360640190fd5b6000908152600160208190526040909120805460ff1916821790559695505050505050565b6001600160401b038416610d04576040805162461bcd60e51b815260206004820152601c60248201527f6e6174697665436861696e49642063616e6e6f74206265207a65726f00000000604482015290519081900360640190fd5b8251610d4f576040805162461bcd60e51b8152602060048201526015602482015274656d707479206e61746976654c6f636b50726f787960581b604482015290519081900360640190fd5b8151610d9a576040805162461bcd60e51b81526020600482015260156024820152740cadae0e8f240dcc2e8d2ecca82e6e6cae890c2e6d605b1b604482015290519081900360640190fd5b6000610da4611a15565b90506000610db482878787611aeb565b60008181526001602081905260409091205491925060ff90911615151415610e23576040805162461bcd60e51b815260206004820152601860248201527f617373657420616c726561647920726567697374657265640000000000000000604482015290519081900360640190fd5b60008181526002602052604090205415610e7a576040805162461bcd60e51b815260206004820152601360248201527262616c616e6365206973206e6f74207a65726f60681b604482015290519081900360640190fd5b82610e848361196b565b14610ec05760405162461bcd60e51b8152600401808060200182810382526031815260200180612ef06031913960400191505060405180910390fd5b6000818152600160208190526040909120805460ff19169091179055610ee4612e1f565b6040518060400160405280610ef885611d06565b815260200186905290506060610f0d82611d21565b90506000610f19611df8565b9050806001600160a01b031663bd5cf6258a8a856040518463ffffffff1660e01b815260040180846001600160401b03166001600160401b03168152602001806020018060200180602001848103845286818151815260200191508051906020019080838360005b83811015610f99578181015183820152602001610f81565b50505050905090810190601f168015610fc65780820380516001836020036101000a031916815260200191505b508481038352600d8152602001806c1c9959da5cdd195c905cdcd95d609a1b815250602001848103825285818151815260200191508051906020019080838360005b83811015611020578181015183820152602001611008565b50505050905090810190601f16801561104d5780820380516001836020036101000a031916815260200191505b509650505050505050602060405180830381600087803b15801561107057600080fd5b505af1158015611084573d6000803e3d6000fd5b505050506040513d602081101561109a57600080fd5b50516110d75760405162461bcd60e51b815260040180806020018281038252602f815260200180612f8a602f913960400191505060405180910390fd5b8560026000868152602001908152602001600020819055507f73c4d5156ca6bf5bf8baf1d359a802624f05bea6d5823ea92b6afb74666502eb858a8a8a60405180856001600160a01b03166001600160a01b03168152602001846001600160401b03166001600160401b031681526020018060200180602001838103835285818151815260200191508051906020019080838360005b8381101561118557818101518382015260200161116d565b50505050905090810190601f1680156111b25780820380516001836020036101000a031916815260200191505b50838103825284518152845160209182019186019080838360005b838110156111e55781810151838201526020016111cd565b50505050905090810190601f1680156112125780820380516001836020036101000a031916815260200191505b50965050505050505060405180910390a1505050505050505050565b60016020526000908152604090205460ff1681565b60026020526000908152604090205481565b60006001600160401b0389166112b2576040805162461bcd60e51b815260206004820152601860248201527f746f436861696e49642063616e6e6f74206265207a65726f0000000000000000604482015290519081900360640190fd5b87516112fd576040805162461bcd60e51b81526020600482015260156024820152740cadae0e8f240e8c2e4cecae8a0e4def0f290c2e6d605b1b604482015290519081900360640190fd5b8651611344576040805162461bcd60e51b81526020600482015260116024820152700cadae0e8f240e8de82e6e6cae890c2e6d607b1b604482015290519081900360640190fd5b8551611389576040805162461bcd60e51b815260206004820152600f60248201526e656d70747920746f4164647265737360881b604482015290519081900360640190fd5b846113db576040805162461bcd60e51b815260206004820152601e60248201527f616d6f756e74206d757374206265206d6f7265207468616e207a65726f210000604482015290519081900360640190fd5b6113e58a86611e75565b6114205760405162461bcd60e51b815260040180806020018281038252603f815260200180612fb9603f913960400191505060405180910390fd5b600061142e8b8b8b8b611aeb565b60008181526001602081905260409091205491925060ff909116151514611493576040805162461bcd60e51b8152602060048201526014602482015273185cdcd95d081b9bdd081c9959da5cdd195c995960621b604482015290519081900360640190fd5b61149b612de9565b6040518060c001604052806114af8e611d06565b81526020018a8152602001898152602001888152602001868152602001858152509050846000141580156114e05750855b1561159b57835161152c576040805162461bcd60e51b8152602060048201526011602482015270656d70747920666565206164647265737360781b604482015290519081900360640190fd5b600061153e888763ffffffff611be916565b90506115538d61154d87611aa1565b88611c32565b61158e5760405162461bcd60e51b815260040180806020018281038252603d815260200180612e80603d913960400191505060405180910390fd5b6000608083015260608201525b60606115a682611f1f565b905060006115b2611df8565b9050806001600160a01b031663bd5cf6258e8e856040518463ffffffff1660e01b815260040180846001600160401b03166001600160401b03168152602001806020018060200180602001848103845286818151815260200191508051906020019080838360005b8381101561163257818101518382015260200161161a565b50505050905090810190601f16801561165f5780820380516001836020036101000a031916815260200191505b508481038352600681526020018065756e6c6f636b60d01b815250602001848103825285818151815260200191508051906020019080838360005b838110156116b257818101518382015260200161169a565b50505050905090810190601f1680156116df5780820380516001836020036101000a031916815260200191505b509650505050505050602060405180830381600087803b15801561170257600080fd5b505af1158015611716573d6000803e3d6000fd5b505050506040513d602081101561172c57600080fd5b50516117695760405162461bcd60e51b815260040180806020018281038252602f815260200180612f8a602f913960400191505060405180910390fd5b606083015160008581526002602052604090205461178c9163ffffffff61214e16565b6000858152600260205260409020557f3aa1a37a3bb16943a2c97dd810c5601a4ce19bb1942a54401f821af5515c55308e6117c5611a15565b8f8e8e8760405180876001600160a01b03166001600160a01b03168152602001866001600160a01b03166001600160a01b03168152602001856001600160401b03166001600160401b03168152602001806020018060200180602001848103845287818151815260200191508051906020019080838360005b8381101561185657818101518382015260200161183e565b50505050905090810190601f1680156118835780820380516001836020036101000a031916815260200191505b50848103835286518152865160209182019188019080838360005b838110156118b657818101518382015260200161189e565b50505050905090810190601f1680156118e35780820380516001836020036101000a031916815260200191505b50848103825285518152855160209182019187019080838360005b838110156119165781810151838201526020016118fe565b50505050905090810190601f1680156119435780820380516001836020036101000a031916815260200191505b50995050505050505050505060405180910390a15060019d9c50505050505050505050505050565b60006001600160a01b03821661198357503031611a01565b604080516370a0823160e01b8152306004820152905183916001600160a01b038316916370a0823191602480820192602092909190829003018186803b1580156119cc57600080fd5b505afa1580156119e0573d6000803e3d6000fd5b505050506040513d60208110156119f657600080fd5b50519150611a019050565b919050565b6000546001600160a01b031681565b3390565b611a21612de9565b611a29612de9565b6000611a3584826121a8565b9083529050611a4484826121a8565b60208401919091529050611a5884826121a8565b60408401919091529050611a6c8482612280565b60608401919091529050611a808482612280565b60808401919091529050611a9484826121a8565b5060a08301525092915050565b60008151601414611ae35760405162461bcd60e51b8152600401808060200182810382526023815260200180612e5d6023913960400191505060405180910390fd5b506014015190565b60008484848460405160200180856001600160a01b03166001600160a01b031660601b8152601401846001600160401b03166001600160401b031660c01b815260080183805190602001908083835b60208310611b595780518252601f199092019160209182019101611b3a565b51815160209384036101000a600019018019909216911617905285519190930192850191508083835b60208310611ba15780518252601f199092019160209182019101611b82565b6001836020036101000a038019825116818451168082178552505050505050905001945050505050604051602081830303815290604052805190602001209050949350505050565b6000611c2b83836040518060400160405280601e81526020017f536166654d6174683a207375627472616374696f6e206f766572666c6f77000081525061237d565b9392505050565b60006001600160a01b038416611c7e576040516001600160a01b0384169083156108fc029084906000818181858888f19350505050158015611c78573d6000803e3d6000fd5b50611cc4565b611c89848484612414565b611cc45760405162461bcd60e51b8152600401808060200182810382526033815260200180612ebd6033913960400191505060405180910390fd5b5060019392505050565b611cd6612e1f565b611cde612e1f565b6000611cea84826121a8565b9083529050611cf984826121a8565b5060208301525092915050565b604080516014815260609290921b6020830152818101905290565b606080611d3183600001516124f3565b611d3e84602001516124f3565b6040516020018083805190602001908083835b60208310611d705780518252601f199092019160209182019101611d51565b51815160209384036101000a600019018019909216911617905285519190930192850191508083835b60208310611db85780518252601f199092019160209182019101611d99565b6001836020036101000a03801982511681845116808217855250505050505090500192505050604051602081830303815290604052905080915050919050565b60008054604080516387939a7f60e01b815290516001600160a01b0390921691839183916387939a7f91600480820192602092909190829003018186803b158015611e4257600080fd5b505afa158015611e56573d6000803e3d6000fd5b505050506040513d6020811015611e6c57600080fd5b50519250505090565b60006001600160a01b038316611ec857813414611ec35760405162461bcd60e51b8152600401808060200182810382526029815260200180612ff86029913960400191505060405180910390fd5b611f16565b611edb83611ed4611a15565b30856125b9565b611f165760405162461bcd60e51b8152600401808060200182810382526033815260200180612ebd6033913960400191505060405180910390fd5b50600192915050565b606080611f2f83600001516124f3565b611f3c84602001516124f3565b611f4985604001516124f3565b611f5686606001516126a1565b611f6387608001516126a1565b611f708860a001516124f3565b6040516020018087805190602001908083835b60208310611fa25780518252601f199092019160209182019101611f83565b51815160209384036101000a600019018019909216911617905289519190930192890191508083835b60208310611fea5780518252601f199092019160209182019101611fcb565b51815160209384036101000a600019018019909216911617905288519190930192880191508083835b602083106120325780518252601f199092019160209182019101612013565b51815160209384036101000a600019018019909216911617905287519190930192870191508083835b6020831061207a5780518252601f19909201916020918201910161205b565b51815160209384036101000a600019018019909216911617905286519190930192860191508083835b602083106120c25780518252601f1990920191602091820191016120a3565b51815160209384036101000a600019018019909216911617905285519190930192850191508083835b6020831061210a5780518252601f1990920191602091820191016120eb565b6001836020036101000a0380198251168184511680821785525050505050509050019650505050505050604051602081830303815290604052905080915050919050565b600082820183811015611c2b576040805162461bcd60e51b815260206004820152601b60248201527f536166654d6174683a206164646974696f6e206f766572666c6f770000000000604482015290519081900360640190fd5b60606000806121b7858561273e565b8651909550909150818501118015906121d1575080840184105b61220c5760405162461bcd60e51b81526004018080602001828103825260248152602001806130876024913960400191505060405180910390fd5b60608115801561222757604051915060208201604052612271565b6040519150601f8316801560200281840101848101888315602002848c0101015b81831015612260578051835260209283019201612248565b5050848452601f01601f1916604052505b509250830190505b9250929050565b6000808351836020011115801561229957508260200183105b6122d45760405162461bcd60e51b8152600401808060200182810382526023815260200180612e3a6023913960400191505060405180910390fd5b600060405160206000600182038760208a0101515b838310156123095780821a838601536001830192506001820391506122e9565b50505081016040525190506001600160ff1b03811115612370576040805162461bcd60e51b815260206004820152601760248201527f56616c75652065786365656473207468652072616e6765000000000000000000604482015290519081900360640190fd5b9460209390930193505050565b6000818484111561240c5760405162461bcd60e51b81526004018080602001828103825283818151815260200191508051906020019080838360005b838110156123d15781810151838201526020016123b9565b50505050905090810190601f1680156123fe5780820380516001836020036101000a031916815260200191505b509250505060405180910390fd5b505050900390565b6040805163a9059cbb60e01b81526001600160a01b03848116600483015260248201849052915160009286929083169163a9059cbb9160448082019260209290919082900301818887803b15801561246b57600080fd5b505af115801561247f573d6000803e3d6000fd5b505050506040513d602081101561249557600080fd5b50516124e8576040805162461bcd60e51b815260206004820152601c60248201527f747261736e66657220455243323020546f6b656e206661696c65642100000000604482015290519081900360640190fd5b506001949350505050565b805160609061250181612957565b836040516020018083805190602001908083835b602083106125345780518252601f199092019160209182019101612515565b51815160209384036101000a600019018019909216911617905285519190930192850191508083835b6020831061257c5780518252601f19909201916020918201910161255d565b6001836020036101000a03801982511681845116808217855250505050505090500192505050604051602081830303815290604052915050919050565b604080516323b872dd60e01b81526001600160a01b03858116600483015284811660248301526044820184905291516000928792908316916323b872dd9160648082019260209290919082900301818887803b15801561261857600080fd5b505af115801561262c573d6000803e3d6000fd5b505050506040513d602081101561264257600080fd5b5051612695576040805162461bcd60e51b815260206004820152601c60248201527f747261736e66657220455243323020546f6b656e206661696c65642100000000604482015290519081900360640190fd5b50600195945050505050565b60606001600160ff1b038211156126ff576040805162461bcd60e51b815260206004820152601b60248201527f56616c756520657863656564732075696e743235352072616e67650000000000604482015290519081900360640190fd5b60405160208082526000601f5b8282101561272e5785811a82602086010153600191909101906000190161270c565b5050506040818101905292915050565b600080600061274d8585612a9d565b94509050600060fd60f81b6001600160f81b0319831614156127eb576127738686612b1b565b955061ffff16905060fd811080159061278e575061ffff8111155b6127df576040805162461bcd60e51b815260206004820152601f60248201527f4e65787455696e7431362c2076616c7565206f7574736964652072616e676500604482015290519081900360640190fd5b92508391506122799050565b607f60f91b6001600160f81b03198316141561287b5761280b8686612ba4565b955063ffffffff16905061ffff8111801561282a575063ffffffff8111155b6127df576040805162461bcd60e51b815260206004820181905260248201527f4e65787456617255696e742c2076616c7565206f7574736964652072616e6765604482015290519081900360640190fd5b6001600160f81b031980831614156128fc576128978686612c4a565b95506001600160401b0316905063ffffffff81116127df576040805162461bcd60e51b815260206004820181905260248201527f4e65787456617255696e742c2076616c7565206f7574736964652072616e6765604482015290519081900360640190fd5b5060f881901c60fd81106127df576040805162461bcd60e51b815260206004820181905260248201527f4e65787456617255696e742c2076616c7565206f7574736964652072616e6765604482015290519081900360640190fd5b606060fd826001600160401b0316101561297b5761297482612cf0565b9050611a01565b61ffff826001600160401b031611612a595761299a60fd60f81b612d0c565b6129a383612d20565b6040516020018083805190602001908083835b602083106129d55780518252601f1990920191602091820191016129b6565b51815160209384036101000a600019018019909216911617905285519190930192850191508083835b60208310612a1d5780518252601f1990920191602091820191016129fe565b6001836020036101000a038019825116818451168082178552505050505050905001925050506040516020818303038152906040529050611a01565b63ffffffff826001600160401b031611612a8357612a7a607f60f91b612d0c565b6129a383612d63565b612a946001600160f81b0319612d0c565b6129a383612da6565b60008083518360010111158015612ab657508260010183105b612b07576040805162461bcd60e51b815260206004820181905260248201527f4e657874427974652c204f66667365742065786365656473206d6178696d756d604482015290519081900360640190fd5b505081810160200151600182019250929050565b60008083518360020111158015612b3457508260020183105b612b6f5760405162461bcd60e51b81526004018080602001828103825260228152602001806130216022913960400191505060405180910390fd5b6000604051846020870101518060011a82538060001a6001830153506002818101604052601d19909101519694019450505050565b60008083518360040111158015612bbd57508260040183105b612bf85760405162461bcd60e51b81526004018080602001828103825260228152602001806130656022913960400191505060405180910390fd5b600060405160046000600182038760208a0101515b83831015612c2d5780821a83860153600183019250600182039150612c0d565b505050808201604052602003900351956004949094019450505050565b60008083518360080111158015612c6357508260080183105b612c9e5760405162461bcd60e51b81526004018080602001828103825260228152602001806130436022913960400191505060405180910390fd5b600060405160086000600182038760208a0101515b83831015612cd35780821a83860153600183019250600182039150612cb3565b505050808201604052602003900351956008949094019450505050565b604080516001815260f89290921b602083015260218201905290565b6060612d1a8260f81c612cf0565b92915050565b6040516002808252606091906000601f5b82821015612d535785811a826020860101536001919091019060001901612d31565b5050506022810160405292915050565b6040516004808252606091906000601f5b82821015612d965785811a826020860101536001919091019060001901612d74565b5050506024810160405292915050565b6040516008808252606091906000601f5b82821015612dd95785811a826020860101536001919091019060001901612db7565b5050506028810160405292915050565b6040518060c001604052806060815260200160608152602001606081526020016000815260200160008152602001606081525090565b60405180604001604052806060815260200160608152509056fe4e65787455696e743235352c206f66667365742065786365656473206d6178696d756d6279746573206c656e67746820646f6573206e6f74206d6174636820616464726573737472616e736665722061737365742066726f6d206c6f636b5f70726f787920636f6e747261637420746f2066656541646472657373206661696c6564217472616e7366657220657263323020617373657420746f206c6f636b5f70726f787920636f6e7472616374206661696c656421636f6e74726f6c6c65642062616c616e636520646f6573206e6f74206d617463682064656c656761746564537570706c797472616e736665722061737365742066726f6d206c6f636b5f70726f787920636f6e747261637420746f20746f41646472657373206661696c6564216d736753656e646572206973206e6f742045746843726f7373436861696e4d616e61676572436f6e747261637445746843726f7373436861696e4d616e616765722063726f7373436861696e206578656375746564206572726f72217472616e736665722061737365742066726f6d2066726f6d4164647265737320746f206c6f636b5f70726f787920636f6e747261637420206661696c6564217472616e73666572726564206574686572206973206e6f7420657175616c20746f20616d6f756e74214e65787455696e7431362c206f66667365742065786365656473206d6178696d756d4e65787455696e7436342c206f66667365742065786365656473206d6178696d756d4e65787455696e7433322c206f66667365742065786365656473206d6178696d756d4e65787456617242797465732c206f66667365742065786365656473206d6178696d756da265627a7a723158209f4e32b67b03332b28b0d83c36a076cf637fb9ab68410adc6fed6040e77d6a7c64736f6c63430005100032",
  "source": "pragma solidity ^0.5.0;\n\nimport \"./../../libs/GSN/Context.sol\";\nimport \"./../../libs/common/ZeroCopySource.sol\";\nimport \"./../../libs/common/ZeroCopySink.sol\";\nimport \"./../../libs/utils/Utils.sol\";\nimport \"./../../libs/math/SafeMath.sol\";\nimport \"./../cross_chain_manager/interface/IEthCrossChainManager.sol\";\nimport \"./../cross_chain_manager/interface/IEthCrossChainManagerProxy.sol\";\n\ninterface ERC20Interface {\n    function transfer(address _to, uint256 _value) external returns (bool);\n    function transferFrom(address _from, address _to, uint _value) external returns (bool success);\n    function balanceOf(address account) external view returns (uint256);\n}\n\ncontract LockProxyPip1 is Context {\n    using SafeMath for uint;\n\n    struct RegisterAssetTxArgs {\n        bytes assetHash;\n        bytes nativeAssetHash;\n    }\n\n    struct TxArgs {\n        bytes fromAssetHash;\n        bytes toAssetHash;\n        bytes toAddress;\n        uint256 amount;\n        uint256 feeAmount;\n        bytes feeAddress;\n    }\n\n    address public managerProxyContract;\n    mapping(bytes32 => bool) public registry;\n    mapping(bytes32 => uint256) public balances;\n\n    event SetManagerProxyEvent(address manager);\n    event DelegateAssetEvent(address assetHash, uint64 nativeChainId, bytes nativeLockProxy, bytes nativeAssetHash);\n    event UnlockEvent(address toAssetHash, address toAddress, uint256 amount);\n    event LockEvent(address fromAssetHash, address fromAddress, uint64 toChainId, bytes toAssetHash, bytes toAddress, bytes txArgs);\n\n    constructor(address ethCCMProxyAddr) public {\n        managerProxyContract = ethCCMProxyAddr;\n        emit SetManagerProxyEvent(managerProxyContract);\n    }\n\n    modifier onlyManagerContract() {\n        IEthCrossChainManagerProxy ieccmp = IEthCrossChainManagerProxy(managerProxyContract);\n        require(_msgSender() == ieccmp.getEthCrossChainManager(), \"msgSender is not EthCrossChainManagerContract\");\n        _;\n    }\n\n    function delegateAsset(uint64 nativeChainId, bytes memory nativeLockProxy, bytes memory nativeAssetHash, uint256 delegatedSupply) public {\n        require(nativeChainId != 0, \"nativeChainId cannot be zero\");\n        require(nativeLockProxy.length != 0, \"empty nativeLockProxy\");\n        require(nativeAssetHash.length != 0, \"empty nativeAssetHash\");\n\n        address assetHash = _msgSender();\n        bytes32 key = _getRegistryKey(assetHash, nativeChainId, nativeLockProxy, nativeAssetHash);\n\n        require(registry[key] != true, \"asset already registered\");\n        require(balances[key] == 0, \"balance is not zero\");\n        require(_balanceFor(assetHash) == delegatedSupply, \"controlled balance does not match delegatedSupply\");\n\n        registry[key] = true;\n\n        RegisterAssetTxArgs memory txArgs = RegisterAssetTxArgs({\n            assetHash: Utils.addressToBytes(assetHash),\n            nativeAssetHash: nativeAssetHash\n        });\n\n        bytes memory txData = _serializeRegisterAssetTxArgs(txArgs);\n\n        IEthCrossChainManager eccm = _getEccm();\n        require(eccm.crossChain(nativeChainId, nativeLockProxy, \"registerAsset\", txData), \"EthCrossChainManager crossChain executed error!\");\n        balances[key] = delegatedSupply;\n\n        emit DelegateAssetEvent(assetHash, nativeChainId, nativeLockProxy, nativeAssetHash);\n    }\n\n    function registerAsset(bytes memory argsBs, bytes memory fromContractAddr, uint64 fromChainId) onlyManagerContract public returns (bool) {\n        RegisterAssetTxArgs memory args = _deserializeRegisterAssetTxArgs(argsBs);\n\n        bytes32 key = _getRegistryKey(Utils.bytesToAddress(args.nativeAssetHash), fromChainId, fromContractAddr, args.assetHash);\n\n        require(registry[key] != true, \"asset already registerd\");\n        registry[key] = true;\n\n        return true;\n    }\n\n    /* @notice                  This function is meant to be invoked by the user,\n    *                           a certain amount teokens will be locked in the proxy contract the invoker/msg.sender immediately.\n    *                           Then the same amount of tokens will be unloked from target chain proxy contract at the target chain with chainId later.\n    *  @param fromAssetHash     The asset hash in current chain\n    *  @param toChainId         The target chain id\n    *\n    *  @param toAddress         The address in bytes format to receive same amount of tokens in target chain\n    *  @param amount            The amount of tokens to be crossed from ethereum to the chain with chainId\n    */\n    function lock(\n        address fromAssetHash,\n        uint64 toChainId,\n        bytes memory targetProxyHash,\n        bytes memory toAssetHash,\n        bytes memory toAddress,\n        uint256 amount,\n        bool deductFeeInLock,\n        uint256 feeAmount,\n        bytes memory feeAddress\n    )\n        public\n        payable\n        returns (bool)\n    {\n        require(toChainId != 0, \"toChainId cannot be zero\");\n        require(targetProxyHash.length != 0, \"empty targetProxyHash\");\n        require(toAssetHash.length != 0, \"empty toAssetHash\");\n        require(toAddress.length != 0, \"empty toAddress\");\n        require(amount != 0, \"amount must be more than zero!\");\n\n        require(_transferToContract(fromAssetHash, amount), \"transfer asset from fromAddress to lock_proxy contract  failed!\");\n\n        bytes32 key = _getRegistryKey(fromAssetHash, toChainId, targetProxyHash, toAssetHash);\n        require(registry[key] == true, \"asset not registered\");\n\n        TxArgs memory txArgs = TxArgs({\n            fromAssetHash: Utils.addressToBytes(fromAssetHash),\n            toAssetHash: toAssetHash,\n            toAddress: toAddress,\n            amount: amount,\n            feeAmount: feeAmount,\n            feeAddress: feeAddress\n        });\n\n        if (feeAmount != 0 && deductFeeInLock) {\n            require(feeAddress.length != 0, \"empty fee address\");\n            uint256 afterFeeAmount = amount.sub(feeAmount);\n            require(_transferFromContract(fromAssetHash, Utils.bytesToAddress(feeAddress), feeAmount), \"transfer asset from lock_proxy contract to feeAddress failed!\");\n\n            // set feeAmount to zero as fee has already been transferred\n            txArgs.feeAmount = 0;\n            txArgs.amount = afterFeeAmount;\n        }\n\n        bytes memory txData = _serializeTxArgs(txArgs);\n        IEthCrossChainManager eccm = _getEccm();\n\n        require(eccm.crossChain(toChainId, targetProxyHash, \"unlock\", txData), \"EthCrossChainManager crossChain executed error!\");\n        balances[key] = balances[key].add(txArgs.amount);\n\n        emit LockEvent(fromAssetHash, _msgSender(), toChainId, toAssetHash, toAddress, txData);\n\n        return true;\n    }\n\n    // /* @notice                  This function is meant to be invoked by the ETH crosschain management contract,\n    // *                           then mint a certin amount of tokens to the designated address since a certain amount\n    // *                           was burnt from the source chain invoker.\n    // *  @param argsBs            The argument bytes recevied by the ethereum lock proxy contract, need to be deserialized.\n    // *                           based on the way of serialization in the source chain proxy contract.\n    // *  @param fromContractAddr  The source chain contract address\n    // *  @param fromChainId       The source chain id\n    // */\n    function unlock(bytes memory argsBs, bytes memory fromContractAddr, uint64 fromChainId) onlyManagerContract public returns (bool) {\n        TxArgs memory args = _deserializeTxArgs(argsBs);\n        address toAssetHash = Utils.bytesToAddress(args.toAssetHash);\n        address toAddress = Utils.bytesToAddress(args.toAddress);\n\n        bytes32 key = _getRegistryKey(toAssetHash, fromChainId, fromContractAddr, args.fromAssetHash);\n\n        require(registry[key] == true, \"asset not registered\");\n        require(balances[key] >= args.amount, \"insufficient balance in registry\");\n\n        balances[key] = balances[key].sub(args.amount);\n\n        uint256 afterFeeAmount = args.amount;\n        if (args.feeAmount != 0) {\n            afterFeeAmount = args.amount.sub(args.feeAmount);\n            address feeAddress = Utils.bytesToAddress(args.feeAddress);\n\n            // transfer feeAmount to feeAddress\n            require(_transferFromContract(toAssetHash, feeAddress, args.feeAmount), \"transfer asset from lock_proxy contract to feeAddress failed!\");\n            emit UnlockEvent(toAssetHash, feeAddress, args.feeAmount);\n        }\n\n        require(_transferFromContract(toAssetHash, toAddress, afterFeeAmount), \"transfer asset from lock_proxy contract to toAddress failed!\");\n\n        emit UnlockEvent(toAssetHash, toAddress, args.amount);\n        return true;\n    }\n\n    function _balanceFor(address fromAssetHash) public view returns (uint256) {\n        if (fromAssetHash == address(0)) {\n            // return address(this).balance; // this expression would result in error: Failed to decode output: Error: insufficient data for uint256 type\n            address selfAddr = address(this);\n            return selfAddr.balance;\n        } else {\n            ERC20Interface erc20Token = ERC20Interface(fromAssetHash);\n            return erc20Token.balanceOf(address(this));\n        }\n    }\n    function _getEccm() internal view returns (IEthCrossChainManager) {\n      IEthCrossChainManagerProxy eccmp = IEthCrossChainManagerProxy(managerProxyContract);\n      address eccmAddr = eccmp.getEthCrossChainManager();\n      IEthCrossChainManager eccm = IEthCrossChainManager(eccmAddr);\n      return eccm;\n    }\n    function _getRegistryKey(address assetHash, uint64 nativeChainId, bytes memory nativeLockProxy, bytes memory nativeAssetHash) internal pure returns (bytes32) {\n        return keccak256(abi.encodePacked(\n            assetHash,\n            nativeChainId,\n            nativeLockProxy,\n            nativeAssetHash\n        ));\n    }\n    function _transferToContract(address fromAssetHash, uint256 amount) internal returns (bool) {\n        if (fromAssetHash == address(0)) {\n            // fromAssetHash === address(0) denotes user choose to lock ether\n            // passively check if the received msg.value equals amount\n            require(msg.value == amount, \"transferred ether is not equal to amount!\");\n        } else {\n            // actively transfer amount of asset from msg.sender to lock_proxy contract\n            require(_transferERC20ToContract(fromAssetHash, _msgSender(), address(this), amount), \"transfer erc20 asset to lock_proxy contract failed!\");\n        }\n        return true;\n    }\n    function _transferFromContract(address toAssetHash, address toAddress, uint256 amount) internal returns (bool) {\n        if (toAssetHash == address(0x0000000000000000000000000000000000000000)) {\n            // toAssetHash === address(0) denotes contract needs to unlock ether to toAddress\n            // convert toAddress from 'address' type to 'address payable' type, then actively transfer ether\n            address(uint160(toAddress)).transfer(amount);\n        } else {\n            // actively transfer amount of asset from msg.sender to lock_proxy contract\n            require(_transferERC20FromContract(toAssetHash, toAddress, amount), \"transfer erc20 asset to lock_proxy contract failed!\");\n        }\n        return true;\n    }\n\n\n    function _transferERC20ToContract(address fromAssetHash, address fromAddress, address toAddress, uint256 amount) internal returns (bool) {\n         ERC20Interface erc20Token = ERC20Interface(fromAssetHash);\n         require(erc20Token.transferFrom(fromAddress, toAddress, amount), \"trasnfer ERC20 Token failed!\");\n         return true;\n    }\n    function _transferERC20FromContract(address toAssetHash, address toAddress, uint256 amount) internal returns (bool) {\n         ERC20Interface erc20Token = ERC20Interface(toAssetHash);\n         require(erc20Token.transfer(toAddress, amount), \"trasnfer ERC20 Token failed!\");\n         return true;\n    }\n\n    function _serializeTxArgs(TxArgs memory args) internal pure returns (bytes memory) {\n        bytes memory buff;\n        buff = abi.encodePacked(\n            ZeroCopySink.WriteVarBytes(args.fromAssetHash),\n            ZeroCopySink.WriteVarBytes(args.toAssetHash),\n            ZeroCopySink.WriteVarBytes(args.toAddress),\n            ZeroCopySink.WriteUint255(args.amount),\n            ZeroCopySink.WriteUint255(args.feeAmount),\n            ZeroCopySink.WriteVarBytes(args.feeAddress)\n        );\n        return buff;\n    }\n\n    function _serializeRegisterAssetTxArgs(RegisterAssetTxArgs memory args) internal pure returns (bytes memory) {\n        bytes memory buff;\n        buff = abi.encodePacked(\n            ZeroCopySink.WriteVarBytes(args.assetHash),\n            ZeroCopySink.WriteVarBytes(args.nativeAssetHash)\n        );\n        return buff;\n    }\n\n    function _deserializeRegisterAssetTxArgs(bytes memory valueBs) internal pure returns (RegisterAssetTxArgs memory) {\n        RegisterAssetTxArgs memory args;\n        uint256 off = 0;\n        (args.assetHash, off) = ZeroCopySource.NextVarBytes(valueBs, off);\n        (args.nativeAssetHash, off) = ZeroCopySource.NextVarBytes(valueBs, off);\n        return args;\n    }\n\n    function _deserializeTxArgs(bytes memory valueBs) internal pure returns (TxArgs memory) {\n        TxArgs memory args;\n        uint256 off = 0;\n        (args.fromAssetHash, off) = ZeroCopySource.NextVarBytes(valueBs, off);\n        (args.toAssetHash, off) = ZeroCopySource.NextVarBytes(valueBs, off);\n        (args.toAddress, off) = ZeroCopySource.NextVarBytes(valueBs, off);\n        (args.amount, off) = ZeroCopySource.NextUint255(valueBs, off);\n        (args.feeAmount, off) = ZeroCopySource.NextUint255(valueBs, off);\n        (args.feeAddress, off) = ZeroCopySource.NextVarBytes(valueBs, off);\n        return args;\n    }\n}",
  "sourcePath": "/Users/user/Desktop/hashport/eth-contracts/contracts/core/lock_proxy/LockProxyPip1.sol",
  "compiler": {
    "name": "solc",
    "version": "0.5.16+commit.9c3226ce.Emscripten.clang"
  },
  "schemaVersion": "3.4.5",
  "updatedAt": "2022-03-02T01:42:02.764Z",
  "networkType": "ethereum",
  "devdoc": {
    "methods": {}
  },
  "userdoc": {
    "methods": {}
  }
}