{
  "contractName": "LockProxyWithLP",
  "abi": [
    {
      "anonymous": false,
      "inputs": [
        {
          "indexed": false,
          "internalType": "address",
          "name": "fromAssetHash",
          "type": "address"
        },
        {
          "indexed": false,
          "internalType": "uint64",
          "name": "toChainId",
          "type": "uint64"
        },
        {
          "indexed": false,
          "internalType": "bytes",
          "name": "targetProxyHash",
          "type": "bytes"
        },
        {
          "indexed": false,
          "internalType": "uint256",
          "name": "initialAmount",
          "type": "uint256"
        }
      ],
      "name": "BindAssetEvent",
      "type": "event"
    },
    {
      "anonymous": false,
      "inputs": [
        {
          "indexed": false,
          "internalType": "address",
          "name": "originAssetAddress",
          "type": "address"
        },
        {
          "indexed": false,
          "internalType": "address",
          "name": "LPTokenAddress",
          "type": "address"
        }
      ],
      "name": "BindLPToAssetEvent",
      "type": "event"
    },
    {
      "anonymous": false,
      "inputs": [
        {
          "indexed": false,
          "internalType": "uint64",
          "name": "toChainId",
          "type": "uint64"
        },
        {
          "indexed": false,
          "internalType": "bytes",
          "name": "targetProxyHash",
          "type": "bytes"
        }
      ],
      "name": "BindProxyEvent",
      "type": "event"
    },
    {
      "anonymous": false,
      "inputs": [
        {
          "indexed": false,
          "internalType": "address",
          "name": "fromAssetHash",
          "type": "address"
        },
        {
          "indexed": false,
          "internalType": "address",
          "name": "fromAddress",
          "type": "address"
        },
        {
          "indexed": false,
          "internalType": "uint64",
          "name": "toChainId",
          "type": "uint64"
        },
        {
          "indexed": false,
          "internalType": "bytes",
          "name": "toAssetHash",
          "type": "bytes"
        },
        {
          "indexed": false,
          "internalType": "bytes",
          "name": "toAddress",
          "type": "bytes"
        },
        {
          "indexed": false,
          "internalType": "uint256",
          "name": "amount",
          "type": "uint256"
        }
      ],
      "name": "LockEvent",
      "type": "event"
    },
    {
      "anonymous": false,
      "inputs": [
        {
          "indexed": true,
          "internalType": "address",
          "name": "previousOwner",
          "type": "address"
        },
        {
          "indexed": true,
          "internalType": "address",
          "name": "newOwner",
          "type": "address"
        }
      ],
      "name": "OwnershipTransferred",
      "type": "event"
    },
    {
      "anonymous": false,
      "inputs": [
        {
          "indexed": false,
          "internalType": "address",
          "name": "manager",
          "type": "address"
        }
      ],
      "name": "SetManagerProxyEvent",
      "type": "event"
    },
    {
      "anonymous": false,
      "inputs": [
        {
          "indexed": false,
          "internalType": "address",
          "name": "toAssetHash",
          "type": "address"
        },
        {
          "indexed": false,
          "internalType": "address",
          "name": "toAddress",
          "type": "address"
        },
        {
          "indexed": false,
          "internalType": "uint256",
          "name": "amount",
          "type": "uint256"
        }
      ],
      "name": "UnlockEvent",
      "type": "event"
    },
    {
      "anonymous": false,
      "inputs": [
        {
          "indexed": false,
          "internalType": "address",
          "name": "toAddress",
          "type": "address"
        },
        {
          "indexed": false,
          "internalType": "address",
          "name": "fromAssetHash",
          "type": "address"
        },
        {
          "indexed": false,
          "internalType": "address",
          "name": "fromLPHash",
          "type": "address"
        },
        {
          "indexed": false,
          "internalType": "uint256",
          "name": "amount",
          "type": "uint256"
        }
      ],
      "name": "depositEvent",
      "type": "event"
    },
    {
      "anonymous": false,
      "inputs": [
        {
          "indexed": false,
          "internalType": "address",
          "name": "toAddress",
          "type": "address"
        },
        {
          "indexed": false,
          "internalType": "address",
          "name": "fromAssetHash",
          "type": "address"
        },
        {
          "indexed": false,
          "internalType": "address",
          "name": "fromLPHash",
          "type": "address"
        },
        {
          "indexed": false,
          "internalType": "uint256",
          "name": "amount",
          "type": "uint256"
        }
      ],
      "name": "withdrawEvent",
      "type": "event"
    },
    {
      "constant": true,
      "inputs": [
        {
          "internalType": "address",
          "name": "",
          "type": "address"
        },
        {
          "internalType": "uint64",
          "name": "",
          "type": "uint64"
        }
      ],
      "name": "assetHashMap",
      "outputs": [
        {
          "internalType": "bytes",
          "name": "",
          "type": "bytes"
        }
      ],
      "payable": false,
      "stateMutability": "view",
      "type": "function"
    },
    {
      "constant": true,
      "inputs": [
        {
          "internalType": "address",
          "name": "",
          "type": "address"
        }
      ],
      "name": "assetLPMap",
      "outputs": [
        {
          "internalType": "address",
          "name": "",
          "type": "address"
        }
      ],
      "payable": false,
      "stateMutability": "view",
      "type": "function"
    },
    {
      "constant": true,
      "inputs": [],
      "name": "isOwner",
      "outputs": [
        {
          "internalType": "bool",
          "name": "",
          "type": "bool"
        }
      ],
      "payable": false,
      "stateMutability": "view",
      "type": "function"
    },
    {
      "constant": true,
      "inputs": [],
      "name": "managerProxyContract",
      "outputs": [
        {
          "internalType": "address",
          "name": "",
          "type": "address"
        }
      ],
      "payable": false,
      "stateMutability": "view",
      "type": "function"
    },
    {
      "constant": true,
      "inputs": [],
      "name": "owner",
      "outputs": [
        {
          "internalType": "address",
          "name": "",
          "type": "address"
        }
      ],
      "payable": false,
      "stateMutability": "view",
      "type": "function"
    },
    {
      "constant": true,
      "inputs": [
        {
          "internalType": "uint64",
          "name": "",
          "type": "uint64"
        }
      ],
      "name": "proxyHashMap",
      "outputs": [
        {
          "internalType": "bytes",
          "name": "",
          "type": "bytes"
        }
      ],
      "payable": false,
      "stateMutability": "view",
      "type": "function"
    },
    {
      "constant": false,
      "inputs": [],
      "name": "renounceOwnership",
      "outputs": [],
      "payable": false,
      "stateMutability": "nonpayable",
      "type": "function"
    },
    {
      "constant": false,
      "inputs": [
        {
          "internalType": "address",
          "name": "newOwner",
          "type": "address"
        }
      ],
      "name": "transferOwnership",
      "outputs": [],
      "payable": false,
      "stateMutability": "nonpayable",
      "type": "function"
    },
    {
      "constant": false,
      "inputs": [
        {
          "internalType": "address",
          "name": "ethCCMProxyAddr",
          "type": "address"
        }
      ],
      "name": "setManagerProxy",
      "outputs": [],
      "payable": false,
      "stateMutability": "nonpayable",
      "type": "function"
    },
    {
      "constant": false,
      "inputs": [
        {
          "internalType": "uint64",
          "name": "toChainId",
          "type": "uint64"
        },
        {
          "internalType": "bytes",
          "name": "targetProxyHash",
          "type": "bytes"
        }
      ],
      "name": "bindProxyHash",
      "outputs": [
        {
          "internalType": "bool",
          "name": "",
          "type": "bool"
        }
      ],
      "payable": false,
      "stateMutability": "nonpayable",
      "type": "function"
    },
    {
      "constant": false,
      "inputs": [
        {
          "internalType": "address",
          "name": "fromAssetHash",
          "type": "address"
        },
        {
          "internalType": "uint64",
          "name": "toChainId",
          "type": "uint64"
        },
        {
          "internalType": "bytes",
          "name": "toAssetHash",
          "type": "bytes"
        }
      ],
      "name": "bindAssetHash",
      "outputs": [
        {
          "internalType": "bool",
          "name": "",
          "type": "bool"
        }
      ],
      "payable": false,
      "stateMutability": "nonpayable",
      "type": "function"
    },
    {
      "constant": false,
      "inputs": [
        {
          "internalType": "address",
          "name": "originAssetAddress",
          "type": "address"
        },
        {
          "internalType": "address",
          "name": "LPTokenAddress",
          "type": "address"
        }
      ],
      "name": "bindLPToAsset",
      "outputs": [
        {
          "internalType": "bool",
          "name": "",
          "type": "bool"
        }
      ],
      "payable": false,
      "stateMutability": "nonpayable",
      "type": "function"
    },
    {
      "constant": false,
      "inputs": [
        {
          "internalType": "address",
          "name": "fromAssetHash",
          "type": "address"
        },
        {
          "internalType": "address",
          "name": "fromLPHash",
          "type": "address"
        },
        {
          "internalType": "uint64",
          "name": "toChainId",
          "type": "uint64"
        },
        {
          "internalType": "bytes",
          "name": "toAssetHash",
          "type": "bytes"
        },
        {
          "internalType": "bytes",
          "name": "toLPHash",
          "type": "bytes"
        }
      ],
      "name": "bindLPAndAsset",
      "outputs": [
        {
          "internalType": "bool",
          "name": "",
          "type": "bool"
        }
      ],
      "payable": false,
      "stateMutability": "nonpayable",
      "type": "function"
    },
    {
      "constant": false,
      "inputs": [
        {
          "internalType": "uint64[]",
          "name": "toChainId",
          "type": "uint64[]"
        },
        {
          "internalType": "bytes[]",
          "name": "targetProxyHash",
          "type": "bytes[]"
        }
      ],
      "name": "bindProxyHashBatch",
      "outputs": [
        {
          "internalType": "bool",
          "name": "",
          "type": "bool"
        }
      ],
      "payable": false,
      "stateMutability": "nonpayable",
      "type": "function"
    },
    {
      "constant": false,
      "inputs": [
        {
          "internalType": "address[]",
          "name": "fromAssetHash",
          "type": "address[]"
        },
        {
          "internalType": "uint64[]",
          "name": "toChainId",
          "type": "uint64[]"
        },
        {
          "internalType": "bytes[]",
          "name": "toAssetHash",
          "type": "bytes[]"
        }
      ],
      "name": "bindAssetHashBatch",
      "outputs": [
        {
          "internalType": "bool",
          "name": "",
          "type": "bool"
        }
      ],
      "payable": false,
      "stateMutability": "nonpayable",
      "type": "function"
    },
    {
      "constant": false,
      "inputs": [
        {
          "internalType": "address[]",
          "name": "originAssetAddress",
          "type": "address[]"
        },
        {
          "internalType": "address[]",
          "name": "LPTokenAddress",
          "type": "address[]"
        }
      ],
      "name": "bindLPToAssetBatch",
      "outputs": [
        {
          "internalType": "bool",
          "name": "",
          "type": "bool"
        }
      ],
      "payable": false,
      "stateMutability": "nonpayable",
      "type": "function"
    },
    {
      "constant": false,
      "inputs": [
        {
          "internalType": "address[]",
          "name": "fromAssetHash",
          "type": "address[]"
        },
        {
          "internalType": "address[]",
          "name": "fromLPHash",
          "type": "address[]"
        },
        {
          "internalType": "uint64[]",
          "name": "toChainId",
          "type": "uint64[]"
        },
        {
          "internalType": "bytes[]",
          "name": "toAssetHash",
          "type": "bytes[]"
        },
        {
          "internalType": "bytes[]",
          "name": "toLPHash",
          "type": "bytes[]"
        }
      ],
      "name": "bindLPAndAssetBatch",
      "outputs": [
        {
          "internalType": "bool",
          "name": "",
          "type": "bool"
        }
      ],
      "payable": false,
      "stateMutability": "nonpayable",
      "type": "function"
    },
    {
      "constant": false,
      "inputs": [
        {
          "internalType": "address",
          "name": "fromAssetHash",
          "type": "address"
        },
        {
          "internalType": "uint64",
          "name": "toChainId",
          "type": "uint64"
        },
        {
          "internalType": "bytes",
          "name": "toAddress",
          "type": "bytes"
        },
        {
          "internalType": "uint256",
          "name": "amount",
          "type": "uint256"
        }
      ],
      "name": "lock",
      "outputs": [
        {
          "internalType": "bool",
          "name": "",
          "type": "bool"
        }
      ],
      "payable": true,
      "stateMutability": "payable",
      "type": "function"
    },
    {
      "constant": false,
      "inputs": [
        {
          "internalType": "bytes",
          "name": "argsBs",
          "type": "bytes"
        },
        {
          "internalType": "bytes",
          "name": "fromContractAddr",
          "type": "bytes"
        },
        {
          "internalType": "uint64",
          "name": "fromChainId",
          "type": "uint64"
        }
      ],
      "name": "unlock",
      "outputs": [
        {
          "internalType": "bool",
          "name": "",
          "type": "bool"
        }
      ],
      "payable": false,
      "stateMutability": "nonpayable",
      "type": "function"
    },
    {
      "constant": false,
      "inputs": [
        {
          "internalType": "address",
          "name": "originAssetAddress",
          "type": "address"
        },
        {
          "internalType": "uint256",
          "name": "amount",
          "type": "uint256"
        }
      ],
      "name": "deposit",
      "outputs": [
        {
          "internalType": "bool",
          "name": "",
          "type": "bool"
        }
      ],
      "payable": true,
      "stateMutability": "payable",
      "type": "function"
    },
    {
      "constant": false,
      "inputs": [
        {
          "internalType": "address",
          "name": "originAssetAddress",
          "type": "address"
        },
        {
          "internalType": "uint256",
          "name": "amount",
          "type": "uint256"
        },
        {
          "internalType": "address",
          "name": "toAddress",
          "type": "address"
        }
      ],
      "name": "deposit",
      "outputs": [
        {
          "internalType": "bool",
          "name": "",
          "type": "bool"
        }
      ],
      "payable": true,
      "stateMutability": "payable",
      "type": "function"
    },
    {
      "constant": false,
      "inputs": [
        {
          "internalType": "address",
          "name": "targetTokenAddress",
          "type": "address"
        },
        {
          "internalType": "uint256",
          "name": "amount",
          "type": "uint256"
        },
        {
          "internalType": "address",
          "name": "toAddress",
          "type": "address"
        }
      ],
      "name": "withdraw",
      "outputs": [
        {
          "internalType": "bool",
          "name": "",
          "type": "bool"
        }
      ],
      "payable": false,
      "stateMutability": "nonpayable",
      "type": "function"
    },
    {
      "constant": false,
      "inputs": [
        {
          "internalType": "address",
          "name": "targetTokenAddress",
          "type": "address"
        },
        {
          "internalType": "uint256",
          "name": "amount",
          "type": "uint256"
        }
      ],
      "name": "withdraw",
      "outputs": [
        {
          "internalType": "bool",
          "name": "",
          "type": "bool"
        }
      ],
      "payable": false,
      "stateMutability": "nonpayable",
      "type": "function"
    },
    {
      "constant": true,
      "inputs": [
        {
          "internalType": "address",
          "name": "fromAssetHash",
          "type": "address"
        }
      ],
      "name": "getBalanceFor",
      "outputs": [
        {
          "internalType": "uint256",
          "name": "",
          "type": "uint256"
        }
      ],
      "payable": false,
      "stateMutability": "view",
      "type": "function"
    }
  ],
  "bytecode": "0x608060405260006100176001600160e01b0361006616565b600080546001600160a01b0319166001600160a01b0383169081178255604051929350917f8be0079c531659141344cd1fd0a4f28419497f9722a3daafe3b4186f6b6457e0908290a35061006a565b3390565b613fdb806200007a6000396000f3fe60806040526004361061014b5760003560e01c80636bc9e760116100b65780639e5767aa1161006f5780639e5767aa14610394578063af9980f0146103b4578063d798f881146103d4578063f2fde38b146103e9578063f3fef3a314610409578063f45346dc146104295761014b565b80636bc9e760146103005780636f3326d514610320578063715018a61461034057806384a6d055146103575780638da5cb5b1461036a5780638f32d59b1461037f5761014b565b806347e7ef241161010857806347e7ef24146102335780634f7d98081461024657806353d1d2771461027357806359c589a11461029357806361c6617d146102c057806369328dec146102e05761014b565b806306af4b9f146101505780630892cf481461018657806325a9f900146101a65780633348f63b146101c65780633389279d146101e6578063379b98f614610213575b600080fd5b34801561015c57600080fd5b5061017061016b366004612d74565b61043c565b60405161017d9190613b40565b60405180910390f35b34801561019257600080fd5b506101706101a1366004612b98565b61064e565b3480156101b257600080fd5b506101706101c1366004612cf9565b6109b3565b3480156101d257600080fd5b506101706101e1366004612a69565b610ad9565b3480156101f257600080fd5b506102066102013660046128a3565b610b78565b60405161017d91906139ed565b34801561021f57600080fd5b5061017061022e366004612e20565b610b93565b6101706102413660046129bc565b610c25565b34801561025257600080fd5b50610266610261366004612a39565b610ce1565b60405161017d9190613b4e565b34801561027f57600080fd5b5061017061028e366004612919565b610d85565b34801561029f57600080fd5b506102b36102ae3660046128a3565b610ee8565b60405161017d9190613dbf565b3480156102cc57600080fd5b506101706102db366004612b3b565b610f87565b3480156102ec57600080fd5b506101706102fb3660046129ec565b61109f565b34801561030c57600080fd5b5061017061031b3660046128df565b61116e565b34801561032c57600080fd5b5061017061033b366004612c72565b6111e3565b34801561034c57600080fd5b50610355611372565b005b610170610365366004612ac3565b6113e0565b34801561037657600080fd5b50610206611782565b34801561038b57600080fd5b50610170611792565b3480156103a057600080fd5b506102666103af366004612e02565b6117b6565b3480156103c057600080fd5b506103556103cf3660046128a3565b61181c565b3480156103e057600080fd5b5061020661189c565b3480156103f557600080fd5b506103556104043660046128a3565b6118ab565b34801561041557600080fd5b506101706104243660046129bc565b6118db565b6101706104373660046129ec565b611997565b600154604080516387939a7f60e01b815290516000926001600160a01b03169182916387939a7f91600480820192602092909190829003018186803b15801561048457600080fd5b505afa158015610498573d6000803e3d6000fd5b505050506040513d601f19601f820116820180604052506104bc91908101906128c1565b6001600160a01b03166104cd611a53565b6001600160a01b0316146104fc5760405162461bcd60e51b81526004016104f390613c2f565b60405180910390fd5b61050461260d565b61050d86611a57565b90508451600014156105315760405162461bcd60e51b81526004016104f390613c4f565b6001600160401b03841660009081526002602052604090206105539086611aa3565b61056f5760405162461bcd60e51b81526004016104f390613d7f565b80515161058e5760405162461bcd60e51b81526004016104f390613bef565b600061059d8260000151611b57565b9050816020015151600014156105c55760405162461bcd60e51b81526004016104f390613ccf565b60006105d48360200151611b57565b90506105e582828560400151611b82565b6106015760405162461bcd60e51b81526004016104f390613bff565b7fd90288730b87c2b8e0c45bd82260fd22478aba30ae1c4d578b8daba9261604df8282856040015160405161063893929190613ac1565b60405180910390a1506001979650505050505050565b6000610658611792565b6106745760405162461bcd60e51b81526004016104f390613c7f565b84518651146106955760405162461bcd60e51b81526004016104f390613c1f565b81518351146106b65760405162461bcd60e51b81526004016104f390613c1f565b60005b85518110156109a4578381815181106106ce57fe5b6020026020010151600360008984815181106106e657fe5b60200260200101516001600160a01b03166001600160a01b03168152602001908152602001600020600087848151811061071c57fe5b60200260200101516001600160401b03166001600160401b03168152602001908152602001600020908051906020019061075792919061262e565b5082818151811061076457fe5b60200260200101516003600088848151811061077c57fe5b60200260200101516001600160a01b03166001600160a01b0316815260200190815260200160002060008784815181106107b257fe5b60200260200101516001600160401b03166001600160401b0316815260200190815260200160002090805190602001906107ed92919061262e565b508581815181106107fa57fe5b60200260200101516004600089848151811061081257fe5b60200260200101516001600160a01b03166001600160a01b0316815260200190815260200160002060006101000a8154816001600160a01b0302191690836001600160a01b03160217905550600080516020613f7983398151915287828151811061087957fe5b602002602001015186838151811061088d57fe5b60200260200101518684815181106108a157fe5b60200260200101516108c58b86815181106108b857fe5b6020026020010151610ee8565b6040516108d59493929190613b04565b60405180910390a1600080516020613f798339815191528682815181106108f857fe5b602002602001015186838151811061090c57fe5b602002602001015185848151811061092057fe5b60200260200101516109378a86815181106108b857fe5b6040516109479493929190613b04565b60405180910390a1600080516020613f5983398151915287828151811061096a57fe5b602002602001015187838151811061097e57fe5b6020026020010151604051610994929190613a30565b60405180910390a16001016106b9565b50600190505b95945050505050565b60006109bd611792565b6109d95760405162461bcd60e51b81526004016104f390613c7f565b81518351146109fa5760405162461bcd60e51b81526004016104f390613c6f565b60005b8351811015610acd57828181518110610a1257fe5b602002602001015160026000868481518110610a2a57fe5b60200260200101516001600160401b03166001600160401b031681526020019081526020016000209080519060200190610a6592919061262e565b507fdacd7d303272a3b58aec6620d6d1fb588f4996a5b46858ed437f1c34348f2d0f848281518110610a9357fe5b6020026020010151848381518110610aa757fe5b6020026020010151604051610abd929190613dcd565b60405180910390a16001016109fd565b50600190505b92915050565b6000610ae3611792565b610aff5760405162461bcd60e51b81526004016104f390613c7f565b6001600160a01b03841660009081526003602090815260408083206001600160401b038716845282529091208351610b399285019061262e565b50600080516020613f79833981519152848484610b5588610ee8565b604051610b659493929190613b04565b60405180910390a15060015b9392505050565b6004602052600090815260409020546001600160a01b031681565b6000610b9d611792565b610bb95760405162461bcd60e51b81526004016104f390613c7f565b6001600160401b03831660009081526002602090815260409091208351610be29285019061262e565b507fdacd7d303272a3b58aec6620d6d1fb588f4996a5b46858ed437f1c34348f2d0f8383604051610c14929190613dcd565b60405180910390a150600192915050565b600081610c445760405162461bcd60e51b81526004016104f390613bbf565b610c4e8383611bff565b610c6a5760405162461bcd60e51b81526004016104f390613bdf565b6001600160a01b0380841660009081526004602052604090205416610c90813385611b82565b610cac5760405162461bcd60e51b81526004016104f390613cdf565b7f30b853cf217db6b44a3d46920798a5308afc086c638198e6c161bd7fa12a1d3a33858386604051610b6594939291906139fb565b60036020908152600092835260408084208252918352918190208054825160026001831615610100026000190190921691909104601f810185900485028201850190935282815292909190830182828015610d7d5780601f10610d5257610100808354040283529160200191610d7d565b820191906000526020600020905b815481529060010190602001808311610d6057829003601f168201915b505050505081565b6000610d8f611792565b610dab5760405162461bcd60e51b81526004016104f390613c7f565b6001600160a01b03861660009081526003602090815260408083206001600160401b038816845282529091208451610de59286019061262e565b506001600160a01b03851660009081526003602090815260408083206001600160401b038816845282529091208351610e209285019061262e565b506001600160a01b03868116600090815260046020526040902080546001600160a01b031916918716919091179055600080516020613f79833981519152868585610e6a83610ee8565b604051610e7a9493929190613b04565b60405180910390a1600080516020613f79833981519152858584610e9d89610ee8565b604051610ead9493929190613b04565b60405180910390a1600080516020613f598339815191528686604051610ed4929190613a30565b60405180910390a150600195945050505050565b60006001600160a01b038216610f0057503031610f82565b6040516370a0823160e01b815282906001600160a01b038216906370a0823190610f2e9030906004016139ed565b60206040518083038186803b158015610f4657600080fd5b505afa158015610f5a573d6000803e3d6000fd5b505050506040513d601f19601f82011682018060405250610f7e9190810190612de4565b9150505b919050565b6000610f91611792565b610fad5760405162461bcd60e51b81526004016104f390613c7f565b8151835114610fce5760405162461bcd60e51b81526004016104f390613daf565b60005b8351811015610acd57828181518110610fe657fe5b602002602001015160046000868481518110610ffe57fe5b60200260200101516001600160a01b03166001600160a01b0316815260200190815260200160002060006101000a8154816001600160a01b0302191690836001600160a01b03160217905550600080516020613f5983398151915284828151811061106557fe5b602002602001015184838151811061107957fe5b602002602001015160405161108f929190613a30565b60405180910390a1600101610fd1565b6000826110be5760405162461bcd60e51b81526004016104f390613bbf565b6001600160a01b03808516600090815260046020526040902054166110e38185611bff565b6110ff5760405162461bcd60e51b81526004016104f390613cff565b61110a858486611b82565b6111265760405162461bcd60e51b81526004016104f390613b5f565b7fcc7320d7ac24f61b5790719a3c0d7c3cdb569d0affd3996fd075136aa97fb5168386838760405161115b9493929190613ab3565b60405180910390a1506001949350505050565b6000611178611792565b6111945760405162461bcd60e51b81526004016104f390613c7f565b6001600160a01b038381166000908152600460205260409081902080546001600160a01b0319169285169290921790915551600080516020613f5983398151915290610c149085908590613a30565b60006111ed611792565b6112095760405162461bcd60e51b81526004016104f390613c7f565b835183511461122a5760405162461bcd60e51b81526004016104f390613d0f565b815183511461124b5760405162461bcd60e51b81526004016104f390613d0f565b60005b83518110156113675782818151811061126357fe5b60200260200101516003600087848151811061127b57fe5b60200260200101516001600160a01b03166001600160a01b0316815260200190815260200160002060008684815181106112b157fe5b60200260200101516001600160401b03166001600160401b0316815260200190815260200160002090805190602001906112ec92919061262e565b50600080516020613f7983398151915285828151811061130857fe5b602002602001015185838151811061131c57fe5b602002602001015185848151811061133057fe5b60200260200101516113478986815181106108b857fe5b6040516113579493929190613b04565b60405180910390a160010161124e565b506001949350505050565b61137a611792565b6113965760405162461bcd60e51b81526004016104f390613c7f565b600080546040516001600160a01b03909116907f8be0079c531659141344cd1fd0a4f28419497f9722a3daafe3b4186f6b6457e0908390a3600080546001600160a01b0319169055565b6000816113ff5760405162461bcd60e51b81526004016104f390613bbf565b6114098583611bff565b6114255760405162461bcd60e51b81526004016104f390613bdf565b6001600160a01b03851660009081526003602090815260408083206001600160401b038816845282529182902080548351601f60026000196101006001861615020190931692909204918201849004840281018401909452808452606093928301828280156114d55780601f106114aa576101008083540402835291602001916114d5565b820191906000526020600020905b8154815290600101906020018083116114b857829003601f168201915b505050505090508051600014156114fe5760405162461bcd60e51b81526004016104f390613cbf565b61150661260d565b6040518060600160405280838152602001868152602001858152509050606061152e82611ca6565b90506000600160009054906101000a90046001600160a01b031690506000816001600160a01b03166387939a7f6040518163ffffffff1660e01b815260040160206040518083038186803b15801561158557600080fd5b505afa158015611599573d6000803e3d6000fd5b505050506040513d601f19601f820116820180604052506115bd91908101906128c1565b6001600160401b038a16600090815260026020818152604092839020805484516001821615610100026000190190911693909304601f81018390048302840183019094528383529394508493606093909183018282801561165f5780601f106116345761010080835404028352916020019161165f565b820191906000526020600020905b81548152906001019060200180831161164257829003601f168201915b505050505090508051600014156116885760405162461bcd60e51b81526004016104f390613c0f565b60405163bd5cf62560e01b81526001600160a01b0383169063bd5cf625906116b8908e9085908a90600401613ded565b602060405180830381600087803b1580156116d257600080fd5b505af11580156116e6573d6000803e3d6000fd5b505050506040513d601f19601f8201168201806040525061170a9190810190612d56565b6117265760405162461bcd60e51b81526004016104f390613c8f565b7f8636abd6d0e464fe725a13346c7ac779b73561c705506044a2e6b2cdb1295ea58c611750611a53565b8d8a8e8e60405161176696959493929190613a4b565b60405180910390a160019750505050505050505b949350505050565b6000546001600160a01b03165b90565b600080546001600160a01b03166117a7611a53565b6001600160a01b031614905090565b600260208181526000928352604092839020805484516001821615610100026000190190911693909304601f8101839004830284018301909452838352919290830182828015610d7d5780601f10610d5257610100808354040283529160200191610d7d565b611824611792565b6118405760405162461bcd60e51b81526004016104f390613c7f565b600180546001600160a01b0319166001600160a01b0383811691909117918290556040517f43b1a8ec337adb61e8311ed025d99c80db65c02fe5c5027c1b6a93b40970cec4926118919216906139ed565b60405180910390a150565b6001546001600160a01b031681565b6118b3611792565b6118cf5760405162461bcd60e51b81526004016104f390613c7f565b6118d881611cf9565b50565b6000816118fa5760405162461bcd60e51b81526004016104f390613bbf565b6001600160a01b038084166000908152600460205260409020541661191f8184611bff565b61193b5760405162461bcd60e51b81526004016104f390613cff565b611946843385611b82565b6119625760405162461bcd60e51b81526004016104f390613b5f565b7fcc7320d7ac24f61b5790719a3c0d7c3cdb569d0affd3996fd075136aa97fb51633858386604051610b6594939291906139fb565b6000826119b65760405162461bcd60e51b81526004016104f390613bbf565b6119c08484611bff565b6119dc5760405162461bcd60e51b81526004016104f390613bdf565b6001600160a01b0380851660009081526004602052604090205416611a02818486611b82565b611a1e5760405162461bcd60e51b81526004016104f390613cdf565b7f30b853cf217db6b44a3d46920798a5308afc086c638198e6c161bd7fa12a1d3a8386838760405161115b9493929190613ab3565b3390565b611a5f61260d565b611a6761260d565b6000611a738482611d7a565b9083529050611a828482611d7a565b60208401919091529050611a968482611e33565b5060408301525092915050565b60008060019050835460026001808316156101000203821604845180821460018114611ad25760009450611b4b565b8215611b4b576020831060018114611b3057600189600052602060002060208a018581015b600284828410011415611b27578151835414611b165760009950600093505b600183019250602082019150611af7565b50505050611b49565b61010080860402945060208801518514611b4957600095505b505b50929695505050505050565b60008151601414611b7a5760405162461bcd60e51b81526004016104f390613b8f565b506014015190565b60006001600160a01b038416611bce576040516001600160a01b0384169083156108fc029084906000818181858888f19350505050158015611bc8573d6000803e3d6000fd5b50611bf5565b611bd9848484611edc565b611bf55760405162461bcd60e51b81526004016104f390613b9f565b5060019392505050565b60006001600160a01b038316611c505734611c2c5760405162461bcd60e51b81526004016104f390613d9f565b813414611c4b5760405162461bcd60e51b81526004016104f390613d1f565b611c9d565b3415611c6e5760405162461bcd60e51b81526004016104f390613c5f565b611c8183611c7a611a53565b3085611ef9565b611c9d5760405162461bcd60e51b81526004016104f390613b9f565b50600192915050565b606080611cb68360000151611f23565b611cc38460200151611f23565b611cd08560400151611f5a565b604051602001611ce2939291906139c9565b60408051808303601f190181529190529392505050565b6001600160a01b038116611d1f5760405162461bcd60e51b81526004016104f390613baf565b600080546040516001600160a01b03808516939216917f8be0079c531659141344cd1fd0a4f28419497f9722a3daafe3b4186f6b6457e091a3600080546001600160a01b0319166001600160a01b0392909216919091179055565b6060600080611d898585611fc2565b865190955090915081850111801590611da3575080840184105b611dbf5760405162461bcd60e51b81526004016104f390613d6f565b606081158015611dda57604051915060208201604052611e24565b6040519150601f8316801560200281840101848101888315602002848c0101015b81831015611e13578051835260209283019201611dfb565b5050848452601f01601f1916604052505b509250830190505b9250929050565b60008083518360200111158015611e4c57508260200183105b611e685760405162461bcd60e51b81526004016104f390613b6f565b600060405160206000600182038760208a0101515b83831015611e9d5780821a83860153600183019250600182039150611e7d565b50505081016040525190506001600160ff1b03811115611ecf5760405162461bcd60e51b81526004016104f390613c3f565b9460209390930193505050565b6000836113676001600160a01b038216858563ffffffff61210716565b600084611f176001600160a01b03821686868663ffffffff61216516565b50600195945050505050565b8051606090611f318161218f565b83604051602001611f439291906139b1565b604051602081830303815290604052915050919050565b60606001600160ff1b03821115611f835760405162461bcd60e51b81526004016104f390613caf565b60405160208082526000601f5b82821015611fb25785811a826020860101536001919091019060001901611f90565b5050506040818101905292915050565b6000806000611fd18585612246565b94509050600060fd60f81b6001600160f81b03198316141561203a57611ff7868661228f565b955061ffff16905060fd8110801590612012575061ffff8111155b61202e5760405162461bcd60e51b81526004016104f390613b7f565b9250839150611e2c9050565b607f60f91b6001600160f81b0319831614156120955761205a86866122f9565b955063ffffffff16905061ffff81118015612079575063ffffffff8111155b61202e5760405162461bcd60e51b81526004016104f390613cef565b6001600160f81b031980831614156120e1576120b18686612380565b95506001600160401b0316905063ffffffff811161202e5760405162461bcd60e51b81526004016104f390613cef565b5060f881901c60fd811061202e5760405162461bcd60e51b81526004016104f390613cef565b60405161216090849063a9059cbb60e01b906121299086908690602401613ae9565b60408051601f198184030181529190526020810180516001600160e01b03166001600160e01b031990931692909217909152612407565b505050565b6040516121899085906323b872dd60e01b9061212990879087908790602401613ac1565b50505050565b606060fd826001600160401b031610156121b3576121ac826124e3565b9050610f82565b61ffff826001600160401b031611612202576121d260fd60f81b6124ff565b6121db8361250d565b6040516020016121ec9291906139b1565b6040516020818303038152906040529050610f82565b63ffffffff826001600160401b03161161222c57612223607f60f91b6124ff565b6121db83612550565b61223d6001600160f81b03196124ff565b6121db83612593565b6000808351836001011115801561225f57508260010183105b61227b5760405162461bcd60e51b81526004016104f390613c9f565b505081810160200151600182019250929050565b600080835183600201111580156122a857508260020183105b6122c45760405162461bcd60e51b81526004016104f390613d2f565b6000604051846020870101518060011a82538060001a6001830153506002818101604052601d19909101519694019450505050565b6000808351836004011115801561231257508260040183105b61232e5760405162461bcd60e51b81526004016104f390613d5f565b600060405160046000600182038760208a0101515b838310156123635780821a83860153600183019250600182039150612343565b505050808201604052602003900351956004949094019450505050565b6000808351836008011115801561239957508260080183105b6123b55760405162461bcd60e51b81526004016104f390613d4f565b600060405160086000600182038760208a0101515b838310156123ea5780821a838601536001830192506001820391506123ca565b505050808201604052602003900351956008949094019450505050565b612410826125d6565b61242c5760405162461bcd60e51b81526004016104f390613d8f565b60006060836001600160a01b03168360405161244891906139a5565b6000604051808303816000865af19150503d8060008114612485576040519150601f19603f3d011682016040523d82523d6000602084013e61248a565b606091505b5091509150816124ac5760405162461bcd60e51b81526004016104f390613bcf565b80511561218957808060200190516124c79190810190612d56565b6121895760405162461bcd60e51b81526004016104f390613d3f565b604080516001815260f89290921b602083015260218201905290565b6060610ad38260f81c6124e3565b6040516002808252606091906000601f5b828210156125405785811a82602086010153600191909101906000190161251e565b5050506022810160405292915050565b6040516004808252606091906000601f5b828210156125835785811a826020860101536001919091019060001901612561565b5050506024810160405292915050565b6040516008808252606091906000601f5b828210156125c65785811a8260208601015360019190910190600019016125a4565b5050506028810160405292915050565b6000813f7fc5d2460186f7233c927e7db2dcc703c0e500b653ca82273b7bfad8045d85a470811580159061177a5750141592915050565b60405180606001604052806060815260200160608152602001600081525090565b828054600181600116156101000203166002900490600052602060002090601f016020900481019282601f1061266f57805160ff191683800117855561269c565b8280016001018555821561269c579182015b8281111561269c578251825591602001919060010190612681565b506126a89291506126ac565b5090565b61178f91905b808211156126a857600081556001016126b2565b8035610ad381613f29565b8051610ad381613f29565b600082601f8301126126ed57600080fd5b81356127006126fb82613e5a565b613e34565b9150818183526020840193506020810190508385602084028201111561272557600080fd5b60005b83811015612751578161273b88826126c6565b8452506020928301929190910190600101612728565b5050505092915050565b600082601f83011261276c57600080fd5b813561277a6126fb82613e5a565b81815260209384019390925082018360005b8381101561275157813586016127a28882612833565b845250602092830192919091019060010161278c565b600082601f8301126127c957600080fd5b81356127d76126fb82613e5a565b915081818352602084019350602081019050838560208402820111156127fc57600080fd5b60005b8381101561275157816128128882612898565b84525060209283019291909101906001016127ff565b8051610ad381613f3d565b600082601f83011261284457600080fd5b81356128526126fb82613e7a565b9150808252602083016020830185838301111561286e57600080fd5b612879838284613ee7565b50505092915050565b8035610ad381613f46565b8051610ad381613f46565b8035610ad381613f4f565b6000602082840312156128b557600080fd5b600061177a84846126c6565b6000602082840312156128d357600080fd5b600061177a84846126d1565b600080604083850312156128f257600080fd5b60006128fe85856126c6565b925050602061290f858286016126c6565b9150509250929050565b600080600080600060a0868803121561293157600080fd5b600061293d88886126c6565b955050602061294e888289016126c6565b945050604061295f88828901612898565b93505060608601356001600160401b0381111561297b57600080fd5b61298788828901612833565b92505060808601356001600160401b038111156129a357600080fd5b6129af88828901612833565b9150509295509295909350565b600080604083850312156129cf57600080fd5b60006129db85856126c6565b925050602061290f85828601612882565b600080600060608486031215612a0157600080fd5b6000612a0d86866126c6565b9350506020612a1e86828701612882565b9250506040612a2f868287016126c6565b9150509250925092565b60008060408385031215612a4c57600080fd5b6000612a5885856126c6565b925050602061290f85828601612898565b600080600060608486031215612a7e57600080fd5b6000612a8a86866126c6565b9350506020612a9b86828701612898565b92505060408401356001600160401b03811115612ab757600080fd5b612a2f86828701612833565b60008060008060808587031215612ad957600080fd5b6000612ae587876126c6565b9450506020612af687828801612898565b93505060408501356001600160401b03811115612b1257600080fd5b612b1e87828801612833565b9250506060612b2f87828801612882565b91505092959194509250565b60008060408385031215612b4e57600080fd5b82356001600160401b03811115612b6457600080fd5b612b70858286016126dc565b92505060208301356001600160401b03811115612b8c57600080fd5b61290f858286016126dc565b600080600080600060a08688031215612bb057600080fd5b85356001600160401b03811115612bc657600080fd5b612bd2888289016126dc565b95505060208601356001600160401b03811115612bee57600080fd5b612bfa888289016126dc565b94505060408601356001600160401b03811115612c1657600080fd5b612c22888289016127b8565b93505060608601356001600160401b03811115612c3e57600080fd5b612c4a8882890161275b565b92505060808601356001600160401b03811115612c6657600080fd5b6129af8882890161275b565b600080600060608486031215612c8757600080fd5b83356001600160401b03811115612c9d57600080fd5b612ca9868287016126dc565b93505060208401356001600160401b03811115612cc557600080fd5b612cd1868287016127b8565b92505060408401356001600160401b03811115612ced57600080fd5b612a2f8682870161275b565b60008060408385031215612d0c57600080fd5b82356001600160401b03811115612d2257600080fd5b612d2e858286016127b8565b92505060208301356001600160401b03811115612d4a57600080fd5b61290f8582860161275b565b600060208284031215612d6857600080fd5b600061177a8484612828565b600080600060608486031215612d8957600080fd5b83356001600160401b03811115612d9f57600080fd5b612dab86828701612833565b93505060208401356001600160401b03811115612dc757600080fd5b612dd386828701612833565b9250506040612a2f86828701612898565b600060208284031215612df657600080fd5b600061177a848461288d565b600060208284031215612e1457600080fd5b600061177a8484612898565b60008060408385031215612e3357600080fd5b6000612e3f8585612898565b92505060208301356001600160401b03811115612e5b57600080fd5b61290f85828601612833565b612e7081613ed6565b82525050565b612e7081613eae565b612e7081613eb9565b6000612e9382613ea1565b612e9d8185613ea5565b9350612ead818560208601613ef3565b612eb681613f1f565b9093019392505050565b6000612ecb82613ea1565b612ed58185610f82565b9350612ee5818560208601613ef3565b9290920192915050565b6000612efc603e83613ea5565b7f7472616e736665722061737365742066726f6d206c6f636b5f70726f7879206381527f6f6e747261637420746f2066726f6d41646472657373206661696c6564210000602082015260400192915050565b6000612f5b602383613ea5565b7f4e65787455696e743235352c206f66667365742065786365656473206d6178698152626d756d60e81b602082015260400192915050565b6000612fa0601f83613ea5565b7f4e65787455696e7431362c2076616c7565206f7574736964652072616e676500815260200192915050565b6000612fd9602383613ea5565b7f6279746573206c656e67746820646f6573206e6f74206d61746368206164647281526265737360e81b602082015260400192915050565b600061301e603383613ea5565b7f7472616e7366657220657263323020617373657420746f206c6f636b5f70726f815272787920636f6e7472616374206661696c65642160681b602082015260400192915050565b6000613073602683613ea5565b7f4f776e61626c653a206e6577206f776e657220697320746865207a65726f206181526564647265737360d01b602082015260400192915050565b60006130bb601683613ea5565b75616d6f756e742063616e6e6f74206265207a65726f2160501b815260200192915050565b60006130ed602083613ea5565b7f5361666545524332303a206c6f772d6c6576656c2063616c6c206661696c6564815260200192915050565b6000613126603e83613ea5565b7f7472616e736665722061737365742066726f6d2066726f6d416464726573732081527f746f206c6f636b5f70726f787920636f6e7472616374206661696c6564210000602082015260400192915050565b6000613185601b83613ea5565b7f746f4173736574486173682063616e6e6f7420626520656d7074790000000000815260200192915050565b60006131be603c83613ea5565b7f7472616e736665722061737365742066726f6d206c6f636b5f70726f7879206381527f6f6e747261637420746f20746f41646472657373206661696c65642100000000602082015260400192915050565b600061321d601983613ea5565b7f656d70747920696c6c6567616c20746f50726f78794861736800000000000000815260200192915050565b6000613256602583613ea5565b7f62696e644c50416e64417373657442617463683a2061726773206c656e677468815264103234b33360d91b602082015260400192915050565b600061329d602d83613ea5565b7f6d736753656e646572206973206e6f742045746843726f7373436861696e4d6181526c1b9859d95c90dbdb9d1c9858dd609a1b602082015260400192915050565b60006132ec601783613ea5565b7f56616c75652065786365656473207468652072616e6765000000000000000000815260200192915050565b6000613325602b83613ea5565b7f66726f6d2070726f787920636f6e747261637420616464726573732063616e6e81526a6f7420626520656d70747960a81b602082015260400192915050565b6000613372602283613ea5565b7f74686572652073686f756c64206265206e6f206574686572207472616e736665815261722160f01b602082015260400192915050565b60006133b6602483613ea5565b7f62696e6450726f78794861736842617463683a2061726773206c656e677468208152633234b33360e11b602082015260400192915050565b60006133fc602083613ea5565b7f4f776e61626c653a2063616c6c6572206973206e6f7420746865206f776e6572815260200192915050565b6000613435602f83613ea5565b7f45746843726f7373436861696e4d616e616765722063726f7373436861696e2081526e6578656375746564206572726f722160881b602082015260400192915050565b6000613486602083613ea5565b7f4e657874427974652c204f66667365742065786365656473206d6178696d756d815260200192915050565b60006134bf600683613ea5565b65756e6c6f636b60d01b815260200192915050565b60006134e1601b83613ea5565b7f56616c756520657863656564732075696e743235352072616e67650000000000815260200192915050565b600061351a601983613ea5565b7f656d70747920696c6c6567616c20746f41737365744861736800000000000000815260200192915050565b6000613553601983613ea5565b7f746f416464726573732063616e6e6f7420626520656d70747900000000000000815260200192915050565b600061358c604b83613ea5565b7f7472616e736665722070726f6f66206f66206c69717569646974792066726f6d81527f206c6f636b5f70726f787920636f6e747261637420746f2066726f6d4164647260208201526a657373206661696c65642160a81b604082015260600192915050565b60006135ff602083613ea5565b7f4e65787456617255696e742c2076616c7565206f7574736964652072616e6765815260200192915050565b6000613638604b83613ea5565b7f7472616e736665722070726f6f66206f66206c69717569646974792066726f6d81527f2066726f6d4164647265737320746f206c6f636b5f70726f787920636f6e747260208201526a616374206661696c65642160a81b604082015260600192915050565b60006136ab602483613ea5565b7f62696e6441737365744861736842617463683a2061726773206c656e677468208152633234b33360e11b602082015260400192915050565b60006136f1602983613ea5565b7f7472616e73666572726564206574686572206973206e6f7420657175616c20748152686f20616d6f756e742160b81b602082015260400192915050565b600061373c602283613ea5565b7f4e65787455696e7431362c206f66667365742065786365656473206d6178696d815261756d60f01b602082015260400192915050565b6000613780602a83613ea5565b7f5361666545524332303a204552433230206f7065726174696f6e20646964206e8152691bdd081cdd58d8d9595960b21b602082015260400192915050565b60006137cc602283613ea5565b7f4e65787455696e7436342c206f66667365742065786365656473206d6178696d815261756d60f01b602082015260400192915050565b6000613810602283613ea5565b7f4e65787455696e7433322c206f66667365742065786365656473206d6178696d815261756d60f01b602082015260400192915050565b6000613854602483613ea5565b7f4e65787456617242797465732c206f66667365742065786365656473206d6178815263696d756d60e01b602082015260400192915050565b600061389a602283613ea5565b7f46726f6d2050726f787920636f6e74726163742061646472657373206572726f815261722160f01b602082015260400192915050565b60006138de601f83613ea5565b7f5361666545524332303a2063616c6c20746f206e6f6e2d636f6e747261637400815260200192915050565b6000613917602183613ea5565b7f7472616e736665727265642065746865722063616e6e6f74206265207a65726f8152602160f81b602082015260400192915050565b600061395a602483613ea5565b7f62696e644c50546f417373657442617463683a2061726773206c656e677468208152633234b33360e11b602082015260400192915050565b612e708161178f565b612e7081613eca565b6000610b718284612ec0565b60006139bd8285612ec0565b915061177a8284612ec0565b60006139d58286612ec0565b91506139e18285612ec0565b91506109aa8284612ec0565b60208101610ad38284612e76565b60808101613a098287612e67565b613a166020830186612e76565b613a236040830185612e76565b6109aa6060830184613993565b60408101613a3e8285612e76565b610b716020830184612e76565b60c08101613a598289612e76565b613a666020830188612e67565b613a73604083018761399c565b8181036060830152613a858186612e88565b90508181036080830152613a998185612e88565b9050613aa860a0830184613993565b979650505050505050565b60808101613a098287612e76565b60608101613acf8286612e76565b613adc6020830185612e76565b61177a6040830184613993565b60408101613af78285612e76565b610b716020830184613993565b60808101613b128287612e76565b613b1f602083018661399c565b8181036040830152613b318185612e88565b90506109aa6060830184613993565b60208101610ad38284612e7f565b60208082528101610b718184612e88565b60208082528101610ad381612eef565b60208082528101610ad381612f4e565b60208082528101610ad381612f93565b60208082528101610ad381612fcc565b60208082528101610ad381613011565b60208082528101610ad381613066565b60208082528101610ad3816130ae565b60208082528101610ad3816130e0565b60208082528101610ad381613119565b60208082528101610ad381613178565b60208082528101610ad3816131b1565b60208082528101610ad381613210565b60208082528101610ad381613249565b60208082528101610ad381613290565b60208082528101610ad3816132df565b60208082528101610ad381613318565b60208082528101610ad381613365565b60208082528101610ad3816133a9565b60208082528101610ad3816133ef565b60208082528101610ad381613428565b60208082528101610ad381613479565b60208082528101610ad3816134d4565b60208082528101610ad38161350d565b60208082528101610ad381613546565b60208082528101610ad38161357f565b60208082528101610ad3816135f2565b60208082528101610ad38161362b565b60208082528101610ad38161369e565b60208082528101610ad3816136e4565b60208082528101610ad38161372f565b60208082528101610ad381613773565b60208082528101610ad3816137bf565b60208082528101610ad381613803565b60208082528101610ad381613847565b60208082528101610ad38161388d565b60208082528101610ad3816138d1565b60208082528101610ad38161390a565b60208082528101610ad38161394d565b60208101610ad38284613993565b60408101613ddb828561399c565b818103602083015261177a8184612e88565b60808101613dfb828661399c565b8181036020830152613e0d8185612e88565b90508181036040830152613e20816134b2565b905081810360608301526109aa8184612e88565b6040518181016001600160401b0381118282101715613e5257600080fd5b604052919050565b60006001600160401b03821115613e7057600080fd5b5060209081020190565b60006001600160401b03821115613e9057600080fd5b506020601f91909101601f19160190565b5190565b90815260200190565b6000610ad382613ebe565b151590565b6001600160a01b031690565b6001600160401b031690565b6000610ad3826000610ad382613eae565b82818337506000910152565b60005b83811015613f0e578181015183820152602001613ef6565b838111156121895750506000910152565b601f01601f191690565b613f3281613eae565b81146118d857600080fd5b613f3281613eb9565b613f328161178f565b613f3281613eca56fe2319c5345cde8ceb76a957b55d75082616215452400c34305e4e6adaaf42f7111628c8374c1bdfeb2275fd9f4c90562fd3fae974783dc522c8234e36abcfc58ea365627a7a723158204f480d4485548f05bef5d4261e735fd47fb4a7312201e8bcc1b5a4f89ba63f6f6c6578706572696d656e74616cf564736f6c63430005100040",
  "source": "pragma solidity ^0.5.0;\npragma experimental ABIEncoderV2;\n\nimport \"./../../libs/ownership/Ownable.sol\";\nimport \"./../../libs/common/ZeroCopySource.sol\";\nimport \"./../../libs/common/ZeroCopySink.sol\";\nimport \"./../../libs/utils/Utils.sol\";\nimport \"./../../libs/token/ERC20/SafeERC20.sol\";\nimport \"./../cross_chain_manager/interface/IEthCrossChainManager.sol\";\nimport \"./../cross_chain_manager/interface/IEthCrossChainManagerProxy.sol\";\n\ncontract LockProxyWithLP is Ownable {\n    using SafeMath for uint;\n    using SafeERC20 for IERC20;\n\n    struct TxArgs {\n        bytes toAssetHash;\n        bytes toAddress;\n        uint256 amount;\n    }\n    address public managerProxyContract;\n\n    mapping(uint64 => bytes) public proxyHashMap;\n    mapping(address => mapping(uint64 => bytes)) public assetHashMap;\n    mapping(address => address) public assetLPMap;\n\n    event SetManagerProxyEvent(address manager);\n    event BindProxyEvent(uint64 toChainId, bytes targetProxyHash);\n    event BindAssetEvent(address fromAssetHash, uint64 toChainId, bytes targetProxyHash, uint initialAmount);\n    event UnlockEvent(address toAssetHash, address toAddress, uint256 amount);\n    event LockEvent(address fromAssetHash, address fromAddress, uint64 toChainId, bytes toAssetHash, bytes toAddress, uint256 amount);\n\n    event depositEvent(address toAddress, address fromAssetHash, address fromLPHash, uint256 amount);\n    event withdrawEvent(address toAddress, address fromAssetHash, address fromLPHash, uint256 amount);\n    event BindLPToAssetEvent(address originAssetAddress, address LPTokenAddress);\n\n    modifier onlyManagerContract() {\n        IEthCrossChainManagerProxy ieccmp = IEthCrossChainManagerProxy(managerProxyContract);\n        require(_msgSender() == ieccmp.getEthCrossChainManager(), \"msgSender is not EthCrossChainManagerContract\");\n        _;\n    }\n    \n    function setManagerProxy(address ethCCMProxyAddr) onlyOwner public {\n        managerProxyContract = ethCCMProxyAddr;\n        emit SetManagerProxyEvent(managerProxyContract);\n    }\n    \n    function bindProxyHash(uint64 toChainId, bytes memory targetProxyHash) onlyOwner public returns (bool) {\n        proxyHashMap[toChainId] = targetProxyHash;\n        emit BindProxyEvent(toChainId, targetProxyHash);\n        return true;\n    }\n\n    function bindAssetHash(address fromAssetHash, uint64 toChainId, bytes memory toAssetHash) onlyOwner public returns (bool) {\n        assetHashMap[fromAssetHash][toChainId] = toAssetHash;\n        emit BindAssetEvent(fromAssetHash, toChainId, toAssetHash, getBalanceFor(fromAssetHash));\n        return true;\n    }\n\n    function bindLPToAsset(address originAssetAddress, address LPTokenAddress) onlyOwner public returns (bool) {\n        assetLPMap[originAssetAddress] = LPTokenAddress;\n        emit BindLPToAssetEvent(originAssetAddress, LPTokenAddress);\n        return true;\n    }\n\n    function bindLPAndAsset(address fromAssetHash, address fromLPHash, uint64 toChainId, bytes memory toAssetHash, bytes memory toLPHash) onlyOwner public returns (bool) {\n        assetHashMap[fromAssetHash][toChainId] = toAssetHash;\n        assetHashMap[fromLPHash][toChainId] = toLPHash;\n        assetLPMap[fromAssetHash] = fromLPHash;\n        emit BindAssetEvent(fromAssetHash, toChainId, toAssetHash, getBalanceFor(fromAssetHash));\n        emit BindAssetEvent(fromLPHash, toChainId, toLPHash, getBalanceFor(fromLPHash));\n        emit BindLPToAssetEvent(fromAssetHash, fromLPHash);\n        return true;\n    }\n    \n    function bindProxyHashBatch(uint64[] memory toChainId, bytes[] memory targetProxyHash) onlyOwner public returns (bool) {\n        require(toChainId.length == targetProxyHash.length, \"bindProxyHashBatch: args length diff\");\n        for (uint i = 0; i < toChainId.length; i++) {\n            proxyHashMap[toChainId[i]] = targetProxyHash[i];\n            emit BindProxyEvent(toChainId[i], targetProxyHash[i]);\n        }\n        return true;\n    }\n\n    function bindAssetHashBatch(address[] memory fromAssetHash, uint64[] memory toChainId, bytes[] memory toAssetHash) onlyOwner public returns (bool) {\n        require(toChainId.length == fromAssetHash.length, \"bindAssetHashBatch: args length diff\");\n        require(toChainId.length == toAssetHash.length, \"bindAssetHashBatch: args length diff\");\n        for (uint i = 0; i < toChainId.length; i++) {\n            assetHashMap[fromAssetHash[i]][toChainId[i]] = toAssetHash[i];\n            emit BindAssetEvent(fromAssetHash[i], toChainId[i], toAssetHash[i], getBalanceFor(fromAssetHash[i]));\n        }\n        return true;\n    }\n\n    function bindLPToAssetBatch(address[] memory originAssetAddress, address[] memory LPTokenAddress) onlyOwner public returns (bool) {\n        require(originAssetAddress.length == LPTokenAddress.length, \"bindLPToAssetBatch: args length diff\");\n        for (uint i = 0; i < originAssetAddress.length; i++) {\n            assetLPMap[originAssetAddress[i]] = LPTokenAddress[i];\n            emit BindLPToAssetEvent(originAssetAddress[i], LPTokenAddress[i]);\n        }\n        return true;\n    }\n \n    function bindLPAndAssetBatch(address[] memory fromAssetHash, address[] memory fromLPHash, uint64[] memory toChainId, bytes[] memory toAssetHash, bytes[] memory toLPHash) onlyOwner public returns (bool) {\n        require(fromAssetHash.length == fromLPHash.length, \"bindLPAndAssetBatch: args length diff\");\n        require(toAssetHash.length == toLPHash.length, \"bindLPAndAssetBatch: args length diff\");\n        for(uint256 i = 0; i < fromLPHash.length; i++) {\n            assetHashMap[fromAssetHash[i]][toChainId[i]] = toAssetHash[i];\n            assetHashMap[fromLPHash[i]][toChainId[i]] = toLPHash[i];\n            assetLPMap[fromAssetHash[i]] = fromLPHash[i];\n            emit BindAssetEvent(fromAssetHash[i], toChainId[i], toAssetHash[i], getBalanceFor(fromAssetHash[i]));\n            emit BindAssetEvent(fromLPHash[i], toChainId[i], toLPHash[i], getBalanceFor(fromLPHash[i]));\n            emit BindLPToAssetEvent(fromAssetHash[i], fromLPHash[i]);\n        }\n        return true;\n    } \n\n    /* @notice                  This function is meant to be invoked by the user,\n    *                           a certain amount tokens will be locked in the proxy contract the invoker/msg.sender immediately.\n    *                           Then the same amount of tokens will be unloked from target chain proxy contract at the target chain with chainId later.\n    *  @param fromAssetHash     The asset address in current chain, uniformly named as `fromAssetHash`\n    *  @param toChainId         The target chain id\n    *                           \n    *  @param toAddress         The address in bytes format to receive same amount of tokens in target chain \n    *  @param amount            The amount of tokens to be crossed from ethereum to the chain with chainId\n    */\n    function lock(address fromAssetHash, uint64 toChainId, bytes memory toAddress, uint256 amount) public payable returns (bool) {\n        require(amount != 0, \"amount cannot be zero!\");\n        require(_transferToContract(fromAssetHash, amount), \"transfer asset from fromAddress to lock_proxy contract failed!\");\n        bytes memory toAssetHash = assetHashMap[fromAssetHash][toChainId];\n        require(toAssetHash.length != 0, \"empty illegal toAssetHash\");\n\n        TxArgs memory txArgs = TxArgs({\n            toAssetHash: toAssetHash,\n            toAddress: toAddress,\n            amount: amount\n        });\n        bytes memory txData = _serializeTxArgs(txArgs);\n        \n        IEthCrossChainManagerProxy eccmp = IEthCrossChainManagerProxy(managerProxyContract);\n        address eccmAddr = eccmp.getEthCrossChainManager();\n        IEthCrossChainManager eccm = IEthCrossChainManager(eccmAddr);\n        \n        bytes memory toProxyHash = proxyHashMap[toChainId];\n        require(toProxyHash.length != 0, \"empty illegal toProxyHash\");\n        require(eccm.crossChain(toChainId, toProxyHash, \"unlock\", txData), \"EthCrossChainManager crossChain executed error!\");\n\n        emit LockEvent(fromAssetHash, _msgSender(), toChainId, toAssetHash, toAddress, amount);\n        \n        return true;\n    }\n    \n    /* @notice                  This function is meant to be invoked by the ETH crosschain management contract,\n    *                           then mint a certin amount of tokens to the designated address since a certain amount \n    *                           was burnt from the source chain invoker.\n    *  @param argsBs            The argument bytes recevied by the ethereum lock proxy contract, need to be deserialized.\n    *                           based on the way of serialization in the source chain proxy contract.\n    *  @param fromContractAddr  The source chain contract address\n    *  @param fromChainId       The source chain id\n    */\n    function unlock(bytes memory argsBs, bytes memory fromContractAddr, uint64 fromChainId) onlyManagerContract public returns (bool) {\n        TxArgs memory args = _deserializeTxArgs(argsBs);\n\n        require(fromContractAddr.length != 0, \"from proxy contract address cannot be empty\");\n        require(Utils.equalStorage(proxyHashMap[fromChainId], fromContractAddr), \"From Proxy contract address error!\");\n        \n        require(args.toAssetHash.length != 0, \"toAssetHash cannot be empty\");\n        address toAssetHash = Utils.bytesToAddress(args.toAssetHash);\n\n        require(args.toAddress.length != 0, \"toAddress cannot be empty\");\n        address toAddress = Utils.bytesToAddress(args.toAddress);\n        \n        require(_transferFromContract(toAssetHash, toAddress, args.amount), \"transfer asset from lock_proxy contract to toAddress failed!\");\n        \n        emit UnlockEvent(toAssetHash, toAddress, args.amount);\n        return true;\n    }\n\n\n    function deposit(address originAssetAddress, uint amount) payable public returns (bool) {\n        require(amount != 0, \"amount cannot be zero!\");\n\n        require(_transferToContract(originAssetAddress, amount), \"transfer asset from fromAddress to lock_proxy contract failed!\");\n\n        address LPTokenAddress = assetLPMap[originAssetAddress];\n        require(_transferFromContract(LPTokenAddress, msg.sender, amount), \"transfer proof of liquidity from lock_proxy contract to fromAddress failed!\");\n        \n        emit depositEvent(msg.sender, originAssetAddress, LPTokenAddress, amount);\n        return true;\n    }\n\n    function withdraw(address targetTokenAddress, uint amount) public returns (bool) {\n        require(amount != 0, \"amount cannot be zero!\");\n\n        address LPTokenAddress = assetLPMap[targetTokenAddress];\n        require(_transferToContract(LPTokenAddress, amount), \"transfer proof of liquidity from fromAddress to lock_proxy contract failed!\");\n\n        require(_transferFromContract(targetTokenAddress, msg.sender, amount), \"transfer asset from lock_proxy contract to fromAddress failed!\");\n        \n        emit withdrawEvent(msg.sender, targetTokenAddress, LPTokenAddress, amount);\n        return true;\n    }\n\n    function deposit(address originAssetAddress, uint amount, address toAddress) payable public returns (bool) {\n        require(amount != 0, \"amount cannot be zero!\");\n\n        require(_transferToContract(originAssetAddress, amount), \"transfer asset from fromAddress to lock_proxy contract failed!\");\n\n        address LPTokenAddress = assetLPMap[originAssetAddress];\n        require(_transferFromContract(LPTokenAddress, toAddress, amount), \"transfer proof of liquidity from lock_proxy contract to fromAddress failed!\");\n        \n        emit depositEvent(toAddress, originAssetAddress, LPTokenAddress, amount);\n        return true;\n    }\n\n    function withdraw(address targetTokenAddress, uint amount, address toAddress) public returns (bool) {\n        require(amount != 0, \"amount cannot be zero!\");\n\n        address LPTokenAddress = assetLPMap[targetTokenAddress];\n        require(_transferToContract(LPTokenAddress, amount), \"transfer proof of liquidity from fromAddress to lock_proxy contract failed!\");\n\n        require(_transferFromContract(targetTokenAddress, toAddress, amount), \"transfer asset from lock_proxy contract to fromAddress failed!\");\n        \n        emit withdrawEvent(toAddress, targetTokenAddress, LPTokenAddress, amount);\n        return true;\n    }\n\n    function getBalanceFor(address fromAssetHash) public view returns (uint256) {\n        if (fromAssetHash == address(0)) {\n            // return address(this).balance; // this expression would result in error: Failed to decode output: Error: insufficient data for uint256 type\n            address selfAddr = address(this);\n            return selfAddr.balance;\n        } else {\n            IERC20 erc20Token = IERC20(fromAssetHash);\n            return erc20Token.balanceOf(address(this));\n        }\n    }\n\n    function _transferToContract(address fromAssetHash, uint256 amount) internal returns (bool) {\n        if (fromAssetHash == address(0)) {\n            // fromAssetHash === address(0) denotes user choose to lock ether\n            // passively check if the received msg.value equals amount\n            require(msg.value != 0, \"transferred ether cannot be zero!\");\n            require(msg.value == amount, \"transferred ether is not equal to amount!\");\n        } else {\n            // make sure lockproxy contract will decline any received ether\n            require(msg.value == 0, \"there should be no ether transfer!\");\n            // actively transfer amount of asset from msg.sender to lock_proxy contract\n            require(_transferERC20ToContract(fromAssetHash, _msgSender(), address(this), amount), \"transfer erc20 asset to lock_proxy contract failed!\");\n        }\n        return true;\n    }\n    function _transferFromContract(address toAssetHash, address toAddress, uint256 amount) internal returns (bool) {\n        if (toAssetHash == address(0x0000000000000000000000000000000000000000)) {\n            // toAssetHash === address(0) denotes contract needs to unlock ether to toAddress\n            // convert toAddress from 'address' type to 'address payable' type, then actively transfer ether\n            address(uint160(toAddress)).transfer(amount);\n        } else {\n            // actively transfer amount of asset from msg.sender to lock_proxy contract \n            require(_transferERC20FromContract(toAssetHash, toAddress, amount), \"transfer erc20 asset to lock_proxy contract failed!\");\n        }\n        return true;\n    }\n    \n    function _transferERC20ToContract(address fromAssetHash, address fromAddress, address toAddress, uint256 amount) internal returns (bool) {\n         IERC20 erc20Token = IERC20(fromAssetHash);\n        //  require(erc20Token.transferFrom(fromAddress, toAddress, amount), \"trasnfer ERC20 Token failed!\");\n         erc20Token.safeTransferFrom(fromAddress, toAddress, amount);\n         return true;\n    }\n    function _transferERC20FromContract(address toAssetHash, address toAddress, uint256 amount) internal returns (bool) {\n         IERC20 erc20Token = IERC20(toAssetHash);\n        //  require(erc20Token.transfer(toAddress, amount), \"transfer ERC20 Token failed!\");\n         erc20Token.safeTransfer(toAddress, amount);\n         return true;\n    }\n    \n    function _serializeTxArgs(TxArgs memory args) internal pure returns (bytes memory) {\n        bytes memory buff;\n        buff = abi.encodePacked(\n            ZeroCopySink.WriteVarBytes(args.toAssetHash),\n            ZeroCopySink.WriteVarBytes(args.toAddress),\n            ZeroCopySink.WriteUint255(args.amount)\n            );\n        return buff;\n    }\n\n    function _deserializeTxArgs(bytes memory valueBs) internal pure returns (TxArgs memory) {\n        TxArgs memory args;\n        uint256 off = 0;\n        (args.toAssetHash, off) = ZeroCopySource.NextVarBytes(valueBs, off);\n        (args.toAddress, off) = ZeroCopySource.NextVarBytes(valueBs, off);\n        (args.amount, off) = ZeroCopySource.NextUint255(valueBs, off);\n        return args;\n    }\n}",
  "sourcePath": "/Users/user/Desktop/hashport/eth-contracts/contracts/core/lock_proxy/LockProxyWithLP.sol",
  "compiler": {
    "name": "solc",
    "version": "0.5.16+commit.9c3226ce.Emscripten.clang"
  },
  "schemaVersion": "3.4.5",
  "updatedAt": "2022-03-02T01:42:02.784Z",
  "networkType": "ethereum",
  "devdoc": {
    "methods": {
      "isOwner()": {
        "details": "Returns true if the caller is the current owner."
      },
      "owner()": {
        "details": "Returns the address of the current owner."
      },
      "renounceOwnership()": {
        "details": "Leaves the contract without owner. It will not be possible to call `onlyOwner` functions anymore. Can only be called by the current owner.     * NOTE: Renouncing ownership will leave the contract without an owner, thereby removing any functionality that is only available to the owner."
      },
      "transferOwnership(address)": {
        "details": "Transfers ownership of the contract to a new account (`newOwner`). Can only be called by the current owner."
      }
    }
  },
  "userdoc": {
    "methods": {}
  }
}