{
  "contractName": "OEP4Template",
  "abi": [
    {
      "inputs": [
        {
          "internalType": "address",
          "name": "proxyContractAddress",
          "type": "address"
        }
      ],
      "payable": false,
      "stateMutability": "nonpayable",
      "type": "constructor"
    },
    {
      "anonymous": false,
      "inputs": [
        {
          "indexed": true,
          "internalType": "address",
          "name": "owner",
          "type": "address"
        },
        {
          "indexed": true,
          "internalType": "address",
          "name": "spender",
          "type": "address"
        },
        {
          "indexed": false,
          "internalType": "uint256",
          "name": "value",
          "type": "uint256"
        }
      ],
      "name": "Approval",
      "type": "event"
    },
    {
      "anonymous": false,
      "inputs": [
        {
          "indexed": true,
          "internalType": "address",
          "name": "from",
          "type": "address"
        },
        {
          "indexed": true,
          "internalType": "address",
          "name": "to",
          "type": "address"
        },
        {
          "indexed": false,
          "internalType": "uint256",
          "name": "value",
          "type": "uint256"
        }
      ],
      "name": "Transfer",
      "type": "event"
    },
    {
      "constant": true,
      "inputs": [],
      "name": "Operator",
      "outputs": [
        {
          "internalType": "address",
          "name": "",
          "type": "address"
        }
      ],
      "payable": false,
      "stateMutability": "view",
      "type": "function"
    },
    {
      "constant": true,
      "inputs": [
        {
          "internalType": "address",
          "name": "owner",
          "type": "address"
        },
        {
          "internalType": "address",
          "name": "spender",
          "type": "address"
        }
      ],
      "name": "allowance",
      "outputs": [
        {
          "internalType": "uint256",
          "name": "",
          "type": "uint256"
        }
      ],
      "payable": false,
      "stateMutability": "view",
      "type": "function"
    },
    {
      "constant": false,
      "inputs": [
        {
          "internalType": "address",
          "name": "spender",
          "type": "address"
        },
        {
          "internalType": "uint256",
          "name": "amount",
          "type": "uint256"
        }
      ],
      "name": "approve",
      "outputs": [
        {
          "internalType": "bool",
          "name": "",
          "type": "bool"
        }
      ],
      "payable": false,
      "stateMutability": "nonpayable",
      "type": "function"
    },
    {
      "constant": true,
      "inputs": [
        {
          "internalType": "address",
          "name": "account",
          "type": "address"
        }
      ],
      "name": "balanceOf",
      "outputs": [
        {
          "internalType": "uint256",
          "name": "",
          "type": "uint256"
        }
      ],
      "payable": false,
      "stateMutability": "view",
      "type": "function"
    },
    {
      "constant": true,
      "inputs": [],
      "name": "decimals",
      "outputs": [
        {
          "internalType": "uint8",
          "name": "",
          "type": "uint8"
        }
      ],
      "payable": false,
      "stateMutability": "view",
      "type": "function"
    },
    {
      "constant": false,
      "inputs": [
        {
          "internalType": "address",
          "name": "spender",
          "type": "address"
        },
        {
          "internalType": "uint256",
          "name": "subtractedValue",
          "type": "uint256"
        }
      ],
      "name": "decreaseAllowance",
      "outputs": [
        {
          "internalType": "bool",
          "name": "",
          "type": "bool"
        }
      ],
      "payable": false,
      "stateMutability": "nonpayable",
      "type": "function"
    },
    {
      "constant": false,
      "inputs": [
        {
          "internalType": "address",
          "name": "spender",
          "type": "address"
        },
        {
          "internalType": "uint256",
          "name": "addedValue",
          "type": "uint256"
        }
      ],
      "name": "increaseAllowance",
      "outputs": [
        {
          "internalType": "bool",
          "name": "",
          "type": "bool"
        }
      ],
      "payable": false,
      "stateMutability": "nonpayable",
      "type": "function"
    },
    {
      "constant": true,
      "inputs": [],
      "name": "name",
      "outputs": [
        {
          "internalType": "string",
          "name": "",
          "type": "string"
        }
      ],
      "payable": false,
      "stateMutability": "view",
      "type": "function"
    },
    {
      "constant": true,
      "inputs": [],
      "name": "proxyHash",
      "outputs": [
        {
          "internalType": "address",
          "name": "",
          "type": "address"
        }
      ],
      "payable": false,
      "stateMutability": "view",
      "type": "function"
    },
    {
      "constant": true,
      "inputs": [],
      "name": "symbol",
      "outputs": [
        {
          "internalType": "string",
          "name": "",
          "type": "string"
        }
      ],
      "payable": false,
      "stateMutability": "view",
      "type": "function"
    },
    {
      "constant": true,
      "inputs": [],
      "name": "totalSupply",
      "outputs": [
        {
          "internalType": "uint256",
          "name": "",
          "type": "uint256"
        }
      ],
      "payable": false,
      "stateMutability": "view",
      "type": "function"
    },
    {
      "constant": false,
      "inputs": [
        {
          "internalType": "address",
          "name": "recipient",
          "type": "address"
        },
        {
          "internalType": "uint256",
          "name": "amount",
          "type": "uint256"
        }
      ],
      "name": "transfer",
      "outputs": [
        {
          "internalType": "bool",
          "name": "",
          "type": "bool"
        }
      ],
      "payable": false,
      "stateMutability": "nonpayable",
      "type": "function"
    },
    {
      "constant": false,
      "inputs": [
        {
          "internalType": "address",
          "name": "sender",
          "type": "address"
        },
        {
          "internalType": "address",
          "name": "recipient",
          "type": "address"
        },
        {
          "internalType": "uint256",
          "name": "amount",
          "type": "uint256"
        }
      ],
      "name": "transferFrom",
      "outputs": [
        {
          "internalType": "bool",
          "name": "",
          "type": "bool"
        }
      ],
      "payable": false,
      "stateMutability": "nonpayable",
      "type": "function"
    },
    {
      "constant": false,
      "inputs": [
        {
          "internalType": "address",
          "name": "_proxyHash",
          "type": "address"
        },
        {
          "internalType": "uint256",
          "name": "_amount",
          "type": "uint256"
        }
      ],
      "name": "deletageToProxy",
      "outputs": [
        {
          "internalType": "bool",
          "name": "",
          "type": "bool"
        }
      ],
      "payable": false,
      "stateMutability": "nonpayable",
      "type": "function"
    }
  ],
  "bytecode": "0x60806040523480156200001157600080fd5b5060405162000ff238038062000ff2833981810160405260208110156200003757600080fd5b5051604080518082018252600d81526c4f4550342054656d706c61746560981b60208281019182528351808501909452600584526413d1540d1560da1b9084015281519192916009916200008f916003919062000289565b508151620000a590600490602085019062000289565b506005805460ff191660ff9290921691909117905550620000cf9050306509184e72a00062000121565b620000e26001600160e01b036200022216565b60058054610100600160a81b0319166101006001600160a01b0393841602179055600680546001600160a01b031916929091169190911790556200032b565b6001600160a01b0382166200017d576040805162461bcd60e51b815260206004820152601f60248201527f45524332303a206d696e7420746f20746865207a65726f206164647265737300604482015290519081900360640190fd5b62000199816002546200022760201b62000acf1790919060201c565b6002556001600160a01b03821660009081526020818152604090912054620001cc91839062000acf62000227821b17901c565b6001600160a01b0383166000818152602081815260408083209490945583518581529351929391927fddf252ad1be2c89b69c2b068fc378daa952ba7f163c4a11628f55a4df523b3ef9281900390910190a35050565b335b90565b60008282018381101562000282576040805162461bcd60e51b815260206004820152601b60248201527f536166654d6174683a206164646974696f6e206f766572666c6f770000000000604482015290519081900360640190fd5b9392505050565b828054600181600116156101000203166002900490600052602060002090601f016020900481019282601f10620002cc57805160ff1916838001178555620002fc565b82800160010185558215620002fc579182015b82811115620002fc578251825591602001919060010190620002df565b506200030a9291506200030e565b5090565b6200022491905b808211156200030a576000815560010162000315565b610cb7806200033b6000396000f3fe608060405234801561001057600080fd5b50600436106100ea5760003560e01c806370a082311161008c578063a457c2d711610066578063a457c2d7146102a0578063a9059cbb146102cc578063dd62ed3e146102f8578063f4b30f5c14610326576100ea565b806370a082311461026a578063809cee2f1461029057806395d89b4114610298576100ea565b806323b872dd116100c857806323b872dd146101c65780632dd07fbc146101fc578063313ce56714610220578063395093511461023e576100ea565b806306fdde03146100ef578063095ea7b31461016c57806318160ddd146101ac575b600080fd5b6100f7610352565b6040805160208082528351818301528351919283929083019185019080838360005b83811015610131578181015183820152602001610119565b50505050905090810190601f16801561015e5780820380516001836020036101000a031916815260200191505b509250505060405180910390f35b6101986004803603604081101561018257600080fd5b506001600160a01b0381351690602001356103e8565b604080519115158252519081900360200190f35b6101b4610405565b60408051918252519081900360200190f35b610198600480360360608110156101dc57600080fd5b506001600160a01b0381358116916020810135909116906040013561040b565b610204610498565b604080516001600160a01b039092168252519081900360200190f35b6102286104ac565b6040805160ff9092168252519081900360200190f35b6101986004803603604081101561025457600080fd5b506001600160a01b0381351690602001356104b5565b6101b46004803603602081101561028057600080fd5b50356001600160a01b0316610509565b610204610524565b6100f7610533565b610198600480360360408110156102b657600080fd5b506001600160a01b038135169060200135610594565b610198600480360360408110156102e257600080fd5b506001600160a01b038135169060200135610602565b6101b46004803603604081101561030e57600080fd5b506001600160a01b0381358116916020013516610616565b6101986004803603604081101561033c57600080fd5b506001600160a01b038135169060200135610641565b60038054604080516020601f60026000196101006001881615020190951694909404938401819004810282018101909252828152606093909290918301828280156103de5780601f106103b3576101008083540402835291602001916103de565b820191906000526020600020905b8154815290600101906020018083116103c157829003601f168201915b5050505050905090565b60006103fc6103f56107ec565b84846107f0565b50600192915050565b60025490565b60006104188484846108dc565b61048e846104246107ec565b61048985604051806060016040528060288152602001610b9c602891396001600160a01b038a166000908152600160205260408120906104626107ec565b6001600160a01b03168152602081019190915260400160002054919063ffffffff610a3816565b6107f0565b5060019392505050565b60055461010090046001600160a01b031681565b60055460ff1690565b60006103fc6104c26107ec565b8461048985600160006104d36107ec565b6001600160a01b03908116825260208083019390935260409182016000908120918c16815292529020549063ffffffff610acf16565b6001600160a01b031660009081526020819052604090205490565b6006546001600160a01b031681565b60048054604080516020601f60026000196101006001881615020190951694909404938401819004810282018101909252828152606093909290918301828280156103de5780601f106103b3576101008083540402835291602001916103de565b60006103fc6105a16107ec565b8461048985604051806060016040528060258152602001610c5e60259139600160006105cb6107ec565b6001600160a01b03908116825260208083019390935260409182016000908120918d1681529252902054919063ffffffff610a3816565b60006103fc61060f6107ec565b84846108dc565b6001600160a01b03918216600090815260016020908152604080832093909416825291909152205490565b60055460009061010090046001600160a01b031661065d6107ec565b6001600160a01b0316146106b8576040805162461bcd60e51b815260206004820152601960248201527f4f6e6c79204f70657261746f7220686173206163636573732100000000000000604482015290519081900360640190fd5b6006546001600160a01b03161561071a576006546001600160a01b038481169116146107155760405162461bcd60e51b8152600401808060200182810382526029815260200180610c356029913960400191505060405180910390fd5b610736565b600680546001600160a01b0319166001600160a01b0385161790555b6040805163a9059cbb60e01b81526001600160a01b0385166004820152602481018490529051309163a9059cbb9160448083019260209291908290030181600087803b15801561078557600080fd5b505af1158015610799573d6000803e3d6000fd5b505050506040513d60208110156107af57600080fd5b50516103fc5760405162461bcd60e51b8152600401808060200182810382526028815260200180610be96028913960400191505060405180910390fd5b3390565b6001600160a01b0383166108355760405162461bcd60e51b8152600401808060200182810382526024815260200180610c116024913960400191505060405180910390fd5b6001600160a01b03821661087a5760405162461bcd60e51b8152600401808060200182810382526022815260200180610b546022913960400191505060405180910390fd5b6001600160a01b03808416600081815260016020908152604080832094871680845294825291829020859055815185815291517f8c5be1e5ebec7d5bd14f71427d1e84f3dd0314c0f7b2291e5b200ac8c7c3b9259281900390910190a3505050565b6001600160a01b0383166109215760405162461bcd60e51b8152600401808060200182810382526025815260200180610bc46025913960400191505060405180910390fd5b6001600160a01b0382166109665760405162461bcd60e51b8152600401808060200182810382526023815260200180610b316023913960400191505060405180910390fd5b6109a981604051806060016040528060268152602001610b76602691396001600160a01b038616600090815260208190526040902054919063ffffffff610a3816565b6001600160a01b0380851660009081526020819052604080822093909355908416815220546109de908263ffffffff610acf16565b6001600160a01b038084166000818152602081815260409182902094909455805185815290519193928716927fddf252ad1be2c89b69c2b068fc378daa952ba7f163c4a11628f55a4df523b3ef92918290030190a3505050565b60008184841115610ac75760405162461bcd60e51b81526004018080602001828103825283818151815260200191508051906020019080838360005b83811015610a8c578181015183820152602001610a74565b50505050905090810190601f168015610ab95780820380516001836020036101000a031916815260200191505b509250505060405180910390fd5b505050900390565b600082820183811015610b29576040805162461bcd60e51b815260206004820152601b60248201527f536166654d6174683a206164646974696f6e206f766572666c6f770000000000604482015290519081900360640190fd5b939250505056fe45524332303a207472616e7366657220746f20746865207a65726f206164647265737345524332303a20617070726f766520746f20746865207a65726f206164647265737345524332303a207472616e7366657220616d6f756e7420657863656564732062616c616e636545524332303a207472616e7366657220616d6f756e74206578636565647320616c6c6f77616e636545524332303a207472616e736665722066726f6d20746865207a65726f20616464726573737472616e7366657220746f6b656e20746f2070726f787920636f6e7472616374206661696c65642145524332303a20617070726f76652066726f6d20746865207a65726f206164647265737370726f787920636f6e747261637420616464726573732063616e6e6f74206265206368616e6765642145524332303a2064656372656173656420616c6c6f77616e63652062656c6f77207a65726fa265627a7a723158204a65597741ee97cb5d58c61eefce97f4359e5c4d03047cd21b8e40c90f09e02c64736f6c63430005100032",
  "source": "pragma solidity ^0.5.0;\n\nimport \"./../../../libs/token/ERC20/ERC20Detailed.sol\";\nimport \"./../../../libs/GSN/Context.sol\";\nimport \"./../../../libs/token//ERC20/ERC20.sol\";\nimport \"./../../../libs/math/SafeMath.sol\";\n\ncontract OEP4Template is Context, ERC20, ERC20Detailed {\n    address public Operator;\n    address public proxyHash;\n    constructor (address proxyContractAddress) public ERC20Detailed(\"OEP4 Template\", \"OEP4T\", 9) {\n        _mint(address(this), 10000 * 10 ** 9);\n        Operator = _msgSender();\n        proxyHash = proxyContractAddress;\n    }\n    \n    modifier onlyOperator() {\n        require(_msgSender() == Operator, \"Only Operator has access!\");\n        _;\n    }\n    \n    function deletageToProxy(address _proxyHash, uint256 _amount) onlyOperator public returns (bool) {\n        if (proxyHash != address(0)) {\n            require(_proxyHash == proxyHash, \"proxy contract address cannot be changed!\");\n        } else {\n            proxyHash = _proxyHash;\n        }\n        require(this.transfer(_proxyHash, _amount), \"transfer token to proxy contract failed!\");\n        return true;\n        \n    }\n}",
  "sourcePath": "/Users/user/Desktop/hashport/eth-contracts/contracts/core/assets/oep4_template/OEP4Template.sol",
  "compiler": {
    "name": "solc",
    "version": "0.5.16+commit.9c3226ce.Emscripten.clang"
  },
  "schemaVersion": "3.4.5",
  "updatedAt": "2022-02-24T02:12:45.117Z",
  "devdoc": {
    "methods": {
      "allowance(address,address)": {
        "details": "See {IERC20-allowance}."
      },
      "approve(address,uint256)": {
        "details": "See {IERC20-approve}.     * Requirements:     * - `spender` cannot be the zero address."
      },
      "balanceOf(address)": {
        "details": "See {IERC20-balanceOf}."
      },
      "decimals()": {
        "details": "Returns the number of decimals used to get its user representation. For example, if `decimals` equals `2`, a balance of `505` tokens should be displayed to a user as `5,05` (`505 / 10 ** 2`).     * Tokens usually opt for a value of 18, imitating the relationship between Ether and Wei.     * NOTE: This information is only used for _display_ purposes: it in no way affects any of the arithmetic of the contract, including {IERC20-balanceOf} and {IERC20-transfer}."
      },
      "decreaseAllowance(address,uint256)": {
        "details": "Atomically decreases the allowance granted to `spender` by the caller.     * This is an alternative to {approve} that can be used as a mitigation for problems described in {IERC20-approve}.     * Emits an {Approval} event indicating the updated allowance.     * Requirements:     * - `spender` cannot be the zero address. - `spender` must have allowance for the caller of at least `subtractedValue`."
      },
      "increaseAllowance(address,uint256)": {
        "details": "Atomically increases the allowance granted to `spender` by the caller.     * This is an alternative to {approve} that can be used as a mitigation for problems described in {IERC20-approve}.     * Emits an {Approval} event indicating the updated allowance.     * Requirements:     * - `spender` cannot be the zero address."
      },
      "name()": {
        "details": "Returns the name of the token."
      },
      "symbol()": {
        "details": "Returns the symbol of the token, usually a shorter version of the name."
      },
      "totalSupply()": {
        "details": "See {IERC20-totalSupply}."
      },
      "transfer(address,uint256)": {
        "details": "See {IERC20-transfer}.     * Requirements:     * - `recipient` cannot be the zero address. - the caller must have a balance of at least `amount`."
      },
      "transferFrom(address,address,uint256)": {
        "details": "See {IERC20-transferFrom}.     * Emits an {Approval} event indicating the updated allowance. This is not required by the EIP. See the note at the beginning of {ERC20};     * Requirements: - `sender` and `recipient` cannot be the zero address. - `sender` must have a balance of at least `amount`. - the caller must have allowance for `sender`'s tokens of at least `amount`."
      }
    }
  },
  "userdoc": {
    "methods": {}
  }
}