{
  "contractName": "PolyWrapperV1",
  "abi": [
    {
      "inputs": [
        {
          "internalType": "address",
          "name": "_owner",
          "type": "address"
        },
        {
          "internalType": "uint256",
          "name": "_chainId",
          "type": "uint256"
        }
      ],
      "payable": false,
      "stateMutability": "nonpayable",
      "type": "constructor"
    },
    {
      "anonymous": false,
      "inputs": [
        {
          "indexed": true,
          "internalType": "address",
          "name": "previousOwner",
          "type": "address"
        },
        {
          "indexed": true,
          "internalType": "address",
          "name": "newOwner",
          "type": "address"
        }
      ],
      "name": "OwnershipTransferred",
      "type": "event"
    },
    {
      "anonymous": false,
      "inputs": [
        {
          "indexed": false,
          "internalType": "address",
          "name": "account",
          "type": "address"
        }
      ],
      "name": "Paused",
      "type": "event"
    },
    {
      "anonymous": false,
      "inputs": [
        {
          "indexed": true,
          "internalType": "address",
          "name": "fromAsset",
          "type": "address"
        },
        {
          "indexed": true,
          "internalType": "address",
          "name": "sender",
          "type": "address"
        },
        {
          "indexed": false,
          "internalType": "uint64",
          "name": "toChainId",
          "type": "uint64"
        },
        {
          "indexed": false,
          "internalType": "bytes",
          "name": "toAddress",
          "type": "bytes"
        },
        {
          "indexed": false,
          "internalType": "uint256",
          "name": "net",
          "type": "uint256"
        },
        {
          "indexed": false,
          "internalType": "uint256",
          "name": "fee",
          "type": "uint256"
        },
        {
          "indexed": false,
          "internalType": "uint256",
          "name": "id",
          "type": "uint256"
        }
      ],
      "name": "PolyWrapperLock",
      "type": "event"
    },
    {
      "anonymous": false,
      "inputs": [
        {
          "indexed": true,
          "internalType": "address",
          "name": "fromAsset",
          "type": "address"
        },
        {
          "indexed": true,
          "internalType": "bytes",
          "name": "txHash",
          "type": "bytes"
        },
        {
          "indexed": true,
          "internalType": "address",
          "name": "sender",
          "type": "address"
        },
        {
          "indexed": false,
          "internalType": "uint256",
          "name": "efee",
          "type": "uint256"
        }
      ],
      "name": "PolyWrapperSpeedUp",
      "type": "event"
    },
    {
      "anonymous": false,
      "inputs": [
        {
          "indexed": false,
          "internalType": "address",
          "name": "account",
          "type": "address"
        }
      ],
      "name": "Unpaused",
      "type": "event"
    },
    {
      "constant": true,
      "inputs": [],
      "name": "chainId",
      "outputs": [
        {
          "internalType": "uint256",
          "name": "",
          "type": "uint256"
        }
      ],
      "payable": false,
      "stateMutability": "view",
      "type": "function"
    },
    {
      "constant": true,
      "inputs": [],
      "name": "feeCollector",
      "outputs": [
        {
          "internalType": "address",
          "name": "",
          "type": "address"
        }
      ],
      "payable": false,
      "stateMutability": "view",
      "type": "function"
    },
    {
      "constant": true,
      "inputs": [],
      "name": "isOwner",
      "outputs": [
        {
          "internalType": "bool",
          "name": "",
          "type": "bool"
        }
      ],
      "payable": false,
      "stateMutability": "view",
      "type": "function"
    },
    {
      "constant": true,
      "inputs": [],
      "name": "lockProxy",
      "outputs": [
        {
          "internalType": "contract ILockProxy",
          "name": "",
          "type": "address"
        }
      ],
      "payable": false,
      "stateMutability": "view",
      "type": "function"
    },
    {
      "constant": true,
      "inputs": [],
      "name": "owner",
      "outputs": [
        {
          "internalType": "address",
          "name": "",
          "type": "address"
        }
      ],
      "payable": false,
      "stateMutability": "view",
      "type": "function"
    },
    {
      "constant": true,
      "inputs": [],
      "name": "paused",
      "outputs": [
        {
          "internalType": "bool",
          "name": "",
          "type": "bool"
        }
      ],
      "payable": false,
      "stateMutability": "view",
      "type": "function"
    },
    {
      "constant": false,
      "inputs": [],
      "name": "renounceOwnership",
      "outputs": [],
      "payable": false,
      "stateMutability": "nonpayable",
      "type": "function"
    },
    {
      "constant": false,
      "inputs": [
        {
          "internalType": "address",
          "name": "newOwner",
          "type": "address"
        }
      ],
      "name": "transferOwnership",
      "outputs": [],
      "payable": false,
      "stateMutability": "nonpayable",
      "type": "function"
    },
    {
      "constant": false,
      "inputs": [
        {
          "internalType": "address",
          "name": "collector",
          "type": "address"
        }
      ],
      "name": "setFeeCollector",
      "outputs": [],
      "payable": false,
      "stateMutability": "nonpayable",
      "type": "function"
    },
    {
      "constant": false,
      "inputs": [
        {
          "internalType": "address",
          "name": "_lockProxy",
          "type": "address"
        }
      ],
      "name": "setLockProxy",
      "outputs": [],
      "payable": false,
      "stateMutability": "nonpayable",
      "type": "function"
    },
    {
      "constant": false,
      "inputs": [],
      "name": "pause",
      "outputs": [],
      "payable": false,
      "stateMutability": "nonpayable",
      "type": "function"
    },
    {
      "constant": false,
      "inputs": [],
      "name": "unpause",
      "outputs": [],
      "payable": false,
      "stateMutability": "nonpayable",
      "type": "function"
    },
    {
      "constant": false,
      "inputs": [
        {
          "internalType": "address",
          "name": "token",
          "type": "address"
        }
      ],
      "name": "extractFee",
      "outputs": [],
      "payable": false,
      "stateMutability": "nonpayable",
      "type": "function"
    },
    {
      "constant": false,
      "inputs": [
        {
          "internalType": "address",
          "name": "fromAsset",
          "type": "address"
        },
        {
          "internalType": "uint64",
          "name": "toChainId",
          "type": "uint64"
        },
        {
          "internalType": "bytes",
          "name": "toAddress",
          "type": "bytes"
        },
        {
          "internalType": "uint256",
          "name": "amount",
          "type": "uint256"
        },
        {
          "internalType": "uint256",
          "name": "fee",
          "type": "uint256"
        },
        {
          "internalType": "uint256",
          "name": "id",
          "type": "uint256"
        }
      ],
      "name": "lock",
      "outputs": [],
      "payable": true,
      "stateMutability": "payable",
      "type": "function"
    },
    {
      "constant": false,
      "inputs": [
        {
          "internalType": "address",
          "name": "fromAsset",
          "type": "address"
        },
        {
          "internalType": "bytes",
          "name": "txHash",
          "type": "bytes"
        },
        {
          "internalType": "uint256",
          "name": "fee",
          "type": "uint256"
        }
      ],
      "name": "speedUp",
      "outputs": [],
      "payable": true,
      "stateMutability": "payable",
      "type": "function"
    }
  ],
  "bytecode": "0x60806040523480156200001157600080fd5b5060405162001b1038038062001b10833981810160405260408110156200003757600080fd5b5080516020909101516000620000556001600160e01b03620000fc16565b600080546001600160a01b0319166001600160a01b03831690811782556040519293509160008051602062001af0833981519152908290a3506000805461ffff60a01b1916600160a81b17905580620000de576040805162461bcd60e51b8152602060048201526006602482015265085b1959d85b60d21b604482015290519081900360640190fd5b620000f2826001600160e01b036200010016565b600155506200023c565b3390565b620001136001600160e01b036200017c16565b62000165576040805162461bcd60e51b815260206004820181905260248201527f4f776e61626c653a2063616c6c6572206973206e6f7420746865206f776e6572604482015290519081900360640190fd5b62000179816001600160e01b03620001ab16565b50565b600080546001600160a01b03166200019c6001600160e01b03620000fc16565b6001600160a01b031614905090565b6001600160a01b038116620001f25760405162461bcd60e51b815260040180806020018281038252602681526020018062001aca6026913960400191505060405180910390fd5b600080546040516001600160a01b038085169392169160008051602062001af083398151915291a3600080546001600160a01b0319166001600160a01b0392909216919091179055565b61187e806200024c6000396000f3fe6080604052600436106100e85760003560e01c80638da5cb5b1161008a578063a42dce8011610059578063a42dce801461030f578063c415b95c14610342578063d3ed7c7614610357578063f2fde38b1461040f576100e8565b80638da5cb5b1461028d5780638f32d59b146102be5780639a8a0592146102d35780639d4dc021146102fa576100e8565b806360de1a9b116100c657806360de1a9b146101605780636f2b6ee614610230578063715018a6146102635780638456cb5914610278576100e8565b80631745399d146100ed5780633f4ba83a146101225780635c975abb14610137575b600080fd5b3480156100f957600080fd5b506101206004803603602081101561011057600080fd5b50356001600160a01b0316610442565b005b34801561012e57600080fd5b5061012061056a565b34801561014357600080fd5b5061014c6105bb565b604080519115158252519081900360200190f35b610120600480360360c081101561017657600080fd5b6001600160a01b038235169167ffffffffffffffff602082013516918101906060810160408201356401000000008111156101b057600080fd5b8201836020820111156101c257600080fd5b803590602001918460018302840111640100000000831117156101e457600080fd5b91908080601f01602080910402602001604051908101604052809392919081815260200183838082843760009201919091525092955050823593505050602081013590604001356105cb565b34801561023c57600080fd5b506101206004803603602081101561025357600080fd5b50356001600160a01b03166108f3565b34801561026f57600080fd5b50610120610a23565b34801561028457600080fd5b50610120610ab4565b34801561029957600080fd5b506102a2610b03565b604080516001600160a01b039092168252519081900360200190f35b3480156102ca57600080fd5b5061014c610b12565b3480156102df57600080fd5b506102e8610b36565b60408051918252519081900360200190f35b34801561030657600080fd5b506102a2610b3c565b34801561031b57600080fd5b506101206004803603602081101561033257600080fd5b50356001600160a01b0316610b4b565b34801561034e57600080fd5b506102a2610bff565b6101206004803603606081101561036d57600080fd5b6001600160a01b03823516919081019060408101602082013564010000000081111561039857600080fd5b8201836020820111156103aa57600080fd5b803590602001918460018302840111640100000000831117156103cc57600080fd5b91908080601f0160208091040260200160405190810160405280939291908181526020018383808284376000920191909152509295505091359250610c0e915050565b34801561041b57600080fd5b506101206004803603602081101561043257600080fd5b50356001600160a01b0316610d8b565b6002546001600160a01b03163314610491576040805162461bcd60e51b815260206004820152600d60248201526c10b332b2a1b7b63632b1ba37b960991b604482015290519081900360640190fd5b6001600160a01b0381166104d15760405133904780156108fc02916000818181858888f193505050501580156104cb573d6000803e3d6000fd5b50610567565b600254604080516370a0823160e01b81523060048201529051610567926001600160a01b0390811692908516916370a0823191602480820192602092909190829003018186803b15801561052457600080fd5b505afa158015610538573d6000803e3d6000fd5b505050506040513d602081101561054e57600080fd5b50516001600160a01b038416919063ffffffff610ddb16565b50565b610572610b12565b6105b1576040805162461bcd60e51b815260206004820181905260248201526000805160206117ca833981519152604482015290519081900360640190fd5b6105b9610e32565b565b600054600160a01b900460ff1690565b600054600160a81b900460ff16610629576040805162461bcd60e51b815260206004820152601f60248201527f5265656e7472616e637947756172643a207265656e7472616e742063616c6c00604482015290519081900360640190fd5b6000805460ff60a81b191690819055600160a01b900460ff1615610687576040805162461bcd60e51b815260206004820152601060248201526f14185d5cd8589b194e881c185d5cd95960821b604482015290519081900360640190fd5b6001548567ffffffffffffffff16141580156106ac575067ffffffffffffffff851615155b6106ea576040805162461bcd60e51b815260206004820152600a602482015269085d1bd0da185a5b925960b21b604482015290519081900360640190fd5b818311610735576040805162461bcd60e51b8152602060048201526014602482015273616d6f756e74206c657373207468616e2066656560601b604482015290519081900360640190fd5b835161077a576040805162461bcd60e51b815260206004820152600f60248201526e656d70747920746f4164647265737360881b604482015290519081900360640190fd5b60148401516001600160a01b0381166107cb576040805162461bcd60e51b815260206004820152600e60248201526d7a65726f20746f4164647265737360901b604482015290519081900360640190fd5b6107d58785610eda565b6107f08787876107eb888863ffffffff610f5516565b610f9e565b336001600160a01b0388167f2b0591052cc6602e870d3994f0a1b173fdac98c215cb3b0baf84eaca5a0aa81e888861082e898963ffffffff610f5516565b8888604051808667ffffffffffffffff1667ffffffffffffffff16815260200180602001858152602001848152602001838152602001828103825286818151815260200191508051906020019080838360005b83811015610899578181015183820152602001610881565b50505050905090810190601f1680156108c65780820380516001836020036101000a031916815260200191505b50965050505050505060405180910390a350506000805460ff60a81b1916600160a81b1790555050505050565b6108fb610b12565b61093a576040805162461bcd60e51b815260206004820181905260248201526000805160206117ca833981519152604482015290519081900360640190fd5b6001600160a01b03811661094d57600080fd5b600380546001600160a01b0319166001600160a01b0383811691909117918290556040805163d798f88160e01b815290516000939092169163d798f88191600480820192602092909190829003018186803b1580156109ab57600080fd5b505afa1580156109bf573d6000803e3d6000fd5b505050506040513d60208110156109d557600080fd5b50516001600160a01b03161415610567576040805162461bcd60e51b815260206004820152600d60248201526c6e6f74206c6f636b70726f787960981b604482015290519081900360640190fd5b610a2b610b12565b610a6a576040805162461bcd60e51b815260206004820181905260248201526000805160206117ca833981519152604482015290519081900360640190fd5b600080546040516001600160a01b03909116907f8be0079c531659141344cd1fd0a4f28419497f9722a3daafe3b4186f6b6457e0908390a3600080546001600160a01b0319169055565b610abc610b12565b610afb576040805162461bcd60e51b815260206004820181905260248201526000805160206117ca833981519152604482015290519081900360640190fd5b6105b9611286565b6000546001600160a01b031690565b600080546001600160a01b0316610b27611310565b6001600160a01b031614905090565b60015481565b6003546001600160a01b031681565b610b53610b12565b610b92576040805162461bcd60e51b815260206004820181905260248201526000805160206117ca833981519152604482015290519081900360640190fd5b6001600160a01b038116610bdd576040805162461bcd60e51b815260206004820152600d60248201526c656d747079206164647265737360981b604482015290519081900360640190fd5b600280546001600160a01b0319166001600160a01b0392909216919091179055565b6002546001600160a01b031681565b600054600160a81b900460ff16610c6c576040805162461bcd60e51b815260206004820152601f60248201527f5265656e7472616e637947756172643a207265656e7472616e742063616c6c00604482015290519081900360640190fd5b6000805460ff60a81b191690819055600160a01b900460ff1615610cca576040805162461bcd60e51b815260206004820152601060248201526f14185d5cd8589b194e881c185d5cd95960821b604482015290519081900360640190fd5b610cd48382610eda565b336001600160a01b0316826040518082805190602001908083835b60208310610d0e5780518252601f199092019160209182019101610cef565b51815160209384036101000a60001901801990921691161790526040805192909401829003822088835293519395506001600160a01b038a1694507ff6579aef3e0d086d986c5d6972659f8a0d8602ef7945b054be1b88e088773ef69391829003019150a450506000805460ff60a81b1916600160a81b17905550565b610d93610b12565b610dd2576040805162461bcd60e51b815260206004820181905260248201526000805160206117ca833981519152604482015290519081900360640190fd5b61056781611314565b604080516001600160a01b038416602482015260448082018490528251808303909101815260649091019091526020810180516001600160e01b031663a9059cbb60e01b179052610e2d9084906113b4565b505050565b600054600160a01b900460ff16610e87576040805162461bcd60e51b815260206004820152601460248201527314185d5cd8589b194e881b9bdd081c185d5cd95960621b604482015290519081900360640190fd5b6000805460ff60a01b191690557f5db9ee0a495bf2e6ff9c91a7834c1ba4fdd244a5e8aa4e537bd38aeae4b073aa610ebd611310565b604080516001600160a01b039092168252519081900360200190a1565b6001600160a01b038216610f3657803414610f31576040805162461bcd60e51b815260206004820152601260248201527134b739bab33334b1b4b2b73a1032ba3432b960711b604482015290519081900360640190fd5b610f51565b610f516001600160a01b03831633308463ffffffff61156316565b5050565b6000610f9783836040518060400160405280601e81526020017f536166654d6174683a207375627472616374696f6e206f766572666c6f7700008152506115bd565b9392505050565b6001600160a01b0384166110f8576003546040516384a6d05560e01b81526001600160a01b038681166004830190815267ffffffffffffffff871660248401526064830185905260806044840190815286516084850152865192909416936384a6d0559386938a938a938a93879360a490910190602086019080838360005b8381101561103557818101518382015260200161101d565b50505050905090810190601f1680156110625780820380516001836020036101000a031916815260200191505b50955050505050506020604051808303818588803b15801561108357600080fd5b505af1158015611097573d6000803e3d6000fd5b50505050506040513d60208110156110ae57600080fd5b50516110f3576040805162461bcd60e51b815260206004820152600f60248201526e1b1bd8dac8195d1a195c8819985a5b608a1b604482015290519081900360640190fd5b611280565b600354611119906001600160a01b038681169116600063ffffffff61165416565b600354611139906001600160a01b0386811691168363ffffffff61165416565b6003546040516384a6d05560e01b81526001600160a01b038681166004830190815267ffffffffffffffff871660248401526064830185905260806044840190815286516084850152865192909416936384a6d0559389938993899389939192909160a40190602086019080838360005b838110156111c25781810151838201526020016111aa565b50505050905090810190601f1680156111ef5780820380516001836020036101000a031916815260200191505b5095505050505050602060405180830381600087803b15801561121157600080fd5b505af1158015611225573d6000803e3d6000fd5b505050506040513d602081101561123b57600080fd5b5051611280576040805162461bcd60e51b815260206004820152600f60248201526e1b1bd8dac8195c98cc8c0819985a5b608a1b604482015290519081900360640190fd5b50505050565b600054600160a01b900460ff16156112d8576040805162461bcd60e51b815260206004820152601060248201526f14185d5cd8589b194e881c185d5cd95960821b604482015290519081900360640190fd5b6000805460ff60a01b1916600160a01b1790557f62e78cea01bee320cd4e420270b5ea74000d11b0c9f74754ebdbfc544b05a258610ebd5b3390565b6001600160a01b0381166113595760405162461bcd60e51b81526004018080602001828103825260268152602001806117a46026913960400191505060405180910390fd5b600080546040516001600160a01b03808516939216917f8be0079c531659141344cd1fd0a4f28419497f9722a3daafe3b4186f6b6457e091a3600080546001600160a01b0319166001600160a01b0392909216919091179055565b6113bd82611767565b61140e576040805162461bcd60e51b815260206004820152601f60248201527f5361666545524332303a2063616c6c20746f206e6f6e2d636f6e747261637400604482015290519081900360640190fd5b60006060836001600160a01b0316836040518082805190602001908083835b6020831061144c5780518252601f19909201916020918201910161142d565b6001836020036101000a0380198251168184511680821785525050505050509050019150506000604051808303816000865af19150503d80600081146114ae576040519150601f19603f3d011682016040523d82523d6000602084013e6114b3565b606091505b50915091508161150a576040805162461bcd60e51b815260206004820181905260248201527f5361666545524332303a206c6f772d6c6576656c2063616c6c206661696c6564604482015290519081900360640190fd5b8051156112805780806020019051602081101561152657600080fd5b50516112805760405162461bcd60e51b815260040180806020018281038252602a8152602001806117ea602a913960400191505060405180910390fd5b604080516001600160a01b0385811660248301528416604482015260648082018490528251808303909101815260849091019091526020810180516001600160e01b03166323b872dd60e01b1790526112809085906113b4565b6000818484111561164c5760405162461bcd60e51b81526004018080602001828103825283818151815260200191508051906020019080838360005b838110156116115781810151838201526020016115f9565b50505050905090810190601f16801561163e5780820380516001836020036101000a031916815260200191505b509250505060405180910390fd5b505050900390565b8015806116da575060408051636eb1769f60e11b81523060048201526001600160a01b03848116602483015291519185169163dd62ed3e91604480820192602092909190829003018186803b1580156116ac57600080fd5b505afa1580156116c0573d6000803e3d6000fd5b505050506040513d60208110156116d657600080fd5b5051155b6117155760405162461bcd60e51b81526004018080602001828103825260368152602001806118146036913960400191505060405180910390fd5b604080516001600160a01b038416602482015260448082018490528251808303909101815260649091019091526020810180516001600160e01b031663095ea7b360e01b179052610e2d9084906113b4565b6000813f7fc5d2460186f7233c927e7db2dcc703c0e500b653ca82273b7bfad8045d85a470811580159061179b5750808214155b94935050505056fe4f776e61626c653a206e6577206f776e657220697320746865207a65726f20616464726573734f776e61626c653a2063616c6c6572206973206e6f7420746865206f776e65725361666545524332303a204552433230206f7065726174696f6e20646964206e6f7420737563636565645361666545524332303a20617070726f76652066726f6d206e6f6e2d7a65726f20746f206e6f6e2d7a65726f20616c6c6f77616e6365a265627a7a72315820e1c7cc4a9debafbc2e639e0bfd31582402dc9b04b63352a0a34e3e6de85ef9ad64736f6c634300051000324f776e61626c653a206e6577206f776e657220697320746865207a65726f20616464726573738be0079c531659141344cd1fd0a4f28419497f9722a3daafe3b4186f6b6457e0",
  "source": "// SPDX-License-Identifier: UNLICENSED\npragma solidity ^0.5.0;\n\nimport \"../../libs/token/ERC20/SafeERC20.sol\";\nimport \"../../libs/token/ERC20/IERC20.sol\";\nimport \"../../libs/ownership/Ownable.sol\";\nimport \"../../libs/utils/ReentrancyGuard.sol\";\nimport \"../../libs/math/SafeMath.sol\";\nimport \"../../libs/lifecycle/Pausable.sol\";\n\nimport \"./interfaces/ILockProxy.sol\";\n\ncontract PolyWrapperV1 is Ownable, Pausable, ReentrancyGuard {\n    using SafeMath for uint;\n    using SafeERC20 for IERC20;\n\n    uint public chainId;\n    address public feeCollector;\n\n    ILockProxy public lockProxy;\n\n    constructor(address _owner, uint _chainId) public {\n        require(_chainId != 0, \"!legal\");\n        transferOwnership(_owner);\n        chainId = _chainId;\n    }\n\n    function setFeeCollector(address collector) external onlyOwner {\n        require(collector != address(0), \"emtpy address\");\n        feeCollector = collector;\n    }\n\n\n    function setLockProxy(address _lockProxy) external onlyOwner {\n        require(_lockProxy != address(0));\n        lockProxy = ILockProxy(_lockProxy);\n        require(lockProxy.managerProxyContract() != address(0), \"not lockproxy\");\n    }\n\n    function pause() external onlyOwner {\n        _pause();\n    }\n\n    function unpause() external onlyOwner {\n        _unpause();\n    }\n\n\n    function extractFee(address token) external {\n        require(msg.sender == feeCollector, \"!feeCollector\");\n        if (token == address(0)) {\n            msg.sender.transfer(address(this).balance);\n        } else {\n            IERC20(token).safeTransfer(feeCollector, IERC20(token).balanceOf(address(this)));\n        }\n    }\n    \n    function lock(address fromAsset, uint64 toChainId, bytes memory toAddress, uint amount, uint fee, uint id) public payable nonReentrant whenNotPaused {\n        \n        require(toChainId != chainId && toChainId != 0, \"!toChainId\");\n        require(amount > fee, \"amount less than fee\");\n        require(toAddress.length !=0, \"empty toAddress\");\n        address addr;\n        assembly { addr := mload(add(toAddress,0x14)) }\n        require(addr != address(0),\"zero toAddress\");\n        \n        _pull(fromAsset, amount);\n\n        _push(fromAsset, toChainId, toAddress, amount.sub(fee));\n\n        emit PolyWrapperLock(fromAsset, msg.sender, toChainId, toAddress, amount.sub(fee), fee, id);\n    }\n\n    function speedUp(address fromAsset, bytes memory txHash, uint fee) public payable nonReentrant whenNotPaused {\n        _pull(fromAsset, fee);\n        emit PolyWrapperSpeedUp(fromAsset, txHash, msg.sender, fee);\n    }\n\n    function _pull(address fromAsset, uint amount) internal {\n        if (fromAsset == address(0)) {\n            require(msg.value == amount, \"insufficient ether\");\n        } else {\n            IERC20(fromAsset).safeTransferFrom(msg.sender, address(this), amount);\n        }\n    }\n\n    function _push(address fromAsset, uint64 toChainId, bytes memory toAddress, uint amount) internal {\n        if (fromAsset == address(0)) {\n            require(lockProxy.lock.value(amount)(fromAsset, toChainId, toAddress, amount), \"lock ether fail\");\n        } else {\n            IERC20(fromAsset).safeApprove(address(lockProxy), 0);\n            IERC20(fromAsset).safeApprove(address(lockProxy), amount);\n            require(lockProxy.lock(fromAsset, toChainId, toAddress, amount), \"lock erc20 fail\");\n        }\n    }\n\n    event PolyWrapperLock(address indexed fromAsset, address indexed sender, uint64 toChainId, bytes toAddress, uint net, uint fee, uint id);\n    event PolyWrapperSpeedUp(address indexed fromAsset, bytes indexed txHash, address indexed sender, uint efee);\n\n}\n",
  "sourcePath": "/Users/user/Desktop/hashport/eth-contracts/contracts/core/wrapper/PolyWrapper_v1.sol",
  "compiler": {
    "name": "solc",
    "version": "0.5.16+commit.9c3226ce.Emscripten.clang"
  },
  "schemaVersion": "3.4.5",
  "updatedAt": "2022-03-02T01:42:02.805Z",
  "networkType": "ethereum",
  "devdoc": {
    "methods": {
      "isOwner()": {
        "details": "Returns true if the caller is the current owner."
      },
      "owner()": {
        "details": "Returns the address of the current owner."
      },
      "paused()": {
        "details": "Returns true if the contract is paused, and false otherwise."
      },
      "renounceOwnership()": {
        "details": "Leaves the contract without owner. It will not be possible to call `onlyOwner` functions anymore. Can only be called by the current owner.     * NOTE: Renouncing ownership will leave the contract without an owner, thereby removing any functionality that is only available to the owner."
      },
      "transferOwnership(address)": {
        "details": "Transfers ownership of the contract to a new account (`newOwner`). Can only be called by the current owner."
      }
    }
  },
  "userdoc": {
    "methods": {}
  }
}