{
  "contractName": "PolyWrapperV2",
  "abi": [
    {
      "inputs": [
        {
          "internalType": "address",
          "name": "_owner",
          "type": "address"
        },
        {
          "internalType": "uint256",
          "name": "_chainId",
          "type": "uint256"
        }
      ],
      "payable": false,
      "stateMutability": "nonpayable",
      "type": "constructor"
    },
    {
      "anonymous": false,
      "inputs": [
        {
          "indexed": true,
          "internalType": "address",
          "name": "previousOwner",
          "type": "address"
        },
        {
          "indexed": true,
          "internalType": "address",
          "name": "newOwner",
          "type": "address"
        }
      ],
      "name": "OwnershipTransferred",
      "type": "event"
    },
    {
      "anonymous": false,
      "inputs": [
        {
          "indexed": false,
          "internalType": "address",
          "name": "account",
          "type": "address"
        }
      ],
      "name": "Paused",
      "type": "event"
    },
    {
      "anonymous": false,
      "inputs": [
        {
          "indexed": true,
          "internalType": "address",
          "name": "fromAsset",
          "type": "address"
        },
        {
          "indexed": true,
          "internalType": "address",
          "name": "sender",
          "type": "address"
        },
        {
          "indexed": false,
          "internalType": "uint64",
          "name": "toChainId",
          "type": "uint64"
        },
        {
          "indexed": false,
          "internalType": "bytes",
          "name": "toAddress",
          "type": "bytes"
        },
        {
          "indexed": false,
          "internalType": "uint256",
          "name": "net",
          "type": "uint256"
        },
        {
          "indexed": false,
          "internalType": "uint256",
          "name": "fee",
          "type": "uint256"
        },
        {
          "indexed": false,
          "internalType": "uint256",
          "name": "id",
          "type": "uint256"
        }
      ],
      "name": "PolyWrapperLock",
      "type": "event"
    },
    {
      "anonymous": false,
      "inputs": [
        {
          "indexed": true,
          "internalType": "address",
          "name": "fromAsset",
          "type": "address"
        },
        {
          "indexed": true,
          "internalType": "bytes",
          "name": "txHash",
          "type": "bytes"
        },
        {
          "indexed": true,
          "internalType": "address",
          "name": "sender",
          "type": "address"
        },
        {
          "indexed": false,
          "internalType": "uint256",
          "name": "efee",
          "type": "uint256"
        }
      ],
      "name": "PolyWrapperSpeedUp",
      "type": "event"
    },
    {
      "anonymous": false,
      "inputs": [
        {
          "indexed": false,
          "internalType": "address",
          "name": "account",
          "type": "address"
        }
      ],
      "name": "Unpaused",
      "type": "event"
    },
    {
      "constant": true,
      "inputs": [],
      "name": "chainId",
      "outputs": [
        {
          "internalType": "uint256",
          "name": "",
          "type": "uint256"
        }
      ],
      "payable": false,
      "stateMutability": "view",
      "type": "function"
    },
    {
      "constant": true,
      "inputs": [],
      "name": "feeCollector",
      "outputs": [
        {
          "internalType": "address",
          "name": "",
          "type": "address"
        }
      ],
      "payable": false,
      "stateMutability": "view",
      "type": "function"
    },
    {
      "constant": true,
      "inputs": [],
      "name": "isOwner",
      "outputs": [
        {
          "internalType": "bool",
          "name": "",
          "type": "bool"
        }
      ],
      "payable": false,
      "stateMutability": "view",
      "type": "function"
    },
    {
      "constant": true,
      "inputs": [],
      "name": "lockProxy",
      "outputs": [
        {
          "internalType": "contract ILockProxy",
          "name": "",
          "type": "address"
        }
      ],
      "payable": false,
      "stateMutability": "view",
      "type": "function"
    },
    {
      "constant": true,
      "inputs": [],
      "name": "owner",
      "outputs": [
        {
          "internalType": "address",
          "name": "",
          "type": "address"
        }
      ],
      "payable": false,
      "stateMutability": "view",
      "type": "function"
    },
    {
      "constant": true,
      "inputs": [],
      "name": "paused",
      "outputs": [
        {
          "internalType": "bool",
          "name": "",
          "type": "bool"
        }
      ],
      "payable": false,
      "stateMutability": "view",
      "type": "function"
    },
    {
      "constant": false,
      "inputs": [],
      "name": "renounceOwnership",
      "outputs": [],
      "payable": false,
      "stateMutability": "nonpayable",
      "type": "function"
    },
    {
      "constant": false,
      "inputs": [
        {
          "internalType": "address",
          "name": "newOwner",
          "type": "address"
        }
      ],
      "name": "transferOwnership",
      "outputs": [],
      "payable": false,
      "stateMutability": "nonpayable",
      "type": "function"
    },
    {
      "constant": false,
      "inputs": [
        {
          "internalType": "address",
          "name": "collector",
          "type": "address"
        }
      ],
      "name": "setFeeCollector",
      "outputs": [],
      "payable": false,
      "stateMutability": "nonpayable",
      "type": "function"
    },
    {
      "constant": false,
      "inputs": [
        {
          "internalType": "address",
          "name": "_lockProxy",
          "type": "address"
        }
      ],
      "name": "setLockProxy",
      "outputs": [],
      "payable": false,
      "stateMutability": "nonpayable",
      "type": "function"
    },
    {
      "constant": false,
      "inputs": [],
      "name": "pause",
      "outputs": [],
      "payable": false,
      "stateMutability": "nonpayable",
      "type": "function"
    },
    {
      "constant": false,
      "inputs": [],
      "name": "unpause",
      "outputs": [],
      "payable": false,
      "stateMutability": "nonpayable",
      "type": "function"
    },
    {
      "constant": false,
      "inputs": [
        {
          "internalType": "address",
          "name": "token",
          "type": "address"
        }
      ],
      "name": "extractFee",
      "outputs": [],
      "payable": false,
      "stateMutability": "nonpayable",
      "type": "function"
    },
    {
      "constant": false,
      "inputs": [
        {
          "internalType": "address",
          "name": "fromAsset",
          "type": "address"
        },
        {
          "internalType": "uint64",
          "name": "toChainId",
          "type": "uint64"
        },
        {
          "internalType": "bytes",
          "name": "toAddress",
          "type": "bytes"
        },
        {
          "internalType": "uint256",
          "name": "amount",
          "type": "uint256"
        },
        {
          "internalType": "uint256",
          "name": "fee",
          "type": "uint256"
        },
        {
          "internalType": "uint256",
          "name": "id",
          "type": "uint256"
        }
      ],
      "name": "lock",
      "outputs": [],
      "payable": true,
      "stateMutability": "payable",
      "type": "function"
    },
    {
      "constant": false,
      "inputs": [
        {
          "internalType": "address",
          "name": "fromAsset",
          "type": "address"
        },
        {
          "internalType": "bytes",
          "name": "txHash",
          "type": "bytes"
        },
        {
          "internalType": "uint256",
          "name": "fee",
          "type": "uint256"
        }
      ],
      "name": "speedUp",
      "outputs": [],
      "payable": true,
      "stateMutability": "payable",
      "type": "function"
    }
  ],
  "bytecode": "0x60806040523480156200001157600080fd5b5060405162001bc638038062001bc6833981810160405260408110156200003757600080fd5b5080516020909101516000620000556001600160e01b03620000fc16565b600080546001600160a01b0319166001600160a01b03831690811782556040519293509160008051602062001ba6833981519152908290a3506000805461ffff60a01b1916600160a81b17905580620000de576040805162461bcd60e51b8152602060048201526006602482015265085b1959d85b60d21b604482015290519081900360640190fd5b620000f2826001600160e01b036200010016565b600155506200023c565b3390565b620001136001600160e01b036200017c16565b62000165576040805162461bcd60e51b815260206004820181905260248201527f4f776e61626c653a2063616c6c6572206973206e6f7420746865206f776e6572604482015290519081900360640190fd5b62000179816001600160e01b03620001ab16565b50565b600080546001600160a01b03166200019c6001600160e01b03620000fc16565b6001600160a01b031614905090565b6001600160a01b038116620001f25760405162461bcd60e51b815260040180806020018281038252602681526020018062001b806026913960400191505060405180910390fd5b600080546040516001600160a01b038085169392169160008051602062001ba683398151915291a3600080546001600160a01b0319166001600160a01b0392909216919091179055565b611934806200024c6000396000f3fe6080604052600436106100e85760003560e01c80638da5cb5b1161008a578063a42dce8011610059578063a42dce801461030f578063c415b95c14610342578063d3ed7c7614610357578063f2fde38b1461040f576100e8565b80638da5cb5b1461028d5780638f32d59b146102be5780639a8a0592146102d35780639d4dc021146102fa576100e8565b806360de1a9b116100c657806360de1a9b146101605780636f2b6ee614610230578063715018a6146102635780638456cb5914610278576100e8565b80631745399d146100ed5780633f4ba83a146101225780635c975abb14610137575b600080fd5b3480156100f957600080fd5b506101206004803603602081101561011057600080fd5b50356001600160a01b0316610442565b005b34801561012e57600080fd5b5061012061056a565b34801561014357600080fd5b5061014c6105bb565b604080519115158252519081900360200190f35b610120600480360360c081101561017657600080fd5b6001600160a01b038235169167ffffffffffffffff602082013516918101906060810160408201356401000000008111156101b057600080fd5b8201836020820111156101c257600080fd5b803590602001918460018302840111640100000000831117156101e457600080fd5b91908080601f01602080910402602001604051908101604052809392919081815260200183838082843760009201919091525092955050823593505050602081013590604001356105cb565b34801561023c57600080fd5b506101206004803603602081101561025357600080fd5b50356001600160a01b03166108a0565b34801561026f57600080fd5b506101206109d0565b34801561028457600080fd5b50610120610a61565b34801561029957600080fd5b506102a2610ab0565b604080516001600160a01b039092168252519081900360200190f35b3480156102ca57600080fd5b5061014c610abf565b3480156102df57600080fd5b506102e8610ae3565b60408051918252519081900360200190f35b34801561030657600080fd5b506102a2610ae9565b34801561031b57600080fd5b506101206004803603602081101561033257600080fd5b50356001600160a01b0316610af8565b34801561034e57600080fd5b506102a2610bac565b6101206004803603606081101561036d57600080fd5b6001600160a01b03823516919081019060408101602082013564010000000081111561039857600080fd5b8201836020820111156103aa57600080fd5b803590602001918460018302840111640100000000831117156103cc57600080fd5b91908080601f0160208091040260200160405190810160405280939291908181526020018383808284376000920191909152509295505091359250610bbb915050565b34801561041b57600080fd5b506101206004803603602081101561043257600080fd5b50356001600160a01b0316610d38565b6002546001600160a01b03163314610491576040805162461bcd60e51b815260206004820152600d60248201526c10b332b2a1b7b63632b1ba37b960991b604482015290519081900360640190fd5b6001600160a01b0381166104d15760405133904780156108fc02916000818181858888f193505050501580156104cb573d6000803e3d6000fd5b50610567565b600254604080516370a0823160e01b81523060048201529051610567926001600160a01b0390811692908516916370a0823191602480820192602092909190829003018186803b15801561052457600080fd5b505afa158015610538573d6000803e3d6000fd5b505050506040513d602081101561054e57600080fd5b50516001600160a01b038416919063ffffffff610d8816565b50565b610572610abf565b6105b1576040805162461bcd60e51b81526020600482018190526024820152600080516020611880833981519152604482015290519081900360640190fd5b6105b9610ddf565b565b600054600160a01b900460ff1690565b600054600160a81b900460ff16610629576040805162461bcd60e51b815260206004820152601f60248201527f5265656e7472616e637947756172643a207265656e7472616e742063616c6c00604482015290519081900360640190fd5b6000805460ff60a81b191690819055600160a01b900460ff1615610687576040805162461bcd60e51b815260206004820152601060248201526f14185d5cd8589b194e881c185d5cd95960821b604482015290519081900360640190fd5b6001548567ffffffffffffffff16141580156106ac575067ffffffffffffffff851615155b6106ea576040805162461bcd60e51b815260206004820152600a602482015269085d1bd0da185a5b925960b21b604482015290519081900360640190fd5b835161072f576040805162461bcd60e51b815260206004820152600f60248201526e656d70747920746f4164647265737360881b604482015290519081900360640190fd5b60148401516001600160a01b038116610780576040805162461bcd60e51b815260206004820152600e60248201526d7a65726f20746f4164647265737360901b604482015290519081900360640190fd5b61078a8785610e87565b610795878585610f02565b93506107a387878787611012565b336001600160a01b0316876001600160a01b03167f2b0591052cc6602e870d3994f0a1b173fdac98c215cb3b0baf84eaca5a0aa81e8888888888604051808667ffffffffffffffff1667ffffffffffffffff16815260200180602001858152602001848152602001838152602001828103825286818151815260200191508051906020019080838360005b8381101561084657818101518382015260200161082e565b50505050905090810190601f1680156108735780820380516001836020036101000a031916815260200191505b50965050505050505060405180910390a350506000805460ff60a81b1916600160a81b1790555050505050565b6108a8610abf565b6108e7576040805162461bcd60e51b81526020600482018190526024820152600080516020611880833981519152604482015290519081900360640190fd5b6001600160a01b0381166108fa57600080fd5b600380546001600160a01b0319166001600160a01b0383811691909117918290556040805163d798f88160e01b815290516000939092169163d798f88191600480820192602092909190829003018186803b15801561095857600080fd5b505afa15801561096c573d6000803e3d6000fd5b505050506040513d602081101561098257600080fd5b50516001600160a01b03161415610567576040805162461bcd60e51b815260206004820152600d60248201526c6e6f74206c6f636b70726f787960981b604482015290519081900360640190fd5b6109d8610abf565b610a17576040805162461bcd60e51b81526020600482018190526024820152600080516020611880833981519152604482015290519081900360640190fd5b600080546040516001600160a01b03909116907f8be0079c531659141344cd1fd0a4f28419497f9722a3daafe3b4186f6b6457e0908390a3600080546001600160a01b0319169055565b610a69610abf565b610aa8576040805162461bcd60e51b81526020600482018190526024820152600080516020611880833981519152604482015290519081900360640190fd5b6105b96112fa565b6000546001600160a01b031690565b600080546001600160a01b0316610ad4611384565b6001600160a01b031614905090565b60015481565b6003546001600160a01b031681565b610b00610abf565b610b3f576040805162461bcd60e51b81526020600482018190526024820152600080516020611880833981519152604482015290519081900360640190fd5b6001600160a01b038116610b8a576040805162461bcd60e51b815260206004820152600d60248201526c656d747079206164647265737360981b604482015290519081900360640190fd5b600280546001600160a01b0319166001600160a01b0392909216919091179055565b6002546001600160a01b031681565b600054600160a81b900460ff16610c19576040805162461bcd60e51b815260206004820152601f60248201527f5265656e7472616e637947756172643a207265656e7472616e742063616c6c00604482015290519081900360640190fd5b6000805460ff60a81b191690819055600160a01b900460ff1615610c77576040805162461bcd60e51b815260206004820152601060248201526f14185d5cd8589b194e881c185d5cd95960821b604482015290519081900360640190fd5b610c818382610e87565b336001600160a01b0316826040518082805190602001908083835b60208310610cbb5780518252601f199092019160209182019101610c9c565b51815160209384036101000a60001901801990921691161790526040805192909401829003822088835293519395506001600160a01b038a1694507ff6579aef3e0d086d986c5d6972659f8a0d8602ef7945b054be1b88e088773ef69391829003019150a450506000805460ff60a81b1916600160a81b17905550565b610d40610abf565b610d7f576040805162461bcd60e51b81526020600482018190526024820152600080516020611880833981519152604482015290519081900360640190fd5b61056781611388565b604080516001600160a01b038416602482015260448082018490528251808303909101815260649091019091526020810180516001600160e01b031663a9059cbb60e01b179052610dda908490611428565b505050565b600054600160a01b900460ff16610e34576040805162461bcd60e51b815260206004820152601460248201527314185d5cd8589b194e881b9bdd081c185d5cd95960621b604482015290519081900360640190fd5b6000805460ff60a01b191690557f5db9ee0a495bf2e6ff9c91a7834c1ba4fdd244a5e8aa4e537bd38aeae4b073aa610e6a611384565b604080516001600160a01b039092168252519081900360200190a1565b6001600160a01b038216610ee357803414610ede576040805162461bcd60e51b815260206004820152601260248201527134b739bab33334b1b4b2b73a1032ba3432b960711b604482015290519081900360640190fd5b610efe565b610efe6001600160a01b03831633308463ffffffff6115d716565b5050565b60006001600160a01b038416610fbe5782341015610f5c576040805162461bcd60e51b815260206004820152601260248201527134b739bab33334b1b4b2b73a1032ba3432b960711b604482015290519081900360640190fd5b818311610fa7576040805162461bcd60e51b8152602060048201526014602482015273616d6f756e74206c657373207468616e2066656560601b604482015290519081900360640190fd5b610fb7838363ffffffff61163116565b905061100b565b81341015611008576040805162461bcd60e51b815260206004820152601260248201527134b739bab33334b1b4b2b73a1032ba3432b960711b604482015290519081900360640190fd5b50815b9392505050565b6001600160a01b03841661116c576003546040516384a6d05560e01b81526001600160a01b038681166004830190815267ffffffffffffffff871660248401526064830185905260806044840190815286516084850152865192909416936384a6d0559386938a938a938a93879360a490910190602086019080838360005b838110156110a9578181015183820152602001611091565b50505050905090810190601f1680156110d65780820380516001836020036101000a031916815260200191505b50955050505050506020604051808303818588803b1580156110f757600080fd5b505af115801561110b573d6000803e3d6000fd5b50505050506040513d602081101561112257600080fd5b5051611167576040805162461bcd60e51b815260206004820152600f60248201526e1b1bd8dac8195d1a195c8819985a5b608a1b604482015290519081900360640190fd5b6112f4565b60035461118d906001600160a01b038681169116600063ffffffff61167316565b6003546111ad906001600160a01b0386811691168363ffffffff61167316565b6003546040516384a6d05560e01b81526001600160a01b038681166004830190815267ffffffffffffffff871660248401526064830185905260806044840190815286516084850152865192909416936384a6d0559389938993899389939192909160a40190602086019080838360005b8381101561123657818101518382015260200161121e565b50505050905090810190601f1680156112635780820380516001836020036101000a031916815260200191505b5095505050505050602060405180830381600087803b15801561128557600080fd5b505af1158015611299573d6000803e3d6000fd5b505050506040513d60208110156112af57600080fd5b50516112f4576040805162461bcd60e51b815260206004820152600f60248201526e1b1bd8dac8195c98cc8c0819985a5b608a1b604482015290519081900360640190fd5b50505050565b600054600160a01b900460ff161561134c576040805162461bcd60e51b815260206004820152601060248201526f14185d5cd8589b194e881c185d5cd95960821b604482015290519081900360640190fd5b6000805460ff60a01b1916600160a01b1790557f62e78cea01bee320cd4e420270b5ea74000d11b0c9f74754ebdbfc544b05a258610e6a5b3390565b6001600160a01b0381166113cd5760405162461bcd60e51b815260040180806020018281038252602681526020018061185a6026913960400191505060405180910390fd5b600080546040516001600160a01b03808516939216917f8be0079c531659141344cd1fd0a4f28419497f9722a3daafe3b4186f6b6457e091a3600080546001600160a01b0319166001600160a01b0392909216919091179055565b61143182611786565b611482576040805162461bcd60e51b815260206004820152601f60248201527f5361666545524332303a2063616c6c20746f206e6f6e2d636f6e747261637400604482015290519081900360640190fd5b60006060836001600160a01b0316836040518082805190602001908083835b602083106114c05780518252601f1990920191602091820191016114a1565b6001836020036101000a0380198251168184511680821785525050505050509050019150506000604051808303816000865af19150503d8060008114611522576040519150601f19603f3d011682016040523d82523d6000602084013e611527565b606091505b50915091508161157e576040805162461bcd60e51b815260206004820181905260248201527f5361666545524332303a206c6f772d6c6576656c2063616c6c206661696c6564604482015290519081900360640190fd5b8051156112f45780806020019051602081101561159a57600080fd5b50516112f45760405162461bcd60e51b815260040180806020018281038252602a8152602001806118a0602a913960400191505060405180910390fd5b604080516001600160a01b0385811660248301528416604482015260648082018490528251808303909101815260849091019091526020810180516001600160e01b03166323b872dd60e01b1790526112f4908590611428565b600061100b83836040518060400160405280601e81526020017f536166654d6174683a207375627472616374696f6e206f766572666c6f7700008152506117c2565b8015806116f9575060408051636eb1769f60e11b81523060048201526001600160a01b03848116602483015291519185169163dd62ed3e91604480820192602092909190829003018186803b1580156116cb57600080fd5b505afa1580156116df573d6000803e3d6000fd5b505050506040513d60208110156116f557600080fd5b5051155b6117345760405162461bcd60e51b81526004018080602001828103825260368152602001806118ca6036913960400191505060405180910390fd5b604080516001600160a01b038416602482015260448082018490528251808303909101815260649091019091526020810180516001600160e01b031663095ea7b360e01b179052610dda908490611428565b6000813f7fc5d2460186f7233c927e7db2dcc703c0e500b653ca82273b7bfad8045d85a47081158015906117ba5750808214155b949350505050565b600081848411156118515760405162461bcd60e51b81526004018080602001828103825283818151815260200191508051906020019080838360005b838110156118165781810151838201526020016117fe565b50505050905090810190601f1680156118435780820380516001836020036101000a031916815260200191505b509250505060405180910390fd5b50505090039056fe4f776e61626c653a206e6577206f776e657220697320746865207a65726f20616464726573734f776e61626c653a2063616c6c6572206973206e6f7420746865206f776e65725361666545524332303a204552433230206f7065726174696f6e20646964206e6f7420737563636565645361666545524332303a20617070726f76652066726f6d206e6f6e2d7a65726f20746f206e6f6e2d7a65726f20616c6c6f77616e6365a265627a7a72315820b6f71f12c2650b8182c52405d36b8d16408a6dcba6245c4b851315bd4dafd19c64736f6c634300051000324f776e61626c653a206e6577206f776e657220697320746865207a65726f20616464726573738be0079c531659141344cd1fd0a4f28419497f9722a3daafe3b4186f6b6457e0",
  "source": "// SPDX-License-Identifier: UNLICENSED\npragma solidity ^0.5.0;\n\nimport \"../../libs/token/ERC20/SafeERC20.sol\";\nimport \"../../libs/token/ERC20/IERC20.sol\";\nimport \"../../libs/ownership/Ownable.sol\";\nimport \"../../libs/utils/ReentrancyGuard.sol\";\nimport \"../../libs/math/SafeMath.sol\";\nimport \"../../libs/lifecycle/Pausable.sol\";\n\nimport \"./interfaces/ILockProxy.sol\";\n\ncontract PolyWrapperV2 is Ownable, Pausable, ReentrancyGuard {\n    using SafeMath for uint;\n    using SafeERC20 for IERC20;\n\n    uint public chainId;\n    address public feeCollector;\n\n    ILockProxy public lockProxy;\n\n    constructor(address _owner, uint _chainId) public {\n        require(_chainId != 0, \"!legal\");\n        transferOwnership(_owner);\n        chainId = _chainId;\n    }\n\n    function setFeeCollector(address collector) external onlyOwner {\n        require(collector != address(0), \"emtpy address\");\n        feeCollector = collector;\n    }\n\n\n    function setLockProxy(address _lockProxy) external onlyOwner {\n        require(_lockProxy != address(0));\n        lockProxy = ILockProxy(_lockProxy);\n        require(lockProxy.managerProxyContract() != address(0), \"not lockproxy\");\n    }\n\n    function pause() external onlyOwner {\n        _pause();\n    }\n\n    function unpause() external onlyOwner {\n        _unpause();\n    }\n\n\n    function extractFee(address token) external {\n        require(msg.sender == feeCollector, \"!feeCollector\");\n        if (token == address(0)) {\n            msg.sender.transfer(address(this).balance);\n        } else {\n            IERC20(token).safeTransfer(feeCollector, IERC20(token).balanceOf(address(this)));\n        }\n    }\n    \n    function lock(address fromAsset, uint64 toChainId, bytes memory toAddress, uint amount, uint fee, uint id) public payable nonReentrant whenNotPaused {\n        \n        require(toChainId != chainId && toChainId != 0, \"!toChainId\");\n        require(toAddress.length !=0, \"empty toAddress\");\n        address addr;\n        assembly { addr := mload(add(toAddress,0x14)) }\n        require(addr != address(0),\"zero toAddress\");\n        \n        _pull(fromAsset, amount);\n\n        amount = _checkoutFee(fromAsset, amount, fee);\n\n        _push(fromAsset, toChainId, toAddress, amount);\n\n        emit PolyWrapperLock(fromAsset, msg.sender, toChainId, toAddress, amount, fee, id);\n    }\n\n    function speedUp(address fromAsset, bytes memory txHash, uint fee) public payable nonReentrant whenNotPaused {\n        _pull(fromAsset, fee);\n        emit PolyWrapperSpeedUp(fromAsset, txHash, msg.sender, fee);\n    }\n\n    function _pull(address fromAsset, uint amount) internal {\n        if (fromAsset == address(0)) {\n            require(msg.value == amount, \"insufficient ether\");\n        } else {\n            IERC20(fromAsset).safeTransferFrom(msg.sender, address(this), amount);\n        }\n    }\n\n    // take fee in the form of ether\n    function _checkoutFee(address fromAsset, uint amount, uint fee) internal view returns (uint) {\n        if (fromAsset == address(0)) {\n            require(msg.value >= amount, \"insufficient ether\");\n            require(amount > fee, \"amount less than fee\");\n            return amount.sub(fee);\n        } else {\n            require(msg.value >= fee, \"insufficient ether\");\n            return amount;\n        }\n    }\n\n    function _push(address fromAsset, uint64 toChainId, bytes memory toAddress, uint amount) internal {\n        if (fromAsset == address(0)) {\n            require(lockProxy.lock.value(amount)(fromAsset, toChainId, toAddress, amount), \"lock ether fail\");\n        } else {\n            IERC20(fromAsset).safeApprove(address(lockProxy), 0);\n            IERC20(fromAsset).safeApprove(address(lockProxy), amount);\n            require(lockProxy.lock(fromAsset, toChainId, toAddress, amount), \"lock erc20 fail\");\n        }\n    }\n\n    event PolyWrapperLock(address indexed fromAsset, address indexed sender, uint64 toChainId, bytes toAddress, uint net, uint fee, uint id);\n    event PolyWrapperSpeedUp(address indexed fromAsset, bytes indexed txHash, address indexed sender, uint efee);\n\n}",
  "sourcePath": "/Users/user/Desktop/hashport/eth-contracts/contracts/core/wrapper/PolyWrapper_v2.sol",
  "compiler": {
    "name": "solc",
    "version": "0.5.16+commit.9c3226ce.Emscripten.clang"
  },
  "schemaVersion": "3.4.5",
  "updatedAt": "2022-02-24T02:12:45.216Z",
  "devdoc": {
    "methods": {
      "isOwner()": {
        "details": "Returns true if the caller is the current owner."
      },
      "owner()": {
        "details": "Returns the address of the current owner."
      },
      "paused()": {
        "details": "Returns true if the contract is paused, and false otherwise."
      },
      "renounceOwnership()": {
        "details": "Leaves the contract without owner. It will not be possible to call `onlyOwner` functions anymore. Can only be called by the current owner.     * NOTE: Renouncing ownership will leave the contract without an owner, thereby removing any functionality that is only available to the owner."
      },
      "transferOwnership(address)": {
        "details": "Transfers ownership of the contract to a new account (`newOwner`). Can only be called by the current owner."
      }
    }
  },
  "userdoc": {
    "methods": {}
  }
}