{
  "contractName": "UpgradableECCM",
  "abi": [
    {
      "inputs": [
        {
          "internalType": "address",
          "name": "ethCrossChainDataAddr",
          "type": "address"
        },
        {
          "internalType": "uint64",
          "name": "_chainId",
          "type": "uint64"
        }
      ],
      "payable": false,
      "stateMutability": "nonpayable",
      "type": "constructor"
    },
    {
      "anonymous": false,
      "inputs": [
        {
          "indexed": true,
          "internalType": "address",
          "name": "previousOwner",
          "type": "address"
        },
        {
          "indexed": true,
          "internalType": "address",
          "name": "newOwner",
          "type": "address"
        }
      ],
      "name": "OwnershipTransferred",
      "type": "event"
    },
    {
      "anonymous": false,
      "inputs": [
        {
          "indexed": false,
          "internalType": "address",
          "name": "account",
          "type": "address"
        }
      ],
      "name": "Paused",
      "type": "event"
    },
    {
      "anonymous": false,
      "inputs": [
        {
          "indexed": false,
          "internalType": "address",
          "name": "account",
          "type": "address"
        }
      ],
      "name": "Unpaused",
      "type": "event"
    },
    {
      "constant": true,
      "inputs": [],
      "name": "EthCrossChainDataAddress",
      "outputs": [
        {
          "internalType": "address",
          "name": "",
          "type": "address"
        }
      ],
      "payable": false,
      "stateMutability": "view",
      "type": "function"
    },
    {
      "constant": true,
      "inputs": [],
      "name": "chainId",
      "outputs": [
        {
          "internalType": "uint64",
          "name": "",
          "type": "uint64"
        }
      ],
      "payable": false,
      "stateMutability": "view",
      "type": "function"
    },
    {
      "constant": true,
      "inputs": [],
      "name": "isOwner",
      "outputs": [
        {
          "internalType": "bool",
          "name": "",
          "type": "bool"
        }
      ],
      "payable": false,
      "stateMutability": "view",
      "type": "function"
    },
    {
      "constant": true,
      "inputs": [],
      "name": "owner",
      "outputs": [
        {
          "internalType": "address",
          "name": "",
          "type": "address"
        }
      ],
      "payable": false,
      "stateMutability": "view",
      "type": "function"
    },
    {
      "constant": true,
      "inputs": [],
      "name": "paused",
      "outputs": [
        {
          "internalType": "bool",
          "name": "",
          "type": "bool"
        }
      ],
      "payable": false,
      "stateMutability": "view",
      "type": "function"
    },
    {
      "constant": false,
      "inputs": [],
      "name": "renounceOwnership",
      "outputs": [],
      "payable": false,
      "stateMutability": "nonpayable",
      "type": "function"
    },
    {
      "constant": false,
      "inputs": [
        {
          "internalType": "address",
          "name": "newOwner",
          "type": "address"
        }
      ],
      "name": "transferOwnership",
      "outputs": [],
      "payable": false,
      "stateMutability": "nonpayable",
      "type": "function"
    },
    {
      "constant": false,
      "inputs": [],
      "name": "pause",
      "outputs": [
        {
          "internalType": "bool",
          "name": "",
          "type": "bool"
        }
      ],
      "payable": false,
      "stateMutability": "nonpayable",
      "type": "function"
    },
    {
      "constant": false,
      "inputs": [],
      "name": "unpause",
      "outputs": [
        {
          "internalType": "bool",
          "name": "",
          "type": "bool"
        }
      ],
      "payable": false,
      "stateMutability": "nonpayable",
      "type": "function"
    },
    {
      "constant": false,
      "inputs": [
        {
          "internalType": "address",
          "name": "newEthCrossChainManagerAddress",
          "type": "address"
        }
      ],
      "name": "upgradeToNew",
      "outputs": [
        {
          "internalType": "bool",
          "name": "",
          "type": "bool"
        }
      ],
      "payable": false,
      "stateMutability": "nonpayable",
      "type": "function"
    },
    {
      "constant": false,
      "inputs": [
        {
          "internalType": "uint64",
          "name": "_newChainId",
          "type": "uint64"
        }
      ],
      "name": "setChainId",
      "outputs": [
        {
          "internalType": "bool",
          "name": "",
          "type": "bool"
        }
      ],
      "payable": false,
      "stateMutability": "nonpayable",
      "type": "function"
    }
  ],
  "bytecode": "0x608060405234801561001057600080fd5b50604051610b6c380380610b6c8339818101604052604081101561003357600080fd5b508051602090910151600061004f6001600160e01b036100ee16565b600080546001600160a01b0319166001600160a01b0383169081178255604051929350917f8be0079c531659141344cd1fd0a4f28419497f9722a3daafe3b4186f6b6457e0908290a3506000805460ff60a01b19169055600180546001600160401b03909216600160a01b02600160a01b600160e01b03196001600160a01b039094166001600160a01b031990931692909217929092161790556100f2565b3390565b610a6b806101016000396000f3fe608060405234801561001057600080fd5b50600436106100a85760003560e01c80637e724ff3116100715780637e724ff3146101265780638456cb591461014c5780638da5cb5b146101545780638f32d59b1461015c5780639a8a059214610164578063f2fde38b14610189576100a8565b8062ba1694146100ad5780633f4ba83a146100d15780635c975abb146100ed5780636f31031d146100f5578063715018a61461011c575b600080fd5b6100b56101af565b604080516001600160a01b039092168252519081900360200190f35b6100d96101be565b604080519115158252519081900360200190f35b6100d961033d565b6100d96004803603602081101561010b57600080fd5b503567ffffffffffffffff1661034d565b610124610418565b005b6100d96004803603602081101561013c57600080fd5b50356001600160a01b03166104a9565b6100d96105b8565b6100b561072d565b6100d961073c565b61016c610760565b6040805167ffffffffffffffff9092168252519081900360200190f35b6101246004803603602081101561019f57600080fd5b50356001600160a01b0316610777565b6001546001600160a01b031681565b60006101c861073c565b610207576040805162461bcd60e51b81526020600482018190526024820152600080516020610a17833981519152604482015290519081900360640190fd5b61020f61033d565b1561021c5761021c6107ca565b60015460408051635c975abb60e01b815290516001600160a01b03909216918291635c975abb916004808301926020929190829003018186803b15801561026257600080fd5b505afa158015610276573d6000803e3d6000fd5b505050506040513d602081101561028c57600080fd5b50511561033557806001600160a01b0316633f4ba83a6040518163ffffffff1660e01b8152600401602060405180830381600087803b1580156102ce57600080fd5b505af11580156102e2573d6000803e3d6000fd5b505050506040513d60208110156102f857600080fd5b50516103355760405162461bcd60e51b81526004018080602001828103825260298152602001806109c86029913960400191505060405180910390fd5b600191505090565b600054600160a01b900460ff1690565b60008054600160a01b900460ff166103a3576040805162461bcd60e51b815260206004820152601460248201527314185d5cd8589b194e881b9bdd081c185d5cd95960621b604482015290519081900360640190fd5b6103ab61073c565b6103ea576040805162461bcd60e51b81526020600482018190526024820152600080516020610a17833981519152604482015290519081900360640190fd5b506001805467ffffffffffffffff8316600160a01b0267ffffffffffffffff60a01b19909116178155919050565b61042061073c565b61045f576040805162461bcd60e51b81526020600482018190526024820152600080516020610a17833981519152604482015290519081900360640190fd5b600080546040516001600160a01b03909116907f8be0079c531659141344cd1fd0a4f28419497f9722a3daafe3b4186f6b6457e0908390a3600080546001600160a01b0319169055565b60008054600160a01b900460ff166104ff576040805162461bcd60e51b815260206004820152601460248201527314185d5cd8589b194e881b9bdd081c185d5cd95960621b604482015290519081900360640190fd5b61050761073c565b610546576040805162461bcd60e51b81526020600482018190526024820152600080516020610a17833981519152604482015290519081900360640190fd5b6001546040805163f2fde38b60e01b81526001600160a01b03858116600483015291519190921691829163f2fde38b9160248082019260009290919082900301818387803b15801561059757600080fd5b505af11580156105ab573d6000803e3d6000fd5b5060019695505050505050565b60006105c261073c565b610601576040805162461bcd60e51b81526020600482018190526024820152600080516020610a17833981519152604482015290519081900360640190fd5b61060961033d565b61061557610615610872565b60015460408051635c975abb60e01b815290516001600160a01b03909216918291635c975abb916004808301926020929190829003018186803b15801561065b57600080fd5b505afa15801561066f573d6000803e3d6000fd5b505050506040513d602081101561068557600080fd5b505161033557806001600160a01b0316638456cb596040518163ffffffff1660e01b8152600401602060405180830381600087803b1580156106c657600080fd5b505af11580156106da573d6000803e3d6000fd5b505050506040513d60208110156106f057600080fd5b50516103355760405162461bcd60e51b81526004018080602001828103825260278152602001806109a16027913960400191505060405180910390fd5b6000546001600160a01b031690565b600080546001600160a01b03166107516108fc565b6001600160a01b031614905090565b600154600160a01b900467ffffffffffffffff1681565b61077f61073c565b6107be576040805162461bcd60e51b81526020600482018190526024820152600080516020610a17833981519152604482015290519081900360640190fd5b6107c781610900565b50565b600054600160a01b900460ff1661081f576040805162461bcd60e51b815260206004820152601460248201527314185d5cd8589b194e881b9bdd081c185d5cd95960621b604482015290519081900360640190fd5b6000805460ff60a01b191690557f5db9ee0a495bf2e6ff9c91a7834c1ba4fdd244a5e8aa4e537bd38aeae4b073aa6108556108fc565b604080516001600160a01b039092168252519081900360200190a1565b600054600160a01b900460ff16156108c4576040805162461bcd60e51b815260206004820152601060248201526f14185d5cd8589b194e881c185d5cd95960821b604482015290519081900360640190fd5b6000805460ff60a01b1916600160a01b1790557f62e78cea01bee320cd4e420270b5ea74000d11b0c9f74754ebdbfc544b05a2586108555b3390565b6001600160a01b0381166109455760405162461bcd60e51b81526004018080602001828103825260268152602001806109f16026913960400191505060405180910390fd5b600080546040516001600160a01b03808516939216917f8be0079c531659141344cd1fd0a4f28419497f9722a3daafe3b4186f6b6457e091a3600080546001600160a01b0319166001600160a01b039290921691909117905556fe70617573652045746843726f7373436861696e4461746120636f6e7472616374206661696c6564756e70617573652045746843726f7373436861696e4461746120636f6e7472616374206661696c65644f776e61626c653a206e6577206f776e657220697320746865207a65726f20616464726573734f776e61626c653a2063616c6c6572206973206e6f7420746865206f776e6572a265627a7a72315820434f0c818aeb25d3160b7a7f90a571b19b2aab25e69df8529afe8eeb0d5d463964736f6c63430005100032",
  "source": "pragma solidity ^0.5.0;\n\nimport \"./../interface/IEthCrossChainData.sol\";\nimport \"./../interface/IUpgradableECCM.sol\";\nimport \"./../../../libs/lifecycle/Pausable.sol\";\nimport \"./../../../libs/ownership/Ownable.sol\";\n\ncontract UpgradableECCM is IUpgradableECCM, Ownable, Pausable {\n    address public EthCrossChainDataAddress;\n    uint64 public chainId;  \n    \n    constructor (address ethCrossChainDataAddr, uint64 _chainId) Pausable() Ownable()  public {\n        EthCrossChainDataAddress = ethCrossChainDataAddr;\n        chainId = _chainId;\n    }\n    function pause() onlyOwner public returns (bool) {\n        if (!paused()) {\n            _pause();\n        }\n        IEthCrossChainData eccd = IEthCrossChainData(EthCrossChainDataAddress);\n        if (!eccd.paused()) {\n            require(eccd.pause(), \"pause EthCrossChainData contract failed\");\n        }\n        return true;\n    }\n    \n    function unpause() onlyOwner public returns (bool) {\n        if (paused()) {\n            _unpause();\n        }\n        IEthCrossChainData eccd = IEthCrossChainData(EthCrossChainDataAddress);\n        if (eccd.paused()) {\n            require(eccd.unpause(), \"unpause EthCrossChainData contract failed\");\n        }\n        return true;\n    }\n\n    // if we want to upgrade this contract, we need to invoke this method \n    function upgradeToNew(address newEthCrossChainManagerAddress) whenPaused onlyOwner public returns (bool) {\n        IEthCrossChainData eccd = IEthCrossChainData(EthCrossChainDataAddress);\n        eccd.transferOwnership(newEthCrossChainManagerAddress);\n        return true;\n    }\n    \n    function setChainId(uint64 _newChainId) whenPaused onlyOwner public returns (bool) {\n        chainId = _newChainId;\n        return true;\n    }\n}",
  "sourcePath": "/Users/user/Desktop/hashport/eth-contracts/contracts/core/cross_chain_manager/upgrade/UpgradableECCM.sol",
  "compiler": {
    "name": "solc",
    "version": "0.5.16+commit.9c3226ce.Emscripten.clang"
  },
  "schemaVersion": "3.4.5",
  "updatedAt": "2022-03-02T01:42:02.741Z",
  "networkType": "ethereum",
  "devdoc": {
    "methods": {
      "isOwner()": {
        "details": "Returns true if the caller is the current owner."
      },
      "owner()": {
        "details": "Returns the address of the current owner."
      },
      "paused()": {
        "details": "Returns true if the contract is paused, and false otherwise."
      },
      "renounceOwnership()": {
        "details": "Leaves the contract without owner. It will not be possible to call `onlyOwner` functions anymore. Can only be called by the current owner.     * NOTE: Renouncing ownership will leave the contract without an owner, thereby removing any functionality that is only available to the owner."
      },
      "transferOwnership(address)": {
        "details": "Transfers ownership of the contract to a new account (`newOwner`). Can only be called by the current owner."
      }
    }
  },
  "userdoc": {
    "methods": {}
  }
}