{
  "contractName": "UtilsMock",
  "abi": [
    {
      "inputs": [],
      "payable": false,
      "stateMutability": "nonpayable",
      "type": "constructor"
    },
    {
      "constant": true,
      "inputs": [],
      "name": "storageBytes",
      "outputs": [
        {
          "internalType": "bytes",
          "name": "",
          "type": "bytes"
        }
      ],
      "payable": false,
      "stateMutability": "view",
      "type": "function"
    },
    {
      "constant": true,
      "inputs": [
        {
          "internalType": "bytes",
          "name": "_b",
          "type": "bytes"
        }
      ],
      "name": "bytesToBytes32",
      "outputs": [
        {
          "internalType": "bytes32",
          "name": "",
          "type": "bytes32"
        }
      ],
      "payable": false,
      "stateMutability": "pure",
      "type": "function"
    },
    {
      "constant": true,
      "inputs": [
        {
          "internalType": "bytes",
          "name": "_v",
          "type": "bytes"
        }
      ],
      "name": "bytesToUint256",
      "outputs": [
        {
          "internalType": "uint256",
          "name": "",
          "type": "uint256"
        }
      ],
      "payable": false,
      "stateMutability": "pure",
      "type": "function"
    },
    {
      "constant": true,
      "inputs": [
        {
          "internalType": "uint256",
          "name": "_v",
          "type": "uint256"
        }
      ],
      "name": "uint256ToBytes",
      "outputs": [
        {
          "internalType": "bytes",
          "name": "",
          "type": "bytes"
        }
      ],
      "payable": false,
      "stateMutability": "pure",
      "type": "function"
    },
    {
      "constant": true,
      "inputs": [
        {
          "internalType": "bytes",
          "name": "_v",
          "type": "bytes"
        }
      ],
      "name": "bytesToAddress",
      "outputs": [
        {
          "internalType": "address",
          "name": "",
          "type": "address"
        }
      ],
      "payable": false,
      "stateMutability": "pure",
      "type": "function"
    },
    {
      "constant": true,
      "inputs": [
        {
          "internalType": "address",
          "name": "_v",
          "type": "address"
        }
      ],
      "name": "addressToBytes",
      "outputs": [
        {
          "internalType": "bytes",
          "name": "",
          "type": "bytes"
        }
      ],
      "payable": false,
      "stateMutability": "pure",
      "type": "function"
    },
    {
      "constant": true,
      "inputs": [
        {
          "internalType": "bytes",
          "name": "_data",
          "type": "bytes"
        }
      ],
      "name": "hashLeaf",
      "outputs": [
        {
          "internalType": "bytes32",
          "name": "",
          "type": "bytes32"
        }
      ],
      "payable": false,
      "stateMutability": "pure",
      "type": "function"
    },
    {
      "constant": true,
      "inputs": [
        {
          "internalType": "bytes32",
          "name": "left",
          "type": "bytes32"
        },
        {
          "internalType": "bytes32",
          "name": "right",
          "type": "bytes32"
        }
      ],
      "name": "hashChildren",
      "outputs": [
        {
          "internalType": "bytes32",
          "name": "",
          "type": "bytes32"
        }
      ],
      "payable": false,
      "stateMutability": "pure",
      "type": "function"
    },
    {
      "constant": true,
      "inputs": [
        {
          "internalType": "bytes",
          "name": "memoryBytes",
          "type": "bytes"
        }
      ],
      "name": "equalStorage",
      "outputs": [
        {
          "internalType": "bool",
          "name": "",
          "type": "bool"
        }
      ],
      "payable": false,
      "stateMutability": "view",
      "type": "function"
    },
    {
      "constant": true,
      "inputs": [
        {
          "internalType": "bytes",
          "name": "_bytes",
          "type": "bytes"
        },
        {
          "internalType": "uint256",
          "name": "_start",
          "type": "uint256"
        },
        {
          "internalType": "uint256",
          "name": "_length",
          "type": "uint256"
        }
      ],
      "name": "slice",
      "outputs": [
        {
          "internalType": "bytes",
          "name": "",
          "type": "bytes"
        }
      ],
      "payable": false,
      "stateMutability": "pure",
      "type": "function"
    },
    {
      "constant": true,
      "inputs": [
        {
          "internalType": "address[]",
          "name": "keepers",
          "type": "address[]"
        },
        {
          "internalType": "address[]",
          "name": "signers",
          "type": "address[]"
        },
        {
          "internalType": "uint256",
          "name": "m",
          "type": "uint256"
        }
      ],
      "name": "containMAddresses",
      "outputs": [
        {
          "internalType": "bool",
          "name": "",
          "type": "bool"
        }
      ],
      "payable": false,
      "stateMutability": "pure",
      "type": "function"
    }
  ],
  "bytecode": "0x608060405234801561001057600080fd5b5060408051808201909152601d8082527f4920616d20676c6f62616c20696e20676c6f62616c2073746f7261676500000060209092019182526100559160009161005b565b506100f6565b828054600181600116156101000203166002900490600052602060002090601f016020900481019282601f1061009c57805160ff19168380011785556100c9565b828001600101855582156100c9579182015b828111156100c95782518255916020019190600101906100ae565b506100d59291506100d9565b5090565b6100f391905b808211156100d557600081556001016100df565b90565b610dc4806101056000396000f3fe608060405234801561001057600080fd5b50600436106100a95760003560e01c8063bfe370d911610071578063bfe370d91461037c578063c7559da414610420578063cc9de25d1461043d578063ded8454a146104e1578063e004139614610507578063f4c7b0bc146105b0576100a9565b80630d41ac93146100ae57806325537a9c146100e357806342526e4e146101875780634628894d14610247578063a93a571a146102c4575b600080fd5b6100d1600480360360408110156100c457600080fd5b50803590602001356106d5565b60408051918252519081900360200190f35b6100d1600480360360208110156100f957600080fd5b810190602081018135600160201b81111561011357600080fd5b82018360208201111561012557600080fd5b803590602001918460018302840111600160201b8311171561014657600080fd5b91908080601f0160208091040260200160405190810160405280939291908181526020018383808284376000920191909152509295506106e8945050505050565b61022b6004803603602081101561019d57600080fd5b810190602081018135600160201b8111156101b757600080fd5b8201836020820111156101c957600080fd5b803590602001918460018302840111600160201b831117156101ea57600080fd5b91908080601f0160208091040260200160405190810160405280939291908181526020018383808284376000920191909152509295506106fb945050505050565b604080516001600160a01b039092168252519081900360200190f35b61024f610706565b6040805160208082528351818301528351919283929083019185019080838360005b83811015610289578181015183820152602001610271565b50505050905090810190601f1680156102b65780820380516001836020036101000a031916815260200191505b509250505060405180910390f35b610368600480360360208110156102da57600080fd5b810190602081018135600160201b8111156102f457600080fd5b82018360208201111561030657600080fd5b803590602001918460018302840111600160201b8311171561032757600080fd5b91908080601f016020809104026020016040519081016040528093929190818152602001838380828437600092019190915250929550610794945050505050565b604080519115158252519081900360200190f35b6100d16004803603602081101561039257600080fd5b810190602081018135600160201b8111156103ac57600080fd5b8201836020820111156103be57600080fd5b803590602001918460018302840111600160201b831117156103df57600080fd5b91908080601f0160208091040260200160405190810160405280939291908181526020018383808284376000920191909152509295506107a1945050505050565b61024f6004803603602081101561043657600080fd5b50356107ac565b6100d16004803603602081101561045357600080fd5b810190602081018135600160201b81111561046d57600080fd5b82018360208201111561047f57600080fd5b803590602001918460018302840111600160201b831117156104a057600080fd5b91908080601f0160208091040260200160405190810160405280939291908181526020018383808284376000920191909152509295506107b7945050505050565b61024f600480360360208110156104f757600080fd5b50356001600160a01b03166107c2565b61024f6004803603606081101561051d57600080fd5b810190602081018135600160201b81111561053757600080fd5b82018360208201111561054957600080fd5b803590602001918460018302840111600160201b8311171561056a57600080fd5b91908080601f01602080910402602001604051908101604052809392919081815260200183838082843760009201919091525092955050823593505050602001356107cd565b610368600480360360608110156105c657600080fd5b810190602081018135600160201b8111156105e057600080fd5b8201836020820111156105f257600080fd5b803590602001918460208302840111600160201b8311171561061357600080fd5b9190808060200260200160405190810160405280939291908181526020018383602002808284376000920191909152509295949360208101935035915050600160201b81111561066257600080fd5b82018360208201111561067457600080fd5b803590602001918460208302840111600160201b8311171561069557600080fd5b91908080602002602001604051908101604052809392919081815260200183836020028082843760009201919091525092955050913592506107e2915050565b60006106e183836107ef565b9392505050565b60006106f3826108b3565b90505b919050565b60006106f3826109b7565b6000805460408051602060026001851615610100026000190190941693909304601f8101849004840282018401909252818152929183018282801561078c5780601f106107615761010080835404028352916020019161078c565b820191906000526020600020905b81548152906001019060200180831161076f57829003601f168201915b505050505081565b60006106f3600083610a01565b60006106f382610ab5565b60606106f382610b0f565b60006106f382610b82565b60606106f382610c30565b60606107da848484610c4b565b949350505050565b60006107da848484610ccb565b60408051600160f81b60208083019190915260218201859052604180830185905283518084039091018152606190920192839052815160009360029392909182918401908083835b602083106108565780518252601f199092019160209182019101610837565b51815160209384036101000a60001901801990921691161790526040519190930194509192505080830381855afa158015610895573d6000803e3d6000fd5b5050506040513d60208110156108aa57600080fd5b50519392505050565b6040516000602080830182815284519293600293859387939260210191908401908083835b602083106108f75780518252601f1990920191602091820191016108d8565b6001836020036101000a038019825116818451168082178552505050505050905001925050506040516020818303038152906040526040518082805190602001908083835b6020831061095b5780518252601f19909201916020918201910161093c565b51815160209384036101000a60001901801990921691161790526040519190930194509192505080830381855afa15801561099a573d6000803e3d6000fd5b5050506040513d60208110156109af57600080fd5b505192915050565b600081516014146109f95760405162461bcd60e51b8152600401808060200182810382526023815260200180610d6d6023913960400191505060405180910390fd5b506014015190565b60008060019050835460026001808316156101000203821604845180821460018114610a305760009450610aa9565b8215610aa9576020831060018114610a8e57600189600052602060002060208a018581015b600284828410011415610a85578151835414610a745760009950600093505b600183019250602082019150610a55565b50505050610aa7565b61010080860402945060208801518514610aa757600095505b505b50929695505050505050565b60008151602014610b07576040805162461bcd60e51b8152602060048201526017602482015276313cba32b9903632b733ba341034b9903737ba1019991760491b604482015290519081900360640190fd5b506020015190565b60606001600160ff1b03821115610b67576040805162461bcd60e51b815260206004820152601760248201527656616c75652065786365656473207468652072616e676560481b604482015290519081900360640190fd5b60405190506020815281602082015260408101604052919050565b60008151602014610bd4576040805162461bcd60e51b8152602060048201526017602482015276313cba32b9903632b733ba341034b9903737ba1019991760491b604482015290519081900360640190fd5b5060208101516001600160ff1b038111156106f6576040805162461bcd60e51b815260206004820152601760248201527656616c75652065786365656473207468652072616e676560481b604482015290519081900360640190fd5b604080516014815260609290921b6020830152818101905290565b606081830184511015610c5d57600080fd5b606082158015610c7857604051915060208201604052610cc2565b6040519150601f8416801560200281840101858101878315602002848b0101015b81831015610cb1578051835260209283019201610c99565b5050858452601f01601f1916604052505b50949350505050565b600080805b8451811015610d605760005b8651811015610d5757868181518110610cf157fe5b60200260200101516001600160a01b0316868381518110610d0e57fe5b60200260200101516001600160a01b03161415610d4f578280600101935050868181518110610d3957fe5b6020026020010160006001600160a01b03168152505b600101610cdc565b50600101610cd0565b5090911115939250505056fe6279746573206c656e67746820646f6573206e6f74206d617463682061646472657373a265627a7a723158202bb1516dc39433c293247c450a1bc91f9bf48b3dcfd36baf8d66bebb797929e864736f6c63430005100032",
  "source": "pragma solidity ^0.5.0;\n\nimport \"./../../../../contracts/libs/utils//Utils.sol\";\n\ncontract UtilsMock {\n    bytes public storageBytes;\n    constructor() public {\n        storageBytes = bytes(\"I am global in global storage\");\n    }\n    function bytesToBytes32(bytes memory _b) public pure returns (bytes32) {\n        return Utils.bytesToBytes32(_b);\n    }\n\n    function bytesToUint256(bytes memory  _v) public pure returns (uint256) {\n        return Utils.bytesToUint256(_v);\n    }\n\n    function uint256ToBytes(uint256 _v) public pure returns (bytes memory) {\n        return Utils.uint256ToBytes(_v);\n    }\n\n    function bytesToAddress(bytes memory _v) public pure returns (address) {\n        return Utils.bytesToAddress(_v);\n    }\n\n    function addressToBytes(address _v) public pure returns (bytes memory) {\n        return Utils.addressToBytes(_v);\n    }\n    function hashLeaf(bytes memory _data) public pure returns (bytes32) {\n        return Utils.hashLeaf(_data);\n    }\n    function hashChildren(bytes32 left, bytes32 right) public pure returns (bytes32) {\n        return Utils.hashChildren(left, right);\n    }\n    function equalStorage( bytes memory memoryBytes) public view returns (bool) {\n        return Utils.equalStorage(storageBytes, memoryBytes);\n    }\n    function slice(bytes memory _bytes, uint _start, uint _length )public pure returns (bytes memory){\n        return Utils.slice(_bytes, _start, _length);\n    }\n\n    function containMAddresses(address[] memory keepers, address[] memory signers, uint m) public pure returns(bool){\n        return Utils.containMAddresses(keepers, signers, m);\n    }\n}\n",
  "sourcePath": "/Users/user/Desktop/hashport/eth-contracts/contracts/mocks/libs/utils/UtilsMock.sol",
  "compiler": {
    "name": "solc",
    "version": "0.5.16+commit.9c3226ce.Emscripten.clang"
  },
  "schemaVersion": "3.4.5",
  "updatedAt": "2022-03-02T01:41:58.721Z",
  "networkType": "ethereum",
  "devdoc": {
    "methods": {}
  },
  "userdoc": {
    "methods": {}
  }
}