{
  "contractName": "ZeroCopySourceMock",
  "abi": [
    {
      "constant": false,
      "inputs": [
        {
          "internalType": "bytes",
          "name": "_b",
          "type": "bytes"
        },
        {
          "internalType": "uint256",
          "name": "_off",
          "type": "uint256"
        }
      ],
      "name": "NextBool",
      "outputs": [
        {
          "internalType": "bool",
          "name": "",
          "type": "bool"
        },
        {
          "internalType": "uint256",
          "name": "",
          "type": "uint256"
        }
      ],
      "payable": false,
      "stateMutability": "nonpayable",
      "type": "function"
    },
    {
      "constant": false,
      "inputs": [
        {
          "internalType": "bytes",
          "name": "_b",
          "type": "bytes"
        },
        {
          "internalType": "uint256",
          "name": "_off",
          "type": "uint256"
        }
      ],
      "name": "NextByte",
      "outputs": [
        {
          "internalType": "bytes1",
          "name": "",
          "type": "bytes1"
        },
        {
          "internalType": "uint256",
          "name": "",
          "type": "uint256"
        }
      ],
      "payable": false,
      "stateMutability": "nonpayable",
      "type": "function"
    },
    {
      "constant": false,
      "inputs": [
        {
          "internalType": "bytes",
          "name": "_b",
          "type": "bytes"
        },
        {
          "internalType": "uint256",
          "name": "_off",
          "type": "uint256"
        }
      ],
      "name": "NextUint8",
      "outputs": [
        {
          "internalType": "uint8",
          "name": "",
          "type": "uint8"
        },
        {
          "internalType": "uint256",
          "name": "",
          "type": "uint256"
        }
      ],
      "payable": false,
      "stateMutability": "nonpayable",
      "type": "function"
    },
    {
      "constant": false,
      "inputs": [
        {
          "internalType": "bytes",
          "name": "_b",
          "type": "bytes"
        },
        {
          "internalType": "uint256",
          "name": "_off",
          "type": "uint256"
        }
      ],
      "name": "NextUint16",
      "outputs": [
        {
          "internalType": "uint16",
          "name": "",
          "type": "uint16"
        },
        {
          "internalType": "uint256",
          "name": "",
          "type": "uint256"
        }
      ],
      "payable": false,
      "stateMutability": "nonpayable",
      "type": "function"
    },
    {
      "constant": false,
      "inputs": [
        {
          "internalType": "bytes",
          "name": "_b",
          "type": "bytes"
        },
        {
          "internalType": "uint256",
          "name": "_off",
          "type": "uint256"
        }
      ],
      "name": "NextUint32",
      "outputs": [
        {
          "internalType": "uint32",
          "name": "",
          "type": "uint32"
        },
        {
          "internalType": "uint256",
          "name": "",
          "type": "uint256"
        }
      ],
      "payable": false,
      "stateMutability": "nonpayable",
      "type": "function"
    },
    {
      "constant": false,
      "inputs": [
        {
          "internalType": "bytes",
          "name": "_b",
          "type": "bytes"
        },
        {
          "internalType": "uint256",
          "name": "_off",
          "type": "uint256"
        }
      ],
      "name": "NextUint64",
      "outputs": [
        {
          "internalType": "uint64",
          "name": "",
          "type": "uint64"
        },
        {
          "internalType": "uint256",
          "name": "",
          "type": "uint256"
        }
      ],
      "payable": false,
      "stateMutability": "nonpayable",
      "type": "function"
    },
    {
      "constant": false,
      "inputs": [
        {
          "internalType": "bytes",
          "name": "_b",
          "type": "bytes"
        },
        {
          "internalType": "uint256",
          "name": "_off",
          "type": "uint256"
        }
      ],
      "name": "NextVarBytes",
      "outputs": [
        {
          "internalType": "bytes",
          "name": "",
          "type": "bytes"
        },
        {
          "internalType": "uint256",
          "name": "",
          "type": "uint256"
        }
      ],
      "payable": false,
      "stateMutability": "nonpayable",
      "type": "function"
    },
    {
      "constant": false,
      "inputs": [
        {
          "internalType": "bytes",
          "name": "_b",
          "type": "bytes"
        },
        {
          "internalType": "uint256",
          "name": "_off",
          "type": "uint256"
        }
      ],
      "name": "NextHash",
      "outputs": [
        {
          "internalType": "bytes32",
          "name": "",
          "type": "bytes32"
        },
        {
          "internalType": "uint256",
          "name": "",
          "type": "uint256"
        }
      ],
      "payable": false,
      "stateMutability": "nonpayable",
      "type": "function"
    },
    {
      "constant": false,
      "inputs": [
        {
          "internalType": "bytes",
          "name": "_b",
          "type": "bytes"
        },
        {
          "internalType": "uint256",
          "name": "_off",
          "type": "uint256"
        }
      ],
      "name": "NextBytes20",
      "outputs": [
        {
          "internalType": "bytes20",
          "name": "",
          "type": "bytes20"
        },
        {
          "internalType": "uint256",
          "name": "",
          "type": "uint256"
        }
      ],
      "payable": false,
      "stateMutability": "nonpayable",
      "type": "function"
    },
    {
      "constant": false,
      "inputs": [
        {
          "internalType": "bytes",
          "name": "_b",
          "type": "bytes"
        },
        {
          "internalType": "uint256",
          "name": "_off",
          "type": "uint256"
        }
      ],
      "name": "NextUint255",
      "outputs": [
        {
          "internalType": "uint256",
          "name": "",
          "type": "uint256"
        },
        {
          "internalType": "uint256",
          "name": "",
          "type": "uint256"
        }
      ],
      "payable": false,
      "stateMutability": "nonpayable",
      "type": "function"
    },
    {
      "constant": false,
      "inputs": [
        {
          "internalType": "bytes",
          "name": "_b",
          "type": "bytes"
        },
        {
          "internalType": "uint256",
          "name": "_off",
          "type": "uint256"
        }
      ],
      "name": "NextVarUint",
      "outputs": [
        {
          "internalType": "uint256",
          "name": "",
          "type": "uint256"
        },
        {
          "internalType": "uint256",
          "name": "",
          "type": "uint256"
        }
      ],
      "payable": false,
      "stateMutability": "nonpayable",
      "type": "function"
    }
  ],
  "bytecode": "0x6080604052600a60005534801561001557600080fd5b506113d3806100256000396000f3fe608060405234801561001057600080fd5b50600436106100a95760003560e01c80632cbd3f0a116100715780632cbd3f0a146104625780634ec432921461052c578063603a047c14610651578063949c86ab14610720578063c742e36f146107e3578063e8cb69ac14610889576100a9565b806308590c88146100ae5780631ca0457c1461016d5780631e71b5d81461022e578063296b785e146102d45780632c9bce9a14610398575b600080fd5b610154600480360360408110156100c457600080fd5b810190602081018135600160201b8111156100de57600080fd5b8201836020820111156100f057600080fd5b803590602001918460018302840111600160201b8311171561011157600080fd5b91908080601f016020809104026020016040519081016040528093929190818152602001838380828437600092019190915250929550509135925061094f915050565b6040805192835260208301919091528051918290030190f35b6102136004803603604081101561018357600080fd5b810190602081018135600160201b81111561019d57600080fd5b8201836020820111156101af57600080fd5b803590602001918460018302840111600160201b831117156101d057600080fd5b91908080601f0160208091040260200160405190810160405280939291908181526020018383808284376000920191909152509295505091359250610968915050565b60408051921515835260208301919091528051918290030190f35b6101546004803603604081101561024457600080fd5b810190602081018135600160201b81111561025e57600080fd5b82018360208201111561027057600080fd5b803590602001918460018302840111600160201b8311171561029157600080fd5b91908080601f01602080910402602001604051908101604052809392919081815260200183838082843760009201919091525092955050913592506109a7915050565b61037a600480360360408110156102ea57600080fd5b810190602081018135600160201b81111561030457600080fd5b82018360208201111561031657600080fd5b803590602001918460018302840111600160201b8311171561033757600080fd5b91908080601f01602080910402602001604051908101604052809392919081815260200183838082843760009201919091525092955050913592506109b4915050565b6040805161ffff909316835260208301919091528051918290030190f35b61043e600480360360408110156103ae57600080fd5b810190602081018135600160201b8111156103c857600080fd5b8201836020820111156103da57600080fd5b803590602001918460018302840111600160201b831117156103fb57600080fd5b91908080601f01602080910402602001604051908101604052809392919081815260200183838082843760009201919091525092955050913592506109c1915050565b6040805167ffffffffffffffff909316835260208301919091528051918290030190f35b6105086004803603604081101561047857600080fd5b810190602081018135600160201b81111561049257600080fd5b8201836020820111156104a457600080fd5b803590602001918460018302840111600160201b831117156104c557600080fd5b91908080601f01602080910402602001604051908101604052809392919081815260200183838082843760009201919091525092955050913592506109ce915050565b604080516001600160f81b0319909316835260208301919091528051918290030190f35b6105d26004803603604081101561054257600080fd5b810190602081018135600160201b81111561055c57600080fd5b82018360208201111561056e57600080fd5b803590602001918460018302840111600160201b8311171561058f57600080fd5b91908080601f01602080910402602001604051908101604052809392919081815260200183838082843760009201919091525092955050913592506109db915050565b6040518080602001838152602001828103825284818151815260200191508051906020019080838360005b838110156106155781810151838201526020016105fd565b50505050905090810190601f1680156106425780820380516001836020036101000a031916815260200191505b50935050505060405180910390f35b6106f76004803603604081101561066757600080fd5b810190602081018135600160201b81111561068157600080fd5b82018360208201111561069357600080fd5b803590602001918460018302840111600160201b831117156106b457600080fd5b91908080601f01602080910402602001604051908101604052809392919081815260200183838082843760009201919091525092955050913592506109e9915050565b604080516bffffffffffffffffffffffff19909316835260208301919091528051918290030190f35b6107c66004803603604081101561073657600080fd5b810190602081018135600160201b81111561075057600080fd5b82018360208201111561076257600080fd5b803590602001918460018302840111600160201b8311171561078357600080fd5b91908080601f01602080910402602001604051908101604052809392919081815260200183838082843760009201919091525092955050913592506109f6915050565b6040805160ff909316835260208301919091528051918290030190f35b610154600480360360408110156107f957600080fd5b810190602081018135600160201b81111561081357600080fd5b82018360208201111561082557600080fd5b803590602001918460018302840111600160201b8311171561084657600080fd5b91908080601f0160208091040260200160405190810160405280939291908181526020018383808284376000920191909152509295505091359250610a03915050565b61092f6004803603604081101561089f57600080fd5b810190602081018135600160201b8111156108b957600080fd5b8201836020820111156108cb57600080fd5b803590602001918460018302840111600160201b831117156108ec57600080fd5b91908080601f0160208091040260200160405190810160405280939291908181526020018383808284376000920191909152509295505091359250610a10915050565b6040805163ffffffff909316835260208301919091528051918290030190f35b60008061095c8484610a1d565b915091505b9250929050565b6000808080805b600054811161098f576109828787610b1a565b909350915060010161096f565b5061099a8686610b1a565b9350935050509250929050565b60008061095c8484610c0b565b60008061095c8484610e25565b60008061095c8484610eae565b60008061095c8484610f54565b6060600061095c8484610fd2565b60008061095c84846110a5565b60008061095c848461110d565b60008061095c848461118d565b60008061095c8484611207565b60008083518360200111158015610a3657508260200183105b610a715760405162461bcd60e51b81526004018080602001828103825260238152602001806112ae6023913960400191505060405180910390fd5b600060405160206000600182038760208a0101515b83831015610aa65780821a83860153600183019250600182039150610a86565b50505081016040525190506001600160ff1b03811115610b0d576040805162461bcd60e51b815260206004820152601760248201527f56616c75652065786365656473207468652072616e6765000000000000000000604482015290519081900360640190fd5b9460209390930193505050565b60008083518360010111158015610b3357508260010183105b610b7b576040805162461bcd60e51b815260206004820152601460248201527313d9999cd95d08195e18d959591cc81b1a5b5a5d60621b604482015290519081900360640190fd5b838301602001516000600160f81b6001600160f81b031983161415610ba257506001610bfd565b6001600160f81b03198216610bb957506000610bfd565b6040805162461bcd60e51b81526020600482015260146024820152732732bc3a2137b7b6103b30b63ab29032b93937b960611b604482015290519081900360640190fd5b956001949094019450505050565b6000806000610c1a8585610f54565b94509050600060fd60f81b6001600160f81b031983161415610cb857610c408686610e25565b955061ffff16905060fd8110801590610c5b575061ffff8111155b610cac576040805162461bcd60e51b815260206004820152601f60248201527f4e65787455696e7431362c2076616c7565206f7574736964652072616e676500604482015290519081900360640190fd5b92508391506109619050565b607f60f91b6001600160f81b031983161415610d4857610cd88686611207565b955063ffffffff16905061ffff81118015610cf7575063ffffffff8111155b610cac576040805162461bcd60e51b815260206004820181905260248201527f4e65787456617255696e742c2076616c7565206f7574736964652072616e6765604482015290519081900360640190fd5b6001600160f81b03198083161415610dca57610d648686610eae565b955067ffffffffffffffff16905063ffffffff8111610cac576040805162461bcd60e51b815260206004820181905260248201527f4e65787456617255696e742c2076616c7565206f7574736964652072616e6765604482015290519081900360640190fd5b5060f881901c60fd8110610cac576040805162461bcd60e51b815260206004820181905260248201527f4e65787456617255696e742c2076616c7565206f7574736964652072616e6765604482015290519081900360640190fd5b60008083518360020111158015610e3e57508260020183105b610e795760405162461bcd60e51b81526004018080602001828103825260228152602001806113156022913960400191505060405180910390fd5b6000604051846020870101518060011a82538060001a6001830153506002818101604052601d19909101519694019450505050565b60008083518360080111158015610ec757508260080183105b610f025760405162461bcd60e51b81526004018080602001828103825260228152602001806113376022913960400191505060405180910390fd5b600060405160086000600182038760208a0101515b83831015610f375780821a83860153600183019250600182039150610f17565b505050808201604052602003900351956008949094019450505050565b60008083518360010111158015610f6d57508260010183105b610fbe576040805162461bcd60e51b815260206004820181905260248201527f4e657874427974652c204f66667365742065786365656473206d6178696d756d604482015290519081900360640190fd5b505081810160200151600182019250929050565b6060600080610fe18585610c0b565b865190955090915081850111801590610ffb575080840184105b6110365760405162461bcd60e51b815260040180806020018281038252602481526020018061137b6024913960400191505060405180910390fd5b6060811580156110515760405191506020820160405261109b565b6040519150601f8316801560200281840101848101888315602002848c0101015b8183101561108a578051835260209283019201611072565b5050848452601f01601f1916604052505b5095930193505050565b600080835183601401111580156110be57508260140183105b6110f95760405162461bcd60e51b81526004018080602001828103825260238152602001806112d16023913960400191505060405180910390fd5b505081810160200151601482019250929050565b6000808351836001011115801561112657508260010183105b6111615760405162461bcd60e51b81526004018080602001828103825260218152602001806112f46021913960400191505060405180910390fd5b6000604051846020870101518060001a8253506001818101604052601e19909101519694019450505050565b600080835183602001111580156111a657508260200183105b6111f7576040805162461bcd60e51b815260206004820181905260248201527f4e657874486173682c206f66667365742065786365656473206d6178696d756d604482015290519081900360640190fd5b5050602091810182015192910190565b6000808351836004011115801561122057508260040183105b61125b5760405162461bcd60e51b81526004018080602001828103825260228152602001806113596022913960400191505060405180910390fd5b600060405160046000600182038760208a0101515b838310156112905780821a83860153600183019250600182039150611270565b50505080820160405260200390035195600494909401945050505056fe4e65787455696e743235352c206f66667365742065786365656473206d6178696d756d4e657874427974657332302c206f66667365742065786365656473206d6178696d756d4e65787455696e74382c204f66667365742065786365656473206d6178696d756d4e65787455696e7431362c206f66667365742065786365656473206d6178696d756d4e65787455696e7436342c206f66667365742065786365656473206d6178696d756d4e65787455696e7433322c206f66667365742065786365656473206d6178696d756d4e65787456617242797465732c206f66667365742065786365656473206d6178696d756da265627a7a723158208880bc0b8bba0b83ff2c85bf7925af69362c036671cc95ae1e4a3e11e387cb7664736f6c63430005100032",
  "source": "pragma solidity ^0.5.0;\n\nimport \"../../../../contracts/libs/common/ZeroCopySource.sol\";\n\ncontract ZeroCopySourceMock {\n    uint N = 10;\n    function NextBool(bytes memory _b, uint256 _off) public returns (bool, uint256) {\n        bool res;\n        uint256 offset = 0;\n        for (uint i = 0; i <= N; i++) {\n            (res, offset) = ZeroCopySource.NextBool(_b, _off);\n        }\n        return ZeroCopySource.NextBool(_b, _off);\n    }\n\n    function NextByte(bytes memory _b, uint256 _off) public returns (byte, uint256) {\n        return ZeroCopySource.NextByte(_b, _off);\n    }\n\n    function NextUint8(bytes memory _b, uint256 _off) public returns (uint8, uint256) {\n        return ZeroCopySource.NextUint8(_b, _off);\n    }\n\n    function NextUint16(bytes memory _b, uint256 _off) public returns (uint16, uint256) {\n        return ZeroCopySource.NextUint16(_b, _off);\n    }\n\n    function NextUint32(bytes memory _b, uint256 _off) public returns (uint32, uint256) {\n        return ZeroCopySource.NextUint32(_b, _off);\n    }\n\n    function NextUint64(bytes memory _b, uint256 _off) public returns (uint64, uint256) {\n        return ZeroCopySource.NextUint64(_b, _off);\n    }\n\n    function NextVarBytes(bytes memory _b, uint256 _off) public returns (bytes memory, uint256) {\n        return ZeroCopySource.NextVarBytes(_b, _off);\n    }\n\n    function NextHash(bytes memory _b, uint256 _off) public returns (bytes32, uint256) {\n        return ZeroCopySource.NextHash(_b, _off);\n    }\n\n//    function NextAddress(bytes _b, uint256 _off) public pure returns (bytes20, uint256) {\n//        return ZeroCopySource.NextAddress(_b, _off);\n//    }\n\n    function NextBytes20(bytes memory _b, uint256 _off) public returns (bytes20, uint256) {\n        return ZeroCopySource.NextBytes20(_b, _off);\n    }\n\n    function NextUint255(bytes memory _b, uint256 _off) public returns (uint256, uint256) {\n        return ZeroCopySource.NextUint255(_b, _off);\n    }\n    function NextVarUint(bytes memory _b, uint256 _off) public returns (uint, uint256) {\n        return ZeroCopySource.NextVarUint(_b, _off);\n    }\n}\n",
  "sourcePath": "/Users/user/Desktop/hashport/eth-contracts/contracts/mocks/libs/common/ZeroCopySourceMock.sol",
  "compiler": {
    "name": "solc",
    "version": "0.5.16+commit.9c3226ce.Emscripten.clang"
  },
  "schemaVersion": "3.4.5",
  "updatedAt": "2022-03-02T01:41:58.716Z",
  "networkType": "ethereum",
  "devdoc": {
    "methods": {}
  },
  "userdoc": {
    "methods": {}
  }
}