{
  "contractName": "ZeroCopySinkMock",
  "abi": [
    {
      "constant": false,
      "inputs": [
        {
          "internalType": "bool",
          "name": "_b",
          "type": "bool"
        }
      ],
      "name": "WriteBool",
      "outputs": [
        {
          "internalType": "bytes",
          "name": "",
          "type": "bytes"
        }
      ],
      "payable": false,
      "stateMutability": "nonpayable",
      "type": "function"
    },
    {
      "constant": false,
      "inputs": [
        {
          "internalType": "bytes1",
          "name": "_b",
          "type": "bytes1"
        }
      ],
      "name": "WriteByte",
      "outputs": [
        {
          "internalType": "bytes",
          "name": "",
          "type": "bytes"
        }
      ],
      "payable": false,
      "stateMutability": "nonpayable",
      "type": "function"
    },
    {
      "constant": false,
      "inputs": [
        {
          "internalType": "uint8",
          "name": "_v",
          "type": "uint8"
        }
      ],
      "name": "WriteUint8",
      "outputs": [
        {
          "internalType": "bytes",
          "name": "",
          "type": "bytes"
        }
      ],
      "payable": false,
      "stateMutability": "nonpayable",
      "type": "function"
    },
    {
      "constant": false,
      "inputs": [
        {
          "internalType": "uint16",
          "name": "_v",
          "type": "uint16"
        }
      ],
      "name": "WriteUint16",
      "outputs": [
        {
          "internalType": "bytes",
          "name": "",
          "type": "bytes"
        }
      ],
      "payable": false,
      "stateMutability": "nonpayable",
      "type": "function"
    },
    {
      "constant": false,
      "inputs": [
        {
          "internalType": "uint32",
          "name": "_v",
          "type": "uint32"
        }
      ],
      "name": "WriteUint32",
      "outputs": [
        {
          "internalType": "bytes",
          "name": "",
          "type": "bytes"
        }
      ],
      "payable": false,
      "stateMutability": "nonpayable",
      "type": "function"
    },
    {
      "constant": false,
      "inputs": [
        {
          "internalType": "uint64",
          "name": "_v",
          "type": "uint64"
        }
      ],
      "name": "WriteUint64",
      "outputs": [
        {
          "internalType": "bytes",
          "name": "",
          "type": "bytes"
        }
      ],
      "payable": false,
      "stateMutability": "nonpayable",
      "type": "function"
    },
    {
      "constant": false,
      "inputs": [
        {
          "internalType": "uint256",
          "name": "_v",
          "type": "uint256"
        }
      ],
      "name": "WriteUint255",
      "outputs": [
        {
          "internalType": "bytes",
          "name": "",
          "type": "bytes"
        }
      ],
      "payable": false,
      "stateMutability": "nonpayable",
      "type": "function"
    },
    {
      "constant": false,
      "inputs": [
        {
          "internalType": "bytes",
          "name": "_b",
          "type": "bytes"
        }
      ],
      "name": "WriteVarBytes",
      "outputs": [
        {
          "internalType": "bytes",
          "name": "",
          "type": "bytes"
        }
      ],
      "payable": false,
      "stateMutability": "nonpayable",
      "type": "function"
    },
    {
      "constant": false,
      "inputs": [
        {
          "internalType": "uint64",
          "name": "_v",
          "type": "uint64"
        }
      ],
      "name": "WriteVarUint",
      "outputs": [
        {
          "internalType": "bytes",
          "name": "",
          "type": "bytes"
        }
      ],
      "payable": false,
      "stateMutability": "nonpayable",
      "type": "function"
    }
  ],
  "bytecode": "0x6080604052600a60005534801561001557600080fd5b50610872806100256000396000f3fe608060405234801561001057600080fd5b50600436106100935760003560e01c80638d01c82d116100665780638d01c82d14610192578063ad744baa146101b9578063ed870b0a1461025f578063ede1e19614610286578063f8a31910146102a957610093565b80631e07d54b1461009857806347781c51146101345780637a38b5d71461015457806386663c7b14610175575b600080fd5b6100bf600480360360208110156100ae57600080fd5b503567ffffffffffffffff166102c8565b6040805160208082528351818301528351919283929083019185019080838360005b838110156100f95781810151838201526020016100e1565b50505050905090810190601f1680156101265780820380516001836020036101000a031916815260200191505b509250505060405180910390f35b6100bf6004803603602081101561014a57600080fd5b503560ff166102fd565b6100bf6004803603602081101561016a57600080fd5b503561ffff16610329565b6100bf6004803603602081101561018b57600080fd5b5035610355565b6100bf600480360360208110156101a857600080fd5b503567ffffffffffffffff16610381565b6100bf600480360360208110156101cf57600080fd5b8101906020810181356401000000008111156101ea57600080fd5b8201836020820111156101fc57600080fd5b8035906020019184600183028401116401000000008311171561021e57600080fd5b91908080601f0160208091040260200160405190810160405280939291908181526020018383808284376000920191909152509295506103ad945050505050565b6100bf6004803603602081101561027557600080fd5b50356001600160f81b0319166103d9565b6100bf6004803603602081101561029c57600080fd5b503563ffffffff16610405565b6100bf600480360360208110156102bf57600080fd5b50351515610431565b60608060005b60005481116102ea576102e08461045d565b91506001016102ce565b506102f48361045d565b9150505b919050565b60608060005b600054811161031f57610315846104a0565b9150600101610303565b506102f4836104a0565b60608060005b600054811161034b57610341846104bc565b915060010161032f565b506102f4836104bc565b60608060005b60005481116103775761036d846104ff565b915060010161035b565b506102f4836104ff565b60608060005b60005481116103a3576103998461059c565b9150600101610387565b506102f48361059c565b60608060005b60005481116103cf576103c5846106e5565b91506001016103b3565b506102f4836106e5565b60608060005b60005481116103fb576103f1846107ab565b91506001016103df565b506102f4836107ab565b60608060005b60005481116104275761041d846107bf565b915060010161040b565b506102f4836107bf565b60608060005b60005481116104535761044984610802565b9150600101610437565b506102f483610802565b6040516008808252606091906000601f5b828210156104905785811a82602086010153600191909101906000190161046e565b5050506028810160405292915050565b604080516001815260f89290921b602083015260218201905290565b6040516002808252606091906000601f5b828210156104ef5785811a8260208601015360019190910190600019016104cd565b5050506022810160405292915050565b60606001600160ff1b0382111561055d576040805162461bcd60e51b815260206004820152601b60248201527f56616c756520657863656564732075696e743235352072616e67650000000000604482015290519081900360640190fd5b60405160208082526000601f5b8282101561058c5785811a82602086010153600191909101906000190161056a565b5050506040818101905292915050565b606060fd8267ffffffffffffffff1610156105c1576105ba826104a0565b90506102f8565b61ffff8267ffffffffffffffff16116106a0576105e160fd60f81b6107ab565b6105ea836104bc565b6040516020018083805190602001908083835b6020831061061c5780518252601f1990920191602091820191016105fd565b51815160209384036101000a600019018019909216911617905285519190930192850191508083835b602083106106645780518252601f199092019160209182019101610645565b6001836020036101000a0380198251168184511680821785525050505050509050019250505060405160208183030381529060405290506102f8565b63ffffffff8267ffffffffffffffff16116106cb576106c2607f60f91b6107ab565b6105ea836107bf565b6106dc6001600160f81b03196107ab565b6105ea8361045d565b80516060906106f38161059c565b836040516020018083805190602001908083835b602083106107265780518252601f199092019160209182019101610707565b51815160209384036101000a600019018019909216911617905285519190930192850191508083835b6020831061076e5780518252601f19909201916020918201910161074f565b6001836020036101000a03801982511681845116808217855250505050505090500192505050604051602081830303815290604052915050919050565b60606107b98260f81c6104a0565b92915050565b6040516004808252606091906000601f5b828210156107f25785811a8260208601015360019190910190600019016107d0565b5050506024810160405292915050565b60608060405190506001815282156001811461082757600160f81b602083015261082f565b600060208301525b50602181016040529291505056fea265627a7a72315820d07b458d9d9bd31c6b0f66f92cff030ab0ba756f560d297c6c8db9c974dcdbb964736f6c63430005100032",
  "source": "pragma solidity ^0.5.0;\n\nimport \"../../../../contracts/libs/common/ZeroCopySink.sol\";\n\ncontract ZeroCopySinkMock {\n    uint N = 10;\n    function WriteBool(bool _b) public returns (bytes memory) {\n        bytes memory executeResult;\n        for (uint i = 0; i <= N; i++) {\n            executeResult = ZeroCopySink.WriteBool(_b);\n        }\n        return ZeroCopySink.WriteBool(_b);\n    }\n\n    function WriteByte(byte _b) public returns (bytes memory) {\n        bytes memory executeResult;\n        for (uint i = 0; i <= N; i++) {\n            executeResult = ZeroCopySink.WriteByte(_b);\n        }\n        return ZeroCopySink.WriteByte(_b);\n    }\n\n    function WriteUint8(uint8 _v) public returns (bytes memory) {\n        bytes memory executeResult;\n        for (uint i = 0; i <= N; i++) {\n            executeResult = ZeroCopySink.WriteUint8(_v);\n        }\n        return ZeroCopySink.WriteUint8(_v);\n    }\n\n    function WriteUint16(uint16 _v) public returns (bytes memory) {\n        bytes memory executeResult;\n        for (uint i = 0; i <= N; i++) {\n            executeResult = ZeroCopySink.WriteUint16(_v);\n        }\n        return ZeroCopySink.WriteUint16(_v);\n    }\n\n    function WriteUint32(uint32 _v) public returns (bytes memory) {\n        bytes memory executeResult;\n        for (uint i = 0; i <= N; i++) {\n            executeResult = ZeroCopySink.WriteUint32(_v);\n        }\n        return ZeroCopySink.WriteUint32(_v);\n    }\n\n    function WriteUint64(uint64 _v) public returns (bytes memory) {\n        bytes memory executeResult;\n        for (uint i = 0; i <= N; i++) {\n            executeResult = ZeroCopySink.WriteUint64(_v);\n        }\n        return ZeroCopySink.WriteUint64(_v);\n    }\n    function WriteUint255(uint256 _v) public returns (bytes memory) {\n        bytes memory executeResult;\n        for (uint i = 0; i <= N; i++) {\n            executeResult = ZeroCopySink.WriteUint255(_v);\n        }\n        return ZeroCopySink.WriteUint255(_v);\n    }\n\n    function WriteVarBytes(bytes memory _b) public returns (bytes memory) {\n        bytes memory executeResult;\n        for (uint i = 0; i <= N; i++) {\n            executeResult = ZeroCopySink.WriteVarBytes(_b);\n        }\n        return ZeroCopySink.WriteVarBytes(_b);\n    }\n\n    function WriteVarUint(uint64 _v) public returns (bytes memory) {\n        bytes memory executeResult;\n        for (uint i = 0; i <= N; i++) {\n            executeResult = ZeroCopySink.WriteVarUint(_v);\n        }\n        return ZeroCopySink.WriteVarUint(_v);\n    }\n}\n",
  "sourcePath": "/Users/user/Desktop/hashport/eth-contracts/contracts/mocks/libs/common/ZeroCopySinkMock.sol",
  "compiler": {
    "name": "solc",
    "version": "0.5.16+commit.9c3226ce.Emscripten.clang"
  },
  "schemaVersion": "3.4.5",
  "updatedAt": "2022-03-02T01:41:58.711Z",
  "networkType": "ethereum",
  "devdoc": {
    "methods": {}
  },
  "userdoc": {
    "methods": {}
  }
}